{"project/contracts/SmartRouter.sol":{"SmartRouter":{"abi":[{"inputs":[],"stateMutability":"nonpayable","type":"constructor"},{"inputs":[],"name":"AllowancePeriodNotMet","type":"error"},{"inputs":[],"name":"InsufficientLockedShares","type":"error"},{"inputs":[],"name":"InsufficientTreasuryShares","type":"error"},{"inputs":[],"name":"InvalidInitialization","type":"error"},{"inputs":[],"name":"InvalidPercentages","type":"error"},{"inputs":[],"name":"NotInitializing","type":"error"},{"inputs":[{"internalType":"address","name":"token","type":"address"}],"name":"SafeERC20FailedOperation","type":"error"},{"inputs":[],"name":"Unauthorized","type":"error"},{"inputs":[],"name":"VaultNotSupported","type":"error"},{"anonymous":false,"inputs":[{"indexed":true,"internalType":"address","name":"token","type":"address"},{"indexed":false,"internalType":"uint256","name":"amountClaimed","type":"uint256"},{"indexed":false,"internalType":"uint256","name":"sharesBurned","type":"uint256"}],"name":"AllowanceClaimed","type":"event"},{"anonymous":false,"inputs":[{"indexed":false,"internalType":"uint64","name":"version","type":"uint64"}],"name":"Initialized","type":"event"},{"anonymous":false,"inputs":[{"indexed":true,"internalType":"address","name":"token","type":"address"},{"indexed":false,"internalType":"uint256","name":"totalAmount","type":"uint256"},{"indexed":false,"internalType":"uint256","name":"operatingAmount","type":"uint256"},{"indexed":false,"internalType":"uint256","name":"treasurySharesMinted","type":"uint256"},{"indexed":false,"internalType":"uint256","name":"lockedSharesMinted","type":"uint256"}],"name":"PaymentProcessed","type":"event"},{"anonymous":false,"inputs":[{"indexed":false,"internalType":"uint256","name":"operatingPct","type":"uint256"},{"indexed":false,"internalType":"uint256","name":"treasuryPct","type":"uint256"},{"indexed":false,"internalType":"uint256","name":"lockedPct","type":"uint256"},{"indexed":false,"internalType":"uint256","name":"allowanceAmount","type":"uint256"},{"indexed":false,"internalType":"uint256","name":"allowancePeriod","type":"uint256"}],"name":"SettingsUpdated","type":"event"},{"anonymous":false,"inputs":[{"indexed":true,"internalType":"address","name":"token","type":"address"},{"indexed":false,"internalType":"uint256","name":"amountWithdrawn","type":"uint256"},{"indexed":false,"internalType":"uint256","name":"sharesBurned","type":"uint256"}],"name":"TreasuryWithdrawn","type":"event"},{"inputs":[],"name":"allowanceAmount","outputs":[{"internalType":"uint256","name":"","type":"uint256"}],"stateMutability":"view","type":"function"},{"inputs":[],"name":"allowancePeriod","outputs":[{"internalType":"uint256","name":"","type":"uint256"}],"stateMutability":"view","type":"function"},{"inputs":[{"internalType":"address","name":"token","type":"address"}],"name":"claimAllowance","outputs":[],"stateMutability":"nonpayable","type":"function"},{"inputs":[],"name":"factory","outputs":[{"internalType":"address","name":"","type":"address"}],"stateMutability":"view","type":"function"},{"inputs":[{"internalType":"address","name":"_owner","type":"address"},{"internalType":"address","name":"_factory","type":"address"},{"internalType":"uint256","name":"_operatingPct","type":"uint256"},{"internalType":"uint256","name":"_treasuryPct","type":"uint256"},{"internalType":"uint256","name":"_lockedPct","type":"uint256"},{"internalType":"uint256","name":"_allowanceAmount","type":"uint256"},{"internalType":"uint256","name":"_allowancePeriod","type":"uint256"}],"name":"initialize","outputs":[],"stateMutability":"nonpayable","type":"function"},{"inputs":[],"name":"lastAllowanceRelease","outputs":[{"internalType":"uint256","name":"","type":"uint256"}],"stateMutability":"view","type":"function"},{"inputs":[],"name":"lockedPct","outputs":[{"internalType":"uint256","name":"","type":"uint256"}],"stateMutability":"view","type":"function"},{"inputs":[],"name":"lockedShares","outputs":[{"internalType":"uint256","name":"","type":"uint256"}],"stateMutability":"view","type":"function"},{"inputs":[],"name":"operatingPct","outputs":[{"internalType":"uint256","name":"","type":"uint256"}],"stateMutability":"view","type":"function"},{"inputs":[],"name":"owner","outputs":[{"internalType":"address","name":"","type":"address"}],"stateMutability":"view","type":"function"},{"inputs":[{"internalType":"address","name":"token","type":"address"}],"name":"processPayment","outputs":[],"stateMutability":"nonpayable","type":"function"},{"inputs":[],"name":"treasuryPct","outputs":[{"internalType":"uint256","name":"","type":"uint256"}],"stateMutability":"view","type":"function"},{"inputs":[],"name":"treasuryShares","outputs":[{"internalType":"uint256","name":"","type":"uint256"}],"stateMutability":"view","type":"function"},{"inputs":[{"internalType":"uint256","name":"_operatingPct","type":"uint256"},{"internalType":"uint256","name":"_treasuryPct","type":"uint256"},{"internalType":"uint256","name":"_lockedPct","type":"uint256"},{"internalType":"uint256","name":"_allowanceAmount","type":"uint256"},{"internalType":"uint256","name":"_allowancePeriod","type":"uint256"}],"name":"updateSettings","outputs":[],"stateMutability":"nonpayable","type":"function"},{"inputs":[{"internalType":"address","name":"token","type":"address"},{"internalType":"uint256","name":"amount","type":"uint256"}],"name":"withdrawTreasury","outputs":[],"stateMutability":"nonpayable","type":"function"}],"evm":{"bytecode":{"linkReferences":{},"object":"6080604052348015600e575f5ffd5b5060156019565b60c9565b7ff0c57e16840df040f15088dc2f81fe391c3923bec73e23a9662efc9c229c6a00805468010000000000000000900460ff161560685760405163f92ee8a960e01b815260040160405180910390fd5b80546001600160401b039081161460c65780546001600160401b0319166001600160401b0390811782556040519081527fc7f505b2f371ae2175ee4913f4499e1f2633a7b5936321eed1cdaeb6115181d29060200160405180910390a15b50565b610f66806100d65f395ff3fe608060405234801561000f575f5ffd5b50600436106100f0575f3560e01c8063943f213f11610093578063baec8b0f11610063578063baec8b0f146101b5578063c45a0155146101be578063e95502fb146101d1578063edbf4ac2146101da575f5ffd5b8063943f213f146101915780639981f5f31461019a578063aab3ab95146101a3578063acd78de4146101ac575f5ffd5b806339382ab9116100ce57806339382ab91461013857806356137a5e146101415780638da5cb5b146101545780638fe123d71461017e575f5ffd5b80630d86419a146100f457806330c2c3b914610109578063375d69df1461011c575b5f5ffd5b610107610102366004610dae565b6101ed565b005b610107610117366004610dd8565b610437565b61012560055481565b6040519081526020015b60405180910390f35b61012560045481565b61010761014f366004610e0f565b610505565b5f54610166906001600160a01b031681565b6040516001600160a01b03909116815260200161012f565b61010761018c366004610e0f565b610758565b61012560075481565b61012560035481565b61012560065481565b61012560025481565b61012560085481565b600154610166906001600160a01b031681565b61012560095481565b6101076101e8366004610e31565b610a2f565b5f546001600160a01b03163314610216576040516282b42960e81b815260040160405180910390fd5b6001546040516301d735e760e31b81526001600160a01b0384811660048301525f921690630eb9af3890602401602060405180830381865afa15801561025e573d5f5f3e3d5ffd5b505050506040513d601f19601f820116820180604052508101906102829190610e8e565b90506001600160a01b0381166102ab57604051630434df1960e51b815260040160405180910390fd5b805f600184016102be575060085461034a565b604051630a28a47760e01b8152600481018590526001600160a01b03831690630a28a47790602401602060405180830381865afa158015610301573d5f5f3e3d5ffd5b505050506040513d601f19601f820116820180604052508101906103259190610ea9565b905060085481111561034a576040516335389bb760e21b815260040160405180910390fd5b805f03610358575050505050565b8060085f8282546103699190610ed4565b90915550505f8054604051635d043b2960e11b8152600481018490526001600160a01b0391821660248201523060448201529084169063ba087652906064016020604051808303815f875af11580156103c4573d5f5f3e3d5ffd5b505050506040513d601f19601f820116820180604052508101906103e89190610ea9565b60408051828152602081018590529192506001600160a01b038816917fca7c146a476020a9685b6af4c572d3e244456e8d02dad016e5ed59ff64a2fdd9910160405180910390a2505050505050565b5f546001600160a01b03163314610460576040516282b42960e81b815260040160405180910390fd5b8261046b8587610ee7565b6104759190610ee7565b6127101461049657604051636d2fd3c960e01b815260040160405180910390fd5b60028590556003849055600483905560058290556006819055604080518681526020810186905290810184905260608101839052608081018290527fab98f6a91485c352fb01422a5fe72d10488727444633a4110d7716c51d5117719060a00160405180910390a15050505050565b6006546007546105159190610ee7565b42101561053557604051630529bc3360e11b815260040160405180910390fd5b6005545f036105415750565b6001546040516301d735e760e31b81526001600160a01b0383811660048301525f921690630eb9af3890602401602060405180830381865afa158015610589573d5f5f3e3d5ffd5b505050506040513d601f19601f820116820180604052508101906105ad9190610e8e565b90506001600160a01b0381166105d657604051630434df1960e51b815260040160405180910390fd5b600554604051630a28a47760e01b8152600481019190915281905f906001600160a01b03831690630a28a47790602401602060405180830381865afa158015610621573d5f5f3e3d5ffd5b505050506040513d601f19601f820116820180604052508101906106459190610ea9565b905060095481111561065657506009545b805f03610676576040516389206fd560e01b815260040160405180910390fd5b8060095f8282546106879190610ed4565b9091555050426007555f8054604051635d043b2960e11b8152600481018490526001600160a01b0391821660248201523060448201529084169063ba087652906064016020604051808303815f875af11580156106e6573d5f5f3e3d5ffd5b505050506040513d601f19601f8201168201806040525081019061070a9190610ea9565b60408051828152602081018590529192506001600160a01b038716917fe7cc88d9e42671078205d391c6b754aea00a5faa1d2e50ded3f7139500f2f98c910160405180910390a25050505050565b6040516370a0823160e01b81523060048201525f906001600160a01b038316906370a0823190602401602060405180830381865afa15801561079c573d5f5f3e3d5ffd5b505050506040513d601f19601f820116820180604052508101906107c09190610ea9565b9050805f036107cd575050565b5f612710600254836107df9190610efa565b6107e99190610f11565b90505f612710600354846107fd9190610efa565b6108079190610f11565b90505f816108158486610ed4565b61081f9190610ed4565b90508215610840575f54610840906001600160a01b03878116911685610ba7565b5f61084b8284610ee7565b90505f8082156109d2576001546040516301d735e760e31b81526001600160a01b038a811660048301525f921690630eb9af3890602401602060405180830381865afa15801561089d573d5f5f3e3d5ffd5b505050506040513d601f19601f820116820180604052508101906108c19190610e8e565b90506001600160a01b0381166108ea57604051630434df1960e51b815260040160405180910390fd5b806108ff6001600160a01b038b168287610be6565b604051636e553f6560e01b8152600481018690523060248201525f906001600160a01b03831690636e553f65906044016020604051808303815f875af115801561094b573d5f5f3e3d5ffd5b505050506040513d601f19601f8201168201806040525081019061096f9190610ea9565b905087156109a557856109828983610efa565b61098c9190610f11565b94508460085f82825461099f9190610ee7565b90915550505b86156109ce576109b58582610ed4565b93508360095f8282546109c89190610ee7565b90915550505b5050505b6040805188815260208101889052908101839052606081018290526001600160a01b038916907ff2c7c61aab9019a0417876fee95ea2ce79b2da32f8f2b41271429475b2cf4c239060800160405180910390a25050505050505050565b5f610a38610c73565b805490915060ff600160401b820416159067ffffffffffffffff165f81158015610a5f5750825b90505f8267ffffffffffffffff166001148015610a7b5750303b155b905081158015610a89575080155b15610aa75760405163f92ee8a960e01b815260040160405180910390fd5b845467ffffffffffffffff191660011785558315610ad157845460ff60401b1916600160401b1785555b5f80546001600160a01b03808f166001600160a01b03199283161790925560018054928e169290911691909117905587610b0b8a8c610ee7565b610b159190610ee7565b61271014610b3657604051636d2fd3c960e01b815260040160405180910390fd5b60028a90556003899055600488905560058790556006869055426007558315610b9957845460ff60401b19168555604051600181527fc7f505b2f371ae2175ee4913f4499e1f2633a7b5936321eed1cdaeb6115181d29060200160405180910390a15b505050505050505050505050565b610bb48383836001610c9d565b610be157604051635274afe760e01b81526001600160a01b03841660048201526024015b60405180910390fd5b505050565b604051636eb1769f60e11b81523060048201526001600160a01b0383811660248301525f919085169063dd62ed3e90604401602060405180830381865afa158015610c33573d5f5f3e3d5ffd5b505050506040513d601f19601f82011682018060405250810190610c579190610ea9565b9050610c6d8484610c688585610ee7565b610cff565b50505050565b5f807ff0c57e16840df040f15088dc2f81fe391c3923bec73e23a9662efc9c229c6a005b92915050565b60405163a9059cbb60e01b5f8181526001600160a01b038616600452602485905291602083604481808b5af1925060015f51148316610cf3578383151615610ce7573d5f823e3d81fd5b5f873b113d1516831692505b60405250949350505050565b610d0b8383835f610d4d565b610be157610d1c83835f6001610d4d565b610d4457604051635274afe760e01b81526001600160a01b0384166004820152602401610bd8565b610bb483838360015b60405163095ea7b360e01b5f8181526001600160a01b038616600452602485905291602083604481808b5af1925060015f51148316610cf3578383151615610ce7573d5f823e3d81fd5b6001600160a01b0381168114610dab575f5ffd5b50565b5f5f60408385031215610dbf575f5ffd5b8235610dca81610d97565b946020939093013593505050565b5f5f5f5f5f60a08688031215610dec575f5ffd5b505083359560208501359550604085013594606081013594506080013592509050565b5f60208284031215610e1f575f5ffd5b8135610e2a81610d97565b9392505050565b5f5f5f5f5f5f5f60e0888a031215610e47575f5ffd5b8735610e5281610d97565b96506020880135610e6281610d97565b96999698505050506040850135946060810135946080820135945060a0820135935060c0909101359150565b5f60208284031215610e9e575f5ffd5b8151610e2a81610d97565b5f60208284031215610eb9575f5ffd5b5051919050565b634e487b7160e01b5f52601160045260245ffd5b81810381811115610c9757610c97610ec0565b80820180821115610c9757610c97610ec0565b8082028115828204841417610c9757610c97610ec0565b5f82610f2b57634e487b7160e01b5f52601260045260245ffd5b50049056fea264697066735822122083d3d7d2c5eff89e0df73577c3c730c440de915206b2a25f45fe8a64ed15d2f364736f6c634300081c0033","opcodes":"PUSH1 0x80 PUSH1 0x40 MSTORE CALLVALUE DUP1 ISZERO PUSH1 0xE JUMPI PUSH0 PUSH0 REVERT JUMPDEST POP PUSH1 0x15 PUSH1 0x19 JUMP JUMPDEST PUSH1 0xC9 JUMP JUMPDEST PUSH32 0xF0C57E16840DF040F15088DC2F81FE391C3923BEC73E23A9662EFC9C229C6A00 DUP1 SLOAD PUSH9 0x10000000000000000 SWAP1 DIV PUSH1 0xFF AND ISZERO PUSH1 0x68 JUMPI PUSH1 0x40 MLOAD PUSH4 0xF92EE8A9 PUSH1 0xE0 SHL DUP2 MSTORE PUSH1 0x4 ADD PUSH1 0x40 MLOAD DUP1 SWAP2 SUB SWAP1 REVERT JUMPDEST DUP1 SLOAD PUSH1 0x1 PUSH1 0x1 PUSH1 0x40 SHL SUB SWAP1 DUP2 AND EQ PUSH1 0xC6 JUMPI DUP1 SLOAD PUSH1 0x1 PUSH1 0x1 PUSH1 0x40 SHL SUB NOT AND PUSH1 0x1 PUSH1 0x1 PUSH1 0x40 SHL SUB SWAP1 DUP2 OR DUP3 SSTORE PUSH1 0x40 MLOAD SWAP1 DUP2 MSTORE PUSH32 0xC7F505B2F371AE2175EE4913F4499E1F2633A7B5936321EED1CDAEB6115181D2 SWAP1 PUSH1 0x20 ADD PUSH1 0x40 MLOAD DUP1 SWAP2 SUB SWAP1 LOG1 JUMPDEST POP JUMP JUMPDEST PUSH2 0xF66 DUP1 PUSH2 0xD6 PUSH0 CODECOPY PUSH0 RETURN INVALID PUSH1 0x80 PUSH1 0x40 MSTORE CALLVALUE DUP1 ISZERO PUSH2 0xF JUMPI PUSH0 PUSH0 REVERT JUMPDEST POP PUSH1 0x4 CALLDATASIZE LT PUSH2 0xF0 JUMPI PUSH0 CALLDATALOAD PUSH1 0xE0 SHR DUP1 PUSH4 0x943F213F GT PUSH2 0x93 JUMPI DUP1 PUSH4 0xBAEC8B0F GT PUSH2 0x63 JUMPI DUP1 PUSH4 0xBAEC8B0F EQ PUSH2 0x1B5 JUMPI DUP1 PUSH4 0xC45A0155 EQ PUSH2 0x1BE JUMPI DUP1 PUSH4 0xE95502FB EQ PUSH2 0x1D1 JUMPI DUP1 PUSH4 0xEDBF4AC2 EQ PUSH2 0x1DA JUMPI PUSH0 PUSH0 REVERT JUMPDEST DUP1 PUSH4 0x943F213F EQ PUSH2 0x191 JUMPI DUP1 PUSH4 0x9981F5F3 EQ PUSH2 0x19A JUMPI DUP1 PUSH4 0xAAB3AB95 EQ PUSH2 0x1A3 JUMPI DUP1 PUSH4 0xACD78DE4 EQ PUSH2 0x1AC JUMPI PUSH0 PUSH0 REVERT JUMPDEST DUP1 PUSH4 0x39382AB9 GT PUSH2 0xCE JUMPI DUP1 PUSH4 0x39382AB9 EQ PUSH2 0x138 JUMPI DUP1 PUSH4 0x56137A5E EQ PUSH2 0x141 JUMPI DUP1 PUSH4 0x8DA5CB5B EQ PUSH2 0x154 JUMPI DUP1 PUSH4 0x8FE123D7 EQ PUSH2 0x17E JUMPI PUSH0 PUSH0 REVERT JUMPDEST DUP1 PUSH4 0xD86419A EQ PUSH2 0xF4 JUMPI DUP1 PUSH4 0x30C2C3B9 EQ PUSH2 0x109 JUMPI DUP1 PUSH4 0x375D69DF EQ PUSH2 0x11C JUMPI JUMPDEST PUSH0 PUSH0 REVERT JUMPDEST PUSH2 0x107 PUSH2 0x102 CALLDATASIZE PUSH1 0x4 PUSH2 0xDAE JUMP JUMPDEST PUSH2 0x1ED JUMP JUMPDEST STOP JUMPDEST PUSH2 0x107 PUSH2 0x117 CALLDATASIZE PUSH1 0x4 PUSH2 0xDD8 JUMP JUMPDEST PUSH2 0x437 JUMP JUMPDEST PUSH2 0x125 PUSH1 0x5 SLOAD DUP2 JUMP JUMPDEST PUSH1 0x40 MLOAD SWAP1 DUP2 MSTORE PUSH1 0x20 ADD JUMPDEST PUSH1 0x40 MLOAD DUP1 SWAP2 SUB SWAP1 RETURN JUMPDEST PUSH2 0x125 PUSH1 0x4 SLOAD DUP2 JUMP JUMPDEST PUSH2 0x107 PUSH2 0x14F CALLDATASIZE PUSH1 0x4 PUSH2 0xE0F JUMP JUMPDEST PUSH2 0x505 JUMP JUMPDEST PUSH0 SLOAD PUSH2 0x166 SWAP1 PUSH1 0x1 PUSH1 0x1 PUSH1 0xA0 SHL SUB AND DUP2 JUMP JUMPDEST PUSH1 0x40 MLOAD PUSH1 0x1 PUSH1 0x1 PUSH1 0xA0 SHL SUB SWAP1 SWAP2 AND DUP2 MSTORE PUSH1 0x20 ADD PUSH2 0x12F JUMP JUMPDEST PUSH2 0x107 PUSH2 0x18C CALLDATASIZE PUSH1 0x4 PUSH2 0xE0F JUMP JUMPDEST PUSH2 0x758 JUMP JUMPDEST PUSH2 0x125 PUSH1 0x7 SLOAD DUP2 JUMP JUMPDEST PUSH2 0x125 PUSH1 0x3 SLOAD DUP2 JUMP JUMPDEST PUSH2 0x125 PUSH1 0x6 SLOAD DUP2 JUMP JUMPDEST PUSH2 0x125 PUSH1 0x2 SLOAD DUP2 JUMP JUMPDEST PUSH2 0x125 PUSH1 0x8 SLOAD DUP2 JUMP JUMPDEST PUSH1 0x1 SLOAD PUSH2 0x166 SWAP1 PUSH1 0x1 PUSH1 0x1 PUSH1 0xA0 SHL SUB AND DUP2 JUMP JUMPDEST PUSH2 0x125 PUSH1 0x9 SLOAD DUP2 JUMP JUMPDEST PUSH2 0x107 PUSH2 0x1E8 CALLDATASIZE PUSH1 0x4 PUSH2 0xE31 JUMP JUMPDEST PUSH2 0xA2F JUMP JUMPDEST PUSH0 SLOAD PUSH1 0x1 PUSH1 0x1 PUSH1 0xA0 SHL SUB AND CALLER EQ PUSH2 0x216 JUMPI PUSH1 0x40 MLOAD PUSH3 0x82B429 PUSH1 0xE8 SHL DUP2 MSTORE PUSH1 0x4 ADD PUSH1 0x40 MLOAD DUP1 SWAP2 SUB SWAP1 REVERT JUMPDEST PUSH1 0x1 SLOAD PUSH1 0x40 MLOAD PUSH4 0x1D735E7 PUSH1 0xE3 SHL DUP2 MSTORE PUSH1 0x1 PUSH1 0x1 PUSH1 0xA0 SHL SUB DUP5 DUP2 AND PUSH1 0x4 DUP4 ADD MSTORE PUSH0 SWAP3 AND SWAP1 PUSH4 0xEB9AF38 SWAP1 PUSH1 0x24 ADD PUSH1 0x20 PUSH1 0x40 MLOAD DUP1 DUP4 SUB DUP2 DUP7 GAS STATICCALL ISZERO DUP1 ISZERO PUSH2 0x25E JUMPI RETURNDATASIZE PUSH0 PUSH0 RETURNDATACOPY RETURNDATASIZE PUSH0 REVERT JUMPDEST POP POP POP POP PUSH1 0x40 MLOAD RETURNDATASIZE PUSH1 0x1F NOT PUSH1 0x1F DUP3 ADD AND DUP3 ADD DUP1 PUSH1 0x40 MSTORE POP DUP2 ADD SWAP1 PUSH2 0x282 SWAP2 SWAP1 PUSH2 0xE8E JUMP JUMPDEST SWAP1 POP PUSH1 0x1 PUSH1 0x1 PUSH1 0xA0 SHL SUB DUP2 AND PUSH2 0x2AB JUMPI PUSH1 0x40 MLOAD PUSH4 0x434DF19 PUSH1 0xE5 SHL DUP2 MSTORE PUSH1 0x4 ADD PUSH1 0x40 MLOAD DUP1 SWAP2 SUB SWAP1 REVERT JUMPDEST DUP1 PUSH0 PUSH1 0x1 DUP5 ADD PUSH2 0x2BE JUMPI POP PUSH1 0x8 SLOAD PUSH2 0x34A JUMP JUMPDEST PUSH1 0x40 MLOAD PUSH4 0xA28A477 PUSH1 0xE0 SHL DUP2 MSTORE PUSH1 0x4 DUP2 ADD DUP6 SWAP1 MSTORE PUSH1 0x1 PUSH1 0x1 PUSH1 0xA0 SHL SUB DUP4 AND SWAP1 PUSH4 0xA28A477 SWAP1 PUSH1 0x24 ADD PUSH1 0x20 PUSH1 0x40 MLOAD DUP1 DUP4 SUB DUP2 DUP7 GAS STATICCALL ISZERO DUP1 ISZERO PUSH2 0x301 JUMPI RETURNDATASIZE PUSH0 PUSH0 RETURNDATACOPY RETURNDATASIZE PUSH0 REVERT JUMPDEST POP POP POP POP PUSH1 0x40 MLOAD RETURNDATASIZE PUSH1 0x1F NOT PUSH1 0x1F DUP3 ADD AND DUP3 ADD DUP1 PUSH1 0x40 MSTORE POP DUP2 ADD SWAP1 PUSH2 0x325 SWAP2 SWAP1 PUSH2 0xEA9 JUMP JUMPDEST SWAP1 POP PUSH1 0x8 SLOAD DUP2 GT ISZERO PUSH2 0x34A JUMPI PUSH1 0x40 MLOAD PUSH4 0x35389BB7 PUSH1 0xE2 SHL DUP2 MSTORE PUSH1 0x4 ADD PUSH1 0x40 MLOAD DUP1 SWAP2 SUB SWAP1 REVERT JUMPDEST DUP1 PUSH0 SUB PUSH2 0x358 JUMPI POP POP POP POP POP JUMP JUMPDEST DUP1 PUSH1 0x8 PUSH0 DUP3 DUP3 SLOAD PUSH2 0x369 SWAP2 SWAP1 PUSH2 0xED4 JUMP JUMPDEST SWAP1 SWAP2 SSTORE POP POP PUSH0 DUP1 SLOAD PUSH1 0x40 MLOAD PUSH4 0x5D043B29 PUSH1 0xE1 SHL DUP2 MSTORE PUSH1 0x4 DUP2 ADD DUP5 SWAP1 MSTORE PUSH1 0x1 PUSH1 0x1 PUSH1 0xA0 SHL SUB SWAP2 DUP3 AND PUSH1 0x24 DUP3 ADD MSTORE ADDRESS PUSH1 0x44 DUP3 ADD MSTORE SWAP1 DUP5 AND SWAP1 PUSH4 0xBA087652 SWAP1 PUSH1 0x64 ADD PUSH1 0x20 PUSH1 0x40 MLOAD DUP1 DUP4 SUB DUP2 PUSH0 DUP8 GAS CALL ISZERO DUP1 ISZERO PUSH2 0x3C4 JUMPI RETURNDATASIZE PUSH0 PUSH0 RETURNDATACOPY RETURNDATASIZE PUSH0 REVERT JUMPDEST POP POP POP POP PUSH1 0x40 MLOAD RETURNDATASIZE PUSH1 0x1F NOT PUSH1 0x1F DUP3 ADD AND DUP3 ADD DUP1 PUSH1 0x40 MSTORE POP DUP2 ADD SWAP1 PUSH2 0x3E8 SWAP2 SWAP1 PUSH2 0xEA9 JUMP JUMPDEST PUSH1 0x40 DUP1 MLOAD DUP3 DUP2 MSTORE PUSH1 0x20 DUP2 ADD DUP6 SWAP1 MSTORE SWAP2 SWAP3 POP PUSH1 0x1 PUSH1 0x1 PUSH1 0xA0 SHL SUB DUP9 AND SWAP2 PUSH32 0xCA7C146A476020A9685B6AF4C572D3E244456E8D02DAD016E5ED59FF64A2FDD9 SWAP2 ADD PUSH1 0x40 MLOAD DUP1 SWAP2 SUB SWAP1 LOG2 POP POP POP POP POP POP JUMP JUMPDEST PUSH0 SLOAD PUSH1 0x1 PUSH1 0x1 PUSH1 0xA0 SHL SUB AND CALLER EQ PUSH2 0x460 JUMPI PUSH1 0x40 MLOAD PUSH3 0x82B429 PUSH1 0xE8 SHL DUP2 MSTORE PUSH1 0x4 ADD PUSH1 0x40 MLOAD DUP1 SWAP2 SUB SWAP1 REVERT JUMPDEST DUP3 PUSH2 0x46B DUP6 DUP8 PUSH2 0xEE7 JUMP JUMPDEST PUSH2 0x475 SWAP2 SWAP1 PUSH2 0xEE7 JUMP JUMPDEST PUSH2 0x2710 EQ PUSH2 0x496 JUMPI PUSH1 0x40 MLOAD PUSH4 0x6D2FD3C9 PUSH1 0xE0 SHL DUP2 MSTORE PUSH1 0x4 ADD PUSH1 0x40 MLOAD DUP1 SWAP2 SUB SWAP1 REVERT JUMPDEST PUSH1 0x2 DUP6 SWAP1 SSTORE PUSH1 0x3 DUP5 SWAP1 SSTORE PUSH1 0x4 DUP4 SWAP1 SSTORE PUSH1 0x5 DUP3 SWAP1 SSTORE PUSH1 0x6 DUP2 SWAP1 SSTORE PUSH1 0x40 DUP1 MLOAD DUP7 DUP2 MSTORE PUSH1 0x20 DUP2 ADD DUP7 SWAP1 MSTORE SWAP1 DUP2 ADD DUP5 SWAP1 MSTORE PUSH1 0x60 DUP2 ADD DUP4 SWAP1 MSTORE PUSH1 0x80 DUP2 ADD DUP3 SWAP1 MSTORE PUSH32 0xAB98F6A91485C352FB01422A5FE72D10488727444633A4110D7716C51D511771 SWAP1 PUSH1 0xA0 ADD PUSH1 0x40 MLOAD DUP1 SWAP2 SUB SWAP1 LOG1 POP POP POP POP POP JUMP JUMPDEST PUSH1 0x6 SLOAD PUSH1 0x7 SLOAD PUSH2 0x515 SWAP2 SWAP1 PUSH2 0xEE7 JUMP JUMPDEST TIMESTAMP LT ISZERO PUSH2 0x535 JUMPI PUSH1 0x40 MLOAD PUSH4 0x529BC33 PUSH1 0xE1 SHL DUP2 MSTORE PUSH1 0x4 ADD PUSH1 0x40 MLOAD DUP1 SWAP2 SUB SWAP1 REVERT JUMPDEST PUSH1 0x5 SLOAD PUSH0 SUB PUSH2 0x541 JUMPI POP JUMP JUMPDEST PUSH1 0x1 SLOAD PUSH1 0x40 MLOAD PUSH4 0x1D735E7 PUSH1 0xE3 SHL DUP2 MSTORE PUSH1 0x1 PUSH1 0x1 PUSH1 0xA0 SHL SUB DUP4 DUP2 AND PUSH1 0x4 DUP4 ADD MSTORE PUSH0 SWAP3 AND SWAP1 PUSH4 0xEB9AF38 SWAP1 PUSH1 0x24 ADD PUSH1 0x20 PUSH1 0x40 MLOAD DUP1 DUP4 SUB DUP2 DUP7 GAS STATICCALL ISZERO DUP1 ISZERO PUSH2 0x589 JUMPI RETURNDATASIZE PUSH0 PUSH0 RETURNDATACOPY RETURNDATASIZE PUSH0 REVERT JUMPDEST POP POP POP POP PUSH1 0x40 MLOAD RETURNDATASIZE PUSH1 0x1F NOT PUSH1 0x1F DUP3 ADD AND DUP3 ADD DUP1 PUSH1 0x40 MSTORE POP DUP2 ADD SWAP1 PUSH2 0x5AD SWAP2 SWAP1 PUSH2 0xE8E JUMP JUMPDEST SWAP1 POP PUSH1 0x1 PUSH1 0x1 PUSH1 0xA0 SHL SUB DUP2 AND PUSH2 0x5D6 JUMPI PUSH1 0x40 MLOAD PUSH4 0x434DF19 PUSH1 0xE5 SHL DUP2 MSTORE PUSH1 0x4 ADD PUSH1 0x40 MLOAD DUP1 SWAP2 SUB SWAP1 REVERT JUMPDEST PUSH1 0x5 SLOAD PUSH1 0x40 MLOAD PUSH4 0xA28A477 PUSH1 0xE0 SHL DUP2 MSTORE PUSH1 0x4 DUP2 ADD SWAP2 SWAP1 SWAP2 MSTORE DUP2 SWAP1 PUSH0 SWAP1 PUSH1 0x1 PUSH1 0x1 PUSH1 0xA0 SHL SUB DUP4 AND SWAP1 PUSH4 0xA28A477 SWAP1 PUSH1 0x24 ADD PUSH1 0x20 PUSH1 0x40 MLOAD DUP1 DUP4 SUB DUP2 DUP7 GAS STATICCALL ISZERO DUP1 ISZERO PUSH2 0x621 JUMPI RETURNDATASIZE PUSH0 PUSH0 RETURNDATACOPY RETURNDATASIZE PUSH0 REVERT JUMPDEST POP POP POP POP PUSH1 0x40 MLOAD RETURNDATASIZE PUSH1 0x1F NOT PUSH1 0x1F DUP3 ADD AND DUP3 ADD DUP1 PUSH1 0x40 MSTORE POP DUP2 ADD SWAP1 PUSH2 0x645 SWAP2 SWAP1 PUSH2 0xEA9 JUMP JUMPDEST SWAP1 POP PUSH1 0x9 SLOAD DUP2 GT ISZERO PUSH2 0x656 JUMPI POP PUSH1 0x9 SLOAD JUMPDEST DUP1 PUSH0 SUB PUSH2 0x676 JUMPI PUSH1 0x40 MLOAD PUSH4 0x89206FD5 PUSH1 0xE0 SHL DUP2 MSTORE PUSH1 0x4 ADD PUSH1 0x40 MLOAD DUP1 SWAP2 SUB SWAP1 REVERT JUMPDEST DUP1 PUSH1 0x9 PUSH0 DUP3 DUP3 SLOAD PUSH2 0x687 SWAP2 SWAP1 PUSH2 0xED4 JUMP JUMPDEST SWAP1 SWAP2 SSTORE POP POP TIMESTAMP PUSH1 0x7 SSTORE PUSH0 DUP1 SLOAD PUSH1 0x40 MLOAD PUSH4 0x5D043B29 PUSH1 0xE1 SHL DUP2 MSTORE PUSH1 0x4 DUP2 ADD DUP5 SWAP1 MSTORE PUSH1 0x1 PUSH1 0x1 PUSH1 0xA0 SHL SUB SWAP2 DUP3 AND PUSH1 0x24 DUP3 ADD MSTORE ADDRESS PUSH1 0x44 DUP3 ADD MSTORE SWAP1 DUP5 AND SWAP1 PUSH4 0xBA087652 SWAP1 PUSH1 0x64 ADD PUSH1 0x20 PUSH1 0x40 MLOAD DUP1 DUP4 SUB DUP2 PUSH0 DUP8 GAS CALL ISZERO DUP1 ISZERO PUSH2 0x6E6 JUMPI RETURNDATASIZE PUSH0 PUSH0 RETURNDATACOPY RETURNDATASIZE PUSH0 REVERT JUMPDEST POP POP POP POP PUSH1 0x40 MLOAD RETURNDATASIZE PUSH1 0x1F NOT PUSH1 0x1F DUP3 ADD AND DUP3 ADD DUP1 PUSH1 0x40 MSTORE POP DUP2 ADD SWAP1 PUSH2 0x70A SWAP2 SWAP1 PUSH2 0xEA9 JUMP JUMPDEST PUSH1 0x40 DUP1 MLOAD DUP3 DUP2 MSTORE PUSH1 0x20 DUP2 ADD DUP6 SWAP1 MSTORE SWAP2 SWAP3 POP PUSH1 0x1 PUSH1 0x1 PUSH1 0xA0 SHL SUB DUP8 AND SWAP2 PUSH32 0xE7CC88D9E42671078205D391C6B754AEA00A5FAA1D2E50DED3F7139500F2F98C SWAP2 ADD PUSH1 0x40 MLOAD DUP1 SWAP2 SUB SWAP1 LOG2 POP POP POP POP POP JUMP JUMPDEST PUSH1 0x40 MLOAD PUSH4 0x70A08231 PUSH1 0xE0 SHL DUP2 MSTORE ADDRESS PUSH1 0x4 DUP3 ADD MSTORE PUSH0 SWAP1 PUSH1 0x1 PUSH1 0x1 PUSH1 0xA0 SHL SUB DUP4 AND SWAP1 PUSH4 0x70A08231 SWAP1 PUSH1 0x24 ADD PUSH1 0x20 PUSH1 0x40 MLOAD DUP1 DUP4 SUB DUP2 DUP7 GAS STATICCALL ISZERO DUP1 ISZERO PUSH2 0x79C JUMPI RETURNDATASIZE PUSH0 PUSH0 RETURNDATACOPY RETURNDATASIZE PUSH0 REVERT JUMPDEST POP POP POP POP PUSH1 0x40 MLOAD RETURNDATASIZE PUSH1 0x1F NOT PUSH1 0x1F DUP3 ADD AND DUP3 ADD DUP1 PUSH1 0x40 MSTORE POP DUP2 ADD SWAP1 PUSH2 0x7C0 SWAP2 SWAP1 PUSH2 0xEA9 JUMP JUMPDEST SWAP1 POP DUP1 PUSH0 SUB PUSH2 0x7CD JUMPI POP POP JUMP JUMPDEST PUSH0 PUSH2 0x2710 PUSH1 0x2 SLOAD DUP4 PUSH2 0x7DF SWAP2 SWAP1 PUSH2 0xEFA JUMP JUMPDEST PUSH2 0x7E9 SWAP2 SWAP1 PUSH2 0xF11 JUMP JUMPDEST SWAP1 POP PUSH0 PUSH2 0x2710 PUSH1 0x3 SLOAD DUP5 PUSH2 0x7FD SWAP2 SWAP1 PUSH2 0xEFA JUMP JUMPDEST PUSH2 0x807 SWAP2 SWAP1 PUSH2 0xF11 JUMP JUMPDEST SWAP1 POP PUSH0 DUP2 PUSH2 0x815 DUP5 DUP7 PUSH2 0xED4 JUMP JUMPDEST PUSH2 0x81F SWAP2 SWAP1 PUSH2 0xED4 JUMP JUMPDEST SWAP1 POP DUP3 ISZERO PUSH2 0x840 JUMPI PUSH0 SLOAD PUSH2 0x840 SWAP1 PUSH1 0x1 PUSH1 0x1 PUSH1 0xA0 SHL SUB DUP8 DUP2 AND SWAP2 AND DUP6 PUSH2 0xBA7 JUMP JUMPDEST PUSH0 PUSH2 0x84B DUP3 DUP5 PUSH2 0xEE7 JUMP JUMPDEST SWAP1 POP PUSH0 DUP1 DUP3 ISZERO PUSH2 0x9D2 JUMPI PUSH1 0x1 SLOAD PUSH1 0x40 MLOAD PUSH4 0x1D735E7 PUSH1 0xE3 SHL DUP2 MSTORE PUSH1 0x1 PUSH1 0x1 PUSH1 0xA0 SHL SUB DUP11 DUP2 AND PUSH1 0x4 DUP4 ADD MSTORE PUSH0 SWAP3 AND SWAP1 PUSH4 0xEB9AF38 SWAP1 PUSH1 0x24 ADD PUSH1 0x20 PUSH1 0x40 MLOAD DUP1 DUP4 SUB DUP2 DUP7 GAS STATICCALL ISZERO DUP1 ISZERO PUSH2 0x89D JUMPI RETURNDATASIZE PUSH0 PUSH0 RETURNDATACOPY RETURNDATASIZE PUSH0 REVERT JUMPDEST POP POP POP POP PUSH1 0x40 MLOAD RETURNDATASIZE PUSH1 0x1F NOT PUSH1 0x1F DUP3 ADD AND DUP3 ADD DUP1 PUSH1 0x40 MSTORE POP DUP2 ADD SWAP1 PUSH2 0x8C1 SWAP2 SWAP1 PUSH2 0xE8E JUMP JUMPDEST SWAP1 POP PUSH1 0x1 PUSH1 0x1 PUSH1 0xA0 SHL SUB DUP2 AND PUSH2 0x8EA JUMPI PUSH1 0x40 MLOAD PUSH4 0x434DF19 PUSH1 0xE5 SHL DUP2 MSTORE PUSH1 0x4 ADD PUSH1 0x40 MLOAD DUP1 SWAP2 SUB SWAP1 REVERT JUMPDEST DUP1 PUSH2 0x8FF PUSH1 0x1 PUSH1 0x1 PUSH1 0xA0 SHL SUB DUP12 AND DUP3 DUP8 PUSH2 0xBE6 JUMP JUMPDEST PUSH1 0x40 MLOAD PUSH4 0x6E553F65 PUSH1 0xE0 SHL DUP2 MSTORE PUSH1 0x4 DUP2 ADD DUP7 SWAP1 MSTORE ADDRESS PUSH1 0x24 DUP3 ADD MSTORE PUSH0 SWAP1 PUSH1 0x1 PUSH1 0x1 PUSH1 0xA0 SHL SUB DUP4 AND SWAP1 PUSH4 0x6E553F65 SWAP1 PUSH1 0x44 ADD PUSH1 0x20 PUSH1 0x40 MLOAD DUP1 DUP4 SUB DUP2 PUSH0 DUP8 GAS CALL ISZERO DUP1 ISZERO PUSH2 0x94B JUMPI RETURNDATASIZE PUSH0 PUSH0 RETURNDATACOPY RETURNDATASIZE PUSH0 REVERT JUMPDEST POP POP POP POP PUSH1 0x40 MLOAD RETURNDATASIZE PUSH1 0x1F NOT PUSH1 0x1F DUP3 ADD AND DUP3 ADD DUP1 PUSH1 0x40 MSTORE POP DUP2 ADD SWAP1 PUSH2 0x96F SWAP2 SWAP1 PUSH2 0xEA9 JUMP JUMPDEST SWAP1 POP DUP8 ISZERO PUSH2 0x9A5 JUMPI DUP6 PUSH2 0x982 DUP10 DUP4 PUSH2 0xEFA JUMP JUMPDEST PUSH2 0x98C SWAP2 SWAP1 PUSH2 0xF11 JUMP JUMPDEST SWAP5 POP DUP5 PUSH1 0x8 PUSH0 DUP3 DUP3 SLOAD PUSH2 0x99F SWAP2 SWAP1 PUSH2 0xEE7 JUMP JUMPDEST SWAP1 SWAP2 SSTORE POP POP JUMPDEST DUP7 ISZERO PUSH2 0x9CE JUMPI PUSH2 0x9B5 DUP6 DUP3 PUSH2 0xED4 JUMP JUMPDEST SWAP4 POP DUP4 PUSH1 0x9 PUSH0 DUP3 DUP3 SLOAD PUSH2 0x9C8 SWAP2 SWAP1 PUSH2 0xEE7 JUMP JUMPDEST SWAP1 SWAP2 SSTORE POP POP JUMPDEST POP POP POP JUMPDEST PUSH1 0x40 DUP1 MLOAD DUP9 DUP2 MSTORE PUSH1 0x20 DUP2 ADD DUP9 SWAP1 MSTORE SWAP1 DUP2 ADD DUP4 SWAP1 MSTORE PUSH1 0x60 DUP2 ADD DUP3 SWAP1 MSTORE PUSH1 0x1 PUSH1 0x1 PUSH1 0xA0 SHL SUB DUP10 AND SWAP1 PUSH32 0xF2C7C61AAB9019A0417876FEE95EA2CE79B2DA32F8F2B41271429475B2CF4C23 SWAP1 PUSH1 0x80 ADD PUSH1 0x40 MLOAD DUP1 SWAP2 SUB SWAP1 LOG2 POP POP POP POP POP POP POP POP JUMP JUMPDEST PUSH0 PUSH2 0xA38 PUSH2 0xC73 JUMP JUMPDEST DUP1 SLOAD SWAP1 SWAP2 POP PUSH1 0xFF PUSH1 0x1 PUSH1 0x40 SHL DUP3 DIV AND ISZERO SWAP1 PUSH8 0xFFFFFFFFFFFFFFFF AND PUSH0 DUP2 ISZERO DUP1 ISZERO PUSH2 0xA5F JUMPI POP DUP3 JUMPDEST SWAP1 POP PUSH0 DUP3 PUSH8 0xFFFFFFFFFFFFFFFF AND PUSH1 0x1 EQ DUP1 ISZERO PUSH2 0xA7B JUMPI POP ADDRESS EXTCODESIZE ISZERO JUMPDEST SWAP1 POP DUP2 ISZERO DUP1 ISZERO PUSH2 0xA89 JUMPI POP DUP1 ISZERO JUMPDEST ISZERO PUSH2 0xAA7 JUMPI PUSH1 0x40 MLOAD PUSH4 0xF92EE8A9 PUSH1 0xE0 SHL DUP2 MSTORE PUSH1 0x4 ADD PUSH1 0x40 MLOAD DUP1 SWAP2 SUB SWAP1 REVERT JUMPDEST DUP5 SLOAD PUSH8 0xFFFFFFFFFFFFFFFF NOT AND PUSH1 0x1 OR DUP6 SSTORE DUP4 ISZERO PUSH2 0xAD1 JUMPI DUP5 SLOAD PUSH1 0xFF PUSH1 0x40 SHL NOT AND PUSH1 0x1 PUSH1 0x40 SHL OR DUP6 SSTORE JUMPDEST PUSH0 DUP1 SLOAD PUSH1 0x1 PUSH1 0x1 PUSH1 0xA0 SHL SUB DUP1 DUP16 AND PUSH1 0x1 PUSH1 0x1 PUSH1 0xA0 SHL SUB NOT SWAP3 DUP4 AND OR SWAP1 SWAP3 SSTORE PUSH1 0x1 DUP1 SLOAD SWAP3 DUP15 AND SWAP3 SWAP1 SWAP2 AND SWAP2 SWAP1 SWAP2 OR SWAP1 SSTORE DUP8 PUSH2 0xB0B DUP11 DUP13 PUSH2 0xEE7 JUMP JUMPDEST PUSH2 0xB15 SWAP2 SWAP1 PUSH2 0xEE7 JUMP JUMPDEST PUSH2 0x2710 EQ PUSH2 0xB36 JUMPI PUSH1 0x40 MLOAD PUSH4 0x6D2FD3C9 PUSH1 0xE0 SHL DUP2 MSTORE PUSH1 0x4 ADD PUSH1 0x40 MLOAD DUP1 SWAP2 SUB SWAP1 REVERT JUMPDEST PUSH1 0x2 DUP11 SWAP1 SSTORE PUSH1 0x3 DUP10 SWAP1 SSTORE PUSH1 0x4 DUP9 SWAP1 SSTORE PUSH1 0x5 DUP8 SWAP1 SSTORE PUSH1 0x6 DUP7 SWAP1 SSTORE TIMESTAMP PUSH1 0x7 SSTORE DUP4 ISZERO PUSH2 0xB99 JUMPI DUP5 SLOAD PUSH1 0xFF PUSH1 0x40 SHL NOT AND DUP6 SSTORE PUSH1 0x40 MLOAD PUSH1 0x1 DUP2 MSTORE PUSH32 0xC7F505B2F371AE2175EE4913F4499E1F2633A7B5936321EED1CDAEB6115181D2 SWAP1 PUSH1 0x20 ADD PUSH1 0x40 MLOAD DUP1 SWAP2 SUB SWAP1 LOG1 JUMPDEST POP POP POP POP POP POP POP POP POP POP POP POP JUMP JUMPDEST PUSH2 0xBB4 DUP4 DUP4 DUP4 PUSH1 0x1 PUSH2 0xC9D JUMP JUMPDEST PUSH2 0xBE1 JUMPI PUSH1 0x40 MLOAD PUSH4 0x5274AFE7 PUSH1 0xE0 SHL DUP2 MSTORE PUSH1 0x1 PUSH1 0x1 PUSH1 0xA0 SHL SUB DUP5 AND PUSH1 0x4 DUP3 ADD MSTORE PUSH1 0x24 ADD JUMPDEST PUSH1 0x40 MLOAD DUP1 SWAP2 SUB SWAP1 REVERT JUMPDEST POP POP POP JUMP JUMPDEST PUSH1 0x40 MLOAD PUSH4 0x6EB1769F PUSH1 0xE1 SHL DUP2 MSTORE ADDRESS PUSH1 0x4 DUP3 ADD MSTORE PUSH1 0x1 PUSH1 0x1 PUSH1 0xA0 SHL SUB DUP4 DUP2 AND PUSH1 0x24 DUP4 ADD MSTORE PUSH0 SWAP2 SWAP1 DUP6 AND SWAP1 PUSH4 0xDD62ED3E SWAP1 PUSH1 0x44 ADD PUSH1 0x20 PUSH1 0x40 MLOAD DUP1 DUP4 SUB DUP2 DUP7 GAS STATICCALL ISZERO DUP1 ISZERO PUSH2 0xC33 JUMPI RETURNDATASIZE PUSH0 PUSH0 RETURNDATACOPY RETURNDATASIZE PUSH0 REVERT JUMPDEST POP POP POP POP PUSH1 0x40 MLOAD RETURNDATASIZE PUSH1 0x1F NOT PUSH1 0x1F DUP3 ADD AND DUP3 ADD DUP1 PUSH1 0x40 MSTORE POP DUP2 ADD SWAP1 PUSH2 0xC57 SWAP2 SWAP1 PUSH2 0xEA9 JUMP JUMPDEST SWAP1 POP PUSH2 0xC6D DUP5 DUP5 PUSH2 0xC68 DUP6 DUP6 PUSH2 0xEE7 JUMP JUMPDEST PUSH2 0xCFF JUMP JUMPDEST POP POP POP POP JUMP JUMPDEST PUSH0 DUP1 PUSH32 0xF0C57E16840DF040F15088DC2F81FE391C3923BEC73E23A9662EFC9C229C6A00 JUMPDEST SWAP3 SWAP2 POP POP JUMP JUMPDEST PUSH1 0x40 MLOAD PUSH4 0xA9059CBB PUSH1 0xE0 SHL PUSH0 DUP2 DUP2 MSTORE PUSH1 0x1 PUSH1 0x1 PUSH1 0xA0 SHL SUB DUP7 AND PUSH1 0x4 MSTORE PUSH1 0x24 DUP6 SWAP1 MSTORE SWAP2 PUSH1 0x20 DUP4 PUSH1 0x44 DUP2 DUP1 DUP12 GAS CALL SWAP3 POP PUSH1 0x1 PUSH0 MLOAD EQ DUP4 AND PUSH2 0xCF3 JUMPI DUP4 DUP4 ISZERO AND ISZERO PUSH2 0xCE7 JUMPI RETURNDATASIZE PUSH0 DUP3 RETURNDATACOPY RETURNDATASIZE DUP2 REVERT JUMPDEST PUSH0 DUP8 EXTCODESIZE GT RETURNDATASIZE ISZERO AND DUP4 AND SWAP3 POP JUMPDEST PUSH1 0x40 MSTORE POP SWAP5 SWAP4 POP POP POP POP JUMP JUMPDEST PUSH2 0xD0B DUP4 DUP4 DUP4 PUSH0 PUSH2 0xD4D JUMP JUMPDEST PUSH2 0xBE1 JUMPI PUSH2 0xD1C DUP4 DUP4 PUSH0 PUSH1 0x1 PUSH2 0xD4D JUMP JUMPDEST PUSH2 0xD44 JUMPI PUSH1 0x40 MLOAD PUSH4 0x5274AFE7 PUSH1 0xE0 SHL DUP2 MSTORE PUSH1 0x1 PUSH1 0x1 PUSH1 0xA0 SHL SUB DUP5 AND PUSH1 0x4 DUP3 ADD MSTORE PUSH1 0x24 ADD PUSH2 0xBD8 JUMP JUMPDEST PUSH2 0xBB4 DUP4 DUP4 DUP4 PUSH1 0x1 JUMPDEST PUSH1 0x40 MLOAD PUSH4 0x95EA7B3 PUSH1 0xE0 SHL PUSH0 DUP2 DUP2 MSTORE PUSH1 0x1 PUSH1 0x1 PUSH1 0xA0 SHL SUB DUP7 AND PUSH1 0x4 MSTORE PUSH1 0x24 DUP6 SWAP1 MSTORE SWAP2 PUSH1 0x20 DUP4 PUSH1 0x44 DUP2 DUP1 DUP12 GAS CALL SWAP3 POP PUSH1 0x1 PUSH0 MLOAD EQ DUP4 AND PUSH2 0xCF3 JUMPI DUP4 DUP4 ISZERO AND ISZERO PUSH2 0xCE7 JUMPI RETURNDATASIZE PUSH0 DUP3 RETURNDATACOPY RETURNDATASIZE DUP2 REVERT JUMPDEST PUSH1 0x1 PUSH1 0x1 PUSH1 0xA0 SHL SUB DUP2 AND DUP2 EQ PUSH2 0xDAB JUMPI PUSH0 PUSH0 REVERT JUMPDEST POP JUMP JUMPDEST PUSH0 PUSH0 PUSH1 0x40 DUP4 DUP6 SUB SLT ISZERO PUSH2 0xDBF JUMPI PUSH0 PUSH0 REVERT JUMPDEST DUP3 CALLDATALOAD PUSH2 0xDCA DUP2 PUSH2 0xD97 JUMP JUMPDEST SWAP5 PUSH1 0x20 SWAP4 SWAP1 SWAP4 ADD CALLDATALOAD SWAP4 POP POP POP JUMP JUMPDEST PUSH0 PUSH0 PUSH0 PUSH0 PUSH0 PUSH1 0xA0 DUP7 DUP9 SUB SLT ISZERO PUSH2 0xDEC JUMPI PUSH0 PUSH0 REVERT JUMPDEST POP POP DUP4 CALLDATALOAD SWAP6 PUSH1 0x20 DUP6 ADD CALLDATALOAD SWAP6 POP PUSH1 0x40 DUP6 ADD CALLDATALOAD SWAP5 PUSH1 0x60 DUP2 ADD CALLDATALOAD SWAP5 POP PUSH1 0x80 ADD CALLDATALOAD SWAP3 POP SWAP1 POP JUMP JUMPDEST PUSH0 PUSH1 0x20 DUP3 DUP5 SUB SLT ISZERO PUSH2 0xE1F JUMPI PUSH0 PUSH0 REVERT JUMPDEST DUP2 CALLDATALOAD PUSH2 0xE2A DUP2 PUSH2 0xD97 JUMP JUMPDEST SWAP4 SWAP3 POP POP POP JUMP JUMPDEST PUSH0 PUSH0 PUSH0 PUSH0 PUSH0 PUSH0 PUSH0 PUSH1 0xE0 DUP9 DUP11 SUB SLT ISZERO PUSH2 0xE47 JUMPI PUSH0 PUSH0 REVERT JUMPDEST DUP8 CALLDATALOAD PUSH2 0xE52 DUP2 PUSH2 0xD97 JUMP JUMPDEST SWAP7 POP PUSH1 0x20 DUP9 ADD CALLDATALOAD PUSH2 0xE62 DUP2 PUSH2 0xD97 JUMP JUMPDEST SWAP7 SWAP10 SWAP7 SWAP9 POP POP POP POP PUSH1 0x40 DUP6 ADD CALLDATALOAD SWAP5 PUSH1 0x60 DUP2 ADD CALLDATALOAD SWAP5 PUSH1 0x80 DUP3 ADD CALLDATALOAD SWAP5 POP PUSH1 0xA0 DUP3 ADD CALLDATALOAD SWAP4 POP PUSH1 0xC0 SWAP1 SWAP2 ADD CALLDATALOAD SWAP2 POP JUMP JUMPDEST PUSH0 PUSH1 0x20 DUP3 DUP5 SUB SLT ISZERO PUSH2 0xE9E JUMPI PUSH0 PUSH0 REVERT JUMPDEST DUP2 MLOAD PUSH2 0xE2A DUP2 PUSH2 0xD97 JUMP JUMPDEST PUSH0 PUSH1 0x20 DUP3 DUP5 SUB SLT ISZERO PUSH2 0xEB9 JUMPI PUSH0 PUSH0 REVERT JUMPDEST POP MLOAD SWAP2 SWAP1 POP JUMP JUMPDEST PUSH4 0x4E487B71 PUSH1 0xE0 SHL PUSH0 MSTORE PUSH1 0x11 PUSH1 0x4 MSTORE PUSH1 0x24 PUSH0 REVERT JUMPDEST DUP2 DUP2 SUB DUP2 DUP2 GT ISZERO PUSH2 0xC97 JUMPI PUSH2 0xC97 PUSH2 0xEC0 JUMP JUMPDEST DUP1 DUP3 ADD DUP1 DUP3 GT ISZERO PUSH2 0xC97 JUMPI PUSH2 0xC97 PUSH2 0xEC0 JUMP JUMPDEST DUP1 DUP3 MUL DUP2 ISZERO DUP3 DUP3 DIV DUP5 EQ OR PUSH2 0xC97 JUMPI PUSH2 0xC97 PUSH2 0xEC0 JUMP JUMPDEST PUSH0 DUP3 PUSH2 0xF2B JUMPI PUSH4 0x4E487B71 PUSH1 0xE0 SHL PUSH0 MSTORE PUSH1 0x12 PUSH1 0x4 MSTORE PUSH1 0x24 PUSH0 REVERT JUMPDEST POP DIV SWAP1 JUMP INVALID LOG2 PUSH5 0x6970667358 0x22 SLT KECCAK256 DUP4 0xD3 0xD7 0xD2 0xC5 0xEF 0xF8 SWAP15 0xD 0xF7 CALLDATALOAD PUSH24 0xC3C730C440DE915206B2A25F45FE8A64ED15D2F364736F6C PUSH4 0x4300081C STOP CALLER "},"methodIdentifiers":{"allowanceAmount()":"375d69df","allowancePeriod()":"aab3ab95","claimAllowance(address)":"56137a5e","factory()":"c45a0155","initialize(address,address,uint256,uint256,uint256,uint256,uint256)":"edbf4ac2","lastAllowanceRelease()":"943f213f","lockedPct()":"39382ab9","lockedShares()":"e95502fb","operatingPct()":"acd78de4","owner()":"8da5cb5b","processPayment(address)":"8fe123d7","treasuryPct()":"9981f5f3","treasuryShares()":"baec8b0f","updateSettings(uint256,uint256,uint256,uint256,uint256)":"30c2c3b9","withdrawTreasury(address,uint256)":"0d86419a"}}}}}