{"project/contracts/QIELendERC4626Adapter.sol":{"QIELendERC4626Adapter":{"abi":[{"inputs":[{"internalType":"contract IERC20","name":"_asset","type":"address"},{"internalType":"contract ICToken","name":"_cToken","type":"address"},{"internalType":"string","name":"_name","type":"string"},{"internalType":"string","name":"_symbol","type":"string"}],"stateMutability":"nonpayable","type":"constructor"},{"inputs":[{"internalType":"address","name":"spender","type":"address"},{"internalType":"uint256","name":"allowance","type":"uint256"},{"internalType":"uint256","name":"needed","type":"uint256"}],"name":"ERC20InsufficientAllowance","type":"error"},{"inputs":[{"internalType":"address","name":"sender","type":"address"},{"internalType":"uint256","name":"balance","type":"uint256"},{"internalType":"uint256","name":"needed","type":"uint256"}],"name":"ERC20InsufficientBalance","type":"error"},{"inputs":[{"internalType":"address","name":"approver","type":"address"}],"name":"ERC20InvalidApprover","type":"error"},{"inputs":[{"internalType":"address","name":"receiver","type":"address"}],"name":"ERC20InvalidReceiver","type":"error"},{"inputs":[{"internalType":"address","name":"sender","type":"address"}],"name":"ERC20InvalidSender","type":"error"},{"inputs":[{"internalType":"address","name":"spender","type":"address"}],"name":"ERC20InvalidSpender","type":"error"},{"inputs":[{"internalType":"address","name":"receiver","type":"address"},{"internalType":"uint256","name":"assets","type":"uint256"},{"internalType":"uint256","name":"max","type":"uint256"}],"name":"ERC4626ExceededMaxDeposit","type":"error"},{"inputs":[{"internalType":"address","name":"receiver","type":"address"},{"internalType":"uint256","name":"shares","type":"uint256"},{"internalType":"uint256","name":"max","type":"uint256"}],"name":"ERC4626ExceededMaxMint","type":"error"},{"inputs":[{"internalType":"address","name":"owner","type":"address"},{"internalType":"uint256","name":"shares","type":"uint256"},{"internalType":"uint256","name":"max","type":"uint256"}],"name":"ERC4626ExceededMaxRedeem","type":"error"},{"inputs":[{"internalType":"address","name":"owner","type":"address"},{"internalType":"uint256","name":"assets","type":"uint256"},{"internalType":"uint256","name":"max","type":"uint256"}],"name":"ERC4626ExceededMaxWithdraw","type":"error"},{"inputs":[{"internalType":"address","name":"token","type":"address"}],"name":"SafeERC20FailedOperation","type":"error"},{"anonymous":false,"inputs":[{"indexed":true,"internalType":"address","name":"owner","type":"address"},{"indexed":true,"internalType":"address","name":"spender","type":"address"},{"indexed":false,"internalType":"uint256","name":"value","type":"uint256"}],"name":"Approval","type":"event"},{"anonymous":false,"inputs":[{"indexed":true,"internalType":"address","name":"sender","type":"address"},{"indexed":true,"internalType":"address","name":"owner","type":"address"},{"indexed":false,"internalType":"uint256","name":"assets","type":"uint256"},{"indexed":false,"internalType":"uint256","name":"shares","type":"uint256"}],"name":"Deposit","type":"event"},{"anonymous":false,"inputs":[{"indexed":true,"internalType":"address","name":"from","type":"address"},{"indexed":true,"internalType":"address","name":"to","type":"address"},{"indexed":false,"internalType":"uint256","name":"value","type":"uint256"}],"name":"Transfer","type":"event"},{"anonymous":false,"inputs":[{"indexed":true,"internalType":"address","name":"sender","type":"address"},{"indexed":true,"internalType":"address","name":"receiver","type":"address"},{"indexed":true,"internalType":"address","name":"owner","type":"address"},{"indexed":false,"internalType":"uint256","name":"assets","type":"uint256"},{"indexed":false,"internalType":"uint256","name":"shares","type":"uint256"}],"name":"Withdraw","type":"event"},{"inputs":[{"internalType":"address","name":"owner","type":"address"},{"internalType":"address","name":"spender","type":"address"}],"name":"allowance","outputs":[{"internalType":"uint256","name":"","type":"uint256"}],"stateMutability":"view","type":"function"},{"inputs":[{"internalType":"address","name":"spender","type":"address"},{"internalType":"uint256","name":"value","type":"uint256"}],"name":"approve","outputs":[{"internalType":"bool","name":"","type":"bool"}],"stateMutability":"nonpayable","type":"function"},{"inputs":[],"name":"asset","outputs":[{"internalType":"address","name":"","type":"address"}],"stateMutability":"view","type":"function"},{"inputs":[{"internalType":"address","name":"account","type":"address"}],"name":"balanceOf","outputs":[{"internalType":"uint256","name":"","type":"uint256"}],"stateMutability":"view","type":"function"},{"inputs":[],"name":"cToken","outputs":[{"internalType":"contract ICToken","name":"","type":"address"}],"stateMutability":"view","type":"function"},{"inputs":[{"internalType":"uint256","name":"shares","type":"uint256"}],"name":"convertToAssets","outputs":[{"internalType":"uint256","name":"","type":"uint256"}],"stateMutability":"view","type":"function"},{"inputs":[{"internalType":"uint256","name":"assets","type":"uint256"}],"name":"convertToShares","outputs":[{"internalType":"uint256","name":"","type":"uint256"}],"stateMutability":"view","type":"function"},{"inputs":[],"name":"decimals","outputs":[{"internalType":"uint8","name":"","type":"uint8"}],"stateMutability":"view","type":"function"},{"inputs":[{"internalType":"uint256","name":"assets","type":"uint256"},{"internalType":"address","name":"receiver","type":"address"}],"name":"deposit","outputs":[{"internalType":"uint256","name":"","type":"uint256"}],"stateMutability":"nonpayable","type":"function"},{"inputs":[{"internalType":"address","name":"","type":"address"}],"name":"maxDeposit","outputs":[{"internalType":"uint256","name":"","type":"uint256"}],"stateMutability":"view","type":"function"},{"inputs":[{"internalType":"address","name":"","type":"address"}],"name":"maxMint","outputs":[{"internalType":"uint256","name":"","type":"uint256"}],"stateMutability":"view","type":"function"},{"inputs":[{"internalType":"address","name":"owner","type":"address"}],"name":"maxRedeem","outputs":[{"internalType":"uint256","name":"","type":"uint256"}],"stateMutability":"view","type":"function"},{"inputs":[{"internalType":"address","name":"owner","type":"address"}],"name":"maxWithdraw","outputs":[{"internalType":"uint256","name":"","type":"uint256"}],"stateMutability":"view","type":"function"},{"inputs":[{"internalType":"uint256","name":"shares","type":"uint256"},{"internalType":"address","name":"receiver","type":"address"}],"name":"mint","outputs":[{"internalType":"uint256","name":"","type":"uint256"}],"stateMutability":"nonpayable","type":"function"},{"inputs":[],"name":"name","outputs":[{"internalType":"string","name":"","type":"string"}],"stateMutability":"view","type":"function"},{"inputs":[{"internalType":"uint256","name":"assets","type":"uint256"}],"name":"previewDeposit","outputs":[{"internalType":"uint256","name":"","type":"uint256"}],"stateMutability":"view","type":"function"},{"inputs":[{"internalType":"uint256","name":"shares","type":"uint256"}],"name":"previewMint","outputs":[{"internalType":"uint256","name":"","type":"uint256"}],"stateMutability":"view","type":"function"},{"inputs":[{"internalType":"uint256","name":"shares","type":"uint256"}],"name":"previewRedeem","outputs":[{"internalType":"uint256","name":"","type":"uint256"}],"stateMutability":"view","type":"function"},{"inputs":[{"internalType":"uint256","name":"assets","type":"uint256"}],"name":"previewWithdraw","outputs":[{"internalType":"uint256","name":"","type":"uint256"}],"stateMutability":"view","type":"function"},{"inputs":[{"internalType":"uint256","name":"shares","type":"uint256"},{"internalType":"address","name":"receiver","type":"address"},{"internalType":"address","name":"owner","type":"address"}],"name":"redeem","outputs":[{"internalType":"uint256","name":"","type":"uint256"}],"stateMutability":"nonpayable","type":"function"},{"inputs":[],"name":"symbol","outputs":[{"internalType":"string","name":"","type":"string"}],"stateMutability":"view","type":"function"},{"inputs":[],"name":"totalAssets","outputs":[{"internalType":"uint256","name":"","type":"uint256"}],"stateMutability":"view","type":"function"},{"inputs":[],"name":"totalSupply","outputs":[{"internalType":"uint256","name":"","type":"uint256"}],"stateMutability":"view","type":"function"},{"inputs":[{"internalType":"address","name":"to","type":"address"},{"internalType":"uint256","name":"value","type":"uint256"}],"name":"transfer","outputs":[{"internalType":"bool","name":"","type":"bool"}],"stateMutability":"nonpayable","type":"function"},{"inputs":[{"internalType":"address","name":"from","type":"address"},{"internalType":"address","name":"to","type":"address"},{"internalType":"uint256","name":"value","type":"uint256"}],"name":"transferFrom","outputs":[{"internalType":"bool","name":"","type":"bool"}],"stateMutability":"nonpayable","type":"function"},{"inputs":[{"internalType":"uint256","name":"assets","type":"uint256"},{"internalType":"address","name":"receiver","type":"address"},{"internalType":"address","name":"owner","type":"address"}],"name":"withdraw","outputs":[{"internalType":"uint256","name":"","type":"uint256"}],"stateMutability":"nonpayable","type":"function"}],"evm":{"bytecode":{"linkReferences":{},"object":"60e060405234801561000f575f5ffd5b506040516119ad3803806119ad83398101604081905261002e916101fc565b838282600361003d838261030b565b50600461004a828261030b565b5050505f5f61005e8361009660201b60201c565b915091508161006e576012610070565b805b60ff1660a05250506001600160a01b039081166080529290921660c052506103c5915050565b5f80806100a260405190565b6040805160048152602481019091526020810180516001600160e01b0390811663313ce56760e01b179091529192505f9182916100e29188919061012716565b5090925090506100f183604052565b8180156100ff575060203d10155b801561010c575060ff8111155b610117575f5f61011b565b6001815b94509450505050915091565b5f5f5f60405f855160208701885afa92505f51915060205190509250925092565b6001600160a01b038116811461015c575f5ffd5b50565b634e487b7160e01b5f52604160045260245ffd5b5f82601f830112610182575f5ffd5b81516001600160401b0381111561019b5761019b61015f565b604051601f8201601f19908116603f011681016001600160401b03811182821017156101c9576101c961015f565b6040528181528382016020018510156101e0575f5ffd5b8160208501602083015e5f918101602001919091529392505050565b5f5f5f5f6080858703121561020f575f5ffd5b845161021a81610148565b602086015190945061022b81610148565b60408601519093506001600160401b03811115610246575f5ffd5b61025287828801610173565b606087015190935090506001600160401b0381111561026f575f5ffd5b61027b87828801610173565b91505092959194509250565b600181811c9082168061029b57607f821691505b6020821081036102b957634e487b7160e01b5f52602260045260245ffd5b50919050565b601f82111561030657805f5260205f20601f840160051c810160208510156102e45750805b601f840160051c820191505b81811015610303575f81556001016102f0565b50505b505050565b81516001600160401b038111156103245761032461015f565b610338816103328454610287565b846102bf565b6020601f82116001811461036a575f83156103535750848201515b5f19600385901b1c1916600184901b178455610303565b5f84815260208120601f198516915b828110156103995787850151825560209485019460019092019101610379565b50848210156103b657868401515f19600387901b60f8161c191681555b50505050600190811b01905550565b60805160a05160c0516115866104275f395f818161028c015281816103c50152818161046f015281816108f6015281816109310152610a9101525f6105e201525f818161023b0152818161089f015281816108d40152610b5601526115865ff3fe608060405234801561000f575f5ffd5b5060043610610187575f3560e01c806370a08231116100d9578063ba08765211610093578063ce96cb771161006e578063ce96cb7714610363578063d905777e14610376578063dd62ed3e14610389578063ef8b30f714610350575f5ffd5b8063ba0876521461033d578063c63d75b614610273578063c6e6f59214610350575f5ffd5b806370a08231146102c157806394bf804d146102e957806395d89b41146102fc578063a9059cbb14610304578063b3d7f6b914610317578063b460af941461032a575f5ffd5b806323b872dd11610144578063402d267d1161011f578063402d267d146102735780634cdad506146101bb57806369e527da146102875780636e553f65146102ae575f5ffd5b806323b872dd1461020c578063313ce5671461021f57806338d52e0f14610239575f5ffd5b806301e1d1141461018b57806306fdde03146101a657806307a2d13a146101bb578063095ea7b3146101ce5780630a28a477146101f157806318160ddd14610204575b5f5ffd5b6101936103c1565b6040519081526020015b60405180910390f35b6101ae6104f2565b60405161019d91906111cf565b6101936101c9366004611204565b610582565b6101e16101dc366004611236565b610593565b604051901515815260200161019d565b6101936101ff366004611204565b6105aa565b600254610193565b6101e161021a36600461125e565b6105b6565b6102276105db565b60405160ff909116815260200161019d565b7f00000000000000000000000000000000000000000000000000000000000000005b6040516001600160a01b03909116815260200161019d565b610193610281366004611298565b505f1990565b61025b7f000000000000000000000000000000000000000000000000000000000000000081565b6101936102bc3660046112b1565b61060b565b6101936102cf366004611298565b6001600160a01b03165f9081526020819052604090205490565b6101936102f73660046112b1565b61063c565b6101ae610657565b6101e1610312366004611236565b610666565b610193610325366004611204565b610673565b6101936103383660046112db565b61067f565b61019361034b3660046112db565b6106d5565b61019361035e366004611204565b610722565b610193610371366004611298565b61072d565b610193610384366004611298565b610736565b610193610397366004611314565b6001600160a01b039182165f90815260016020908152604080832093909416825291909152205490565b5f5f7f00000000000000000000000000000000000000000000000000000000000000006001600160a01b031663182df0f56040518163ffffffff1660e01b8152600401602060405180830381865afa15801561041f573d5f5f3e3d5ffd5b505050506040513d601f19601f82011682018060405250810190610443919061133c565b6040516370a0823160e01b8152306004820152909150670de0b6b3a76400009082906001600160a01b037f000000000000000000000000000000000000000000000000000000000000000016906370a0823190602401602060405180830381865afa1580156104b4573d5f5f3e3d5ffd5b505050506040513d601f19601f820116820180604052508101906104d8919061133c565b6104e29190611367565b6104ec9190611392565b91505090565b606060038054610501906113a5565b80601f016020809104026020016040519081016040528092919081815260200182805461052d906113a5565b80156105785780601f1061054f57610100808354040283529160200191610578565b820191905f5260205f20905b81548152906001019060200180831161055b57829003601f168201915b5050505050905090565b5f61058d825f610753565b92915050565b5f336105a081858561078b565b5060019392505050565b5f61058d82600161079d565b5f336105c38582856107cc565b6105ce858585610835565b60019150505b9392505050565b5f610606817f00000000000000000000000000000000000000000000000000000000000000006113dd565b905090565b5f5f1961061c565b60405180910390fd5b5f61062685610722565b905061063433858784610892565b949350505050565b5f5f195f61064985610673565b905061063433858388610892565b606060048054610501906113a5565b5f336105a0818585610835565b5f61058d826001610753565b5f5f61068a8361072d565b9050808511156106b357828582604051633fa733bb60e21b8152600401610613939291906113f6565b5f6106bd866105aa565b90506106cc3386868985610a4d565b95945050505050565b5f5f6106e083610736565b90508085111561070957828582604051632e52afbb60e21b8152600401610613939291906113f6565b5f61071386610582565b90506106cc338686848a610a4d565b5f61058d825f61079d565b5f61058d6101c9835b6001600160a01b0381165f9081526020819052604081205461058d565b5f6105d461075f6103c1565b61076a906001611417565b6107755f600a61150d565b6002546107829190611417565b85919085610be4565b6107988383836001610c26565b505050565b5f6105d46107ac82600a61150d565b6002546107b99190611417565b6107c16103c1565b610782906001611417565b6001600160a01b038381165f908152600160209081526040808320938616835292905220545f1981101561082f578181101561082157828183604051637dc7a0d960e11b8152600401610613939291906113f6565b61082f84848484035f610c26565b50505050565b6001600160a01b03831661085e57604051634b637e8f60e11b81525f6004820152602401610613565b6001600160a01b0382166108875760405163ec442f0560e01b81525f6004820152602401610613565b610798838383610cea565b6108c76001600160a01b037f000000000000000000000000000000000000000000000000000000000000000016853085610dfd565b61091b6001600160a01b037f0000000000000000000000000000000000000000000000000000000000000000167f000000000000000000000000000000000000000000000000000000000000000084610e33565b60405163140e25ad60e31b8152600481018390527f00000000000000000000000000000000000000000000000000000000000000006001600160a01b03169063a0712d68906024016020604051808303815f875af115801561097f573d5f5f3e3d5ffd5b505050506040513d601f19601f820116820180604052508101906109a3919061133c565b156109e75760405162461bcd60e51b815260206004820152601460248201527314525153195b990e881b5a5b9d0819985a5b195960621b6044820152606401610613565b6109f18382610eba565b826001600160a01b0316846001600160a01b03167fdcbc1c05240f31ff3ad067ef1ee35ce4997762752e3a095284754544f4c709d78484604051610a3f929190918252602082015260400190565b60405180910390a350505050565b826001600160a01b0316856001600160a01b031614610a7157610a718386836107cc565b610a7b8382610ef2565b60405163852a12e360e01b8152600481018390527f00000000000000000000000000000000000000000000000000000000000000006001600160a01b03169063852a12e3906024016020604051808303815f875af1158015610adf573d5f5f3e3d5ffd5b505050506040513d601f19601f82011682018060405250810190610b03919061133c565b15610b495760405162461bcd60e51b815260206004820152601660248201527514525153195b990e881c995919595b4819985a5b195960521b6044820152606401610613565b610b7d6001600160a01b037f0000000000000000000000000000000000000000000000000000000000000000168584610f26565b826001600160a01b0316846001600160a01b0316866001600160a01b03167ffbde797d201c681b91056529119e0b02407c7bb96a4a2c75c01fc9667232c8db8585604051610bd5929190918252602082015260400190565b60405180910390a45050505050565b5f610c11610bf183610f5b565b8015610c0c57505f8480610c0757610c0761137e565b868809115b151590565b610c1c868686610f87565b6106cc9190611417565b6001600160a01b038416610c4f5760405163e602df0560e01b81525f6004820152602401610613565b6001600160a01b038316610c7857604051634a1406b160e11b81525f6004820152602401610613565b6001600160a01b038085165f908152600160209081526040808320938716835292905220829055801561082f57826001600160a01b0316846001600160a01b03167f8c5be1e5ebec7d5bd14f71427d1e84f3dd0314c0f7b2291e5b200ac8c7c3b92584604051610a3f91815260200190565b6001600160a01b038316610d14578060025f828254610d099190611417565b90915550610d719050565b6001600160a01b0383165f9081526020819052604090205481811015610d535783818360405163391434e360e21b8152600401610613939291906113f6565b6001600160a01b0384165f9081526020819052604090209082900390555b6001600160a01b038216610d8d57600280548290039055610dab565b6001600160a01b0382165f9081526020819052604090208054820190555b816001600160a01b0316836001600160a01b03167fddf252ad1be2c89b69c2b068fc378daa952ba7f163c4a11628f55a4df523b3ef83604051610df091815260200190565b60405180910390a3505050565b610e0b848484846001611037565b61082f57604051635274afe760e01b81526001600160a01b0385166004820152602401610613565b604051636eb1769f60e11b81523060048201526001600160a01b0383811660248301525f919085169063dd62ed3e90604401602060405180830381865afa158015610e80573d5f5f3e3d5ffd5b505050506040513d601f19601f82011682018060405250810190610ea4919061133c565b905061082f8484610eb58585611417565b6110a4565b6001600160a01b038216610ee35760405163ec442f0560e01b81525f6004820152602401610613565b610eee5f8383610cea565b5050565b6001600160a01b038216610f1b57604051634b637e8f60e11b81525f6004820152602401610613565b610eee825f83610cea565b610f3383838360016110f6565b61079857604051635274afe760e01b81526001600160a01b0384166004820152602401610613565b5f6002826003811115610f7057610f7061151b565b610f7a919061152f565b60ff166001149050919050565b5f5f5f610f948686611158565b91509150815f03610fb857838181610fae57610fae61137e565b04925050506105d4565b818411610fcf57610fcf6003851502601118611174565b5f848688095f868103871696879004966002600389028118808a02820302808a02820302808a02820302808a02820302808a02820302808a02909103029181900381900460010185841190960395909502919093039390930492909217029150509392505050565b6040516323b872dd60e01b5f8181526001600160a01b038781166004528616602452604485905291602083606481808c5af1925060015f51148316611093578383151615611087573d5f823e3d81fd5b5f883b113d1516831692505b604052505f60605295945050505050565b6110b08383835f611185565b610798576110c183835f6001611185565b6110e957604051635274afe760e01b81526001600160a01b0384166004820152602401610613565b610f338383836001611185565b60405163a9059cbb60e01b5f8181526001600160a01b038616600452602485905291602083604481808b5af1925060015f5114831661114c578383151615611140573d5f823e3d81fd5b5f873b113d1516831692505b60405250949350505050565b5f805f1983850993909202808410938190039390930393915050565b634e487b715f52806020526024601cfd5b60405163095ea7b360e01b5f8181526001600160a01b038616600452602485905291602083604481808b5af1925060015f5114831661114c578383151615611140573d5f823e3d81fd5b602081525f82518060208401528060208501604085015e5f604082850101526040601f19601f83011684010191505092915050565b5f60208284031215611214575f5ffd5b5035919050565b80356001600160a01b0381168114611231575f5ffd5b919050565b5f5f60408385031215611247575f5ffd5b6112508361121b565b946020939093013593505050565b5f5f5f60608486031215611270575f5ffd5b6112798461121b565b92506112876020850161121b565b929592945050506040919091013590565b5f602082840312156112a8575f5ffd5b6105d48261121b565b5f5f604083850312156112c2575f5ffd5b823591506112d26020840161121b565b90509250929050565b5f5f5f606084860312156112ed575f5ffd5b833592506112fd6020850161121b565b915061130b6040850161121b565b90509250925092565b5f5f60408385031215611325575f5ffd5b61132e8361121b565b91506112d26020840161121b565b5f6020828403121561134c575f5ffd5b5051919050565b634e487b7160e01b5f52601160045260245ffd5b808202811582820484141761058d5761058d611353565b634e487b7160e01b5f52601260045260245ffd5b5f826113a0576113a061137e565b500490565b600181811c908216806113b957607f821691505b6020821081036113d757634e487b7160e01b5f52602260045260245ffd5b50919050565b60ff818116838216019081111561058d5761058d611353565b6001600160a01b039390931683526020830191909152604082015260600190565b8082018082111561058d5761058d611353565b6001815b60018411156114655780850481111561144957611449611353565b600184161561145757908102905b60019390931c92800261142e565b935093915050565b5f8261147b5750600161058d565b8161148757505f61058d565b816001811461149d57600281146114a7576114c3565b600191505061058d565b60ff8411156114b8576114b8611353565b50506001821b61058d565b5060208310610133831016604e8410600b84101617156114e6575081810a61058d565b6114f25f19848461142a565b805f190482111561150557611505611353565b029392505050565b5f6105d460ff84168361146d565b634e487b7160e01b5f52602160045260245ffd5b5f60ff8316806115415761154161137e565b8060ff8416069150509291505056fea2646970667358221220886f8d348754024ba7b6dcf0d14d5e582982be200cddddd671326cb25b324b8864736f6c634300081c0033","opcodes":"PUSH1 0xE0 PUSH1 0x40 MSTORE CALLVALUE DUP1 ISZERO PUSH2 0xF JUMPI PUSH0 PUSH0 REVERT JUMPDEST POP PUSH1 0x40 MLOAD PUSH2 0x19AD CODESIZE SUB DUP1 PUSH2 0x19AD DUP4 CODECOPY DUP2 ADD PUSH1 0x40 DUP2 SWAP1 MSTORE PUSH2 0x2E SWAP2 PUSH2 0x1FC JUMP JUMPDEST DUP4 DUP3 DUP3 PUSH1 0x3 PUSH2 0x3D DUP4 DUP3 PUSH2 0x30B JUMP JUMPDEST POP PUSH1 0x4 PUSH2 0x4A DUP3 DUP3 PUSH2 0x30B JUMP JUMPDEST POP POP POP PUSH0 PUSH0 PUSH2 0x5E DUP4 PUSH2 0x96 PUSH1 0x20 SHL PUSH1 0x20 SHR JUMP JUMPDEST SWAP2 POP SWAP2 POP DUP2 PUSH2 0x6E JUMPI PUSH1 0x12 PUSH2 0x70 JUMP JUMPDEST DUP1 JUMPDEST PUSH1 0xFF AND PUSH1 0xA0 MSTORE POP POP PUSH1 0x1 PUSH1 0x1 PUSH1 0xA0 SHL SUB SWAP1 DUP2 AND PUSH1 0x80 MSTORE SWAP3 SWAP1 SWAP3 AND PUSH1 0xC0 MSTORE POP PUSH2 0x3C5 SWAP2 POP POP JUMP JUMPDEST PUSH0 DUP1 DUP1 PUSH2 0xA2 PUSH1 0x40 MLOAD SWAP1 JUMP JUMPDEST PUSH1 0x40 DUP1 MLOAD PUSH1 0x4 DUP2 MSTORE PUSH1 0x24 DUP2 ADD SWAP1 SWAP2 MSTORE PUSH1 0x20 DUP2 ADD DUP1 MLOAD PUSH1 0x1 PUSH1 0x1 PUSH1 0xE0 SHL SUB SWAP1 DUP2 AND PUSH4 0x313CE567 PUSH1 0xE0 SHL OR SWAP1 SWAP2 MSTORE SWAP2 SWAP3 POP PUSH0 SWAP2 DUP3 SWAP2 PUSH2 0xE2 SWAP2 DUP9 SWAP2 SWAP1 PUSH2 0x127 AND JUMP JUMPDEST POP SWAP1 SWAP3 POP SWAP1 POP PUSH2 0xF1 DUP4 PUSH1 0x40 MSTORE JUMP JUMPDEST DUP2 DUP1 ISZERO PUSH2 0xFF JUMPI POP PUSH1 0x20 RETURNDATASIZE LT ISZERO JUMPDEST DUP1 ISZERO PUSH2 0x10C JUMPI POP PUSH1 0xFF DUP2 GT ISZERO JUMPDEST PUSH2 0x117 JUMPI PUSH0 PUSH0 PUSH2 0x11B JUMP JUMPDEST PUSH1 0x1 DUP2 JUMPDEST SWAP5 POP SWAP5 POP POP POP POP SWAP2 POP SWAP2 JUMP JUMPDEST PUSH0 PUSH0 PUSH0 PUSH1 0x40 PUSH0 DUP6 MLOAD PUSH1 0x20 DUP8 ADD DUP9 GAS STATICCALL SWAP3 POP PUSH0 MLOAD SWAP2 POP PUSH1 0x20 MLOAD SWAP1 POP SWAP3 POP SWAP3 POP SWAP3 JUMP JUMPDEST PUSH1 0x1 PUSH1 0x1 PUSH1 0xA0 SHL SUB DUP2 AND DUP2 EQ PUSH2 0x15C JUMPI PUSH0 PUSH0 REVERT JUMPDEST POP JUMP JUMPDEST PUSH4 0x4E487B71 PUSH1 0xE0 SHL PUSH0 MSTORE PUSH1 0x41 PUSH1 0x4 MSTORE PUSH1 0x24 PUSH0 REVERT JUMPDEST PUSH0 DUP3 PUSH1 0x1F DUP4 ADD SLT PUSH2 0x182 JUMPI PUSH0 PUSH0 REVERT JUMPDEST DUP2 MLOAD PUSH1 0x1 PUSH1 0x1 PUSH1 0x40 SHL SUB DUP2 GT ISZERO PUSH2 0x19B JUMPI PUSH2 0x19B PUSH2 0x15F JUMP JUMPDEST PUSH1 0x40 MLOAD PUSH1 0x1F DUP3 ADD PUSH1 0x1F NOT SWAP1 DUP2 AND PUSH1 0x3F ADD AND DUP2 ADD PUSH1 0x1 PUSH1 0x1 PUSH1 0x40 SHL SUB DUP2 GT DUP3 DUP3 LT OR ISZERO PUSH2 0x1C9 JUMPI PUSH2 0x1C9 PUSH2 0x15F JUMP JUMPDEST PUSH1 0x40 MSTORE DUP2 DUP2 MSTORE DUP4 DUP3 ADD PUSH1 0x20 ADD DUP6 LT ISZERO PUSH2 0x1E0 JUMPI PUSH0 PUSH0 REVERT JUMPDEST DUP2 PUSH1 0x20 DUP6 ADD PUSH1 0x20 DUP4 ADD MCOPY PUSH0 SWAP2 DUP2 ADD PUSH1 0x20 ADD SWAP2 SWAP1 SWAP2 MSTORE SWAP4 SWAP3 POP POP POP JUMP JUMPDEST PUSH0 PUSH0 PUSH0 PUSH0 PUSH1 0x80 DUP6 DUP8 SUB SLT ISZERO PUSH2 0x20F JUMPI PUSH0 PUSH0 REVERT JUMPDEST DUP5 MLOAD PUSH2 0x21A DUP2 PUSH2 0x148 JUMP JUMPDEST PUSH1 0x20 DUP7 ADD MLOAD SWAP1 SWAP5 POP PUSH2 0x22B DUP2 PUSH2 0x148 JUMP JUMPDEST PUSH1 0x40 DUP7 ADD MLOAD SWAP1 SWAP4 POP PUSH1 0x1 PUSH1 0x1 PUSH1 0x40 SHL SUB DUP2 GT ISZERO PUSH2 0x246 JUMPI PUSH0 PUSH0 REVERT JUMPDEST PUSH2 0x252 DUP8 DUP3 DUP9 ADD PUSH2 0x173 JUMP JUMPDEST PUSH1 0x60 DUP8 ADD MLOAD SWAP1 SWAP4 POP SWAP1 POP PUSH1 0x1 PUSH1 0x1 PUSH1 0x40 SHL SUB DUP2 GT ISZERO PUSH2 0x26F JUMPI PUSH0 PUSH0 REVERT JUMPDEST PUSH2 0x27B DUP8 DUP3 DUP9 ADD PUSH2 0x173 JUMP JUMPDEST SWAP2 POP POP SWAP3 SWAP6 SWAP2 SWAP5 POP SWAP3 POP JUMP JUMPDEST PUSH1 0x1 DUP2 DUP2 SHR SWAP1 DUP3 AND DUP1 PUSH2 0x29B JUMPI PUSH1 0x7F DUP3 AND SWAP2 POP JUMPDEST PUSH1 0x20 DUP3 LT DUP2 SUB PUSH2 0x2B9 JUMPI PUSH4 0x4E487B71 PUSH1 0xE0 SHL PUSH0 MSTORE PUSH1 0x22 PUSH1 0x4 MSTORE PUSH1 0x24 PUSH0 REVERT JUMPDEST POP SWAP2 SWAP1 POP JUMP JUMPDEST PUSH1 0x1F DUP3 GT ISZERO PUSH2 0x306 JUMPI DUP1 PUSH0 MSTORE PUSH1 0x20 PUSH0 KECCAK256 PUSH1 0x1F DUP5 ADD PUSH1 0x5 SHR DUP2 ADD PUSH1 0x20 DUP6 LT ISZERO PUSH2 0x2E4 JUMPI POP DUP1 JUMPDEST PUSH1 0x1F DUP5 ADD PUSH1 0x5 SHR DUP3 ADD SWAP2 POP JUMPDEST DUP2 DUP2 LT ISZERO PUSH2 0x303 JUMPI PUSH0 DUP2 SSTORE PUSH1 0x1 ADD PUSH2 0x2F0 JUMP JUMPDEST POP POP JUMPDEST POP POP POP JUMP JUMPDEST DUP2 MLOAD PUSH1 0x1 PUSH1 0x1 PUSH1 0x40 SHL SUB DUP2 GT ISZERO PUSH2 0x324 JUMPI PUSH2 0x324 PUSH2 0x15F JUMP JUMPDEST PUSH2 0x338 DUP2 PUSH2 0x332 DUP5 SLOAD PUSH2 0x287 JUMP JUMPDEST DUP5 PUSH2 0x2BF JUMP JUMPDEST PUSH1 0x20 PUSH1 0x1F DUP3 GT PUSH1 0x1 DUP2 EQ PUSH2 0x36A JUMPI PUSH0 DUP4 ISZERO PUSH2 0x353 JUMPI POP DUP5 DUP3 ADD MLOAD JUMPDEST PUSH0 NOT PUSH1 0x3 DUP6 SWAP1 SHL SHR NOT AND PUSH1 0x1 DUP5 SWAP1 SHL OR DUP5 SSTORE PUSH2 0x303 JUMP JUMPDEST PUSH0 DUP5 DUP2 MSTORE PUSH1 0x20 DUP2 KECCAK256 PUSH1 0x1F NOT DUP6 AND SWAP2 JUMPDEST DUP3 DUP2 LT ISZERO PUSH2 0x399 JUMPI DUP8 DUP6 ADD MLOAD DUP3 SSTORE PUSH1 0x20 SWAP5 DUP6 ADD SWAP5 PUSH1 0x1 SWAP1 SWAP3 ADD SWAP2 ADD PUSH2 0x379 JUMP JUMPDEST POP DUP5 DUP3 LT ISZERO PUSH2 0x3B6 JUMPI DUP7 DUP5 ADD MLOAD PUSH0 NOT PUSH1 0x3 DUP8 SWAP1 SHL PUSH1 0xF8 AND SHR NOT AND DUP2 SSTORE JUMPDEST POP POP POP POP PUSH1 0x1 SWAP1 DUP2 SHL ADD SWAP1 SSTORE POP JUMP JUMPDEST PUSH1 0x80 MLOAD PUSH1 0xA0 MLOAD PUSH1 0xC0 MLOAD PUSH2 0x1586 PUSH2 0x427 PUSH0 CODECOPY PUSH0 DUP2 DUP2 PUSH2 0x28C ADD MSTORE DUP2 DUP2 PUSH2 0x3C5 ADD MSTORE DUP2 DUP2 PUSH2 0x46F ADD MSTORE DUP2 DUP2 PUSH2 0x8F6 ADD MSTORE DUP2 DUP2 PUSH2 0x931 ADD MSTORE PUSH2 0xA91 ADD MSTORE PUSH0 PUSH2 0x5E2 ADD MSTORE PUSH0 DUP2 DUP2 PUSH2 0x23B ADD MSTORE DUP2 DUP2 PUSH2 0x89F ADD MSTORE DUP2 DUP2 PUSH2 0x8D4 ADD MSTORE PUSH2 0xB56 ADD MSTORE PUSH2 0x1586 PUSH0 RETURN INVALID PUSH1 0x80 PUSH1 0x40 MSTORE CALLVALUE DUP1 ISZERO PUSH2 0xF JUMPI PUSH0 PUSH0 REVERT JUMPDEST POP PUSH1 0x4 CALLDATASIZE LT PUSH2 0x187 JUMPI PUSH0 CALLDATALOAD PUSH1 0xE0 SHR DUP1 PUSH4 0x70A08231 GT PUSH2 0xD9 JUMPI DUP1 PUSH4 0xBA087652 GT PUSH2 0x93 JUMPI DUP1 PUSH4 0xCE96CB77 GT PUSH2 0x6E JUMPI DUP1 PUSH4 0xCE96CB77 EQ PUSH2 0x363 JUMPI DUP1 PUSH4 0xD905777E EQ PUSH2 0x376 JUMPI DUP1 PUSH4 0xDD62ED3E EQ PUSH2 0x389 JUMPI DUP1 PUSH4 0xEF8B30F7 EQ PUSH2 0x350 JUMPI PUSH0 PUSH0 REVERT JUMPDEST DUP1 PUSH4 0xBA087652 EQ PUSH2 0x33D JUMPI DUP1 PUSH4 0xC63D75B6 EQ PUSH2 0x273 JUMPI DUP1 PUSH4 0xC6E6F592 EQ PUSH2 0x350 JUMPI PUSH0 PUSH0 REVERT JUMPDEST DUP1 PUSH4 0x70A08231 EQ PUSH2 0x2C1 JUMPI DUP1 PUSH4 0x94BF804D EQ PUSH2 0x2E9 JUMPI DUP1 PUSH4 0x95D89B41 EQ PUSH2 0x2FC JUMPI DUP1 PUSH4 0xA9059CBB EQ PUSH2 0x304 JUMPI DUP1 PUSH4 0xB3D7F6B9 EQ PUSH2 0x317 JUMPI DUP1 PUSH4 0xB460AF94 EQ PUSH2 0x32A JUMPI PUSH0 PUSH0 REVERT JUMPDEST DUP1 PUSH4 0x23B872DD GT PUSH2 0x144 JUMPI DUP1 PUSH4 0x402D267D GT PUSH2 0x11F JUMPI DUP1 PUSH4 0x402D267D EQ PUSH2 0x273 JUMPI DUP1 PUSH4 0x4CDAD506 EQ PUSH2 0x1BB JUMPI DUP1 PUSH4 0x69E527DA EQ PUSH2 0x287 JUMPI DUP1 PUSH4 0x6E553F65 EQ PUSH2 0x2AE JUMPI PUSH0 PUSH0 REVERT JUMPDEST DUP1 PUSH4 0x23B872DD EQ PUSH2 0x20C JUMPI DUP1 PUSH4 0x313CE567 EQ PUSH2 0x21F JUMPI DUP1 PUSH4 0x38D52E0F EQ PUSH2 0x239 JUMPI PUSH0 PUSH0 REVERT JUMPDEST DUP1 PUSH4 0x1E1D114 EQ PUSH2 0x18B JUMPI DUP1 PUSH4 0x6FDDE03 EQ PUSH2 0x1A6 JUMPI DUP1 PUSH4 0x7A2D13A EQ PUSH2 0x1BB JUMPI DUP1 PUSH4 0x95EA7B3 EQ PUSH2 0x1CE JUMPI DUP1 PUSH4 0xA28A477 EQ PUSH2 0x1F1 JUMPI DUP1 PUSH4 0x18160DDD EQ PUSH2 0x204 JUMPI JUMPDEST PUSH0 PUSH0 REVERT JUMPDEST PUSH2 0x193 PUSH2 0x3C1 JUMP JUMPDEST PUSH1 0x40 MLOAD SWAP1 DUP2 MSTORE PUSH1 0x20 ADD JUMPDEST PUSH1 0x40 MLOAD DUP1 SWAP2 SUB SWAP1 RETURN JUMPDEST PUSH2 0x1AE PUSH2 0x4F2 JUMP JUMPDEST PUSH1 0x40 MLOAD PUSH2 0x19D SWAP2 SWAP1 PUSH2 0x11CF JUMP JUMPDEST PUSH2 0x193 PUSH2 0x1C9 CALLDATASIZE PUSH1 0x4 PUSH2 0x1204 JUMP JUMPDEST PUSH2 0x582 JUMP JUMPDEST PUSH2 0x1E1 PUSH2 0x1DC CALLDATASIZE PUSH1 0x4 PUSH2 0x1236 JUMP JUMPDEST PUSH2 0x593 JUMP JUMPDEST PUSH1 0x40 MLOAD SWAP1 ISZERO ISZERO DUP2 MSTORE PUSH1 0x20 ADD PUSH2 0x19D JUMP JUMPDEST PUSH2 0x193 PUSH2 0x1FF CALLDATASIZE PUSH1 0x4 PUSH2 0x1204 JUMP JUMPDEST PUSH2 0x5AA JUMP JUMPDEST PUSH1 0x2 SLOAD PUSH2 0x193 JUMP JUMPDEST PUSH2 0x1E1 PUSH2 0x21A CALLDATASIZE PUSH1 0x4 PUSH2 0x125E JUMP JUMPDEST PUSH2 0x5B6 JUMP JUMPDEST PUSH2 0x227 PUSH2 0x5DB JUMP JUMPDEST PUSH1 0x40 MLOAD PUSH1 0xFF SWAP1 SWAP2 AND DUP2 MSTORE PUSH1 0x20 ADD PUSH2 0x19D JUMP JUMPDEST PUSH32 0x0 JUMPDEST PUSH1 0x40 MLOAD PUSH1 0x1 PUSH1 0x1 PUSH1 0xA0 SHL SUB SWAP1 SWAP2 AND DUP2 MSTORE PUSH1 0x20 ADD PUSH2 0x19D JUMP JUMPDEST PUSH2 0x193 PUSH2 0x281 CALLDATASIZE PUSH1 0x4 PUSH2 0x1298 JUMP JUMPDEST POP PUSH0 NOT SWAP1 JUMP JUMPDEST PUSH2 0x25B PUSH32 0x0 DUP2 JUMP JUMPDEST PUSH2 0x193 PUSH2 0x2BC CALLDATASIZE PUSH1 0x4 PUSH2 0x12B1 JUMP JUMPDEST PUSH2 0x60B JUMP JUMPDEST PUSH2 0x193 PUSH2 0x2CF CALLDATASIZE PUSH1 0x4 PUSH2 0x1298 JUMP JUMPDEST PUSH1 0x1 PUSH1 0x1 PUSH1 0xA0 SHL SUB AND PUSH0 SWAP1 DUP2 MSTORE PUSH1 0x20 DUP2 SWAP1 MSTORE PUSH1 0x40 SWAP1 KECCAK256 SLOAD SWAP1 JUMP JUMPDEST PUSH2 0x193 PUSH2 0x2F7 CALLDATASIZE PUSH1 0x4 PUSH2 0x12B1 JUMP JUMPDEST PUSH2 0x63C JUMP JUMPDEST PUSH2 0x1AE PUSH2 0x657 JUMP JUMPDEST PUSH2 0x1E1 PUSH2 0x312 CALLDATASIZE PUSH1 0x4 PUSH2 0x1236 JUMP JUMPDEST PUSH2 0x666 JUMP JUMPDEST PUSH2 0x193 PUSH2 0x325 CALLDATASIZE PUSH1 0x4 PUSH2 0x1204 JUMP JUMPDEST PUSH2 0x673 JUMP JUMPDEST PUSH2 0x193 PUSH2 0x338 CALLDATASIZE PUSH1 0x4 PUSH2 0x12DB JUMP JUMPDEST PUSH2 0x67F JUMP JUMPDEST PUSH2 0x193 PUSH2 0x34B CALLDATASIZE PUSH1 0x4 PUSH2 0x12DB JUMP JUMPDEST PUSH2 0x6D5 JUMP JUMPDEST PUSH2 0x193 PUSH2 0x35E CALLDATASIZE PUSH1 0x4 PUSH2 0x1204 JUMP JUMPDEST PUSH2 0x722 JUMP JUMPDEST PUSH2 0x193 PUSH2 0x371 CALLDATASIZE PUSH1 0x4 PUSH2 0x1298 JUMP JUMPDEST PUSH2 0x72D JUMP JUMPDEST PUSH2 0x193 PUSH2 0x384 CALLDATASIZE PUSH1 0x4 PUSH2 0x1298 JUMP JUMPDEST PUSH2 0x736 JUMP JUMPDEST PUSH2 0x193 PUSH2 0x397 CALLDATASIZE PUSH1 0x4 PUSH2 0x1314 JUMP JUMPDEST PUSH1 0x1 PUSH1 0x1 PUSH1 0xA0 SHL SUB SWAP2 DUP3 AND PUSH0 SWAP1 DUP2 MSTORE PUSH1 0x1 PUSH1 0x20 SWAP1 DUP2 MSTORE PUSH1 0x40 DUP1 DUP4 KECCAK256 SWAP4 SWAP1 SWAP5 AND DUP3 MSTORE SWAP2 SWAP1 SWAP2 MSTORE KECCAK256 SLOAD SWAP1 JUMP JUMPDEST PUSH0 PUSH0 PUSH32 0x0 PUSH1 0x1 PUSH1 0x1 PUSH1 0xA0 SHL SUB AND PUSH4 0x182DF0F5 PUSH1 0x40 MLOAD DUP2 PUSH4 0xFFFFFFFF AND PUSH1 0xE0 SHL DUP2 MSTORE PUSH1 0x4 ADD PUSH1 0x20 PUSH1 0x40 MLOAD DUP1 DUP4 SUB DUP2 DUP7 GAS STATICCALL ISZERO DUP1 ISZERO PUSH2 0x41F JUMPI RETURNDATASIZE PUSH0 PUSH0 RETURNDATACOPY RETURNDATASIZE PUSH0 REVERT JUMPDEST POP POP POP POP PUSH1 0x40 MLOAD RETURNDATASIZE PUSH1 0x1F NOT PUSH1 0x1F DUP3 ADD AND DUP3 ADD DUP1 PUSH1 0x40 MSTORE POP DUP2 ADD SWAP1 PUSH2 0x443 SWAP2 SWAP1 PUSH2 0x133C JUMP JUMPDEST PUSH1 0x40 MLOAD PUSH4 0x70A08231 PUSH1 0xE0 SHL DUP2 MSTORE ADDRESS PUSH1 0x4 DUP3 ADD MSTORE SWAP1 SWAP2 POP PUSH8 0xDE0B6B3A7640000 SWAP1 DUP3 SWAP1 PUSH1 0x1 PUSH1 0x1 PUSH1 0xA0 SHL SUB PUSH32 0x0 AND SWAP1 PUSH4 0x70A08231 SWAP1 PUSH1 0x24 ADD PUSH1 0x20 PUSH1 0x40 MLOAD DUP1 DUP4 SUB DUP2 DUP7 GAS STATICCALL ISZERO DUP1 ISZERO PUSH2 0x4B4 JUMPI RETURNDATASIZE PUSH0 PUSH0 RETURNDATACOPY RETURNDATASIZE PUSH0 REVERT JUMPDEST POP POP POP POP PUSH1 0x40 MLOAD RETURNDATASIZE PUSH1 0x1F NOT PUSH1 0x1F DUP3 ADD AND DUP3 ADD DUP1 PUSH1 0x40 MSTORE POP DUP2 ADD SWAP1 PUSH2 0x4D8 SWAP2 SWAP1 PUSH2 0x133C JUMP JUMPDEST PUSH2 0x4E2 SWAP2 SWAP1 PUSH2 0x1367 JUMP JUMPDEST PUSH2 0x4EC SWAP2 SWAP1 PUSH2 0x1392 JUMP JUMPDEST SWAP2 POP POP SWAP1 JUMP JUMPDEST PUSH1 0x60 PUSH1 0x3 DUP1 SLOAD PUSH2 0x501 SWAP1 PUSH2 0x13A5 JUMP JUMPDEST DUP1 PUSH1 0x1F ADD PUSH1 0x20 DUP1 SWAP2 DIV MUL PUSH1 0x20 ADD PUSH1 0x40 MLOAD SWAP1 DUP2 ADD PUSH1 0x40 MSTORE DUP1 SWAP3 SWAP2 SWAP1 DUP2 DUP2 MSTORE PUSH1 0x20 ADD DUP3 DUP1 SLOAD PUSH2 0x52D SWAP1 PUSH2 0x13A5 JUMP JUMPDEST DUP1 ISZERO PUSH2 0x578 JUMPI DUP1 PUSH1 0x1F LT PUSH2 0x54F JUMPI PUSH2 0x100 DUP1 DUP4 SLOAD DIV MUL DUP4 MSTORE SWAP2 PUSH1 0x20 ADD SWAP2 PUSH2 0x578 JUMP JUMPDEST DUP3 ADD SWAP2 SWAP1 PUSH0 MSTORE PUSH1 0x20 PUSH0 KECCAK256 SWAP1 JUMPDEST DUP2 SLOAD DUP2 MSTORE SWAP1 PUSH1 0x1 ADD SWAP1 PUSH1 0x20 ADD DUP1 DUP4 GT PUSH2 0x55B JUMPI DUP3 SWAP1 SUB PUSH1 0x1F AND DUP3 ADD SWAP2 JUMPDEST POP POP POP POP POP SWAP1 POP SWAP1 JUMP JUMPDEST PUSH0 PUSH2 0x58D DUP3 PUSH0 PUSH2 0x753 JUMP JUMPDEST SWAP3 SWAP2 POP POP JUMP JUMPDEST PUSH0 CALLER PUSH2 0x5A0 DUP2 DUP6 DUP6 PUSH2 0x78B JUMP JUMPDEST POP PUSH1 0x1 SWAP4 SWAP3 POP POP POP JUMP JUMPDEST PUSH0 PUSH2 0x58D DUP3 PUSH1 0x1 PUSH2 0x79D JUMP JUMPDEST PUSH0 CALLER PUSH2 0x5C3 DUP6 DUP3 DUP6 PUSH2 0x7CC JUMP JUMPDEST PUSH2 0x5CE DUP6 DUP6 DUP6 PUSH2 0x835 JUMP JUMPDEST PUSH1 0x1 SWAP2 POP POP JUMPDEST SWAP4 SWAP3 POP POP POP JUMP JUMPDEST PUSH0 PUSH2 0x606 DUP2 PUSH32 0x0 PUSH2 0x13DD JUMP JUMPDEST SWAP1 POP SWAP1 JUMP JUMPDEST PUSH0 PUSH0 NOT PUSH2 0x61C JUMP JUMPDEST PUSH1 0x40 MLOAD DUP1 SWAP2 SUB SWAP1 REVERT JUMPDEST PUSH0 PUSH2 0x626 DUP6 PUSH2 0x722 JUMP JUMPDEST SWAP1 POP PUSH2 0x634 CALLER DUP6 DUP8 DUP5 PUSH2 0x892 JUMP JUMPDEST SWAP5 SWAP4 POP POP POP POP JUMP JUMPDEST PUSH0 PUSH0 NOT PUSH0 PUSH2 0x649 DUP6 PUSH2 0x673 JUMP JUMPDEST SWAP1 POP PUSH2 0x634 CALLER DUP6 DUP4 DUP9 PUSH2 0x892 JUMP JUMPDEST PUSH1 0x60 PUSH1 0x4 DUP1 SLOAD PUSH2 0x501 SWAP1 PUSH2 0x13A5 JUMP JUMPDEST PUSH0 CALLER PUSH2 0x5A0 DUP2 DUP6 DUP6 PUSH2 0x835 JUMP JUMPDEST PUSH0 PUSH2 0x58D DUP3 PUSH1 0x1 PUSH2 0x753 JUMP JUMPDEST PUSH0 PUSH0 PUSH2 0x68A DUP4 PUSH2 0x72D JUMP JUMPDEST SWAP1 POP DUP1 DUP6 GT ISZERO PUSH2 0x6B3 JUMPI DUP3 DUP6 DUP3 PUSH1 0x40 MLOAD PUSH4 0x3FA733BB PUSH1 0xE2 SHL DUP2 MSTORE PUSH1 0x4 ADD PUSH2 0x613 SWAP4 SWAP3 SWAP2 SWAP1 PUSH2 0x13F6 JUMP JUMPDEST PUSH0 PUSH2 0x6BD DUP7 PUSH2 0x5AA JUMP JUMPDEST SWAP1 POP PUSH2 0x6CC CALLER DUP7 DUP7 DUP10 DUP6 PUSH2 0xA4D JUMP JUMPDEST SWAP6 SWAP5 POP POP POP POP POP JUMP JUMPDEST PUSH0 PUSH0 PUSH2 0x6E0 DUP4 PUSH2 0x736 JUMP JUMPDEST SWAP1 POP DUP1 DUP6 GT ISZERO PUSH2 0x709 JUMPI DUP3 DUP6 DUP3 PUSH1 0x40 MLOAD PUSH4 0x2E52AFBB PUSH1 0xE2 SHL DUP2 MSTORE PUSH1 0x4 ADD PUSH2 0x613 SWAP4 SWAP3 SWAP2 SWAP1 PUSH2 0x13F6 JUMP JUMPDEST PUSH0 PUSH2 0x713 DUP7 PUSH2 0x582 JUMP JUMPDEST SWAP1 POP PUSH2 0x6CC CALLER DUP7 DUP7 DUP5 DUP11 PUSH2 0xA4D JUMP JUMPDEST PUSH0 PUSH2 0x58D DUP3 PUSH0 PUSH2 0x79D JUMP JUMPDEST PUSH0 PUSH2 0x58D PUSH2 0x1C9 DUP4 JUMPDEST PUSH1 0x1 PUSH1 0x1 PUSH1 0xA0 SHL SUB DUP2 AND PUSH0 SWAP1 DUP2 MSTORE PUSH1 0x20 DUP2 SWAP1 MSTORE PUSH1 0x40 DUP2 KECCAK256 SLOAD PUSH2 0x58D JUMP JUMPDEST PUSH0 PUSH2 0x5D4 PUSH2 0x75F PUSH2 0x3C1 JUMP JUMPDEST PUSH2 0x76A SWAP1 PUSH1 0x1 PUSH2 0x1417 JUMP JUMPDEST PUSH2 0x775 PUSH0 PUSH1 0xA PUSH2 0x150D JUMP JUMPDEST PUSH1 0x2 SLOAD PUSH2 0x782 SWAP2 SWAP1 PUSH2 0x1417 JUMP JUMPDEST DUP6 SWAP2 SWAP1 DUP6 PUSH2 0xBE4 JUMP JUMPDEST PUSH2 0x798 DUP4 DUP4 DUP4 PUSH1 0x1 PUSH2 0xC26 JUMP JUMPDEST POP POP POP JUMP JUMPDEST PUSH0 PUSH2 0x5D4 PUSH2 0x7AC DUP3 PUSH1 0xA PUSH2 0x150D JUMP JUMPDEST PUSH1 0x2 SLOAD PUSH2 0x7B9 SWAP2 SWAP1 PUSH2 0x1417 JUMP JUMPDEST PUSH2 0x7C1 PUSH2 0x3C1 JUMP JUMPDEST PUSH2 0x782 SWAP1 PUSH1 0x1 PUSH2 0x1417 JUMP JUMPDEST PUSH1 0x1 PUSH1 0x1 PUSH1 0xA0 SHL SUB DUP4 DUP2 AND PUSH0 SWAP1 DUP2 MSTORE PUSH1 0x1 PUSH1 0x20 SWAP1 DUP2 MSTORE PUSH1 0x40 DUP1 DUP4 KECCAK256 SWAP4 DUP7 AND DUP4 MSTORE SWAP3 SWAP1 MSTORE KECCAK256 SLOAD PUSH0 NOT DUP2 LT ISZERO PUSH2 0x82F JUMPI DUP2 DUP2 LT ISZERO PUSH2 0x821 JUMPI DUP3 DUP2 DUP4 PUSH1 0x40 MLOAD PUSH4 0x7DC7A0D9 PUSH1 0xE1 SHL DUP2 MSTORE PUSH1 0x4 ADD PUSH2 0x613 SWAP4 SWAP3 SWAP2 SWAP1 PUSH2 0x13F6 JUMP JUMPDEST PUSH2 0x82F DUP5 DUP5 DUP5 DUP5 SUB PUSH0 PUSH2 0xC26 JUMP JUMPDEST POP POP POP POP JUMP JUMPDEST PUSH1 0x1 PUSH1 0x1 PUSH1 0xA0 SHL SUB DUP4 AND PUSH2 0x85E JUMPI PUSH1 0x40 MLOAD PUSH4 0x4B637E8F PUSH1 0xE1 SHL DUP2 MSTORE PUSH0 PUSH1 0x4 DUP3 ADD MSTORE PUSH1 0x24 ADD PUSH2 0x613 JUMP JUMPDEST PUSH1 0x1 PUSH1 0x1 PUSH1 0xA0 SHL SUB DUP3 AND PUSH2 0x887 JUMPI PUSH1 0x40 MLOAD PUSH4 0xEC442F05 PUSH1 0xE0 SHL DUP2 MSTORE PUSH0 PUSH1 0x4 DUP3 ADD MSTORE PUSH1 0x24 ADD PUSH2 0x613 JUMP JUMPDEST PUSH2 0x798 DUP4 DUP4 DUP4 PUSH2 0xCEA JUMP JUMPDEST PUSH2 0x8C7 PUSH1 0x1 PUSH1 0x1 PUSH1 0xA0 SHL SUB PUSH32 0x0 AND DUP6 ADDRESS DUP6 PUSH2 0xDFD JUMP JUMPDEST PUSH2 0x91B PUSH1 0x1 PUSH1 0x1 PUSH1 0xA0 SHL SUB PUSH32 0x0 AND PUSH32 0x0 DUP5 PUSH2 0xE33 JUMP JUMPDEST PUSH1 0x40 MLOAD PUSH4 0x140E25AD PUSH1 0xE3 SHL DUP2 MSTORE PUSH1 0x4 DUP2 ADD DUP4 SWAP1 MSTORE PUSH32 0x0 PUSH1 0x1 PUSH1 0x1 PUSH1 0xA0 SHL SUB AND SWAP1 PUSH4 0xA0712D68 SWAP1 PUSH1 0x24 ADD PUSH1 0x20 PUSH1 0x40 MLOAD DUP1 DUP4 SUB DUP2 PUSH0 DUP8 GAS CALL ISZERO DUP1 ISZERO PUSH2 0x97F JUMPI RETURNDATASIZE PUSH0 PUSH0 RETURNDATACOPY RETURNDATASIZE PUSH0 REVERT JUMPDEST POP POP POP POP PUSH1 0x40 MLOAD RETURNDATASIZE PUSH1 0x1F NOT PUSH1 0x1F DUP3 ADD AND DUP3 ADD DUP1 PUSH1 0x40 MSTORE POP DUP2 ADD SWAP1 PUSH2 0x9A3 SWAP2 SWAP1 PUSH2 0x133C JUMP JUMPDEST ISZERO PUSH2 0x9E7 JUMPI PUSH1 0x40 MLOAD PUSH3 0x461BCD PUSH1 0xE5 SHL DUP2 MSTORE PUSH1 0x20 PUSH1 0x4 DUP3 ADD MSTORE PUSH1 0x14 PUSH1 0x24 DUP3 ADD MSTORE PUSH20 0x14525153195B990E881B5A5B9D0819985A5B1959 PUSH1 0x62 SHL PUSH1 0x44 DUP3 ADD MSTORE PUSH1 0x64 ADD PUSH2 0x613 JUMP JUMPDEST PUSH2 0x9F1 DUP4 DUP3 PUSH2 0xEBA JUMP JUMPDEST DUP3 PUSH1 0x1 PUSH1 0x1 PUSH1 0xA0 SHL SUB AND DUP5 PUSH1 0x1 PUSH1 0x1 PUSH1 0xA0 SHL SUB AND PUSH32 0xDCBC1C05240F31FF3AD067EF1EE35CE4997762752E3A095284754544F4C709D7 DUP5 DUP5 PUSH1 0x40 MLOAD PUSH2 0xA3F SWAP3 SWAP2 SWAP1 SWAP2 DUP3 MSTORE PUSH1 0x20 DUP3 ADD MSTORE PUSH1 0x40 ADD SWAP1 JUMP JUMPDEST PUSH1 0x40 MLOAD DUP1 SWAP2 SUB SWAP1 LOG3 POP POP POP POP JUMP JUMPDEST DUP3 PUSH1 0x1 PUSH1 0x1 PUSH1 0xA0 SHL SUB AND DUP6 PUSH1 0x1 PUSH1 0x1 PUSH1 0xA0 SHL SUB AND EQ PUSH2 0xA71 JUMPI PUSH2 0xA71 DUP4 DUP7 DUP4 PUSH2 0x7CC JUMP JUMPDEST PUSH2 0xA7B DUP4 DUP3 PUSH2 0xEF2 JUMP JUMPDEST PUSH1 0x40 MLOAD PUSH4 0x852A12E3 PUSH1 0xE0 SHL DUP2 MSTORE PUSH1 0x4 DUP2 ADD DUP4 SWAP1 MSTORE PUSH32 0x0 PUSH1 0x1 PUSH1 0x1 PUSH1 0xA0 SHL SUB AND SWAP1 PUSH4 0x852A12E3 SWAP1 PUSH1 0x24 ADD PUSH1 0x20 PUSH1 0x40 MLOAD DUP1 DUP4 SUB DUP2 PUSH0 DUP8 GAS CALL ISZERO DUP1 ISZERO PUSH2 0xADF JUMPI RETURNDATASIZE PUSH0 PUSH0 RETURNDATACOPY RETURNDATASIZE PUSH0 REVERT JUMPDEST POP POP POP POP PUSH1 0x40 MLOAD RETURNDATASIZE PUSH1 0x1F NOT PUSH1 0x1F DUP3 ADD AND DUP3 ADD DUP1 PUSH1 0x40 MSTORE POP DUP2 ADD SWAP1 PUSH2 0xB03 SWAP2 SWAP1 PUSH2 0x133C JUMP JUMPDEST ISZERO PUSH2 0xB49 JUMPI PUSH1 0x40 MLOAD PUSH3 0x461BCD PUSH1 0xE5 SHL DUP2 MSTORE PUSH1 0x20 PUSH1 0x4 DUP3 ADD MSTORE PUSH1 0x16 PUSH1 0x24 DUP3 ADD MSTORE PUSH22 0x14525153195B990E881C995919595B4819985A5B1959 PUSH1 0x52 SHL PUSH1 0x44 DUP3 ADD MSTORE PUSH1 0x64 ADD PUSH2 0x613 JUMP JUMPDEST PUSH2 0xB7D PUSH1 0x1 PUSH1 0x1 PUSH1 0xA0 SHL SUB PUSH32 0x0 AND DUP6 DUP5 PUSH2 0xF26 JUMP JUMPDEST DUP3 PUSH1 0x1 PUSH1 0x1 PUSH1 0xA0 SHL SUB AND DUP5 PUSH1 0x1 PUSH1 0x1 PUSH1 0xA0 SHL SUB AND DUP7 PUSH1 0x1 PUSH1 0x1 PUSH1 0xA0 SHL SUB AND PUSH32 0xFBDE797D201C681B91056529119E0B02407C7BB96A4A2C75C01FC9667232C8DB DUP6 DUP6 PUSH1 0x40 MLOAD PUSH2 0xBD5 SWAP3 SWAP2 SWAP1 SWAP2 DUP3 MSTORE PUSH1 0x20 DUP3 ADD MSTORE PUSH1 0x40 ADD SWAP1 JUMP JUMPDEST PUSH1 0x40 MLOAD DUP1 SWAP2 SUB SWAP1 LOG4 POP POP POP POP POP JUMP JUMPDEST PUSH0 PUSH2 0xC11 PUSH2 0xBF1 DUP4 PUSH2 0xF5B JUMP JUMPDEST DUP1 ISZERO PUSH2 0xC0C JUMPI POP PUSH0 DUP5 DUP1 PUSH2 0xC07 JUMPI PUSH2 0xC07 PUSH2 0x137E JUMP JUMPDEST DUP7 DUP9 MULMOD GT JUMPDEST ISZERO ISZERO SWAP1 JUMP JUMPDEST PUSH2 0xC1C DUP7 DUP7 DUP7 PUSH2 0xF87 JUMP JUMPDEST PUSH2 0x6CC SWAP2 SWAP1 PUSH2 0x1417 JUMP JUMPDEST PUSH1 0x1 PUSH1 0x1 PUSH1 0xA0 SHL SUB DUP5 AND PUSH2 0xC4F JUMPI PUSH1 0x40 MLOAD PUSH4 0xE602DF05 PUSH1 0xE0 SHL DUP2 MSTORE PUSH0 PUSH1 0x4 DUP3 ADD MSTORE PUSH1 0x24 ADD PUSH2 0x613 JUMP JUMPDEST PUSH1 0x1 PUSH1 0x1 PUSH1 0xA0 SHL SUB DUP4 AND PUSH2 0xC78 JUMPI PUSH1 0x40 MLOAD PUSH4 0x4A1406B1 PUSH1 0xE1 SHL DUP2 MSTORE PUSH0 PUSH1 0x4 DUP3 ADD MSTORE PUSH1 0x24 ADD PUSH2 0x613 JUMP JUMPDEST PUSH1 0x1 PUSH1 0x1 PUSH1 0xA0 SHL SUB DUP1 DUP6 AND PUSH0 SWAP1 DUP2 MSTORE PUSH1 0x1 PUSH1 0x20 SWAP1 DUP2 MSTORE PUSH1 0x40 DUP1 DUP4 KECCAK256 SWAP4 DUP8 AND DUP4 MSTORE SWAP3 SWAP1 MSTORE KECCAK256 DUP3 SWAP1 SSTORE DUP1 ISZERO PUSH2 0x82F JUMPI DUP3 PUSH1 0x1 PUSH1 0x1 PUSH1 0xA0 SHL SUB AND DUP5 PUSH1 0x1 PUSH1 0x1 PUSH1 0xA0 SHL SUB AND PUSH32 0x8C5BE1E5EBEC7D5BD14F71427D1E84F3DD0314C0F7B2291E5B200AC8C7C3B925 DUP5 PUSH1 0x40 MLOAD PUSH2 0xA3F SWAP2 DUP2 MSTORE PUSH1 0x20 ADD SWAP1 JUMP JUMPDEST PUSH1 0x1 PUSH1 0x1 PUSH1 0xA0 SHL SUB DUP4 AND PUSH2 0xD14 JUMPI DUP1 PUSH1 0x2 PUSH0 DUP3 DUP3 SLOAD PUSH2 0xD09 SWAP2 SWAP1 PUSH2 0x1417 JUMP JUMPDEST SWAP1 SWAP2 SSTORE POP PUSH2 0xD71 SWAP1 POP JUMP JUMPDEST PUSH1 0x1 PUSH1 0x1 PUSH1 0xA0 SHL SUB DUP4 AND PUSH0 SWAP1 DUP2 MSTORE PUSH1 0x20 DUP2 SWAP1 MSTORE PUSH1 0x40 SWAP1 KECCAK256 SLOAD DUP2 DUP2 LT ISZERO PUSH2 0xD53 JUMPI DUP4 DUP2 DUP4 PUSH1 0x40 MLOAD PUSH4 0x391434E3 PUSH1 0xE2 SHL DUP2 MSTORE PUSH1 0x4 ADD PUSH2 0x613 SWAP4 SWAP3 SWAP2 SWAP1 PUSH2 0x13F6 JUMP JUMPDEST PUSH1 0x1 PUSH1 0x1 PUSH1 0xA0 SHL SUB DUP5 AND PUSH0 SWAP1 DUP2 MSTORE PUSH1 0x20 DUP2 SWAP1 MSTORE PUSH1 0x40 SWAP1 KECCAK256 SWAP1 DUP3 SWAP1 SUB SWAP1 SSTORE JUMPDEST PUSH1 0x1 PUSH1 0x1 PUSH1 0xA0 SHL SUB DUP3 AND PUSH2 0xD8D JUMPI PUSH1 0x2 DUP1 SLOAD DUP3 SWAP1 SUB SWAP1 SSTORE PUSH2 0xDAB JUMP JUMPDEST PUSH1 0x1 PUSH1 0x1 PUSH1 0xA0 SHL SUB DUP3 AND PUSH0 SWAP1 DUP2 MSTORE PUSH1 0x20 DUP2 SWAP1 MSTORE PUSH1 0x40 SWAP1 KECCAK256 DUP1 SLOAD DUP3 ADD SWAP1 SSTORE JUMPDEST DUP2 PUSH1 0x1 PUSH1 0x1 PUSH1 0xA0 SHL SUB AND DUP4 PUSH1 0x1 PUSH1 0x1 PUSH1 0xA0 SHL SUB AND PUSH32 0xDDF252AD1BE2C89B69C2B068FC378DAA952BA7F163C4A11628F55A4DF523B3EF DUP4 PUSH1 0x40 MLOAD PUSH2 0xDF0 SWAP2 DUP2 MSTORE PUSH1 0x20 ADD SWAP1 JUMP JUMPDEST PUSH1 0x40 MLOAD DUP1 SWAP2 SUB SWAP1 LOG3 POP POP POP JUMP JUMPDEST PUSH2 0xE0B DUP5 DUP5 DUP5 DUP5 PUSH1 0x1 PUSH2 0x1037 JUMP JUMPDEST PUSH2 0x82F JUMPI PUSH1 0x40 MLOAD PUSH4 0x5274AFE7 PUSH1 0xE0 SHL DUP2 MSTORE PUSH1 0x1 PUSH1 0x1 PUSH1 0xA0 SHL SUB DUP6 AND PUSH1 0x4 DUP3 ADD MSTORE PUSH1 0x24 ADD PUSH2 0x613 JUMP JUMPDEST PUSH1 0x40 MLOAD PUSH4 0x6EB1769F PUSH1 0xE1 SHL DUP2 MSTORE ADDRESS PUSH1 0x4 DUP3 ADD MSTORE PUSH1 0x1 PUSH1 0x1 PUSH1 0xA0 SHL SUB DUP4 DUP2 AND PUSH1 0x24 DUP4 ADD MSTORE PUSH0 SWAP2 SWAP1 DUP6 AND SWAP1 PUSH4 0xDD62ED3E SWAP1 PUSH1 0x44 ADD PUSH1 0x20 PUSH1 0x40 MLOAD DUP1 DUP4 SUB DUP2 DUP7 GAS STATICCALL ISZERO DUP1 ISZERO PUSH2 0xE80 JUMPI RETURNDATASIZE PUSH0 PUSH0 RETURNDATACOPY RETURNDATASIZE PUSH0 REVERT JUMPDEST POP POP POP POP PUSH1 0x40 MLOAD RETURNDATASIZE PUSH1 0x1F NOT PUSH1 0x1F DUP3 ADD AND DUP3 ADD DUP1 PUSH1 0x40 MSTORE POP DUP2 ADD SWAP1 PUSH2 0xEA4 SWAP2 SWAP1 PUSH2 0x133C JUMP JUMPDEST SWAP1 POP PUSH2 0x82F DUP5 DUP5 PUSH2 0xEB5 DUP6 DUP6 PUSH2 0x1417 JUMP JUMPDEST PUSH2 0x10A4 JUMP JUMPDEST PUSH1 0x1 PUSH1 0x1 PUSH1 0xA0 SHL SUB DUP3 AND PUSH2 0xEE3 JUMPI PUSH1 0x40 MLOAD PUSH4 0xEC442F05 PUSH1 0xE0 SHL DUP2 MSTORE PUSH0 PUSH1 0x4 DUP3 ADD MSTORE PUSH1 0x24 ADD PUSH2 0x613 JUMP JUMPDEST PUSH2 0xEEE PUSH0 DUP4 DUP4 PUSH2 0xCEA JUMP JUMPDEST POP POP JUMP JUMPDEST PUSH1 0x1 PUSH1 0x1 PUSH1 0xA0 SHL SUB DUP3 AND PUSH2 0xF1B JUMPI PUSH1 0x40 MLOAD PUSH4 0x4B637E8F PUSH1 0xE1 SHL DUP2 MSTORE PUSH0 PUSH1 0x4 DUP3 ADD MSTORE PUSH1 0x24 ADD PUSH2 0x613 JUMP JUMPDEST PUSH2 0xEEE DUP3 PUSH0 DUP4 PUSH2 0xCEA JUMP JUMPDEST PUSH2 0xF33 DUP4 DUP4 DUP4 PUSH1 0x1 PUSH2 0x10F6 JUMP JUMPDEST PUSH2 0x798 JUMPI PUSH1 0x40 MLOAD PUSH4 0x5274AFE7 PUSH1 0xE0 SHL DUP2 MSTORE PUSH1 0x1 PUSH1 0x1 PUSH1 0xA0 SHL SUB DUP5 AND PUSH1 0x4 DUP3 ADD MSTORE PUSH1 0x24 ADD PUSH2 0x613 JUMP JUMPDEST PUSH0 PUSH1 0x2 DUP3 PUSH1 0x3 DUP2 GT ISZERO PUSH2 0xF70 JUMPI PUSH2 0xF70 PUSH2 0x151B JUMP JUMPDEST PUSH2 0xF7A SWAP2 SWAP1 PUSH2 0x152F JUMP JUMPDEST PUSH1 0xFF AND PUSH1 0x1 EQ SWAP1 POP SWAP2 SWAP1 POP JUMP JUMPDEST PUSH0 PUSH0 PUSH0 PUSH2 0xF94 DUP7 DUP7 PUSH2 0x1158 JUMP JUMPDEST SWAP2 POP SWAP2 POP DUP2 PUSH0 SUB PUSH2 0xFB8 JUMPI DUP4 DUP2 DUP2 PUSH2 0xFAE JUMPI PUSH2 0xFAE PUSH2 0x137E JUMP JUMPDEST DIV SWAP3 POP POP POP PUSH2 0x5D4 JUMP JUMPDEST DUP2 DUP5 GT PUSH2 0xFCF JUMPI PUSH2 0xFCF PUSH1 0x3 DUP6 ISZERO MUL PUSH1 0x11 XOR PUSH2 0x1174 JUMP JUMPDEST PUSH0 DUP5 DUP7 DUP9 MULMOD PUSH0 DUP7 DUP2 SUB DUP8 AND SWAP7 DUP8 SWAP1 DIV SWAP7 PUSH1 0x2 PUSH1 0x3 DUP10 MUL DUP2 XOR DUP1 DUP11 MUL DUP3 SUB MUL DUP1 DUP11 MUL DUP3 SUB MUL DUP1 DUP11 MUL DUP3 SUB MUL DUP1 DUP11 MUL DUP3 SUB MUL DUP1 DUP11 MUL DUP3 SUB MUL DUP1 DUP11 MUL SWAP1 SWAP2 SUB MUL SWAP2 DUP2 SWAP1 SUB DUP2 SWAP1 DIV PUSH1 0x1 ADD DUP6 DUP5 GT SWAP1 SWAP7 SUB SWAP6 SWAP1 SWAP6 MUL SWAP2 SWAP1 SWAP4 SUB SWAP4 SWAP1 SWAP4 DIV SWAP3 SWAP1 SWAP3 OR MUL SWAP2 POP POP SWAP4 SWAP3 POP POP POP JUMP JUMPDEST PUSH1 0x40 MLOAD PUSH4 0x23B872DD PUSH1 0xE0 SHL PUSH0 DUP2 DUP2 MSTORE PUSH1 0x1 PUSH1 0x1 PUSH1 0xA0 SHL SUB DUP8 DUP2 AND PUSH1 0x4 MSTORE DUP7 AND PUSH1 0x24 MSTORE PUSH1 0x44 DUP6 SWAP1 MSTORE SWAP2 PUSH1 0x20 DUP4 PUSH1 0x64 DUP2 DUP1 DUP13 GAS CALL SWAP3 POP PUSH1 0x1 PUSH0 MLOAD EQ DUP4 AND PUSH2 0x1093 JUMPI DUP4 DUP4 ISZERO AND ISZERO PUSH2 0x1087 JUMPI RETURNDATASIZE PUSH0 DUP3 RETURNDATACOPY RETURNDATASIZE DUP2 REVERT JUMPDEST PUSH0 DUP9 EXTCODESIZE GT RETURNDATASIZE ISZERO AND DUP4 AND SWAP3 POP JUMPDEST PUSH1 0x40 MSTORE POP PUSH0 PUSH1 0x60 MSTORE SWAP6 SWAP5 POP POP POP POP POP JUMP JUMPDEST PUSH2 0x10B0 DUP4 DUP4 DUP4 PUSH0 PUSH2 0x1185 JUMP JUMPDEST PUSH2 0x798 JUMPI PUSH2 0x10C1 DUP4 DUP4 PUSH0 PUSH1 0x1 PUSH2 0x1185 JUMP JUMPDEST PUSH2 0x10E9 JUMPI PUSH1 0x40 MLOAD PUSH4 0x5274AFE7 PUSH1 0xE0 SHL DUP2 MSTORE PUSH1 0x1 PUSH1 0x1 PUSH1 0xA0 SHL SUB DUP5 AND PUSH1 0x4 DUP3 ADD MSTORE PUSH1 0x24 ADD PUSH2 0x613 JUMP JUMPDEST PUSH2 0xF33 DUP4 DUP4 DUP4 PUSH1 0x1 PUSH2 0x1185 JUMP JUMPDEST PUSH1 0x40 MLOAD PUSH4 0xA9059CBB PUSH1 0xE0 SHL PUSH0 DUP2 DUP2 MSTORE PUSH1 0x1 PUSH1 0x1 PUSH1 0xA0 SHL SUB DUP7 AND PUSH1 0x4 MSTORE PUSH1 0x24 DUP6 SWAP1 MSTORE SWAP2 PUSH1 0x20 DUP4 PUSH1 0x44 DUP2 DUP1 DUP12 GAS CALL SWAP3 POP PUSH1 0x1 PUSH0 MLOAD EQ DUP4 AND PUSH2 0x114C JUMPI DUP4 DUP4 ISZERO AND ISZERO PUSH2 0x1140 JUMPI RETURNDATASIZE PUSH0 DUP3 RETURNDATACOPY RETURNDATASIZE DUP2 REVERT JUMPDEST PUSH0 DUP8 EXTCODESIZE GT RETURNDATASIZE ISZERO AND DUP4 AND SWAP3 POP JUMPDEST PUSH1 0x40 MSTORE POP SWAP5 SWAP4 POP POP POP POP JUMP JUMPDEST PUSH0 DUP1 PUSH0 NOT DUP4 DUP6 MULMOD SWAP4 SWAP1 SWAP3 MUL DUP1 DUP5 LT SWAP4 DUP2 SWAP1 SUB SWAP4 SWAP1 SWAP4 SUB SWAP4 SWAP2 POP POP JUMP JUMPDEST PUSH4 0x4E487B71 PUSH0 MSTORE DUP1 PUSH1 0x20 MSTORE PUSH1 0x24 PUSH1 0x1C REVERT JUMPDEST PUSH1 0x40 MLOAD PUSH4 0x95EA7B3 PUSH1 0xE0 SHL PUSH0 DUP2 DUP2 MSTORE PUSH1 0x1 PUSH1 0x1 PUSH1 0xA0 SHL SUB DUP7 AND PUSH1 0x4 MSTORE PUSH1 0x24 DUP6 SWAP1 MSTORE SWAP2 PUSH1 0x20 DUP4 PUSH1 0x44 DUP2 DUP1 DUP12 GAS CALL SWAP3 POP PUSH1 0x1 PUSH0 MLOAD EQ DUP4 AND PUSH2 0x114C JUMPI DUP4 DUP4 ISZERO AND ISZERO PUSH2 0x1140 JUMPI RETURNDATASIZE PUSH0 DUP3 RETURNDATACOPY RETURNDATASIZE DUP2 REVERT JUMPDEST PUSH1 0x20 DUP2 MSTORE PUSH0 DUP3 MLOAD DUP1 PUSH1 0x20 DUP5 ADD MSTORE DUP1 PUSH1 0x20 DUP6 ADD PUSH1 0x40 DUP6 ADD MCOPY PUSH0 PUSH1 0x40 DUP3 DUP6 ADD ADD MSTORE PUSH1 0x40 PUSH1 0x1F NOT PUSH1 0x1F DUP4 ADD AND DUP5 ADD ADD SWAP2 POP POP SWAP3 SWAP2 POP POP JUMP JUMPDEST PUSH0 PUSH1 0x20 DUP3 DUP5 SUB SLT ISZERO PUSH2 0x1214 JUMPI PUSH0 PUSH0 REVERT JUMPDEST POP CALLDATALOAD SWAP2 SWAP1 POP JUMP JUMPDEST DUP1 CALLDATALOAD PUSH1 0x1 PUSH1 0x1 PUSH1 0xA0 SHL SUB DUP2 AND DUP2 EQ PUSH2 0x1231 JUMPI PUSH0 PUSH0 REVERT JUMPDEST SWAP2 SWAP1 POP JUMP JUMPDEST PUSH0 PUSH0 PUSH1 0x40 DUP4 DUP6 SUB SLT ISZERO PUSH2 0x1247 JUMPI PUSH0 PUSH0 REVERT JUMPDEST PUSH2 0x1250 DUP4 PUSH2 0x121B JUMP JUMPDEST SWAP5 PUSH1 0x20 SWAP4 SWAP1 SWAP4 ADD CALLDATALOAD SWAP4 POP POP POP JUMP JUMPDEST PUSH0 PUSH0 PUSH0 PUSH1 0x60 DUP5 DUP7 SUB SLT ISZERO PUSH2 0x1270 JUMPI PUSH0 PUSH0 REVERT JUMPDEST PUSH2 0x1279 DUP5 PUSH2 0x121B JUMP JUMPDEST SWAP3 POP PUSH2 0x1287 PUSH1 0x20 DUP6 ADD PUSH2 0x121B JUMP JUMPDEST SWAP3 SWAP6 SWAP3 SWAP5 POP POP POP PUSH1 0x40 SWAP2 SWAP1 SWAP2 ADD CALLDATALOAD SWAP1 JUMP JUMPDEST PUSH0 PUSH1 0x20 DUP3 DUP5 SUB SLT ISZERO PUSH2 0x12A8 JUMPI PUSH0 PUSH0 REVERT JUMPDEST PUSH2 0x5D4 DUP3 PUSH2 0x121B JUMP JUMPDEST PUSH0 PUSH0 PUSH1 0x40 DUP4 DUP6 SUB SLT ISZERO PUSH2 0x12C2 JUMPI PUSH0 PUSH0 REVERT JUMPDEST DUP3 CALLDATALOAD SWAP2 POP PUSH2 0x12D2 PUSH1 0x20 DUP5 ADD PUSH2 0x121B JUMP JUMPDEST SWAP1 POP SWAP3 POP SWAP3 SWAP1 POP JUMP JUMPDEST PUSH0 PUSH0 PUSH0 PUSH1 0x60 DUP5 DUP7 SUB SLT ISZERO PUSH2 0x12ED JUMPI PUSH0 PUSH0 REVERT JUMPDEST DUP4 CALLDATALOAD SWAP3 POP PUSH2 0x12FD PUSH1 0x20 DUP6 ADD PUSH2 0x121B JUMP JUMPDEST SWAP2 POP PUSH2 0x130B PUSH1 0x40 DUP6 ADD PUSH2 0x121B JUMP JUMPDEST SWAP1 POP SWAP3 POP SWAP3 POP SWAP3 JUMP JUMPDEST PUSH0 PUSH0 PUSH1 0x40 DUP4 DUP6 SUB SLT ISZERO PUSH2 0x1325 JUMPI PUSH0 PUSH0 REVERT JUMPDEST PUSH2 0x132E DUP4 PUSH2 0x121B JUMP JUMPDEST SWAP2 POP PUSH2 0x12D2 PUSH1 0x20 DUP5 ADD PUSH2 0x121B JUMP JUMPDEST PUSH0 PUSH1 0x20 DUP3 DUP5 SUB SLT ISZERO PUSH2 0x134C JUMPI PUSH0 PUSH0 REVERT JUMPDEST POP MLOAD SWAP2 SWAP1 POP JUMP JUMPDEST PUSH4 0x4E487B71 PUSH1 0xE0 SHL PUSH0 MSTORE PUSH1 0x11 PUSH1 0x4 MSTORE PUSH1 0x24 PUSH0 REVERT JUMPDEST DUP1 DUP3 MUL DUP2 ISZERO DUP3 DUP3 DIV DUP5 EQ OR PUSH2 0x58D JUMPI PUSH2 0x58D PUSH2 0x1353 JUMP JUMPDEST PUSH4 0x4E487B71 PUSH1 0xE0 SHL PUSH0 MSTORE PUSH1 0x12 PUSH1 0x4 MSTORE PUSH1 0x24 PUSH0 REVERT JUMPDEST PUSH0 DUP3 PUSH2 0x13A0 JUMPI PUSH2 0x13A0 PUSH2 0x137E JUMP JUMPDEST POP DIV SWAP1 JUMP JUMPDEST PUSH1 0x1 DUP2 DUP2 SHR SWAP1 DUP3 AND DUP1 PUSH2 0x13B9 JUMPI PUSH1 0x7F DUP3 AND SWAP2 POP JUMPDEST PUSH1 0x20 DUP3 LT DUP2 SUB PUSH2 0x13D7 JUMPI PUSH4 0x4E487B71 PUSH1 0xE0 SHL PUSH0 MSTORE PUSH1 0x22 PUSH1 0x4 MSTORE PUSH1 0x24 PUSH0 REVERT JUMPDEST POP SWAP2 SWAP1 POP JUMP JUMPDEST PUSH1 0xFF DUP2 DUP2 AND DUP4 DUP3 AND ADD SWAP1 DUP2 GT ISZERO PUSH2 0x58D JUMPI PUSH2 0x58D PUSH2 0x1353 JUMP JUMPDEST PUSH1 0x1 PUSH1 0x1 PUSH1 0xA0 SHL SUB SWAP4 SWAP1 SWAP4 AND DUP4 MSTORE PUSH1 0x20 DUP4 ADD SWAP2 SWAP1 SWAP2 MSTORE PUSH1 0x40 DUP3 ADD MSTORE PUSH1 0x60 ADD SWAP1 JUMP JUMPDEST DUP1 DUP3 ADD DUP1 DUP3 GT ISZERO PUSH2 0x58D JUMPI PUSH2 0x58D PUSH2 0x1353 JUMP JUMPDEST PUSH1 0x1 DUP2 JUMPDEST PUSH1 0x1 DUP5 GT ISZERO PUSH2 0x1465 JUMPI DUP1 DUP6 DIV DUP2 GT ISZERO PUSH2 0x1449 JUMPI PUSH2 0x1449 PUSH2 0x1353 JUMP JUMPDEST PUSH1 0x1 DUP5 AND ISZERO PUSH2 0x1457 JUMPI SWAP1 DUP2 MUL SWAP1 JUMPDEST PUSH1 0x1 SWAP4 SWAP1 SWAP4 SHR SWAP3 DUP1 MUL PUSH2 0x142E JUMP JUMPDEST SWAP4 POP SWAP4 SWAP2 POP POP JUMP JUMPDEST PUSH0 DUP3 PUSH2 0x147B JUMPI POP PUSH1 0x1 PUSH2 0x58D JUMP JUMPDEST DUP2 PUSH2 0x1487 JUMPI POP PUSH0 PUSH2 0x58D JUMP JUMPDEST DUP2 PUSH1 0x1 DUP2 EQ PUSH2 0x149D JUMPI PUSH1 0x2 DUP2 EQ PUSH2 0x14A7 JUMPI PUSH2 0x14C3 JUMP JUMPDEST PUSH1 0x1 SWAP2 POP POP PUSH2 0x58D JUMP JUMPDEST PUSH1 0xFF DUP5 GT ISZERO PUSH2 0x14B8 JUMPI PUSH2 0x14B8 PUSH2 0x1353 JUMP JUMPDEST POP POP PUSH1 0x1 DUP3 SHL PUSH2 0x58D JUMP JUMPDEST POP PUSH1 0x20 DUP4 LT PUSH2 0x133 DUP4 LT AND PUSH1 0x4E DUP5 LT PUSH1 0xB DUP5 LT AND OR ISZERO PUSH2 0x14E6 JUMPI POP DUP2 DUP2 EXP PUSH2 0x58D JUMP JUMPDEST PUSH2 0x14F2 PUSH0 NOT DUP5 DUP5 PUSH2 0x142A JUMP JUMPDEST DUP1 PUSH0 NOT DIV DUP3 GT ISZERO PUSH2 0x1505 JUMPI PUSH2 0x1505 PUSH2 0x1353 JUMP JUMPDEST MUL SWAP4 SWAP3 POP POP POP JUMP JUMPDEST PUSH0 PUSH2 0x5D4 PUSH1 0xFF DUP5 AND DUP4 PUSH2 0x146D JUMP JUMPDEST PUSH4 0x4E487B71 PUSH1 0xE0 SHL PUSH0 MSTORE PUSH1 0x21 PUSH1 0x4 MSTORE PUSH1 0x24 PUSH0 REVERT JUMPDEST PUSH0 PUSH1 0xFF DUP4 AND DUP1 PUSH2 0x1541 JUMPI PUSH2 0x1541 PUSH2 0x137E JUMP JUMPDEST DUP1 PUSH1 0xFF DUP5 AND MOD SWAP2 POP POP SWAP3 SWAP2 POP POP JUMP INVALID LOG2 PUSH5 0x6970667358 0x22 SLT KECCAK256 DUP9 PUSH16 0x8D348754024BA7B6DCF0D14D5E582982 0xBE KECCAK256 0xC 0xDD 0xDD 0xD6 PUSH18 0x326CB25B324B8864736F6C634300081C0033 "},"methodIdentifiers":{"allowance(address,address)":"dd62ed3e","approve(address,uint256)":"095ea7b3","asset()":"38d52e0f","balanceOf(address)":"70a08231","cToken()":"69e527da","convertToAssets(uint256)":"07a2d13a","convertToShares(uint256)":"c6e6f592","decimals()":"313ce567","deposit(uint256,address)":"6e553f65","maxDeposit(address)":"402d267d","maxMint(address)":"c63d75b6","maxRedeem(address)":"d905777e","maxWithdraw(address)":"ce96cb77","mint(uint256,address)":"94bf804d","name()":"06fdde03","previewDeposit(uint256)":"ef8b30f7","previewMint(uint256)":"b3d7f6b9","previewRedeem(uint256)":"4cdad506","previewWithdraw(uint256)":"0a28a477","redeem(uint256,address,address)":"ba087652","symbol()":"95d89b41","totalAssets()":"01e1d114","totalSupply()":"18160ddd","transfer(address,uint256)":"a9059cbb","transferFrom(address,address,uint256)":"23b872dd","withdraw(uint256,address,address)":"b460af94"}}}}}