{"project/contracts/SmartRouter.sol":{"SmartRouter":{"abi":[{"inputs":[],"stateMutability":"nonpayable","type":"constructor"},{"inputs":[],"name":"AllowancePeriodNotMet","type":"error"},{"inputs":[],"name":"ExceedsMaxPercentage","type":"error"},{"inputs":[],"name":"InsufficientLockedShares","type":"error"},{"inputs":[],"name":"InsufficientSavedShares","type":"error"},{"inputs":[],"name":"InsufficientTreasuryShares","type":"error"},{"inputs":[],"name":"InvalidInitialization","type":"error"},{"inputs":[],"name":"InvalidPercentages","type":"error"},{"inputs":[],"name":"NoPendingOwner","type":"error"},{"inputs":[],"name":"NotInitializing","type":"error"},{"inputs":[],"name":"ReentrancyGuardReentrantCall","type":"error"},{"inputs":[{"internalType":"address","name":"token","type":"address"}],"name":"SafeERC20FailedOperation","type":"error"},{"inputs":[],"name":"Unauthorized","type":"error"},{"inputs":[],"name":"VaultNotSupported","type":"error"},{"inputs":[],"name":"ZeroAddress","type":"error"},{"anonymous":false,"inputs":[{"indexed":true,"internalType":"address","name":"token","type":"address"},{"indexed":false,"internalType":"uint256","name":"amountClaimed","type":"uint256"},{"indexed":false,"internalType":"uint256","name":"sharesBurned","type":"uint256"}],"name":"AllowanceClaimed","type":"event"},{"anonymous":false,"inputs":[{"indexed":true,"internalType":"address","name":"token","type":"address"},{"indexed":false,"internalType":"uint256","name":"amount","type":"uint256"}],"name":"EmergencyWithdraw","type":"event"},{"anonymous":false,"inputs":[{"indexed":false,"internalType":"uint64","name":"version","type":"uint64"}],"name":"Initialized","type":"event"},{"anonymous":false,"inputs":[{"indexed":true,"internalType":"address","name":"previousOwner","type":"address"},{"indexed":true,"internalType":"address","name":"newOwner","type":"address"}],"name":"OwnershipTransferStarted","type":"event"},{"anonymous":false,"inputs":[{"indexed":true,"internalType":"address","name":"previousOwner","type":"address"},{"indexed":true,"internalType":"address","name":"newOwner","type":"address"}],"name":"OwnershipTransferred","type":"event"},{"anonymous":false,"inputs":[{"indexed":true,"internalType":"address","name":"token","type":"address"},{"indexed":false,"internalType":"uint256","name":"totalAmount","type":"uint256"},{"indexed":false,"internalType":"uint256","name":"operatingAmount","type":"uint256"},{"indexed":false,"internalType":"uint256","name":"treasurySharesMinted","type":"uint256"},{"indexed":false,"internalType":"uint256","name":"lockedSharesMinted","type":"uint256"}],"name":"PaymentProcessed","type":"event"},{"anonymous":false,"inputs":[{"indexed":true,"internalType":"address","name":"token","type":"address"},{"indexed":true,"internalType":"address","name":"recipient","type":"address"},{"indexed":false,"internalType":"uint256","name":"amountSent","type":"uint256"},{"indexed":false,"internalType":"uint256","name":"amountSaved","type":"uint256"},{"indexed":false,"internalType":"uint256","name":"sharesMinted","type":"uint256"}],"name":"PaymentSentAndSaved","type":"event"},{"anonymous":false,"inputs":[{"indexed":false,"internalType":"uint256","name":"newSavePct","type":"uint256"}],"name":"SavePctUpdated","type":"event"},{"anonymous":false,"inputs":[{"indexed":true,"internalType":"address","name":"token","type":"address"},{"indexed":false,"internalType":"uint256","name":"amountWithdrawn","type":"uint256"},{"indexed":false,"internalType":"uint256","name":"sharesBurned","type":"uint256"}],"name":"SavingsWithdrawn","type":"event"},{"anonymous":false,"inputs":[{"indexed":false,"internalType":"uint256","name":"operatingPct","type":"uint256"},{"indexed":false,"internalType":"uint256","name":"treasuryPct","type":"uint256"},{"indexed":false,"internalType":"uint256","name":"lockedPct","type":"uint256"},{"indexed":false,"internalType":"uint256","name":"allowanceAmount","type":"uint256"},{"indexed":false,"internalType":"uint256","name":"allowancePeriod","type":"uint256"}],"name":"SettingsUpdated","type":"event"},{"anonymous":false,"inputs":[{"indexed":true,"internalType":"address","name":"token","type":"address"},{"indexed":false,"internalType":"uint256","name":"amountWithdrawn","type":"uint256"},{"indexed":false,"internalType":"uint256","name":"sharesBurned","type":"uint256"}],"name":"TreasuryWithdrawn","type":"event"},{"inputs":[],"name":"acceptOwnership","outputs":[],"stateMutability":"nonpayable","type":"function"},{"inputs":[],"name":"allowanceAmount","outputs":[{"internalType":"uint256","name":"","type":"uint256"}],"stateMutability":"view","type":"function"},{"inputs":[],"name":"allowancePeriod","outputs":[{"internalType":"uint256","name":"","type":"uint256"}],"stateMutability":"view","type":"function"},{"inputs":[{"internalType":"address","name":"token","type":"address"}],"name":"claimAllowance","outputs":[],"stateMutability":"nonpayable","type":"function"},{"inputs":[{"internalType":"address","name":"token","type":"address"}],"name":"emergencyWithdraw","outputs":[],"stateMutability":"nonpayable","type":"function"},{"inputs":[],"name":"factory","outputs":[{"internalType":"address","name":"","type":"address"}],"stateMutability":"view","type":"function"},{"inputs":[{"internalType":"address","name":"token","type":"address"}],"name":"getLockedValue","outputs":[{"internalType":"uint256","name":"","type":"uint256"}],"stateMutability":"view","type":"function"},{"inputs":[{"internalType":"address","name":"token","type":"address"}],"name":"getSavingsValue","outputs":[{"internalType":"uint256","name":"principal","type":"uint256"},{"internalType":"uint256","name":"totalValue","type":"uint256"},{"internalType":"uint256","name":"yieldEarned","type":"uint256"}],"stateMutability":"view","type":"function"},{"inputs":[{"internalType":"address","name":"token","type":"address"}],"name":"getTreasuryValue","outputs":[{"internalType":"uint256","name":"","type":"uint256"}],"stateMutability":"view","type":"function"},{"inputs":[{"internalType":"address","name":"_owner","type":"address"},{"internalType":"address","name":"_factory","type":"address"},{"internalType":"uint256","name":"_operatingPct","type":"uint256"},{"internalType":"uint256","name":"_treasuryPct","type":"uint256"},{"internalType":"uint256","name":"_lockedPct","type":"uint256"},{"internalType":"uint256","name":"_allowanceAmount","type":"uint256"},{"internalType":"uint256","name":"_allowancePeriod","type":"uint256"}],"name":"initialize","outputs":[],"stateMutability":"nonpayable","type":"function"},{"inputs":[],"name":"lastAllowanceRelease","outputs":[{"internalType":"uint256","name":"","type":"uint256"}],"stateMutability":"view","type":"function"},{"inputs":[],"name":"lockedPct","outputs":[{"internalType":"uint256","name":"","type":"uint256"}],"stateMutability":"view","type":"function"},{"inputs":[],"name":"lockedShares","outputs":[{"internalType":"uint256","name":"","type":"uint256"}],"stateMutability":"view","type":"function"},{"inputs":[],"name":"operatingPct","outputs":[{"internalType":"uint256","name":"","type":"uint256"}],"stateMutability":"view","type":"function"},{"inputs":[],"name":"owner","outputs":[{"internalType":"address","name":"","type":"address"}],"stateMutability":"view","type":"function"},{"inputs":[{"internalType":"address","name":"token","type":"address"},{"internalType":"address","name":"recipient","type":"address"},{"internalType":"uint256","name":"amount","type":"uint256"}],"name":"payAndSave","outputs":[],"stateMutability":"nonpayable","type":"function"},{"inputs":[],"name":"pendingOwner","outputs":[{"internalType":"address","name":"","type":"address"}],"stateMutability":"view","type":"function"},{"inputs":[{"internalType":"address","name":"token","type":"address"}],"name":"processPayment","outputs":[],"stateMutability":"nonpayable","type":"function"},{"inputs":[],"name":"savePct","outputs":[{"internalType":"uint256","name":"","type":"uint256"}],"stateMutability":"view","type":"function"},{"inputs":[],"name":"savedPrincipal","outputs":[{"internalType":"uint256","name":"","type":"uint256"}],"stateMutability":"view","type":"function"},{"inputs":[],"name":"savedShares","outputs":[{"internalType":"uint256","name":"","type":"uint256"}],"stateMutability":"view","type":"function"},{"inputs":[{"internalType":"address","name":"newOwner","type":"address"}],"name":"transferOwnership","outputs":[],"stateMutability":"nonpayable","type":"function"},{"inputs":[],"name":"treasuryPct","outputs":[{"internalType":"uint256","name":"","type":"uint256"}],"stateMutability":"view","type":"function"},{"inputs":[],"name":"treasuryShares","outputs":[{"internalType":"uint256","name":"","type":"uint256"}],"stateMutability":"view","type":"function"},{"inputs":[{"internalType":"uint256","name":"_savePct","type":"uint256"}],"name":"updateSavePct","outputs":[],"stateMutability":"nonpayable","type":"function"},{"inputs":[{"internalType":"uint256","name":"_operatingPct","type":"uint256"},{"internalType":"uint256","name":"_treasuryPct","type":"uint256"},{"internalType":"uint256","name":"_lockedPct","type":"uint256"},{"internalType":"uint256","name":"_allowanceAmount","type":"uint256"},{"internalType":"uint256","name":"_allowancePeriod","type":"uint256"}],"name":"updateSettings","outputs":[],"stateMutability":"nonpayable","type":"function"},{"inputs":[{"internalType":"address","name":"token","type":"address"},{"internalType":"uint256","name":"amount","type":"uint256"}],"name":"withdrawSavings","outputs":[],"stateMutability":"nonpayable","type":"function"},{"inputs":[{"internalType":"address","name":"token","type":"address"},{"internalType":"uint256","name":"amount","type":"uint256"}],"name":"withdrawTreasury","outputs":[],"stateMutability":"nonpayable","type":"function"}],"evm":{"bytecode":{"linkReferences":{},"object":"608060405234801561000f575f5ffd5b5060017f9b779b17422d0df92223018b32b4d1fa46e071723d6817e2486d003becc55f005561003c610041565b6100f3565b7ff0c57e16840df040f15088dc2f81fe391c3923bec73e23a9662efc9c229c6a00805468010000000000000000900460ff16156100915760405163f92ee8a960e01b815260040160405180910390fd5b80546001600160401b03908116146100f05780546001600160401b0319166001600160401b0390811782556040519081527fc7f505b2f371ae2175ee4913f4499e1f2633a7b5936321eed1cdaeb6115181d29060200160405180910390a15b50565b611d5f806101005f395ff3fe608060405234801561000f575f5ffd5b50600436106101bb575f3560e01c80639981f5f3116100f3578063c898a11211610093578063e95502fb1161006e578063e95502fb1461035f578063edbf4ac214610368578063f2fde38b1461037b578063f6d0bfa31461038e575f5ffd5b8063c898a11214610326578063c9671c3314610339578063e30c39781461034c575f5ffd5b8063acd78de4116100ce578063acd78de4146102f8578063aee7f09614610301578063baec8b0f1461030a578063c45a015514610313575f5ffd5b80639981f5f3146102b8578063a4949af6146102c1578063aab3ab95146102ef575f5ffd5b8063661d0d661161015e57806379ba50971161013957806379ba50971461026a5780638da5cb5b146102725780638fe123d71461029c578063943f213f146102af575f5ffd5b8063661d0d661461023b5780636ff1c9bc1461024e57806372d7c5ce14610261575f5ffd5b8063375d69df11610199578063375d69df1461020d57806339382ab9146102165780633e4199cd1461021f57806356137a5e14610228575f5ffd5b8063067a1e16146101bf5780630d86419a146101e557806330c2c3b9146101fa575b5f5ffd5b6101d26101cd366004611b59565b6103a1565b6040519081526020015b60405180910390f35b6101f86101f3366004611b74565b6104a9565b005b6101f8610208366004611b9e565b6106f4565b6101d260065481565b6101d260055481565b6101d2600c5481565b6101f8610236366004611b59565b6107c2565b6101f8610249366004611bd5565b610a15565b6101f861025c366004611b59565b610a9b565b6101d2600d5481565b6101f8610bc6565b5f54610284906001600160a01b031681565b6040516001600160a01b0390911681526020016101dc565b6101f86102aa366004611b59565b610c4a565b6101d260085481565b6101d260045481565b6102d46102cf366004611b59565b610f21565b604080519384526020840192909252908201526060016101dc565b6101d260075481565b6101d260035481565b6101d2600b5481565b6101d260095481565b600254610284906001600160a01b031681565b6101d2610334366004611b59565b611040565b6101f8610347366004611b74565b611106565b600154610284906001600160a01b031681565b6101d2600a5481565b6101f8610376366004611bec565b6113f6565b6101f8610389366004611b59565b61156e565b6101f861039c366004611c49565b61160e565b5f600a545f036103b257505f919050565b6002546040516301d735e760e31b81526001600160a01b0384811660048301525f921690630eb9af3890602401602060405180830381865afa1580156103fa573d5f5f3e3d5ffd5b505050506040513d601f19601f8201168201806040525081019061041e9190611c87565b90506001600160a01b03811661043657505f92915050565b600a5460405163266d6a8360e11b815260048101919091526001600160a01b03821690634cdad506906024015b602060405180830381865afa15801561047e573d5f5f3e3d5ffd5b505050506040513d601f19601f820116820180604052508101906104a29190611ca2565b9392505050565b5f546001600160a01b031633146104d2576040516282b42960e81b815260040160405180910390fd5b6002546040516301d735e760e31b81526001600160a01b0384811660048301525f921690630eb9af3890602401602060405180830381865afa15801561051a573d5f5f3e3d5ffd5b505050506040513d601f19601f8201168201806040525081019061053e9190611c87565b90506001600160a01b03811661056757604051630434df1960e51b815260040160405180910390fd5b805f6001840161057a5750600954610606565b604051630a28a47760e01b8152600481018590526001600160a01b03831690630a28a47790602401602060405180830381865afa1580156105bd573d5f5f3e3d5ffd5b505050506040513d601f19601f820116820180604052508101906105e19190611ca2565b9050600954811115610606576040516335389bb760e21b815260040160405180910390fd5b805f03610614575050505050565b8060095f8282546106259190611ccd565b90915550505f8054604051635d043b2960e11b8152600481018490526001600160a01b0391821660248201523060448201529084169063ba087652906064016020604051808303815f875af1158015610680573d5f5f3e3d5ffd5b505050506040513d601f19601f820116820180604052508101906106a49190611ca2565b60408051828152602081018590529192506001600160a01b038816917fca7c146a476020a9685b6af4c572d3e244456e8d02dad016e5ed59ff64a2fdd9910160405180910390a2505050505b5050565b5f546001600160a01b0316331461071d576040516282b42960e81b815260040160405180910390fd5b826107288587611ce0565b6107329190611ce0565b6127101461075357604051636d2fd3c960e01b815260040160405180910390fd5b60038590556004849055600583905560068290556007819055604080518681526020810186905290810184905260608101839052608081018290527fab98f6a91485c352fb01422a5fe72d10488727444633a4110d7716c51d5117719060a00160405180910390a15050505050565b6007546008546107d29190611ce0565b4210156107f257604051630529bc3360e11b815260040160405180910390fd5b6006545f036107fe5750565b6002546040516301d735e760e31b81526001600160a01b0383811660048301525f921690630eb9af3890602401602060405180830381865afa158015610846573d5f5f3e3d5ffd5b505050506040513d601f19601f8201168201806040525081019061086a9190611c87565b90506001600160a01b03811661089357604051630434df1960e51b815260040160405180910390fd5b600654604051630a28a47760e01b8152600481019190915281905f906001600160a01b03831690630a28a47790602401602060405180830381865afa1580156108de573d5f5f3e3d5ffd5b505050506040513d601f19601f820116820180604052508101906109029190611ca2565b9050600a548111156109135750600a545b805f03610933576040516389206fd560e01b815260040160405180910390fd5b80600a5f8282546109449190611ccd565b9091555050426008555f8054604051635d043b2960e11b8152600481018490526001600160a01b0391821660248201523060448201529084169063ba087652906064016020604051808303815f875af11580156109a3573d5f5f3e3d5ffd5b505050506040513d601f19601f820116820180604052508101906109c79190611ca2565b60408051828152602081018590529192506001600160a01b038716917fe7cc88d9e42671078205d391c6b754aea00a5faa1d2e50ded3f7139500f2f98c910160405180910390a25050505050565b5f546001600160a01b03163314610a3e576040516282b42960e81b815260040160405180910390fd5b612710811115610a60576040516253709f60e01b815260040160405180910390fd5b600b8190556040518181527f88e3d44810ace986c49a4b1737e3951ca5b42c4ecb5611219a3c38086cc129b79060200160405180910390a150565b5f546001600160a01b03163314610ac4576040516282b42960e81b815260040160405180910390fd5b610acc61183c565b6040516370a0823160e01b81523060048201525f906001600160a01b038316906370a0823190602401602060405180830381865afa158015610b10573d5f5f3e3d5ffd5b505050506040513d601f19601f82011682018060405250810190610b349190611ca2565b90508015610b99575f54610b55906001600160a01b0384811691168361186a565b816001600160a01b03167f5fafa99d0643513820be26656b45130b01e1c03062e1266bf36f88cbd3bd969582604051610b9091815260200190565b60405180910390a25b50610bc360017f9b779b17422d0df92223018b32b4d1fa46e071723d6817e2486d003becc55f0055565b50565b6001546001600160a01b03163314610bf157604051633e31d61b60e11b815260040160405180910390fd5b5f8054600180546001600160a01b038082166001600160a01b031980861682178755909216909255604051919092169283917f8be0079c531659141344cd1fd0a4f28419497f9722a3daafe3b4186f6b6457e09190a350565b6040516370a0823160e01b81523060048201525f906001600160a01b038316906370a0823190602401602060405180830381865afa158015610c8e573d5f5f3e3d5ffd5b505050506040513d601f19601f82011682018060405250810190610cb29190611ca2565b9050805f03610cbf575050565b5f61271060035483610cd19190611cf3565b610cdb9190611d0a565b90505f61271060045484610cef9190611cf3565b610cf99190611d0a565b90505f81610d078486611ccd565b610d119190611ccd565b90508215610d32575f54610d32906001600160a01b0387811691168561186a565b5f610d3d8284611ce0565b90505f808215610ec4576002546040516301d735e760e31b81526001600160a01b038a811660048301525f921690630eb9af3890602401602060405180830381865afa158015610d8f573d5f5f3e3d5ffd5b505050506040513d601f19601f82011682018060405250810190610db39190611c87565b90506001600160a01b038116610ddc57604051630434df1960e51b815260040160405180910390fd5b80610df16001600160a01b038b1682876118a9565b604051636e553f6560e01b8152600481018690523060248201525f906001600160a01b03831690636e553f65906044016020604051808303815f875af1158015610e3d573d5f5f3e3d5ffd5b505050506040513d601f19601f82011682018060405250810190610e619190611ca2565b90508715610e975785610e748983611cf3565b610e7e9190611d0a565b94508460095f828254610e919190611ce0565b90915550505b8615610ec057610ea78582611ccd565b935083600a5f828254610eba9190611ce0565b90915550505b5050505b6040805188815260208101889052908101839052606081018290526001600160a01b038916907ff2c7c61aab9019a0417876fee95ea2ce79b2da32f8f2b41271429475b2cf4c239060800160405180910390a25050505050505050565b600c54600d545f9081901561101d576002546040516301d735e760e31b81526001600160a01b0386811660048301525f921690630eb9af3890602401602060405180830381865afa158015610f78573d5f5f3e3d5ffd5b505050506040513d601f19601f82011682018060405250810190610f9c9190611c87565b90506001600160a01b0381161561101b57600d5460405163266d6a8360e11b815260048101919091526001600160a01b03821690634cdad50690602401602060405180830381865afa158015610ff4573d5f5f3e3d5ffd5b505050506040513d601f19601f820116820180604052508101906110189190611ca2565b92505b505b828211156110365761102f8383611ccd565b9050611039565b505f5b9193909250565b5f6009545f0361105157505f919050565b6002546040516301d735e760e31b81526001600160a01b0384811660048301525f921690630eb9af3890602401602060405180830381865afa158015611099573d5f5f3e3d5ffd5b505050506040513d601f19601f820116820180604052508101906110bd9190611c87565b90506001600160a01b0381166110d557505f92915050565b60095460405163266d6a8360e11b815260048101919091526001600160a01b03821690634cdad50690602401610463565b5f546001600160a01b0316331461112f576040516282b42960e81b815260040160405180910390fd5b80156106f0576002546040516301d735e760e31b81526001600160a01b0384811660048301525f921690630eb9af3890602401602060405180830381865afa15801561117d573d5f5f3e3d5ffd5b505050506040513d601f19601f820116820180604052508101906111a19190611c87565b90506001600160a01b0381166111ca57604051630434df1960e51b815260040160405180910390fd5b805f600184016112465750600d5460405163266d6a8360e11b8152600481018290526001600160a01b03831690634cdad50690602401602060405180830381865afa15801561121b573d5f5f3e3d5ffd5b505050506040513d601f19601f8201168201806040525081019061123f9190611ca2565b93506112d2565b604051630a28a47760e01b8152600481018590526001600160a01b03831690630a28a47790602401602060405180830381865afa158015611289573d5f5f3e3d5ffd5b505050506040513d601f19601f820116820180604052508101906112ad9190611ca2565b9050600d548111156112d25760405163fec82cd760e01b815260040160405180910390fd5b805f036112e0575050505050565b5f600d54600c54836112f29190611cf3565b6112fc9190611d0a565b905080600c5f82825461130f9190611ccd565b9250508190555081600d5f8282546113279190611ccd565b90915550505f8054604051635d043b2960e11b8152600481018590526001600160a01b0391821660248201523060448201529085169063ba087652906064016020604051808303815f875af1158015611382573d5f5f3e3d5ffd5b505050506040513d601f19601f820116820180604052508101906113a69190611ca2565b60408051828152602081018690529192506001600160a01b038916917f93da32e64263d25ace24ccb77425144ddc5d0dd0f4dfc1d3bc6ff0114ac7049a910160405180910390a250505050505050565b5f6113ff611936565b805490915060ff600160401b820416159067ffffffffffffffff165f811580156114265750825b90505f8267ffffffffffffffff1660011480156114425750303b155b905081158015611450575080155b1561146e5760405163f92ee8a960e01b815260040160405180910390fd5b845467ffffffffffffffff19166001178555831561149857845460ff60401b1916600160401b1785555b5f80546001600160a01b03808f166001600160a01b03199283161790925560028054928e1692909116919091179055876114d28a8c611ce0565b6114dc9190611ce0565b612710146114fd57604051636d2fd3c960e01b815260040160405180910390fd5b60038a9055600489905560058890556006879055600786905542600855831561156057845460ff60401b19168555604051600181527fc7f505b2f371ae2175ee4913f4499e1f2633a7b5936321eed1cdaeb6115181d29060200160405180910390a15b505050505050505050505050565b5f546001600160a01b03163314611597576040516282b42960e81b815260040160405180910390fd5b6001600160a01b0381166115be5760405163d92e233d60e01b815260040160405180910390fd5b600180546001600160a01b0319166001600160a01b038381169182179092555f8054604051929316917f38d16b8cac22d99fc7c124b9cd0de2d3fa1faef420bfe791d8c362d765e227009190a350565b5f546001600160a01b03163314611637576040516282b42960e81b815260040160405180910390fd5b5f612710600b54836116499190611cf3565b6116539190611d0a565b90505f6116608284611ce0565b5f5490915061167d906001600160a01b0387811691163084611960565b6116916001600160a01b038616858561186a565b5f82156117e3576002546040516301d735e760e31b81526001600160a01b0388811660048301525f921690630eb9af3890602401602060405180830381865afa1580156116e0573d5f5f3e3d5ffd5b505050506040513d601f19601f820116820180604052508101906117049190611c87565b90506001600160a01b03811661172d57604051630434df1960e51b815260040160405180910390fd5b806117426001600160a01b03891682876118a9565b604051636e553f6560e01b8152600481018690523060248201526001600160a01b03821690636e553f65906044016020604051808303815f875af115801561178c573d5f5f3e3d5ffd5b505050506040513d601f19601f820116820180604052508101906117b09190611ca2565b925084600c5f8282546117c39190611ce0565b9250508190555082600d5f8282546117db9190611ce0565b909155505050505b60408051858152602081018590529081018290526001600160a01b0380871691908816907f6b1716847a6a1a5b10db02f856b217aafb323fba68d1e0fc63f313d592cf81d19060600160405180910390a3505050505050565b611844611996565b60027f9b779b17422d0df92223018b32b4d1fa46e071723d6817e2486d003becc55f0055565b61187783838360016119da565b6118a457604051635274afe760e01b81526001600160a01b03841660048201526024015b60405180910390fd5b505050565b604051636eb1769f60e11b81523060048201526001600160a01b0383811660248301525f919085169063dd62ed3e90604401602060405180830381865afa1580156118f6573d5f5f3e3d5ffd5b505050506040513d601f19601f8201168201806040525081019061191a9190611ca2565b9050611930848461192b8585611ce0565b611a3c565b50505050565b5f807ff0c57e16840df040f15088dc2f81fe391c3923bec73e23a9662efc9c229c6a005b92915050565b61196e848484846001611a8e565b61193057604051635274afe760e01b81526001600160a01b038516600482015260240161189b565b7f9b779b17422d0df92223018b32b4d1fa46e071723d6817e2486d003becc55f00546002036119d857604051633ee5aeb560e01b815260040160405180910390fd5b565b60405163a9059cbb60e01b5f8181526001600160a01b038616600452602485905291602083604481808b5af1925060015f51148316611a30578383151615611a24573d5f823e3d81fd5b5f873b113d1516831692505b60405250949350505050565b611a488383835f611afb565b6118a457611a5983835f6001611afb565b611a8157604051635274afe760e01b81526001600160a01b038416600482015260240161189b565b6118778383836001611afb565b6040516323b872dd60e01b5f8181526001600160a01b038781166004528616602452604485905291602083606481808c5af1925060015f51148316611aea578383151615611ade573d5f823e3d81fd5b5f883b113d1516831692505b604052505f60605295945050505050565b60405163095ea7b360e01b5f8181526001600160a01b038616600452602485905291602083604481808b5af1925060015f51148316611a30578383151615611a24573d5f823e3d81fd5b6001600160a01b0381168114610bc3575f5ffd5b5f60208284031215611b69575f5ffd5b81356104a281611b45565b5f5f60408385031215611b85575f5ffd5b8235611b9081611b45565b946020939093013593505050565b5f5f5f5f5f60a08688031215611bb2575f5ffd5b505083359560208501359550604085013594606081013594506080013592509050565b5f60208284031215611be5575f5ffd5b5035919050565b5f5f5f5f5f5f5f60e0888a031215611c02575f5ffd5b8735611c0d81611b45565b96506020880135611c1d81611b45565b96999698505050506040850135946060810135946080820135945060a0820135935060c0909101359150565b5f5f5f60608486031215611c5b575f5ffd5b8335611c6681611b45565b92506020840135611c7681611b45565b929592945050506040919091013590565b5f60208284031215611c97575f5ffd5b81516104a281611b45565b5f60208284031215611cb2575f5ffd5b5051919050565b634e487b7160e01b5f52601160045260245ffd5b8181038181111561195a5761195a611cb9565b8082018082111561195a5761195a611cb9565b808202811582820484141761195a5761195a611cb9565b5f82611d2457634e487b7160e01b5f52601260045260245ffd5b50049056fea2646970667358221220eb3151cfd9a58afe4183745982dadae531841f26683bc4441d1cfb514c33042264736f6c634300081c0033","opcodes":"PUSH1 0x80 PUSH1 0x40 MSTORE CALLVALUE DUP1 ISZERO PUSH2 0xF JUMPI PUSH0 PUSH0 REVERT JUMPDEST POP PUSH1 0x1 PUSH32 0x9B779B17422D0DF92223018B32B4D1FA46E071723D6817E2486D003BECC55F00 SSTORE PUSH2 0x3C PUSH2 0x41 JUMP JUMPDEST PUSH2 0xF3 JUMP JUMPDEST PUSH32 0xF0C57E16840DF040F15088DC2F81FE391C3923BEC73E23A9662EFC9C229C6A00 DUP1 SLOAD PUSH9 0x10000000000000000 SWAP1 DIV PUSH1 0xFF AND ISZERO PUSH2 0x91 JUMPI PUSH1 0x40 MLOAD PUSH4 0xF92EE8A9 PUSH1 0xE0 SHL DUP2 MSTORE PUSH1 0x4 ADD PUSH1 0x40 MLOAD DUP1 SWAP2 SUB SWAP1 REVERT JUMPDEST DUP1 SLOAD PUSH1 0x1 PUSH1 0x1 PUSH1 0x40 SHL SUB SWAP1 DUP2 AND EQ PUSH2 0xF0 JUMPI DUP1 SLOAD PUSH1 0x1 PUSH1 0x1 PUSH1 0x40 SHL SUB NOT AND PUSH1 0x1 PUSH1 0x1 PUSH1 0x40 SHL SUB SWAP1 DUP2 OR DUP3 SSTORE PUSH1 0x40 MLOAD SWAP1 DUP2 MSTORE PUSH32 0xC7F505B2F371AE2175EE4913F4499E1F2633A7B5936321EED1CDAEB6115181D2 SWAP1 PUSH1 0x20 ADD PUSH1 0x40 MLOAD DUP1 SWAP2 SUB SWAP1 LOG1 JUMPDEST POP JUMP JUMPDEST PUSH2 0x1D5F DUP1 PUSH2 0x100 PUSH0 CODECOPY PUSH0 RETURN INVALID PUSH1 0x80 PUSH1 0x40 MSTORE CALLVALUE DUP1 ISZERO PUSH2 0xF JUMPI PUSH0 PUSH0 REVERT JUMPDEST POP PUSH1 0x4 CALLDATASIZE LT PUSH2 0x1BB JUMPI PUSH0 CALLDATALOAD PUSH1 0xE0 SHR DUP1 PUSH4 0x9981F5F3 GT PUSH2 0xF3 JUMPI DUP1 PUSH4 0xC898A112 GT PUSH2 0x93 JUMPI DUP1 PUSH4 0xE95502FB GT PUSH2 0x6E JUMPI DUP1 PUSH4 0xE95502FB EQ PUSH2 0x35F JUMPI DUP1 PUSH4 0xEDBF4AC2 EQ PUSH2 0x368 JUMPI DUP1 PUSH4 0xF2FDE38B EQ PUSH2 0x37B JUMPI DUP1 PUSH4 0xF6D0BFA3 EQ PUSH2 0x38E JUMPI PUSH0 PUSH0 REVERT JUMPDEST DUP1 PUSH4 0xC898A112 EQ PUSH2 0x326 JUMPI DUP1 PUSH4 0xC9671C33 EQ PUSH2 0x339 JUMPI DUP1 PUSH4 0xE30C3978 EQ PUSH2 0x34C JUMPI PUSH0 PUSH0 REVERT JUMPDEST DUP1 PUSH4 0xACD78DE4 GT PUSH2 0xCE JUMPI DUP1 PUSH4 0xACD78DE4 EQ PUSH2 0x2F8 JUMPI DUP1 PUSH4 0xAEE7F096 EQ PUSH2 0x301 JUMPI DUP1 PUSH4 0xBAEC8B0F EQ PUSH2 0x30A JUMPI DUP1 PUSH4 0xC45A0155 EQ PUSH2 0x313 JUMPI PUSH0 PUSH0 REVERT JUMPDEST DUP1 PUSH4 0x9981F5F3 EQ PUSH2 0x2B8 JUMPI DUP1 PUSH4 0xA4949AF6 EQ PUSH2 0x2C1 JUMPI DUP1 PUSH4 0xAAB3AB95 EQ PUSH2 0x2EF JUMPI PUSH0 PUSH0 REVERT JUMPDEST DUP1 PUSH4 0x661D0D66 GT PUSH2 0x15E JUMPI DUP1 PUSH4 0x79BA5097 GT PUSH2 0x139 JUMPI DUP1 PUSH4 0x79BA5097 EQ PUSH2 0x26A JUMPI DUP1 PUSH4 0x8DA5CB5B EQ PUSH2 0x272 JUMPI DUP1 PUSH4 0x8FE123D7 EQ PUSH2 0x29C JUMPI DUP1 PUSH4 0x943F213F EQ PUSH2 0x2AF JUMPI PUSH0 PUSH0 REVERT JUMPDEST DUP1 PUSH4 0x661D0D66 EQ PUSH2 0x23B JUMPI DUP1 PUSH4 0x6FF1C9BC EQ PUSH2 0x24E JUMPI DUP1 PUSH4 0x72D7C5CE EQ PUSH2 0x261 JUMPI PUSH0 PUSH0 REVERT JUMPDEST DUP1 PUSH4 0x375D69DF GT PUSH2 0x199 JUMPI DUP1 PUSH4 0x375D69DF EQ PUSH2 0x20D JUMPI DUP1 PUSH4 0x39382AB9 EQ PUSH2 0x216 JUMPI DUP1 PUSH4 0x3E4199CD EQ PUSH2 0x21F JUMPI DUP1 PUSH4 0x56137A5E EQ PUSH2 0x228 JUMPI PUSH0 PUSH0 REVERT JUMPDEST DUP1 PUSH4 0x67A1E16 EQ PUSH2 0x1BF JUMPI DUP1 PUSH4 0xD86419A EQ PUSH2 0x1E5 JUMPI DUP1 PUSH4 0x30C2C3B9 EQ PUSH2 0x1FA JUMPI JUMPDEST PUSH0 PUSH0 REVERT JUMPDEST PUSH2 0x1D2 PUSH2 0x1CD CALLDATASIZE PUSH1 0x4 PUSH2 0x1B59 JUMP JUMPDEST PUSH2 0x3A1 JUMP JUMPDEST PUSH1 0x40 MLOAD SWAP1 DUP2 MSTORE PUSH1 0x20 ADD JUMPDEST PUSH1 0x40 MLOAD DUP1 SWAP2 SUB SWAP1 RETURN JUMPDEST PUSH2 0x1F8 PUSH2 0x1F3 CALLDATASIZE PUSH1 0x4 PUSH2 0x1B74 JUMP JUMPDEST PUSH2 0x4A9 JUMP JUMPDEST STOP JUMPDEST PUSH2 0x1F8 PUSH2 0x208 CALLDATASIZE PUSH1 0x4 PUSH2 0x1B9E JUMP JUMPDEST PUSH2 0x6F4 JUMP JUMPDEST PUSH2 0x1D2 PUSH1 0x6 SLOAD DUP2 JUMP JUMPDEST PUSH2 0x1D2 PUSH1 0x5 SLOAD DUP2 JUMP JUMPDEST PUSH2 0x1D2 PUSH1 0xC SLOAD DUP2 JUMP JUMPDEST PUSH2 0x1F8 PUSH2 0x236 CALLDATASIZE PUSH1 0x4 PUSH2 0x1B59 JUMP JUMPDEST PUSH2 0x7C2 JUMP JUMPDEST PUSH2 0x1F8 PUSH2 0x249 CALLDATASIZE PUSH1 0x4 PUSH2 0x1BD5 JUMP JUMPDEST PUSH2 0xA15 JUMP JUMPDEST PUSH2 0x1F8 PUSH2 0x25C CALLDATASIZE PUSH1 0x4 PUSH2 0x1B59 JUMP JUMPDEST PUSH2 0xA9B JUMP JUMPDEST PUSH2 0x1D2 PUSH1 0xD SLOAD DUP2 JUMP JUMPDEST PUSH2 0x1F8 PUSH2 0xBC6 JUMP JUMPDEST PUSH0 SLOAD PUSH2 0x284 SWAP1 PUSH1 0x1 PUSH1 0x1 PUSH1 0xA0 SHL SUB AND DUP2 JUMP JUMPDEST PUSH1 0x40 MLOAD PUSH1 0x1 PUSH1 0x1 PUSH1 0xA0 SHL SUB SWAP1 SWAP2 AND DUP2 MSTORE PUSH1 0x20 ADD PUSH2 0x1DC JUMP JUMPDEST PUSH2 0x1F8 PUSH2 0x2AA CALLDATASIZE PUSH1 0x4 PUSH2 0x1B59 JUMP JUMPDEST PUSH2 0xC4A JUMP JUMPDEST PUSH2 0x1D2 PUSH1 0x8 SLOAD DUP2 JUMP JUMPDEST PUSH2 0x1D2 PUSH1 0x4 SLOAD DUP2 JUMP JUMPDEST PUSH2 0x2D4 PUSH2 0x2CF CALLDATASIZE PUSH1 0x4 PUSH2 0x1B59 JUMP JUMPDEST PUSH2 0xF21 JUMP JUMPDEST PUSH1 0x40 DUP1 MLOAD SWAP4 DUP5 MSTORE PUSH1 0x20 DUP5 ADD SWAP3 SWAP1 SWAP3 MSTORE SWAP1 DUP3 ADD MSTORE PUSH1 0x60 ADD PUSH2 0x1DC JUMP JUMPDEST PUSH2 0x1D2 PUSH1 0x7 SLOAD DUP2 JUMP JUMPDEST PUSH2 0x1D2 PUSH1 0x3 SLOAD DUP2 JUMP JUMPDEST PUSH2 0x1D2 PUSH1 0xB SLOAD DUP2 JUMP JUMPDEST PUSH2 0x1D2 PUSH1 0x9 SLOAD DUP2 JUMP JUMPDEST PUSH1 0x2 SLOAD PUSH2 0x284 SWAP1 PUSH1 0x1 PUSH1 0x1 PUSH1 0xA0 SHL SUB AND DUP2 JUMP JUMPDEST PUSH2 0x1D2 PUSH2 0x334 CALLDATASIZE PUSH1 0x4 PUSH2 0x1B59 JUMP JUMPDEST PUSH2 0x1040 JUMP JUMPDEST PUSH2 0x1F8 PUSH2 0x347 CALLDATASIZE PUSH1 0x4 PUSH2 0x1B74 JUMP JUMPDEST PUSH2 0x1106 JUMP JUMPDEST PUSH1 0x1 SLOAD PUSH2 0x284 SWAP1 PUSH1 0x1 PUSH1 0x1 PUSH1 0xA0 SHL SUB AND DUP2 JUMP JUMPDEST PUSH2 0x1D2 PUSH1 0xA SLOAD DUP2 JUMP JUMPDEST PUSH2 0x1F8 PUSH2 0x376 CALLDATASIZE PUSH1 0x4 PUSH2 0x1BEC JUMP JUMPDEST PUSH2 0x13F6 JUMP JUMPDEST PUSH2 0x1F8 PUSH2 0x389 CALLDATASIZE PUSH1 0x4 PUSH2 0x1B59 JUMP JUMPDEST PUSH2 0x156E JUMP JUMPDEST PUSH2 0x1F8 PUSH2 0x39C CALLDATASIZE PUSH1 0x4 PUSH2 0x1C49 JUMP JUMPDEST PUSH2 0x160E JUMP JUMPDEST PUSH0 PUSH1 0xA SLOAD PUSH0 SUB PUSH2 0x3B2 JUMPI POP PUSH0 SWAP2 SWAP1 POP JUMP JUMPDEST PUSH1 0x2 SLOAD PUSH1 0x40 MLOAD PUSH4 0x1D735E7 PUSH1 0xE3 SHL DUP2 MSTORE PUSH1 0x1 PUSH1 0x1 PUSH1 0xA0 SHL SUB DUP5 DUP2 AND PUSH1 0x4 DUP4 ADD MSTORE PUSH0 SWAP3 AND SWAP1 PUSH4 0xEB9AF38 SWAP1 PUSH1 0x24 ADD PUSH1 0x20 PUSH1 0x40 MLOAD DUP1 DUP4 SUB DUP2 DUP7 GAS STATICCALL ISZERO DUP1 ISZERO PUSH2 0x3FA JUMPI RETURNDATASIZE PUSH0 PUSH0 RETURNDATACOPY RETURNDATASIZE PUSH0 REVERT JUMPDEST POP POP POP POP PUSH1 0x40 MLOAD RETURNDATASIZE PUSH1 0x1F NOT PUSH1 0x1F DUP3 ADD AND DUP3 ADD DUP1 PUSH1 0x40 MSTORE POP DUP2 ADD SWAP1 PUSH2 0x41E SWAP2 SWAP1 PUSH2 0x1C87 JUMP JUMPDEST SWAP1 POP PUSH1 0x1 PUSH1 0x1 PUSH1 0xA0 SHL SUB DUP2 AND PUSH2 0x436 JUMPI POP PUSH0 SWAP3 SWAP2 POP POP JUMP JUMPDEST PUSH1 0xA SLOAD PUSH1 0x40 MLOAD PUSH4 0x266D6A83 PUSH1 0xE1 SHL DUP2 MSTORE PUSH1 0x4 DUP2 ADD SWAP2 SWAP1 SWAP2 MSTORE PUSH1 0x1 PUSH1 0x1 PUSH1 0xA0 SHL SUB DUP3 AND SWAP1 PUSH4 0x4CDAD506 SWAP1 PUSH1 0x24 ADD JUMPDEST PUSH1 0x20 PUSH1 0x40 MLOAD DUP1 DUP4 SUB DUP2 DUP7 GAS STATICCALL ISZERO DUP1 ISZERO PUSH2 0x47E JUMPI RETURNDATASIZE PUSH0 PUSH0 RETURNDATACOPY RETURNDATASIZE PUSH0 REVERT JUMPDEST POP POP POP POP PUSH1 0x40 MLOAD RETURNDATASIZE PUSH1 0x1F NOT PUSH1 0x1F DUP3 ADD AND DUP3 ADD DUP1 PUSH1 0x40 MSTORE POP DUP2 ADD SWAP1 PUSH2 0x4A2 SWAP2 SWAP1 PUSH2 0x1CA2 JUMP JUMPDEST SWAP4 SWAP3 POP POP POP JUMP JUMPDEST PUSH0 SLOAD PUSH1 0x1 PUSH1 0x1 PUSH1 0xA0 SHL SUB AND CALLER EQ PUSH2 0x4D2 JUMPI PUSH1 0x40 MLOAD PUSH3 0x82B429 PUSH1 0xE8 SHL DUP2 MSTORE PUSH1 0x4 ADD PUSH1 0x40 MLOAD DUP1 SWAP2 SUB SWAP1 REVERT JUMPDEST PUSH1 0x2 SLOAD PUSH1 0x40 MLOAD PUSH4 0x1D735E7 PUSH1 0xE3 SHL DUP2 MSTORE PUSH1 0x1 PUSH1 0x1 PUSH1 0xA0 SHL SUB DUP5 DUP2 AND PUSH1 0x4 DUP4 ADD MSTORE PUSH0 SWAP3 AND SWAP1 PUSH4 0xEB9AF38 SWAP1 PUSH1 0x24 ADD PUSH1 0x20 PUSH1 0x40 MLOAD DUP1 DUP4 SUB DUP2 DUP7 GAS STATICCALL ISZERO DUP1 ISZERO PUSH2 0x51A JUMPI RETURNDATASIZE PUSH0 PUSH0 RETURNDATACOPY RETURNDATASIZE PUSH0 REVERT JUMPDEST POP POP POP POP PUSH1 0x40 MLOAD RETURNDATASIZE PUSH1 0x1F NOT PUSH1 0x1F DUP3 ADD AND DUP3 ADD DUP1 PUSH1 0x40 MSTORE POP DUP2 ADD SWAP1 PUSH2 0x53E SWAP2 SWAP1 PUSH2 0x1C87 JUMP JUMPDEST SWAP1 POP PUSH1 0x1 PUSH1 0x1 PUSH1 0xA0 SHL SUB DUP2 AND PUSH2 0x567 JUMPI PUSH1 0x40 MLOAD PUSH4 0x434DF19 PUSH1 0xE5 SHL DUP2 MSTORE PUSH1 0x4 ADD PUSH1 0x40 MLOAD DUP1 SWAP2 SUB SWAP1 REVERT JUMPDEST DUP1 PUSH0 PUSH1 0x1 DUP5 ADD PUSH2 0x57A JUMPI POP PUSH1 0x9 SLOAD PUSH2 0x606 JUMP JUMPDEST PUSH1 0x40 MLOAD PUSH4 0xA28A477 PUSH1 0xE0 SHL DUP2 MSTORE PUSH1 0x4 DUP2 ADD DUP6 SWAP1 MSTORE PUSH1 0x1 PUSH1 0x1 PUSH1 0xA0 SHL SUB DUP4 AND SWAP1 PUSH4 0xA28A477 SWAP1 PUSH1 0x24 ADD PUSH1 0x20 PUSH1 0x40 MLOAD DUP1 DUP4 SUB DUP2 DUP7 GAS STATICCALL ISZERO DUP1 ISZERO PUSH2 0x5BD JUMPI RETURNDATASIZE PUSH0 PUSH0 RETURNDATACOPY RETURNDATASIZE PUSH0 REVERT JUMPDEST POP POP POP POP PUSH1 0x40 MLOAD RETURNDATASIZE PUSH1 0x1F NOT PUSH1 0x1F DUP3 ADD AND DUP3 ADD DUP1 PUSH1 0x40 MSTORE POP DUP2 ADD SWAP1 PUSH2 0x5E1 SWAP2 SWAP1 PUSH2 0x1CA2 JUMP JUMPDEST SWAP1 POP PUSH1 0x9 SLOAD DUP2 GT ISZERO PUSH2 0x606 JUMPI PUSH1 0x40 MLOAD PUSH4 0x35389BB7 PUSH1 0xE2 SHL DUP2 MSTORE PUSH1 0x4 ADD PUSH1 0x40 MLOAD DUP1 SWAP2 SUB SWAP1 REVERT JUMPDEST DUP1 PUSH0 SUB PUSH2 0x614 JUMPI POP POP POP POP POP JUMP JUMPDEST DUP1 PUSH1 0x9 PUSH0 DUP3 DUP3 SLOAD PUSH2 0x625 SWAP2 SWAP1 PUSH2 0x1CCD JUMP JUMPDEST SWAP1 SWAP2 SSTORE POP POP PUSH0 DUP1 SLOAD PUSH1 0x40 MLOAD PUSH4 0x5D043B29 PUSH1 0xE1 SHL DUP2 MSTORE PUSH1 0x4 DUP2 ADD DUP5 SWAP1 MSTORE PUSH1 0x1 PUSH1 0x1 PUSH1 0xA0 SHL SUB SWAP2 DUP3 AND PUSH1 0x24 DUP3 ADD MSTORE ADDRESS PUSH1 0x44 DUP3 ADD MSTORE SWAP1 DUP5 AND SWAP1 PUSH4 0xBA087652 SWAP1 PUSH1 0x64 ADD PUSH1 0x20 PUSH1 0x40 MLOAD DUP1 DUP4 SUB DUP2 PUSH0 DUP8 GAS CALL ISZERO DUP1 ISZERO PUSH2 0x680 JUMPI RETURNDATASIZE PUSH0 PUSH0 RETURNDATACOPY RETURNDATASIZE PUSH0 REVERT JUMPDEST POP POP POP POP PUSH1 0x40 MLOAD RETURNDATASIZE PUSH1 0x1F NOT PUSH1 0x1F DUP3 ADD AND DUP3 ADD DUP1 PUSH1 0x40 MSTORE POP DUP2 ADD SWAP1 PUSH2 0x6A4 SWAP2 SWAP1 PUSH2 0x1CA2 JUMP JUMPDEST PUSH1 0x40 DUP1 MLOAD DUP3 DUP2 MSTORE PUSH1 0x20 DUP2 ADD DUP6 SWAP1 MSTORE SWAP2 SWAP3 POP PUSH1 0x1 PUSH1 0x1 PUSH1 0xA0 SHL SUB DUP9 AND SWAP2 PUSH32 0xCA7C146A476020A9685B6AF4C572D3E244456E8D02DAD016E5ED59FF64A2FDD9 SWAP2 ADD PUSH1 0x40 MLOAD DUP1 SWAP2 SUB SWAP1 LOG2 POP POP POP POP JUMPDEST POP POP JUMP JUMPDEST PUSH0 SLOAD PUSH1 0x1 PUSH1 0x1 PUSH1 0xA0 SHL SUB AND CALLER EQ PUSH2 0x71D JUMPI PUSH1 0x40 MLOAD PUSH3 0x82B429 PUSH1 0xE8 SHL DUP2 MSTORE PUSH1 0x4 ADD PUSH1 0x40 MLOAD DUP1 SWAP2 SUB SWAP1 REVERT JUMPDEST DUP3 PUSH2 0x728 DUP6 DUP8 PUSH2 0x1CE0 JUMP JUMPDEST PUSH2 0x732 SWAP2 SWAP1 PUSH2 0x1CE0 JUMP JUMPDEST PUSH2 0x2710 EQ PUSH2 0x753 JUMPI PUSH1 0x40 MLOAD PUSH4 0x6D2FD3C9 PUSH1 0xE0 SHL DUP2 MSTORE PUSH1 0x4 ADD PUSH1 0x40 MLOAD DUP1 SWAP2 SUB SWAP1 REVERT JUMPDEST PUSH1 0x3 DUP6 SWAP1 SSTORE PUSH1 0x4 DUP5 SWAP1 SSTORE PUSH1 0x5 DUP4 SWAP1 SSTORE PUSH1 0x6 DUP3 SWAP1 SSTORE PUSH1 0x7 DUP2 SWAP1 SSTORE PUSH1 0x40 DUP1 MLOAD DUP7 DUP2 MSTORE PUSH1 0x20 DUP2 ADD DUP7 SWAP1 MSTORE SWAP1 DUP2 ADD DUP5 SWAP1 MSTORE PUSH1 0x60 DUP2 ADD DUP4 SWAP1 MSTORE PUSH1 0x80 DUP2 ADD DUP3 SWAP1 MSTORE PUSH32 0xAB98F6A91485C352FB01422A5FE72D10488727444633A4110D7716C51D511771 SWAP1 PUSH1 0xA0 ADD PUSH1 0x40 MLOAD DUP1 SWAP2 SUB SWAP1 LOG1 POP POP POP POP POP JUMP JUMPDEST PUSH1 0x7 SLOAD PUSH1 0x8 SLOAD PUSH2 0x7D2 SWAP2 SWAP1 PUSH2 0x1CE0 JUMP JUMPDEST TIMESTAMP LT ISZERO PUSH2 0x7F2 JUMPI PUSH1 0x40 MLOAD PUSH4 0x529BC33 PUSH1 0xE1 SHL DUP2 MSTORE PUSH1 0x4 ADD PUSH1 0x40 MLOAD DUP1 SWAP2 SUB SWAP1 REVERT JUMPDEST PUSH1 0x6 SLOAD PUSH0 SUB PUSH2 0x7FE JUMPI POP JUMP JUMPDEST PUSH1 0x2 SLOAD PUSH1 0x40 MLOAD PUSH4 0x1D735E7 PUSH1 0xE3 SHL DUP2 MSTORE PUSH1 0x1 PUSH1 0x1 PUSH1 0xA0 SHL SUB DUP4 DUP2 AND PUSH1 0x4 DUP4 ADD MSTORE PUSH0 SWAP3 AND SWAP1 PUSH4 0xEB9AF38 SWAP1 PUSH1 0x24 ADD PUSH1 0x20 PUSH1 0x40 MLOAD DUP1 DUP4 SUB DUP2 DUP7 GAS STATICCALL ISZERO DUP1 ISZERO PUSH2 0x846 JUMPI RETURNDATASIZE PUSH0 PUSH0 RETURNDATACOPY RETURNDATASIZE PUSH0 REVERT JUMPDEST POP POP POP POP PUSH1 0x40 MLOAD RETURNDATASIZE PUSH1 0x1F NOT PUSH1 0x1F DUP3 ADD AND DUP3 ADD DUP1 PUSH1 0x40 MSTORE POP DUP2 ADD SWAP1 PUSH2 0x86A SWAP2 SWAP1 PUSH2 0x1C87 JUMP JUMPDEST SWAP1 POP PUSH1 0x1 PUSH1 0x1 PUSH1 0xA0 SHL SUB DUP2 AND PUSH2 0x893 JUMPI PUSH1 0x40 MLOAD PUSH4 0x434DF19 PUSH1 0xE5 SHL DUP2 MSTORE PUSH1 0x4 ADD PUSH1 0x40 MLOAD DUP1 SWAP2 SUB SWAP1 REVERT JUMPDEST PUSH1 0x6 SLOAD PUSH1 0x40 MLOAD PUSH4 0xA28A477 PUSH1 0xE0 SHL DUP2 MSTORE PUSH1 0x4 DUP2 ADD SWAP2 SWAP1 SWAP2 MSTORE DUP2 SWAP1 PUSH0 SWAP1 PUSH1 0x1 PUSH1 0x1 PUSH1 0xA0 SHL SUB DUP4 AND SWAP1 PUSH4 0xA28A477 SWAP1 PUSH1 0x24 ADD PUSH1 0x20 PUSH1 0x40 MLOAD DUP1 DUP4 SUB DUP2 DUP7 GAS STATICCALL ISZERO DUP1 ISZERO PUSH2 0x8DE JUMPI RETURNDATASIZE PUSH0 PUSH0 RETURNDATACOPY RETURNDATASIZE PUSH0 REVERT JUMPDEST POP POP POP POP PUSH1 0x40 MLOAD RETURNDATASIZE PUSH1 0x1F NOT PUSH1 0x1F DUP3 ADD AND DUP3 ADD DUP1 PUSH1 0x40 MSTORE POP DUP2 ADD SWAP1 PUSH2 0x902 SWAP2 SWAP1 PUSH2 0x1CA2 JUMP JUMPDEST SWAP1 POP PUSH1 0xA SLOAD DUP2 GT ISZERO PUSH2 0x913 JUMPI POP PUSH1 0xA SLOAD JUMPDEST DUP1 PUSH0 SUB PUSH2 0x933 JUMPI PUSH1 0x40 MLOAD PUSH4 0x89206FD5 PUSH1 0xE0 SHL DUP2 MSTORE PUSH1 0x4 ADD PUSH1 0x40 MLOAD DUP1 SWAP2 SUB SWAP1 REVERT JUMPDEST DUP1 PUSH1 0xA PUSH0 DUP3 DUP3 SLOAD PUSH2 0x944 SWAP2 SWAP1 PUSH2 0x1CCD JUMP JUMPDEST SWAP1 SWAP2 SSTORE POP POP TIMESTAMP PUSH1 0x8 SSTORE PUSH0 DUP1 SLOAD PUSH1 0x40 MLOAD PUSH4 0x5D043B29 PUSH1 0xE1 SHL DUP2 MSTORE PUSH1 0x4 DUP2 ADD DUP5 SWAP1 MSTORE PUSH1 0x1 PUSH1 0x1 PUSH1 0xA0 SHL SUB SWAP2 DUP3 AND PUSH1 0x24 DUP3 ADD MSTORE ADDRESS PUSH1 0x44 DUP3 ADD MSTORE SWAP1 DUP5 AND SWAP1 PUSH4 0xBA087652 SWAP1 PUSH1 0x64 ADD PUSH1 0x20 PUSH1 0x40 MLOAD DUP1 DUP4 SUB DUP2 PUSH0 DUP8 GAS CALL ISZERO DUP1 ISZERO PUSH2 0x9A3 JUMPI RETURNDATASIZE PUSH0 PUSH0 RETURNDATACOPY RETURNDATASIZE PUSH0 REVERT JUMPDEST POP POP POP POP PUSH1 0x40 MLOAD RETURNDATASIZE PUSH1 0x1F NOT PUSH1 0x1F DUP3 ADD AND DUP3 ADD DUP1 PUSH1 0x40 MSTORE POP DUP2 ADD SWAP1 PUSH2 0x9C7 SWAP2 SWAP1 PUSH2 0x1CA2 JUMP JUMPDEST PUSH1 0x40 DUP1 MLOAD DUP3 DUP2 MSTORE PUSH1 0x20 DUP2 ADD DUP6 SWAP1 MSTORE SWAP2 SWAP3 POP PUSH1 0x1 PUSH1 0x1 PUSH1 0xA0 SHL SUB DUP8 AND SWAP2 PUSH32 0xE7CC88D9E42671078205D391C6B754AEA00A5FAA1D2E50DED3F7139500F2F98C SWAP2 ADD PUSH1 0x40 MLOAD DUP1 SWAP2 SUB SWAP1 LOG2 POP POP POP POP POP JUMP JUMPDEST PUSH0 SLOAD PUSH1 0x1 PUSH1 0x1 PUSH1 0xA0 SHL SUB AND CALLER EQ PUSH2 0xA3E JUMPI PUSH1 0x40 MLOAD PUSH3 0x82B429 PUSH1 0xE8 SHL DUP2 MSTORE PUSH1 0x4 ADD PUSH1 0x40 MLOAD DUP1 SWAP2 SUB SWAP1 REVERT JUMPDEST PUSH2 0x2710 DUP2 GT ISZERO PUSH2 0xA60 JUMPI PUSH1 0x40 MLOAD PUSH3 0x53709F PUSH1 0xE0 SHL DUP2 MSTORE PUSH1 0x4 ADD PUSH1 0x40 MLOAD DUP1 SWAP2 SUB SWAP1 REVERT JUMPDEST PUSH1 0xB DUP2 SWAP1 SSTORE PUSH1 0x40 MLOAD DUP2 DUP2 MSTORE PUSH32 0x88E3D44810ACE986C49A4B1737E3951CA5B42C4ECB5611219A3C38086CC129B7 SWAP1 PUSH1 0x20 ADD PUSH1 0x40 MLOAD DUP1 SWAP2 SUB SWAP1 LOG1 POP JUMP JUMPDEST PUSH0 SLOAD PUSH1 0x1 PUSH1 0x1 PUSH1 0xA0 SHL SUB AND CALLER EQ PUSH2 0xAC4 JUMPI PUSH1 0x40 MLOAD PUSH3 0x82B429 PUSH1 0xE8 SHL DUP2 MSTORE PUSH1 0x4 ADD PUSH1 0x40 MLOAD DUP1 SWAP2 SUB SWAP1 REVERT JUMPDEST PUSH2 0xACC PUSH2 0x183C JUMP JUMPDEST PUSH1 0x40 MLOAD PUSH4 0x70A08231 PUSH1 0xE0 SHL DUP2 MSTORE ADDRESS PUSH1 0x4 DUP3 ADD MSTORE PUSH0 SWAP1 PUSH1 0x1 PUSH1 0x1 PUSH1 0xA0 SHL SUB DUP4 AND SWAP1 PUSH4 0x70A08231 SWAP1 PUSH1 0x24 ADD PUSH1 0x20 PUSH1 0x40 MLOAD DUP1 DUP4 SUB DUP2 DUP7 GAS STATICCALL ISZERO DUP1 ISZERO PUSH2 0xB10 JUMPI RETURNDATASIZE PUSH0 PUSH0 RETURNDATACOPY RETURNDATASIZE PUSH0 REVERT JUMPDEST POP POP POP POP PUSH1 0x40 MLOAD RETURNDATASIZE PUSH1 0x1F NOT PUSH1 0x1F DUP3 ADD AND DUP3 ADD DUP1 PUSH1 0x40 MSTORE POP DUP2 ADD SWAP1 PUSH2 0xB34 SWAP2 SWAP1 PUSH2 0x1CA2 JUMP JUMPDEST SWAP1 POP DUP1 ISZERO PUSH2 0xB99 JUMPI PUSH0 SLOAD PUSH2 0xB55 SWAP1 PUSH1 0x1 PUSH1 0x1 PUSH1 0xA0 SHL SUB DUP5 DUP2 AND SWAP2 AND DUP4 PUSH2 0x186A JUMP JUMPDEST DUP2 PUSH1 0x1 PUSH1 0x1 PUSH1 0xA0 SHL SUB AND PUSH32 0x5FAFA99D0643513820BE26656B45130B01E1C03062E1266BF36F88CBD3BD9695 DUP3 PUSH1 0x40 MLOAD PUSH2 0xB90 SWAP2 DUP2 MSTORE PUSH1 0x20 ADD SWAP1 JUMP JUMPDEST PUSH1 0x40 MLOAD DUP1 SWAP2 SUB SWAP1 LOG2 JUMPDEST POP PUSH2 0xBC3 PUSH1 0x1 PUSH32 0x9B779B17422D0DF92223018B32B4D1FA46E071723D6817E2486D003BECC55F00 SSTORE JUMP JUMPDEST POP JUMP JUMPDEST PUSH1 0x1 SLOAD PUSH1 0x1 PUSH1 0x1 PUSH1 0xA0 SHL SUB AND CALLER EQ PUSH2 0xBF1 JUMPI PUSH1 0x40 MLOAD PUSH4 0x3E31D61B PUSH1 0xE1 SHL DUP2 MSTORE PUSH1 0x4 ADD PUSH1 0x40 MLOAD DUP1 SWAP2 SUB SWAP1 REVERT JUMPDEST PUSH0 DUP1 SLOAD PUSH1 0x1 DUP1 SLOAD PUSH1 0x1 PUSH1 0x1 PUSH1 0xA0 SHL SUB DUP1 DUP3 AND PUSH1 0x1 PUSH1 0x1 PUSH1 0xA0 SHL SUB NOT DUP1 DUP7 AND DUP3 OR DUP8 SSTORE SWAP1 SWAP3 AND SWAP1 SWAP3 SSTORE PUSH1 0x40 MLOAD SWAP2 SWAP1 SWAP3 AND SWAP3 DUP4 SWAP2 PUSH32 0x8BE0079C531659141344CD1FD0A4F28419497F9722A3DAAFE3B4186F6B6457E0 SWAP2 SWAP1 LOG3 POP JUMP JUMPDEST PUSH1 0x40 MLOAD PUSH4 0x70A08231 PUSH1 0xE0 SHL DUP2 MSTORE ADDRESS PUSH1 0x4 DUP3 ADD MSTORE PUSH0 SWAP1 PUSH1 0x1 PUSH1 0x1 PUSH1 0xA0 SHL SUB DUP4 AND SWAP1 PUSH4 0x70A08231 SWAP1 PUSH1 0x24 ADD PUSH1 0x20 PUSH1 0x40 MLOAD DUP1 DUP4 SUB DUP2 DUP7 GAS STATICCALL ISZERO DUP1 ISZERO PUSH2 0xC8E JUMPI RETURNDATASIZE PUSH0 PUSH0 RETURNDATACOPY RETURNDATASIZE PUSH0 REVERT JUMPDEST POP POP POP POP PUSH1 0x40 MLOAD RETURNDATASIZE PUSH1 0x1F NOT PUSH1 0x1F DUP3 ADD AND DUP3 ADD DUP1 PUSH1 0x40 MSTORE POP DUP2 ADD SWAP1 PUSH2 0xCB2 SWAP2 SWAP1 PUSH2 0x1CA2 JUMP JUMPDEST SWAP1 POP DUP1 PUSH0 SUB PUSH2 0xCBF JUMPI POP POP JUMP JUMPDEST PUSH0 PUSH2 0x2710 PUSH1 0x3 SLOAD DUP4 PUSH2 0xCD1 SWAP2 SWAP1 PUSH2 0x1CF3 JUMP JUMPDEST PUSH2 0xCDB SWAP2 SWAP1 PUSH2 0x1D0A JUMP JUMPDEST SWAP1 POP PUSH0 PUSH2 0x2710 PUSH1 0x4 SLOAD DUP5 PUSH2 0xCEF SWAP2 SWAP1 PUSH2 0x1CF3 JUMP JUMPDEST PUSH2 0xCF9 SWAP2 SWAP1 PUSH2 0x1D0A JUMP JUMPDEST SWAP1 POP PUSH0 DUP2 PUSH2 0xD07 DUP5 DUP7 PUSH2 0x1CCD JUMP JUMPDEST PUSH2 0xD11 SWAP2 SWAP1 PUSH2 0x1CCD JUMP JUMPDEST SWAP1 POP DUP3 ISZERO PUSH2 0xD32 JUMPI PUSH0 SLOAD PUSH2 0xD32 SWAP1 PUSH1 0x1 PUSH1 0x1 PUSH1 0xA0 SHL SUB DUP8 DUP2 AND SWAP2 AND DUP6 PUSH2 0x186A JUMP JUMPDEST PUSH0 PUSH2 0xD3D DUP3 DUP5 PUSH2 0x1CE0 JUMP JUMPDEST SWAP1 POP PUSH0 DUP1 DUP3 ISZERO PUSH2 0xEC4 JUMPI PUSH1 0x2 SLOAD PUSH1 0x40 MLOAD PUSH4 0x1D735E7 PUSH1 0xE3 SHL DUP2 MSTORE PUSH1 0x1 PUSH1 0x1 PUSH1 0xA0 SHL SUB DUP11 DUP2 AND PUSH1 0x4 DUP4 ADD MSTORE PUSH0 SWAP3 AND SWAP1 PUSH4 0xEB9AF38 SWAP1 PUSH1 0x24 ADD PUSH1 0x20 PUSH1 0x40 MLOAD DUP1 DUP4 SUB DUP2 DUP7 GAS STATICCALL ISZERO DUP1 ISZERO PUSH2 0xD8F JUMPI RETURNDATASIZE PUSH0 PUSH0 RETURNDATACOPY RETURNDATASIZE PUSH0 REVERT JUMPDEST POP POP POP POP PUSH1 0x40 MLOAD RETURNDATASIZE PUSH1 0x1F NOT PUSH1 0x1F DUP3 ADD AND DUP3 ADD DUP1 PUSH1 0x40 MSTORE POP DUP2 ADD SWAP1 PUSH2 0xDB3 SWAP2 SWAP1 PUSH2 0x1C87 JUMP JUMPDEST SWAP1 POP PUSH1 0x1 PUSH1 0x1 PUSH1 0xA0 SHL SUB DUP2 AND PUSH2 0xDDC JUMPI PUSH1 0x40 MLOAD PUSH4 0x434DF19 PUSH1 0xE5 SHL DUP2 MSTORE PUSH1 0x4 ADD PUSH1 0x40 MLOAD DUP1 SWAP2 SUB SWAP1 REVERT JUMPDEST DUP1 PUSH2 0xDF1 PUSH1 0x1 PUSH1 0x1 PUSH1 0xA0 SHL SUB DUP12 AND DUP3 DUP8 PUSH2 0x18A9 JUMP JUMPDEST PUSH1 0x40 MLOAD PUSH4 0x6E553F65 PUSH1 0xE0 SHL DUP2 MSTORE PUSH1 0x4 DUP2 ADD DUP7 SWAP1 MSTORE ADDRESS PUSH1 0x24 DUP3 ADD MSTORE PUSH0 SWAP1 PUSH1 0x1 PUSH1 0x1 PUSH1 0xA0 SHL SUB DUP4 AND SWAP1 PUSH4 0x6E553F65 SWAP1 PUSH1 0x44 ADD PUSH1 0x20 PUSH1 0x40 MLOAD DUP1 DUP4 SUB DUP2 PUSH0 DUP8 GAS CALL ISZERO DUP1 ISZERO PUSH2 0xE3D JUMPI RETURNDATASIZE PUSH0 PUSH0 RETURNDATACOPY RETURNDATASIZE PUSH0 REVERT JUMPDEST POP POP POP POP PUSH1 0x40 MLOAD RETURNDATASIZE PUSH1 0x1F NOT PUSH1 0x1F DUP3 ADD AND DUP3 ADD DUP1 PUSH1 0x40 MSTORE POP DUP2 ADD SWAP1 PUSH2 0xE61 SWAP2 SWAP1 PUSH2 0x1CA2 JUMP JUMPDEST SWAP1 POP DUP8 ISZERO PUSH2 0xE97 JUMPI DUP6 PUSH2 0xE74 DUP10 DUP4 PUSH2 0x1CF3 JUMP JUMPDEST PUSH2 0xE7E SWAP2 SWAP1 PUSH2 0x1D0A JUMP JUMPDEST SWAP5 POP DUP5 PUSH1 0x9 PUSH0 DUP3 DUP3 SLOAD PUSH2 0xE91 SWAP2 SWAP1 PUSH2 0x1CE0 JUMP JUMPDEST SWAP1 SWAP2 SSTORE POP POP JUMPDEST DUP7 ISZERO PUSH2 0xEC0 JUMPI PUSH2 0xEA7 DUP6 DUP3 PUSH2 0x1CCD JUMP JUMPDEST SWAP4 POP DUP4 PUSH1 0xA PUSH0 DUP3 DUP3 SLOAD PUSH2 0xEBA SWAP2 SWAP1 PUSH2 0x1CE0 JUMP JUMPDEST SWAP1 SWAP2 SSTORE POP POP JUMPDEST POP POP POP JUMPDEST PUSH1 0x40 DUP1 MLOAD DUP9 DUP2 MSTORE PUSH1 0x20 DUP2 ADD DUP9 SWAP1 MSTORE SWAP1 DUP2 ADD DUP4 SWAP1 MSTORE PUSH1 0x60 DUP2 ADD DUP3 SWAP1 MSTORE PUSH1 0x1 PUSH1 0x1 PUSH1 0xA0 SHL SUB DUP10 AND SWAP1 PUSH32 0xF2C7C61AAB9019A0417876FEE95EA2CE79B2DA32F8F2B41271429475B2CF4C23 SWAP1 PUSH1 0x80 ADD PUSH1 0x40 MLOAD DUP1 SWAP2 SUB SWAP1 LOG2 POP POP POP POP POP POP POP POP JUMP JUMPDEST PUSH1 0xC SLOAD PUSH1 0xD SLOAD PUSH0 SWAP1 DUP2 SWAP1 ISZERO PUSH2 0x101D JUMPI PUSH1 0x2 SLOAD PUSH1 0x40 MLOAD PUSH4 0x1D735E7 PUSH1 0xE3 SHL DUP2 MSTORE PUSH1 0x1 PUSH1 0x1 PUSH1 0xA0 SHL SUB DUP7 DUP2 AND PUSH1 0x4 DUP4 ADD MSTORE PUSH0 SWAP3 AND SWAP1 PUSH4 0xEB9AF38 SWAP1 PUSH1 0x24 ADD PUSH1 0x20 PUSH1 0x40 MLOAD DUP1 DUP4 SUB DUP2 DUP7 GAS STATICCALL ISZERO DUP1 ISZERO PUSH2 0xF78 JUMPI RETURNDATASIZE PUSH0 PUSH0 RETURNDATACOPY RETURNDATASIZE PUSH0 REVERT JUMPDEST POP POP POP POP PUSH1 0x40 MLOAD RETURNDATASIZE PUSH1 0x1F NOT PUSH1 0x1F DUP3 ADD AND DUP3 ADD DUP1 PUSH1 0x40 MSTORE POP DUP2 ADD SWAP1 PUSH2 0xF9C SWAP2 SWAP1 PUSH2 0x1C87 JUMP JUMPDEST SWAP1 POP PUSH1 0x1 PUSH1 0x1 PUSH1 0xA0 SHL SUB DUP2 AND ISZERO PUSH2 0x101B JUMPI PUSH1 0xD SLOAD PUSH1 0x40 MLOAD PUSH4 0x266D6A83 PUSH1 0xE1 SHL DUP2 MSTORE PUSH1 0x4 DUP2 ADD SWAP2 SWAP1 SWAP2 MSTORE PUSH1 0x1 PUSH1 0x1 PUSH1 0xA0 SHL SUB DUP3 AND SWAP1 PUSH4 0x4CDAD506 SWAP1 PUSH1 0x24 ADD PUSH1 0x20 PUSH1 0x40 MLOAD DUP1 DUP4 SUB DUP2 DUP7 GAS STATICCALL ISZERO DUP1 ISZERO PUSH2 0xFF4 JUMPI RETURNDATASIZE PUSH0 PUSH0 RETURNDATACOPY RETURNDATASIZE PUSH0 REVERT JUMPDEST POP POP POP POP PUSH1 0x40 MLOAD RETURNDATASIZE PUSH1 0x1F NOT PUSH1 0x1F DUP3 ADD AND DUP3 ADD DUP1 PUSH1 0x40 MSTORE POP DUP2 ADD SWAP1 PUSH2 0x1018 SWAP2 SWAP1 PUSH2 0x1CA2 JUMP JUMPDEST SWAP3 POP JUMPDEST POP JUMPDEST DUP3 DUP3 GT ISZERO PUSH2 0x1036 JUMPI PUSH2 0x102F DUP4 DUP4 PUSH2 0x1CCD JUMP JUMPDEST SWAP1 POP PUSH2 0x1039 JUMP JUMPDEST POP PUSH0 JUMPDEST SWAP2 SWAP4 SWAP1 SWAP3 POP JUMP JUMPDEST PUSH0 PUSH1 0x9 SLOAD PUSH0 SUB PUSH2 0x1051 JUMPI POP PUSH0 SWAP2 SWAP1 POP JUMP JUMPDEST PUSH1 0x2 SLOAD PUSH1 0x40 MLOAD PUSH4 0x1D735E7 PUSH1 0xE3 SHL DUP2 MSTORE PUSH1 0x1 PUSH1 0x1 PUSH1 0xA0 SHL SUB DUP5 DUP2 AND PUSH1 0x4 DUP4 ADD MSTORE PUSH0 SWAP3 AND SWAP1 PUSH4 0xEB9AF38 SWAP1 PUSH1 0x24 ADD PUSH1 0x20 PUSH1 0x40 MLOAD DUP1 DUP4 SUB DUP2 DUP7 GAS STATICCALL ISZERO DUP1 ISZERO PUSH2 0x1099 JUMPI RETURNDATASIZE PUSH0 PUSH0 RETURNDATACOPY RETURNDATASIZE PUSH0 REVERT JUMPDEST POP POP POP POP PUSH1 0x40 MLOAD RETURNDATASIZE PUSH1 0x1F NOT PUSH1 0x1F DUP3 ADD AND DUP3 ADD DUP1 PUSH1 0x40 MSTORE POP DUP2 ADD SWAP1 PUSH2 0x10BD SWAP2 SWAP1 PUSH2 0x1C87 JUMP JUMPDEST SWAP1 POP PUSH1 0x1 PUSH1 0x1 PUSH1 0xA0 SHL SUB DUP2 AND PUSH2 0x10D5 JUMPI POP PUSH0 SWAP3 SWAP2 POP POP JUMP JUMPDEST PUSH1 0x9 SLOAD PUSH1 0x40 MLOAD PUSH4 0x266D6A83 PUSH1 0xE1 SHL DUP2 MSTORE PUSH1 0x4 DUP2 ADD SWAP2 SWAP1 SWAP2 MSTORE PUSH1 0x1 PUSH1 0x1 PUSH1 0xA0 SHL SUB DUP3 AND SWAP1 PUSH4 0x4CDAD506 SWAP1 PUSH1 0x24 ADD PUSH2 0x463 JUMP JUMPDEST PUSH0 SLOAD PUSH1 0x1 PUSH1 0x1 PUSH1 0xA0 SHL SUB AND CALLER EQ PUSH2 0x112F JUMPI PUSH1 0x40 MLOAD PUSH3 0x82B429 PUSH1 0xE8 SHL DUP2 MSTORE PUSH1 0x4 ADD PUSH1 0x40 MLOAD DUP1 SWAP2 SUB SWAP1 REVERT JUMPDEST DUP1 ISZERO PUSH2 0x6F0 JUMPI PUSH1 0x2 SLOAD PUSH1 0x40 MLOAD PUSH4 0x1D735E7 PUSH1 0xE3 SHL DUP2 MSTORE PUSH1 0x1 PUSH1 0x1 PUSH1 0xA0 SHL SUB DUP5 DUP2 AND PUSH1 0x4 DUP4 ADD MSTORE PUSH0 SWAP3 AND SWAP1 PUSH4 0xEB9AF38 SWAP1 PUSH1 0x24 ADD PUSH1 0x20 PUSH1 0x40 MLOAD DUP1 DUP4 SUB DUP2 DUP7 GAS STATICCALL ISZERO DUP1 ISZERO PUSH2 0x117D JUMPI RETURNDATASIZE PUSH0 PUSH0 RETURNDATACOPY RETURNDATASIZE PUSH0 REVERT JUMPDEST POP POP POP POP PUSH1 0x40 MLOAD RETURNDATASIZE PUSH1 0x1F NOT PUSH1 0x1F DUP3 ADD AND DUP3 ADD DUP1 PUSH1 0x40 MSTORE POP DUP2 ADD SWAP1 PUSH2 0x11A1 SWAP2 SWAP1 PUSH2 0x1C87 JUMP JUMPDEST SWAP1 POP PUSH1 0x1 PUSH1 0x1 PUSH1 0xA0 SHL SUB DUP2 AND PUSH2 0x11CA JUMPI PUSH1 0x40 MLOAD PUSH4 0x434DF19 PUSH1 0xE5 SHL DUP2 MSTORE PUSH1 0x4 ADD PUSH1 0x40 MLOAD DUP1 SWAP2 SUB SWAP1 REVERT JUMPDEST DUP1 PUSH0 PUSH1 0x1 DUP5 ADD PUSH2 0x1246 JUMPI POP PUSH1 0xD SLOAD PUSH1 0x40 MLOAD PUSH4 0x266D6A83 PUSH1 0xE1 SHL DUP2 MSTORE PUSH1 0x4 DUP2 ADD DUP3 SWAP1 MSTORE PUSH1 0x1 PUSH1 0x1 PUSH1 0xA0 SHL SUB DUP4 AND SWAP1 PUSH4 0x4CDAD506 SWAP1 PUSH1 0x24 ADD PUSH1 0x20 PUSH1 0x40 MLOAD DUP1 DUP4 SUB DUP2 DUP7 GAS STATICCALL ISZERO DUP1 ISZERO PUSH2 0x121B JUMPI RETURNDATASIZE PUSH0 PUSH0 RETURNDATACOPY RETURNDATASIZE PUSH0 REVERT JUMPDEST POP POP POP POP PUSH1 0x40 MLOAD RETURNDATASIZE PUSH1 0x1F NOT PUSH1 0x1F DUP3 ADD AND DUP3 ADD DUP1 PUSH1 0x40 MSTORE POP DUP2 ADD SWAP1 PUSH2 0x123F SWAP2 SWAP1 PUSH2 0x1CA2 JUMP JUMPDEST SWAP4 POP PUSH2 0x12D2 JUMP JUMPDEST PUSH1 0x40 MLOAD PUSH4 0xA28A477 PUSH1 0xE0 SHL DUP2 MSTORE PUSH1 0x4 DUP2 ADD DUP6 SWAP1 MSTORE PUSH1 0x1 PUSH1 0x1 PUSH1 0xA0 SHL SUB DUP4 AND SWAP1 PUSH4 0xA28A477 SWAP1 PUSH1 0x24 ADD PUSH1 0x20 PUSH1 0x40 MLOAD DUP1 DUP4 SUB DUP2 DUP7 GAS STATICCALL ISZERO DUP1 ISZERO PUSH2 0x1289 JUMPI RETURNDATASIZE PUSH0 PUSH0 RETURNDATACOPY RETURNDATASIZE PUSH0 REVERT JUMPDEST POP POP POP POP PUSH1 0x40 MLOAD RETURNDATASIZE PUSH1 0x1F NOT PUSH1 0x1F DUP3 ADD AND DUP3 ADD DUP1 PUSH1 0x40 MSTORE POP DUP2 ADD SWAP1 PUSH2 0x12AD SWAP2 SWAP1 PUSH2 0x1CA2 JUMP JUMPDEST SWAP1 POP PUSH1 0xD SLOAD DUP2 GT ISZERO PUSH2 0x12D2 JUMPI PUSH1 0x40 MLOAD PUSH4 0xFEC82CD7 PUSH1 0xE0 SHL DUP2 MSTORE PUSH1 0x4 ADD PUSH1 0x40 MLOAD DUP1 SWAP2 SUB SWAP1 REVERT JUMPDEST DUP1 PUSH0 SUB PUSH2 0x12E0 JUMPI POP POP POP POP POP JUMP JUMPDEST PUSH0 PUSH1 0xD SLOAD PUSH1 0xC SLOAD DUP4 PUSH2 0x12F2 SWAP2 SWAP1 PUSH2 0x1CF3 JUMP JUMPDEST PUSH2 0x12FC SWAP2 SWAP1 PUSH2 0x1D0A JUMP JUMPDEST SWAP1 POP DUP1 PUSH1 0xC PUSH0 DUP3 DUP3 SLOAD PUSH2 0x130F SWAP2 SWAP1 PUSH2 0x1CCD JUMP JUMPDEST SWAP3 POP POP DUP2 SWAP1 SSTORE POP DUP2 PUSH1 0xD PUSH0 DUP3 DUP3 SLOAD PUSH2 0x1327 SWAP2 SWAP1 PUSH2 0x1CCD JUMP JUMPDEST SWAP1 SWAP2 SSTORE POP POP PUSH0 DUP1 SLOAD PUSH1 0x40 MLOAD PUSH4 0x5D043B29 PUSH1 0xE1 SHL DUP2 MSTORE PUSH1 0x4 DUP2 ADD DUP6 SWAP1 MSTORE PUSH1 0x1 PUSH1 0x1 PUSH1 0xA0 SHL SUB SWAP2 DUP3 AND PUSH1 0x24 DUP3 ADD MSTORE ADDRESS PUSH1 0x44 DUP3 ADD MSTORE SWAP1 DUP6 AND SWAP1 PUSH4 0xBA087652 SWAP1 PUSH1 0x64 ADD PUSH1 0x20 PUSH1 0x40 MLOAD DUP1 DUP4 SUB DUP2 PUSH0 DUP8 GAS CALL ISZERO DUP1 ISZERO PUSH2 0x1382 JUMPI RETURNDATASIZE PUSH0 PUSH0 RETURNDATACOPY RETURNDATASIZE PUSH0 REVERT JUMPDEST POP POP POP POP PUSH1 0x40 MLOAD RETURNDATASIZE PUSH1 0x1F NOT PUSH1 0x1F DUP3 ADD AND DUP3 ADD DUP1 PUSH1 0x40 MSTORE POP DUP2 ADD SWAP1 PUSH2 0x13A6 SWAP2 SWAP1 PUSH2 0x1CA2 JUMP JUMPDEST PUSH1 0x40 DUP1 MLOAD DUP3 DUP2 MSTORE PUSH1 0x20 DUP2 ADD DUP7 SWAP1 MSTORE SWAP2 SWAP3 POP PUSH1 0x1 PUSH1 0x1 PUSH1 0xA0 SHL SUB DUP10 AND SWAP2 PUSH32 0x93DA32E64263D25ACE24CCB77425144DDC5D0DD0F4DFC1D3BC6FF0114AC7049A SWAP2 ADD PUSH1 0x40 MLOAD DUP1 SWAP2 SUB SWAP1 LOG2 POP POP POP POP POP POP POP JUMP JUMPDEST PUSH0 PUSH2 0x13FF PUSH2 0x1936 JUMP JUMPDEST DUP1 SLOAD SWAP1 SWAP2 POP PUSH1 0xFF PUSH1 0x1 PUSH1 0x40 SHL DUP3 DIV AND ISZERO SWAP1 PUSH8 0xFFFFFFFFFFFFFFFF AND PUSH0 DUP2 ISZERO DUP1 ISZERO PUSH2 0x1426 JUMPI POP DUP3 JUMPDEST SWAP1 POP PUSH0 DUP3 PUSH8 0xFFFFFFFFFFFFFFFF AND PUSH1 0x1 EQ DUP1 ISZERO PUSH2 0x1442 JUMPI POP ADDRESS EXTCODESIZE ISZERO JUMPDEST SWAP1 POP DUP2 ISZERO DUP1 ISZERO PUSH2 0x1450 JUMPI POP DUP1 ISZERO JUMPDEST ISZERO PUSH2 0x146E JUMPI PUSH1 0x40 MLOAD PUSH4 0xF92EE8A9 PUSH1 0xE0 SHL DUP2 MSTORE PUSH1 0x4 ADD PUSH1 0x40 MLOAD DUP1 SWAP2 SUB SWAP1 REVERT JUMPDEST DUP5 SLOAD PUSH8 0xFFFFFFFFFFFFFFFF NOT AND PUSH1 0x1 OR DUP6 SSTORE DUP4 ISZERO PUSH2 0x1498 JUMPI DUP5 SLOAD PUSH1 0xFF PUSH1 0x40 SHL NOT AND PUSH1 0x1 PUSH1 0x40 SHL OR DUP6 SSTORE JUMPDEST PUSH0 DUP1 SLOAD PUSH1 0x1 PUSH1 0x1 PUSH1 0xA0 SHL SUB DUP1 DUP16 AND PUSH1 0x1 PUSH1 0x1 PUSH1 0xA0 SHL SUB NOT SWAP3 DUP4 AND OR SWAP1 SWAP3 SSTORE PUSH1 0x2 DUP1 SLOAD SWAP3 DUP15 AND SWAP3 SWAP1 SWAP2 AND SWAP2 SWAP1 SWAP2 OR SWAP1 SSTORE DUP8 PUSH2 0x14D2 DUP11 DUP13 PUSH2 0x1CE0 JUMP JUMPDEST PUSH2 0x14DC SWAP2 SWAP1 PUSH2 0x1CE0 JUMP JUMPDEST PUSH2 0x2710 EQ PUSH2 0x14FD JUMPI PUSH1 0x40 MLOAD PUSH4 0x6D2FD3C9 PUSH1 0xE0 SHL DUP2 MSTORE PUSH1 0x4 ADD PUSH1 0x40 MLOAD DUP1 SWAP2 SUB SWAP1 REVERT JUMPDEST PUSH1 0x3 DUP11 SWAP1 SSTORE PUSH1 0x4 DUP10 SWAP1 SSTORE PUSH1 0x5 DUP9 SWAP1 SSTORE PUSH1 0x6 DUP8 SWAP1 SSTORE PUSH1 0x7 DUP7 SWAP1 SSTORE TIMESTAMP PUSH1 0x8 SSTORE DUP4 ISZERO PUSH2 0x1560 JUMPI DUP5 SLOAD PUSH1 0xFF PUSH1 0x40 SHL NOT AND DUP6 SSTORE PUSH1 0x40 MLOAD PUSH1 0x1 DUP2 MSTORE PUSH32 0xC7F505B2F371AE2175EE4913F4499E1F2633A7B5936321EED1CDAEB6115181D2 SWAP1 PUSH1 0x20 ADD PUSH1 0x40 MLOAD DUP1 SWAP2 SUB SWAP1 LOG1 JUMPDEST POP POP POP POP POP POP POP POP POP POP POP POP JUMP JUMPDEST PUSH0 SLOAD PUSH1 0x1 PUSH1 0x1 PUSH1 0xA0 SHL SUB AND CALLER EQ PUSH2 0x1597 JUMPI PUSH1 0x40 MLOAD PUSH3 0x82B429 PUSH1 0xE8 SHL DUP2 MSTORE PUSH1 0x4 ADD PUSH1 0x40 MLOAD DUP1 SWAP2 SUB SWAP1 REVERT JUMPDEST PUSH1 0x1 PUSH1 0x1 PUSH1 0xA0 SHL SUB DUP2 AND PUSH2 0x15BE JUMPI PUSH1 0x40 MLOAD PUSH4 0xD92E233D PUSH1 0xE0 SHL DUP2 MSTORE PUSH1 0x4 ADD PUSH1 0x40 MLOAD DUP1 SWAP2 SUB SWAP1 REVERT JUMPDEST PUSH1 0x1 DUP1 SLOAD PUSH1 0x1 PUSH1 0x1 PUSH1 0xA0 SHL SUB NOT AND PUSH1 0x1 PUSH1 0x1 PUSH1 0xA0 SHL SUB DUP4 DUP2 AND SWAP2 DUP3 OR SWAP1 SWAP3 SSTORE PUSH0 DUP1 SLOAD PUSH1 0x40 MLOAD SWAP3 SWAP4 AND SWAP2 PUSH32 0x38D16B8CAC22D99FC7C124B9CD0DE2D3FA1FAEF420BFE791D8C362D765E22700 SWAP2 SWAP1 LOG3 POP JUMP JUMPDEST PUSH0 SLOAD PUSH1 0x1 PUSH1 0x1 PUSH1 0xA0 SHL SUB AND CALLER EQ PUSH2 0x1637 JUMPI PUSH1 0x40 MLOAD PUSH3 0x82B429 PUSH1 0xE8 SHL DUP2 MSTORE PUSH1 0x4 ADD PUSH1 0x40 MLOAD DUP1 SWAP2 SUB SWAP1 REVERT JUMPDEST PUSH0 PUSH2 0x2710 PUSH1 0xB SLOAD DUP4 PUSH2 0x1649 SWAP2 SWAP1 PUSH2 0x1CF3 JUMP JUMPDEST PUSH2 0x1653 SWAP2 SWAP1 PUSH2 0x1D0A JUMP JUMPDEST SWAP1 POP PUSH0 PUSH2 0x1660 DUP3 DUP5 PUSH2 0x1CE0 JUMP JUMPDEST PUSH0 SLOAD SWAP1 SWAP2 POP PUSH2 0x167D SWAP1 PUSH1 0x1 PUSH1 0x1 PUSH1 0xA0 SHL SUB DUP8 DUP2 AND SWAP2 AND ADDRESS DUP5 PUSH2 0x1960 JUMP JUMPDEST PUSH2 0x1691 PUSH1 0x1 PUSH1 0x1 PUSH1 0xA0 SHL SUB DUP7 AND DUP6 DUP6 PUSH2 0x186A JUMP JUMPDEST PUSH0 DUP3 ISZERO PUSH2 0x17E3 JUMPI PUSH1 0x2 SLOAD PUSH1 0x40 MLOAD PUSH4 0x1D735E7 PUSH1 0xE3 SHL DUP2 MSTORE PUSH1 0x1 PUSH1 0x1 PUSH1 0xA0 SHL SUB DUP9 DUP2 AND PUSH1 0x4 DUP4 ADD MSTORE PUSH0 SWAP3 AND SWAP1 PUSH4 0xEB9AF38 SWAP1 PUSH1 0x24 ADD PUSH1 0x20 PUSH1 0x40 MLOAD DUP1 DUP4 SUB DUP2 DUP7 GAS STATICCALL ISZERO DUP1 ISZERO PUSH2 0x16E0 JUMPI RETURNDATASIZE PUSH0 PUSH0 RETURNDATACOPY RETURNDATASIZE PUSH0 REVERT JUMPDEST POP POP POP POP PUSH1 0x40 MLOAD RETURNDATASIZE PUSH1 0x1F NOT PUSH1 0x1F DUP3 ADD AND DUP3 ADD DUP1 PUSH1 0x40 MSTORE POP DUP2 ADD SWAP1 PUSH2 0x1704 SWAP2 SWAP1 PUSH2 0x1C87 JUMP JUMPDEST SWAP1 POP PUSH1 0x1 PUSH1 0x1 PUSH1 0xA0 SHL SUB DUP2 AND PUSH2 0x172D JUMPI PUSH1 0x40 MLOAD PUSH4 0x434DF19 PUSH1 0xE5 SHL DUP2 MSTORE PUSH1 0x4 ADD PUSH1 0x40 MLOAD DUP1 SWAP2 SUB SWAP1 REVERT JUMPDEST DUP1 PUSH2 0x1742 PUSH1 0x1 PUSH1 0x1 PUSH1 0xA0 SHL SUB DUP10 AND DUP3 DUP8 PUSH2 0x18A9 JUMP JUMPDEST PUSH1 0x40 MLOAD PUSH4 0x6E553F65 PUSH1 0xE0 SHL DUP2 MSTORE PUSH1 0x4 DUP2 ADD DUP7 SWAP1 MSTORE ADDRESS PUSH1 0x24 DUP3 ADD MSTORE PUSH1 0x1 PUSH1 0x1 PUSH1 0xA0 SHL SUB DUP3 AND SWAP1 PUSH4 0x6E553F65 SWAP1 PUSH1 0x44 ADD PUSH1 0x20 PUSH1 0x40 MLOAD DUP1 DUP4 SUB DUP2 PUSH0 DUP8 GAS CALL ISZERO DUP1 ISZERO PUSH2 0x178C JUMPI RETURNDATASIZE PUSH0 PUSH0 RETURNDATACOPY RETURNDATASIZE PUSH0 REVERT JUMPDEST POP POP POP POP PUSH1 0x40 MLOAD RETURNDATASIZE PUSH1 0x1F NOT PUSH1 0x1F DUP3 ADD AND DUP3 ADD DUP1 PUSH1 0x40 MSTORE POP DUP2 ADD SWAP1 PUSH2 0x17B0 SWAP2 SWAP1 PUSH2 0x1CA2 JUMP JUMPDEST SWAP3 POP DUP5 PUSH1 0xC PUSH0 DUP3 DUP3 SLOAD PUSH2 0x17C3 SWAP2 SWAP1 PUSH2 0x1CE0 JUMP JUMPDEST SWAP3 POP POP DUP2 SWAP1 SSTORE POP DUP3 PUSH1 0xD PUSH0 DUP3 DUP3 SLOAD PUSH2 0x17DB SWAP2 SWAP1 PUSH2 0x1CE0 JUMP JUMPDEST SWAP1 SWAP2 SSTORE POP POP POP POP JUMPDEST PUSH1 0x40 DUP1 MLOAD DUP6 DUP2 MSTORE PUSH1 0x20 DUP2 ADD DUP6 SWAP1 MSTORE SWAP1 DUP2 ADD DUP3 SWAP1 MSTORE PUSH1 0x1 PUSH1 0x1 PUSH1 0xA0 SHL SUB DUP1 DUP8 AND SWAP2 SWAP1 DUP9 AND SWAP1 PUSH32 0x6B1716847A6A1A5B10DB02F856B217AAFB323FBA68D1E0FC63F313D592CF81D1 SWAP1 PUSH1 0x60 ADD PUSH1 0x40 MLOAD DUP1 SWAP2 SUB SWAP1 LOG3 POP POP POP POP POP POP JUMP JUMPDEST PUSH2 0x1844 PUSH2 0x1996 JUMP JUMPDEST PUSH1 0x2 PUSH32 0x9B779B17422D0DF92223018B32B4D1FA46E071723D6817E2486D003BECC55F00 SSTORE JUMP JUMPDEST PUSH2 0x1877 DUP4 DUP4 DUP4 PUSH1 0x1 PUSH2 0x19DA JUMP JUMPDEST PUSH2 0x18A4 JUMPI PUSH1 0x40 MLOAD PUSH4 0x5274AFE7 PUSH1 0xE0 SHL DUP2 MSTORE PUSH1 0x1 PUSH1 0x1 PUSH1 0xA0 SHL SUB DUP5 AND PUSH1 0x4 DUP3 ADD MSTORE PUSH1 0x24 ADD JUMPDEST PUSH1 0x40 MLOAD DUP1 SWAP2 SUB SWAP1 REVERT JUMPDEST POP POP POP JUMP JUMPDEST PUSH1 0x40 MLOAD PUSH4 0x6EB1769F PUSH1 0xE1 SHL DUP2 MSTORE ADDRESS PUSH1 0x4 DUP3 ADD MSTORE PUSH1 0x1 PUSH1 0x1 PUSH1 0xA0 SHL SUB DUP4 DUP2 AND PUSH1 0x24 DUP4 ADD MSTORE PUSH0 SWAP2 SWAP1 DUP6 AND SWAP1 PUSH4 0xDD62ED3E SWAP1 PUSH1 0x44 ADD PUSH1 0x20 PUSH1 0x40 MLOAD DUP1 DUP4 SUB DUP2 DUP7 GAS STATICCALL ISZERO DUP1 ISZERO PUSH2 0x18F6 JUMPI RETURNDATASIZE PUSH0 PUSH0 RETURNDATACOPY RETURNDATASIZE PUSH0 REVERT JUMPDEST POP POP POP POP PUSH1 0x40 MLOAD RETURNDATASIZE PUSH1 0x1F NOT PUSH1 0x1F DUP3 ADD AND DUP3 ADD DUP1 PUSH1 0x40 MSTORE POP DUP2 ADD SWAP1 PUSH2 0x191A SWAP2 SWAP1 PUSH2 0x1CA2 JUMP JUMPDEST SWAP1 POP PUSH2 0x1930 DUP5 DUP5 PUSH2 0x192B DUP6 DUP6 PUSH2 0x1CE0 JUMP JUMPDEST PUSH2 0x1A3C JUMP JUMPDEST POP POP POP POP JUMP JUMPDEST PUSH0 DUP1 PUSH32 0xF0C57E16840DF040F15088DC2F81FE391C3923BEC73E23A9662EFC9C229C6A00 JUMPDEST SWAP3 SWAP2 POP POP JUMP JUMPDEST PUSH2 0x196E DUP5 DUP5 DUP5 DUP5 PUSH1 0x1 PUSH2 0x1A8E JUMP JUMPDEST PUSH2 0x1930 JUMPI PUSH1 0x40 MLOAD PUSH4 0x5274AFE7 PUSH1 0xE0 SHL DUP2 MSTORE PUSH1 0x1 PUSH1 0x1 PUSH1 0xA0 SHL SUB DUP6 AND PUSH1 0x4 DUP3 ADD MSTORE PUSH1 0x24 ADD PUSH2 0x189B JUMP JUMPDEST PUSH32 0x9B779B17422D0DF92223018B32B4D1FA46E071723D6817E2486D003BECC55F00 SLOAD PUSH1 0x2 SUB PUSH2 0x19D8 JUMPI PUSH1 0x40 MLOAD PUSH4 0x3EE5AEB5 PUSH1 0xE0 SHL DUP2 MSTORE PUSH1 0x4 ADD PUSH1 0x40 MLOAD DUP1 SWAP2 SUB SWAP1 REVERT JUMPDEST JUMP JUMPDEST PUSH1 0x40 MLOAD PUSH4 0xA9059CBB PUSH1 0xE0 SHL PUSH0 DUP2 DUP2 MSTORE PUSH1 0x1 PUSH1 0x1 PUSH1 0xA0 SHL SUB DUP7 AND PUSH1 0x4 MSTORE PUSH1 0x24 DUP6 SWAP1 MSTORE SWAP2 PUSH1 0x20 DUP4 PUSH1 0x44 DUP2 DUP1 DUP12 GAS CALL SWAP3 POP PUSH1 0x1 PUSH0 MLOAD EQ DUP4 AND PUSH2 0x1A30 JUMPI DUP4 DUP4 ISZERO AND ISZERO PUSH2 0x1A24 JUMPI RETURNDATASIZE PUSH0 DUP3 RETURNDATACOPY RETURNDATASIZE DUP2 REVERT JUMPDEST PUSH0 DUP8 EXTCODESIZE GT RETURNDATASIZE ISZERO AND DUP4 AND SWAP3 POP JUMPDEST PUSH1 0x40 MSTORE POP SWAP5 SWAP4 POP POP POP POP JUMP JUMPDEST PUSH2 0x1A48 DUP4 DUP4 DUP4 PUSH0 PUSH2 0x1AFB JUMP JUMPDEST PUSH2 0x18A4 JUMPI PUSH2 0x1A59 DUP4 DUP4 PUSH0 PUSH1 0x1 PUSH2 0x1AFB JUMP JUMPDEST PUSH2 0x1A81 JUMPI PUSH1 0x40 MLOAD PUSH4 0x5274AFE7 PUSH1 0xE0 SHL DUP2 MSTORE PUSH1 0x1 PUSH1 0x1 PUSH1 0xA0 SHL SUB DUP5 AND PUSH1 0x4 DUP3 ADD MSTORE PUSH1 0x24 ADD PUSH2 0x189B JUMP JUMPDEST PUSH2 0x1877 DUP4 DUP4 DUP4 PUSH1 0x1 PUSH2 0x1AFB JUMP JUMPDEST PUSH1 0x40 MLOAD PUSH4 0x23B872DD PUSH1 0xE0 SHL PUSH0 DUP2 DUP2 MSTORE PUSH1 0x1 PUSH1 0x1 PUSH1 0xA0 SHL SUB DUP8 DUP2 AND PUSH1 0x4 MSTORE DUP7 AND PUSH1 0x24 MSTORE PUSH1 0x44 DUP6 SWAP1 MSTORE SWAP2 PUSH1 0x20 DUP4 PUSH1 0x64 DUP2 DUP1 DUP13 GAS CALL SWAP3 POP PUSH1 0x1 PUSH0 MLOAD EQ DUP4 AND PUSH2 0x1AEA JUMPI DUP4 DUP4 ISZERO AND ISZERO PUSH2 0x1ADE JUMPI RETURNDATASIZE PUSH0 DUP3 RETURNDATACOPY RETURNDATASIZE DUP2 REVERT JUMPDEST PUSH0 DUP9 EXTCODESIZE GT RETURNDATASIZE ISZERO AND DUP4 AND SWAP3 POP JUMPDEST PUSH1 0x40 MSTORE POP PUSH0 PUSH1 0x60 MSTORE SWAP6 SWAP5 POP POP POP POP POP JUMP JUMPDEST PUSH1 0x40 MLOAD PUSH4 0x95EA7B3 PUSH1 0xE0 SHL PUSH0 DUP2 DUP2 MSTORE PUSH1 0x1 PUSH1 0x1 PUSH1 0xA0 SHL SUB DUP7 AND PUSH1 0x4 MSTORE PUSH1 0x24 DUP6 SWAP1 MSTORE SWAP2 PUSH1 0x20 DUP4 PUSH1 0x44 DUP2 DUP1 DUP12 GAS CALL SWAP3 POP PUSH1 0x1 PUSH0 MLOAD EQ DUP4 AND PUSH2 0x1A30 JUMPI DUP4 DUP4 ISZERO AND ISZERO PUSH2 0x1A24 JUMPI RETURNDATASIZE PUSH0 DUP3 RETURNDATACOPY RETURNDATASIZE DUP2 REVERT JUMPDEST PUSH1 0x1 PUSH1 0x1 PUSH1 0xA0 SHL SUB DUP2 AND DUP2 EQ PUSH2 0xBC3 JUMPI PUSH0 PUSH0 REVERT JUMPDEST PUSH0 PUSH1 0x20 DUP3 DUP5 SUB SLT ISZERO PUSH2 0x1B69 JUMPI PUSH0 PUSH0 REVERT JUMPDEST DUP2 CALLDATALOAD PUSH2 0x4A2 DUP2 PUSH2 0x1B45 JUMP JUMPDEST PUSH0 PUSH0 PUSH1 0x40 DUP4 DUP6 SUB SLT ISZERO PUSH2 0x1B85 JUMPI PUSH0 PUSH0 REVERT JUMPDEST DUP3 CALLDATALOAD PUSH2 0x1B90 DUP2 PUSH2 0x1B45 JUMP JUMPDEST SWAP5 PUSH1 0x20 SWAP4 SWAP1 SWAP4 ADD CALLDATALOAD SWAP4 POP POP POP JUMP JUMPDEST PUSH0 PUSH0 PUSH0 PUSH0 PUSH0 PUSH1 0xA0 DUP7 DUP9 SUB SLT ISZERO PUSH2 0x1BB2 JUMPI PUSH0 PUSH0 REVERT JUMPDEST POP POP DUP4 CALLDATALOAD SWAP6 PUSH1 0x20 DUP6 ADD CALLDATALOAD SWAP6 POP PUSH1 0x40 DUP6 ADD CALLDATALOAD SWAP5 PUSH1 0x60 DUP2 ADD CALLDATALOAD SWAP5 POP PUSH1 0x80 ADD CALLDATALOAD SWAP3 POP SWAP1 POP JUMP JUMPDEST PUSH0 PUSH1 0x20 DUP3 DUP5 SUB SLT ISZERO PUSH2 0x1BE5 JUMPI PUSH0 PUSH0 REVERT JUMPDEST POP CALLDATALOAD SWAP2 SWAP1 POP JUMP JUMPDEST PUSH0 PUSH0 PUSH0 PUSH0 PUSH0 PUSH0 PUSH0 PUSH1 0xE0 DUP9 DUP11 SUB SLT ISZERO PUSH2 0x1C02 JUMPI PUSH0 PUSH0 REVERT JUMPDEST DUP8 CALLDATALOAD PUSH2 0x1C0D DUP2 PUSH2 0x1B45 JUMP JUMPDEST SWAP7 POP PUSH1 0x20 DUP9 ADD CALLDATALOAD PUSH2 0x1C1D DUP2 PUSH2 0x1B45 JUMP JUMPDEST SWAP7 SWAP10 SWAP7 SWAP9 POP POP POP POP PUSH1 0x40 DUP6 ADD CALLDATALOAD SWAP5 PUSH1 0x60 DUP2 ADD CALLDATALOAD SWAP5 PUSH1 0x80 DUP3 ADD CALLDATALOAD SWAP5 POP PUSH1 0xA0 DUP3 ADD CALLDATALOAD SWAP4 POP PUSH1 0xC0 SWAP1 SWAP2 ADD CALLDATALOAD SWAP2 POP JUMP JUMPDEST PUSH0 PUSH0 PUSH0 PUSH1 0x60 DUP5 DUP7 SUB SLT ISZERO PUSH2 0x1C5B JUMPI PUSH0 PUSH0 REVERT JUMPDEST DUP4 CALLDATALOAD PUSH2 0x1C66 DUP2 PUSH2 0x1B45 JUMP JUMPDEST SWAP3 POP PUSH1 0x20 DUP5 ADD CALLDATALOAD PUSH2 0x1C76 DUP2 PUSH2 0x1B45 JUMP JUMPDEST SWAP3 SWAP6 SWAP3 SWAP5 POP POP POP PUSH1 0x40 SWAP2 SWAP1 SWAP2 ADD CALLDATALOAD SWAP1 JUMP JUMPDEST PUSH0 PUSH1 0x20 DUP3 DUP5 SUB SLT ISZERO PUSH2 0x1C97 JUMPI PUSH0 PUSH0 REVERT JUMPDEST DUP2 MLOAD PUSH2 0x4A2 DUP2 PUSH2 0x1B45 JUMP JUMPDEST PUSH0 PUSH1 0x20 DUP3 DUP5 SUB SLT ISZERO PUSH2 0x1CB2 JUMPI PUSH0 PUSH0 REVERT JUMPDEST POP MLOAD SWAP2 SWAP1 POP JUMP JUMPDEST PUSH4 0x4E487B71 PUSH1 0xE0 SHL PUSH0 MSTORE PUSH1 0x11 PUSH1 0x4 MSTORE PUSH1 0x24 PUSH0 REVERT JUMPDEST DUP2 DUP2 SUB DUP2 DUP2 GT ISZERO PUSH2 0x195A JUMPI PUSH2 0x195A PUSH2 0x1CB9 JUMP JUMPDEST DUP1 DUP3 ADD DUP1 DUP3 GT ISZERO PUSH2 0x195A JUMPI PUSH2 0x195A PUSH2 0x1CB9 JUMP JUMPDEST DUP1 DUP3 MUL DUP2 ISZERO DUP3 DUP3 DIV DUP5 EQ OR PUSH2 0x195A JUMPI PUSH2 0x195A PUSH2 0x1CB9 JUMP JUMPDEST PUSH0 DUP3 PUSH2 0x1D24 JUMPI PUSH4 0x4E487B71 PUSH1 0xE0 SHL PUSH0 MSTORE PUSH1 0x12 PUSH1 0x4 MSTORE PUSH1 0x24 PUSH0 REVERT JUMPDEST POP DIV SWAP1 JUMP INVALID LOG2 PUSH5 0x6970667358 0x22 SLT KECCAK256 0xEB BALANCE MLOAD 0xCF 0xD9 0xA5 DUP11 INVALID COINBASE DUP4 PUSH21 0x5982DADAE531841F26683BC4441D1CFB514C330422 PUSH5 0x736F6C6343 STOP ADDMOD SHR STOP CALLER "},"methodIdentifiers":{"acceptOwnership()":"79ba5097","allowanceAmount()":"375d69df","allowancePeriod()":"aab3ab95","claimAllowance(address)":"56137a5e","emergencyWithdraw(address)":"6ff1c9bc","factory()":"c45a0155","getLockedValue(address)":"067a1e16","getSavingsValue(address)":"a4949af6","getTreasuryValue(address)":"c898a112","initialize(address,address,uint256,uint256,uint256,uint256,uint256)":"edbf4ac2","lastAllowanceRelease()":"943f213f","lockedPct()":"39382ab9","lockedShares()":"e95502fb","operatingPct()":"acd78de4","owner()":"8da5cb5b","payAndSave(address,address,uint256)":"f6d0bfa3","pendingOwner()":"e30c3978","processPayment(address)":"8fe123d7","savePct()":"aee7f096","savedPrincipal()":"3e4199cd","savedShares()":"72d7c5ce","transferOwnership(address)":"f2fde38b","treasuryPct()":"9981f5f3","treasuryShares()":"baec8b0f","updateSavePct(uint256)":"661d0d66","updateSettings(uint256,uint256,uint256,uint256,uint256)":"30c2c3b9","withdrawSavings(address,uint256)":"c9671c33","withdrawTreasury(address,uint256)":"0d86419a"}}}}}