{"project/contracts/SocialJackpot.sol":{"SocialJackpot":{"abi":[{"inputs":[],"name":"AlreadyEntered","type":"error"},{"inputs":[],"name":"AlreadyVoted","type":"error"},{"inputs":[],"name":"CannotVoteForSelf","type":"error"},{"inputs":[],"name":"InvalidCandidate","type":"error"},{"inputs":[],"name":"InvalidRoomParams","type":"error"},{"inputs":[],"name":"InvalidState","type":"error"},{"inputs":[],"name":"NotAParticipant","type":"error"},{"inputs":[],"name":"RoomFull","type":"error"},{"inputs":[{"internalType":"address","name":"token","type":"address"}],"name":"SafeERC20FailedOperation","type":"error"},{"inputs":[],"name":"TransferFailed","type":"error"},{"anonymous":false,"inputs":[{"indexed":true,"internalType":"uint256","name":"roomId","type":"uint256"},{"indexed":true,"internalType":"address","name":"creator","type":"address"},{"indexed":false,"internalType":"address","name":"token","type":"address"},{"indexed":false,"internalType":"uint256","name":"entryFee","type":"uint256"},{"indexed":false,"internalType":"uint256","name":"maxParticipants","type":"uint256"},{"indexed":false,"internalType":"uint256","name":"numWinners","type":"uint256"}],"name":"RoomCreated","type":"event"},{"anonymous":false,"inputs":[{"indexed":true,"internalType":"uint256","name":"roomId","type":"uint256"},{"indexed":false,"internalType":"address[]","name":"winners","type":"address[]"},{"indexed":false,"internalType":"uint256","name":"payoutPerWinner","type":"uint256"}],"name":"RoomResolved","type":"event"},{"anonymous":false,"inputs":[{"indexed":true,"internalType":"uint256","name":"roomId","type":"uint256"},{"indexed":true,"internalType":"address","name":"user","type":"address"},{"indexed":false,"internalType":"string","name":"pitch","type":"string"}],"name":"UserEntered","type":"event"},{"anonymous":false,"inputs":[{"indexed":true,"internalType":"uint256","name":"roomId","type":"uint256"},{"indexed":true,"internalType":"address","name":"voter","type":"address"},{"indexed":true,"internalType":"address","name":"candidate","type":"address"}],"name":"Voted","type":"event"},{"anonymous":false,"inputs":[{"indexed":true,"internalType":"uint256","name":"roomId","type":"uint256"}],"name":"VotingStarted","type":"event"},{"inputs":[{"internalType":"address","name":"_token","type":"address"},{"internalType":"uint256","name":"_entryFee","type":"uint256"},{"internalType":"uint256","name":"_maxParticipants","type":"uint256"},{"internalType":"uint256","name":"_numWinners","type":"uint256"}],"name":"createRoom","outputs":[{"internalType":"uint256","name":"","type":"uint256"}],"stateMutability":"nonpayable","type":"function"},{"inputs":[{"internalType":"uint256","name":"roomId","type":"uint256"},{"internalType":"string","name":"pitch","type":"string"}],"name":"enterRoom","outputs":[],"stateMutability":"nonpayable","type":"function"},{"inputs":[{"internalType":"uint256","name":"roomId","type":"uint256"},{"internalType":"address","name":"user","type":"address"}],"name":"getParticipantInfo","outputs":[{"internalType":"string","name":"pitch","type":"string"},{"internalType":"uint256","name":"votesReceived","type":"uint256"},{"internalType":"bool","name":"hasVoted","type":"bool"}],"stateMutability":"view","type":"function"},{"inputs":[],"name":"nextRoomId","outputs":[{"internalType":"uint256","name":"","type":"uint256"}],"stateMutability":"view","type":"function"},{"inputs":[{"internalType":"uint256","name":"","type":"uint256"},{"internalType":"address","name":"","type":"address"}],"name":"participants","outputs":[{"internalType":"address","name":"addr","type":"address"},{"internalType":"string","name":"pitch","type":"string"},{"internalType":"uint256","name":"votesReceived","type":"uint256"},{"internalType":"bool","name":"hasVoted","type":"bool"},{"internalType":"bool","name":"exists","type":"bool"}],"stateMutability":"view","type":"function"},{"inputs":[{"internalType":"uint256","name":"","type":"uint256"},{"internalType":"uint256","name":"","type":"uint256"}],"name":"roomParticipants","outputs":[{"internalType":"address","name":"","type":"address"}],"stateMutability":"view","type":"function"},{"inputs":[{"internalType":"uint256","name":"","type":"uint256"}],"name":"rooms","outputs":[{"internalType":"uint256","name":"id","type":"uint256"},{"internalType":"address","name":"creator","type":"address"},{"internalType":"contract IERC20","name":"token","type":"address"},{"internalType":"uint256","name":"entryFee","type":"uint256"},{"internalType":"uint256","name":"maxParticipants","type":"uint256"},{"internalType":"uint256","name":"numWinners","type":"uint256"},{"internalType":"enum SocialJackpot.RoomState","name":"state","type":"uint8"},{"internalType":"uint256","name":"totalVotesCast","type":"uint256"}],"stateMutability":"view","type":"function"},{"inputs":[{"internalType":"uint256","name":"roomId","type":"uint256"},{"internalType":"address","name":"candidate","type":"address"}],"name":"vote","outputs":[],"stateMutability":"nonpayable","type":"function"}],"evm":{"bytecode":{"linkReferences":{},"object":"6080604052348015600e575f5ffd5b5061154e8061001c5f395ff3fe608060405234801561000f575f5ffd5b5060043610610085575f3560e01c8063679a855711610058578063679a85571461015657806399abff4b14610169578063b882f5a81461018b578063ed3d02be146101b6575f5ffd5b806302d947ef1461008957806302e060c61461009e57806307a52cab146100cb5780631bae0ac8146100e1575b5f5ffd5b61009c610097366004611087565b6101c9565b005b6100b16100ac366004611087565b610388565b6040516100c29594939291906110df565b60405180910390f35b6100d35f5481565b6040519081526020016100c2565b6101426100ef366004611121565b600160208190525f9182526040909120805491810154600282015460038301546004840154600585015460068601546007909601546001600160a01b0395861696949095169492939192909160ff169088565b6040516100c298979695949392919061114c565b61009c6101643660046111b2565b610458565b61017c610177366004611087565b6106b3565b6040516100c293929190611229565b61019e610199366004611252565b6107d0565b6040516001600160a01b0390911681526020016100c2565b6100d36101c4366004611272565b610804565b5f82815260016020819052604090912090600682015460ff1660028111156101f3576101f3611138565b146102115760405163baf3f0f760e01b815260040160405180910390fd5b5f83815260036020818152604080842033855290915290912090810154610100900460ff166102535760405163179e806d60e01b815260040160405180910390fd5b600381015460ff161561027957604051637c9a1cf960e01b815260040160405180910390fd5b336001600160a01b038416036102a257604051631412222d60e31b815260040160405180910390fd5b5f8481526003602081815260408084206001600160a01b038816855290915290912090810154610100900460ff166102ed5760405163e66ea08f60e01b815260040160405180910390fd5b60038201805460ff191660019081179091556002820180545f906103129084906112bc565b925050819055506001836007015f82825461032d91906112bc565b90915550506040516001600160a01b03851690339087907ff6c8f1f54b2f54fb963820203fdef5b9aefb56ae2c4dd8b6133e151791a07f36905f90a4826004015483600701540361038157610381856109f7565b5050505050565b600360209081525f9283526040808420909152908252902080546001820180546001600160a01b0390921692916103be906112d5565b80601f01602080910402602001604051908101604052809291908181526020018280546103ea906112d5565b80156104355780601f1061040c57610100808354040283529160200191610435565b820191905f5260205f20905b81548152906001019060200180831161041857829003601f168201915b50505050600283015460039093015491929160ff80821692506101009091041685565b5f83815260016020526040812090600682015460ff16600281111561047f5761047f611138565b1461049d5760405163baf3f0f760e01b815260040160405180910390fd5b5f8481526003602081815260408084203385529091529091200154610100900460ff16156104de57604051637863668360e01b815260040160405180910390fd5b60038101546002820154610501916001600160a01b039091169033903090610f28565b6040518060a00160405280336001600160a01b0316815260200184848080601f0160208091040260200160405190810160405280939291908181526020018383808284375f9201829052509385525050506020808301829052604080840183905260016060909401849052888352600382528083203384528252909120835181546001600160a01b0319166001600160a01b039091161781559083015190918201906105ad9082611365565b5060408281015160028084019190915560608401516003909301805460809095015115156101000261ff00199415159490941661ffff1990951694909417929092179092555f868152602091825282812080546001810182559082529190200180546001600160a01b03191633908117909155905185907f8972f62d527ec7e92ea008da9017ec975257f1e6fce2b70ca3de2367c3ccdf2f906106539087908790611420565b60405180910390a360048101545f85815260026020526040902054036106ad5760068101805460ff1916600117905560405184907fcf33babc496bb6dc2942b39cb7b75766bbbadf7da50d176ff8c513e991140239905f90a25b50505050565b5f8281526003602090815260408083206001600160a01b038086168552908352818420825160a081019093528054909116825260018101805460609594859485949093909291840191610705906112d5565b80601f0160208091040260200160405190810160405280929190818152602001828054610731906112d5565b801561077c5780601f106107535761010080835404028352916020019161077c565b820191905f5260205f20905b81548152906001019060200180831161075f57829003601f168201915b5050509183525050600282015460208083019190915260039092015460ff80821615156040808501919091526101009092041615156060928301529183015191830151920151909891975095509350505050565b6002602052815f5260405f2081815481106107e9575f80fd5b5f918252602090912001546001600160a01b03169150829050565b5f6001600160a01b03851661082c57604051630edeb63160e41b815260040160405180910390fd5b835f0361084c57604051630edeb63160e41b815260040160405180910390fd5b6002831080610859575081155b806108645750828210155b1561088257604051630edeb63160e41b815260040160405180910390fd5b5f805481806108908361144e565b919050559050604051806101000160405280828152602001336001600160a01b03168152602001876001600160a01b031681526020018681526020018581526020018481526020015f60028111156108ea576108ea611138565b81525f60209182018190528381526001808352604091829020845181559284015183820180546001600160a01b039283166001600160a01b03199182161790915592850151600280860180549290931691909416179055606084015160038401556080840151600484015560a0840151600584015560c08401516006840180549193909260ff199092169190849081111561098757610987611138565b021790555060e09190910151600790910155604080516001600160a01b03881681526020810187905290810185905260608101849052339082907fdfcda0fe3aae7a383843075fabd6eb1701dbaa606c94f3ccf3765415a3717e5c9060800160405180910390a395945050505050565b5f81815260016020908152604080832060068101805460ff1916600290811790915583528184208054835181860281018601909452808452919493909190830182828015610a6c57602002820191905f5260205f20905b81546001600160a01b03168152600190910190602001808311610a4e575b505050505090505f815190505f8167ffffffffffffffff811115610a9257610a9261130d565b604051908082528060200260200182016040528015610abb578160200160208202803683370190505b5090505f5b82811015610b1457838181518110610ada57610ada611466565b6020026020010151828281518110610af457610af4611466565b6001600160a01b0390921660209283029190910190910152600101610ac0565b505f5b610b2260018461147a565b811015610caf575f5b6001610b37838661147a565b610b41919061147a565b811015610ca6575f8781526003602052604081209084610b628460016112bc565b81518110610b7257610b72611466565b60200260200101516001600160a01b03166001600160a01b031681526020019081526020015f206002015460035f8981526020019081526020015f205f858481518110610bc157610bc1611466565b60200260200101516001600160a01b03166001600160a01b031681526020019081526020015f20600201541015610c9e575f838281518110610c0557610c05611466565b6020026020010151905083826001610c1d91906112bc565b81518110610c2d57610c2d611466565b6020026020010151848381518110610c4757610c47611466565b6001600160a01b03909216602092830291909101909101528084610c6c8460016112bc565b81518110610c7c57610c7c611466565b60200260200101906001600160a01b031690816001600160a01b031681525050505b600101610b2b565b50600101610b17565b505f858152600360205260408120600586015482908490610cd29060019061147a565b81518110610ce257610ce2611466565b6020908102919091018101516001600160a01b031682528101919091526040015f908120600201549150805b84811015610dd9575f8881526003602052604081208551859290879085908110610d3a57610d3a611466565b60200260200101516001600160a01b03166001600160a01b031681526020019081526020015f206002015410158015610dbe57505f88815260036020526040812085518290879085908110610d9157610d91611466565b60200260200101516001600160a01b03166001600160a01b031681526020019081526020015f2060020154115b15610dd15781610dcd8161144e565b9250505b600101610d0e565b50805f03610de45750825b5f8167ffffffffffffffff811115610dfe57610dfe61130d565b604051908082528060200260200182016040528015610e27578160200160208202803683370190505b5090505f87600401548860030154610e3f919061148d565b90505f610e4c84836114a4565b90505f5b84811015610ee157868181518110610e6a57610e6a611466565b6020026020010151848281518110610e8457610e84611466565b60200260200101906001600160a01b031690816001600160a01b031681525050610ed9848281518110610eb957610eb9611466565b602090810291909101015160028c01546001600160a01b03169084610f63565b600101610e50565b50897fab154b3616d0be1145007f0441cbd91ad8cc986c92e412edafb53375058bb7848483604051610f149291906114c3565b60405180910390a250505050505050505050565b610f36848484846001610f9d565b6106ad57604051635274afe760e01b81526001600160a01b03851660048201526024015b60405180910390fd5b610f70838383600161100a565b610f9857604051635274afe760e01b81526001600160a01b0384166004820152602401610f5a565b505050565b6040516323b872dd60e01b5f8181526001600160a01b038781166004528616602452604485905291602083606481808c5af1925060015f51148316610ff9578383151615610fed573d5f823e3d81fd5b5f883b113d1516831692505b604052505f60605295945050505050565b60405163a9059cbb60e01b5f8181526001600160a01b038616600452602485905291602083604481808b5af1925060015f51148316611060578383151615611054573d5f823e3d81fd5b5f873b113d1516831692505b60405250949350505050565b80356001600160a01b0381168114611082575f5ffd5b919050565b5f5f60408385031215611098575f5ffd5b823591506110a86020840161106c565b90509250929050565b5f81518084528060208401602086015e5f602082860101526020601f19601f83011685010191505092915050565b6001600160a01b038616815260a0602082018190525f90611102908301876110b1565b6040830195909552509115156060830152151560809091015292915050565b5f60208284031215611131575f5ffd5b5035919050565b634e487b7160e01b5f52602160045260245ffd5b8881526001600160a01b03888116602083015287166040820152606081018690526080810185905260a0810184905261010081016003841061119c57634e487b7160e01b5f52602160045260245ffd5b60c082019390935260e001529695505050505050565b5f5f5f604084860312156111c4575f5ffd5b83359250602084013567ffffffffffffffff8111156111e1575f5ffd5b8401601f810186136111f1575f5ffd5b803567ffffffffffffffff811115611207575f5ffd5b866020828401011115611218575f5ffd5b939660209190910195509293505050565b606081525f61123b60608301866110b1565b602083019490945250901515604090910152919050565b5f5f60408385031215611263575f5ffd5b50508035926020909101359150565b5f5f5f5f60808587031215611285575f5ffd5b61128e8561106c565b966020860135965060408601359560600135945092505050565b634e487b7160e01b5f52601160045260245ffd5b808201808211156112cf576112cf6112a8565b92915050565b600181811c908216806112e957607f821691505b60208210810361130757634e487b7160e01b5f52602260045260245ffd5b50919050565b634e487b7160e01b5f52604160045260245ffd5b601f821115610f9857805f5260205f20601f840160051c810160208510156113465750805b601f840160051c820191505b81811015610381575f8155600101611352565b815167ffffffffffffffff81111561137f5761137f61130d565b6113938161138d84546112d5565b84611321565b6020601f8211600181146113c5575f83156113ae5750848201515b5f19600385901b1c1916600184901b178455610381565b5f84815260208120601f198516915b828110156113f457878501518255602094850194600190920191016113d4565b508482101561141157868401515f19600387901b60f8161c191681555b50505050600190811b01905550565b60208152816020820152818360408301375f818301604090810191909152601f909201601f19160101919050565b5f6001820161145f5761145f6112a8565b5060010190565b634e487b7160e01b5f52603260045260245ffd5b818103818111156112cf576112cf6112a8565b80820281158282048414176112cf576112cf6112a8565b5f826114be57634e487b7160e01b5f52601260045260245ffd5b500490565b604080825283519082018190525f9060208501906060840190835b818110156115055783516001600160a01b03168352602093840193909201916001016114de565b505060209390930193909352509291505056fea264697066735822122065a5de629ac015b55b7326c0909139d337a413d24561208f05c114208ebd8cf664736f6c634300081c0033","opcodes":"PUSH1 0x80 PUSH1 0x40 MSTORE CALLVALUE DUP1 ISZERO PUSH1 0xE JUMPI PUSH0 PUSH0 REVERT JUMPDEST POP PUSH2 0x154E DUP1 PUSH2 0x1C PUSH0 CODECOPY PUSH0 RETURN INVALID PUSH1 0x80 PUSH1 0x40 MSTORE CALLVALUE DUP1 ISZERO PUSH2 0xF JUMPI PUSH0 PUSH0 REVERT JUMPDEST POP PUSH1 0x4 CALLDATASIZE LT PUSH2 0x85 JUMPI PUSH0 CALLDATALOAD PUSH1 0xE0 SHR DUP1 PUSH4 0x679A8557 GT PUSH2 0x58 JUMPI DUP1 PUSH4 0x679A8557 EQ PUSH2 0x156 JUMPI DUP1 PUSH4 0x99ABFF4B EQ PUSH2 0x169 JUMPI DUP1 PUSH4 0xB882F5A8 EQ PUSH2 0x18B JUMPI DUP1 PUSH4 0xED3D02BE EQ PUSH2 0x1B6 JUMPI PUSH0 PUSH0 REVERT JUMPDEST DUP1 PUSH4 0x2D947EF EQ PUSH2 0x89 JUMPI DUP1 PUSH4 0x2E060C6 EQ PUSH2 0x9E JUMPI DUP1 PUSH4 0x7A52CAB EQ PUSH2 0xCB JUMPI DUP1 PUSH4 0x1BAE0AC8 EQ PUSH2 0xE1 JUMPI JUMPDEST PUSH0 PUSH0 REVERT JUMPDEST PUSH2 0x9C PUSH2 0x97 CALLDATASIZE PUSH1 0x4 PUSH2 0x1087 JUMP JUMPDEST PUSH2 0x1C9 JUMP JUMPDEST STOP JUMPDEST PUSH2 0xB1 PUSH2 0xAC CALLDATASIZE PUSH1 0x4 PUSH2 0x1087 JUMP JUMPDEST PUSH2 0x388 JUMP JUMPDEST PUSH1 0x40 MLOAD PUSH2 0xC2 SWAP6 SWAP5 SWAP4 SWAP3 SWAP2 SWAP1 PUSH2 0x10DF JUMP JUMPDEST PUSH1 0x40 MLOAD DUP1 SWAP2 SUB SWAP1 RETURN JUMPDEST PUSH2 0xD3 PUSH0 SLOAD DUP2 JUMP JUMPDEST PUSH1 0x40 MLOAD SWAP1 DUP2 MSTORE PUSH1 0x20 ADD PUSH2 0xC2 JUMP JUMPDEST PUSH2 0x142 PUSH2 0xEF CALLDATASIZE PUSH1 0x4 PUSH2 0x1121 JUMP JUMPDEST PUSH1 0x1 PUSH1 0x20 DUP2 SWAP1 MSTORE PUSH0 SWAP2 DUP3 MSTORE PUSH1 0x40 SWAP1 SWAP2 KECCAK256 DUP1 SLOAD SWAP2 DUP2 ADD SLOAD PUSH1 0x2 DUP3 ADD SLOAD PUSH1 0x3 DUP4 ADD SLOAD PUSH1 0x4 DUP5 ADD SLOAD PUSH1 0x5 DUP6 ADD SLOAD PUSH1 0x6 DUP7 ADD SLOAD PUSH1 0x7 SWAP1 SWAP7 ADD SLOAD PUSH1 0x1 PUSH1 0x1 PUSH1 0xA0 SHL SUB SWAP6 DUP7 AND SWAP7 SWAP5 SWAP1 SWAP6 AND SWAP5 SWAP3 SWAP4 SWAP2 SWAP3 SWAP1 SWAP2 PUSH1 0xFF AND SWAP1 DUP9 JUMP JUMPDEST PUSH1 0x40 MLOAD PUSH2 0xC2 SWAP9 SWAP8 SWAP7 SWAP6 SWAP5 SWAP4 SWAP3 SWAP2 SWAP1 PUSH2 0x114C JUMP JUMPDEST PUSH2 0x9C PUSH2 0x164 CALLDATASIZE PUSH1 0x4 PUSH2 0x11B2 JUMP JUMPDEST PUSH2 0x458 JUMP JUMPDEST PUSH2 0x17C PUSH2 0x177 CALLDATASIZE PUSH1 0x4 PUSH2 0x1087 JUMP JUMPDEST PUSH2 0x6B3 JUMP JUMPDEST PUSH1 0x40 MLOAD PUSH2 0xC2 SWAP4 SWAP3 SWAP2 SWAP1 PUSH2 0x1229 JUMP JUMPDEST PUSH2 0x19E PUSH2 0x199 CALLDATASIZE PUSH1 0x4 PUSH2 0x1252 JUMP JUMPDEST PUSH2 0x7D0 JUMP JUMPDEST PUSH1 0x40 MLOAD PUSH1 0x1 PUSH1 0x1 PUSH1 0xA0 SHL SUB SWAP1 SWAP2 AND DUP2 MSTORE PUSH1 0x20 ADD PUSH2 0xC2 JUMP JUMPDEST PUSH2 0xD3 PUSH2 0x1C4 CALLDATASIZE PUSH1 0x4 PUSH2 0x1272 JUMP JUMPDEST PUSH2 0x804 JUMP JUMPDEST PUSH0 DUP3 DUP2 MSTORE PUSH1 0x1 PUSH1 0x20 DUP2 SWAP1 MSTORE PUSH1 0x40 SWAP1 SWAP2 KECCAK256 SWAP1 PUSH1 0x6 DUP3 ADD SLOAD PUSH1 0xFF AND PUSH1 0x2 DUP2 GT ISZERO PUSH2 0x1F3 JUMPI PUSH2 0x1F3 PUSH2 0x1138 JUMP JUMPDEST EQ PUSH2 0x211 JUMPI PUSH1 0x40 MLOAD PUSH4 0xBAF3F0F7 PUSH1 0xE0 SHL DUP2 MSTORE PUSH1 0x4 ADD PUSH1 0x40 MLOAD DUP1 SWAP2 SUB SWAP1 REVERT JUMPDEST PUSH0 DUP4 DUP2 MSTORE PUSH1 0x3 PUSH1 0x20 DUP2 DUP2 MSTORE PUSH1 0x40 DUP1 DUP5 KECCAK256 CALLER DUP6 MSTORE SWAP1 SWAP2 MSTORE SWAP1 SWAP2 KECCAK256 SWAP1 DUP2 ADD SLOAD PUSH2 0x100 SWAP1 DIV PUSH1 0xFF AND PUSH2 0x253 JUMPI PUSH1 0x40 MLOAD PUSH4 0x179E806D PUSH1 0xE0 SHL DUP2 MSTORE PUSH1 0x4 ADD PUSH1 0x40 MLOAD DUP1 SWAP2 SUB SWAP1 REVERT JUMPDEST PUSH1 0x3 DUP2 ADD SLOAD PUSH1 0xFF AND ISZERO PUSH2 0x279 JUMPI PUSH1 0x40 MLOAD PUSH4 0x7C9A1CF9 PUSH1 0xE0 SHL DUP2 MSTORE PUSH1 0x4 ADD PUSH1 0x40 MLOAD DUP1 SWAP2 SUB SWAP1 REVERT JUMPDEST CALLER PUSH1 0x1 PUSH1 0x1 PUSH1 0xA0 SHL SUB DUP5 AND SUB PUSH2 0x2A2 JUMPI PUSH1 0x40 MLOAD PUSH4 0x1412222D PUSH1 0xE3 SHL DUP2 MSTORE PUSH1 0x4 ADD PUSH1 0x40 MLOAD DUP1 SWAP2 SUB SWAP1 REVERT JUMPDEST PUSH0 DUP5 DUP2 MSTORE PUSH1 0x3 PUSH1 0x20 DUP2 DUP2 MSTORE PUSH1 0x40 DUP1 DUP5 KECCAK256 PUSH1 0x1 PUSH1 0x1 PUSH1 0xA0 SHL SUB DUP9 AND DUP6 MSTORE SWAP1 SWAP2 MSTORE SWAP1 SWAP2 KECCAK256 SWAP1 DUP2 ADD SLOAD PUSH2 0x100 SWAP1 DIV PUSH1 0xFF AND PUSH2 0x2ED JUMPI PUSH1 0x40 MLOAD PUSH4 0xE66EA08F PUSH1 0xE0 SHL DUP2 MSTORE PUSH1 0x4 ADD PUSH1 0x40 MLOAD DUP1 SWAP2 SUB SWAP1 REVERT JUMPDEST PUSH1 0x3 DUP3 ADD DUP1 SLOAD PUSH1 0xFF NOT AND PUSH1 0x1 SWAP1 DUP2 OR SWAP1 SWAP2 SSTORE PUSH1 0x2 DUP3 ADD DUP1 SLOAD PUSH0 SWAP1 PUSH2 0x312 SWAP1 DUP5 SWAP1 PUSH2 0x12BC JUMP JUMPDEST SWAP3 POP POP DUP2 SWAP1 SSTORE POP PUSH1 0x1 DUP4 PUSH1 0x7 ADD PUSH0 DUP3 DUP3 SLOAD PUSH2 0x32D SWAP2 SWAP1 PUSH2 0x12BC JUMP JUMPDEST SWAP1 SWAP2 SSTORE POP POP PUSH1 0x40 MLOAD PUSH1 0x1 PUSH1 0x1 PUSH1 0xA0 SHL SUB DUP6 AND SWAP1 CALLER SWAP1 DUP8 SWAP1 PUSH32 0xF6C8F1F54B2F54FB963820203FDEF5B9AEFB56AE2C4DD8B6133E151791A07F36 SWAP1 PUSH0 SWAP1 LOG4 DUP3 PUSH1 0x4 ADD SLOAD DUP4 PUSH1 0x7 ADD SLOAD SUB PUSH2 0x381 JUMPI PUSH2 0x381 DUP6 PUSH2 0x9F7 JUMP JUMPDEST POP POP POP POP POP JUMP JUMPDEST PUSH1 0x3 PUSH1 0x20 SWAP1 DUP2 MSTORE PUSH0 SWAP3 DUP4 MSTORE PUSH1 0x40 DUP1 DUP5 KECCAK256 SWAP1 SWAP2 MSTORE SWAP1 DUP3 MSTORE SWAP1 KECCAK256 DUP1 SLOAD PUSH1 0x1 DUP3 ADD DUP1 SLOAD PUSH1 0x1 PUSH1 0x1 PUSH1 0xA0 SHL SUB SWAP1 SWAP3 AND SWAP3 SWAP2 PUSH2 0x3BE SWAP1 PUSH2 0x12D5 JUMP JUMPDEST DUP1 PUSH1 0x1F ADD PUSH1 0x20 DUP1 SWAP2 DIV MUL PUSH1 0x20 ADD PUSH1 0x40 MLOAD SWAP1 DUP2 ADD PUSH1 0x40 MSTORE DUP1 SWAP3 SWAP2 SWAP1 DUP2 DUP2 MSTORE PUSH1 0x20 ADD DUP3 DUP1 SLOAD PUSH2 0x3EA SWAP1 PUSH2 0x12D5 JUMP JUMPDEST DUP1 ISZERO PUSH2 0x435 JUMPI DUP1 PUSH1 0x1F LT PUSH2 0x40C JUMPI PUSH2 0x100 DUP1 DUP4 SLOAD DIV MUL DUP4 MSTORE SWAP2 PUSH1 0x20 ADD SWAP2 PUSH2 0x435 JUMP JUMPDEST DUP3 ADD SWAP2 SWAP1 PUSH0 MSTORE PUSH1 0x20 PUSH0 KECCAK256 SWAP1 JUMPDEST DUP2 SLOAD DUP2 MSTORE SWAP1 PUSH1 0x1 ADD SWAP1 PUSH1 0x20 ADD DUP1 DUP4 GT PUSH2 0x418 JUMPI DUP3 SWAP1 SUB PUSH1 0x1F AND DUP3 ADD SWAP2 JUMPDEST POP POP POP POP PUSH1 0x2 DUP4 ADD SLOAD PUSH1 0x3 SWAP1 SWAP4 ADD SLOAD SWAP2 SWAP3 SWAP2 PUSH1 0xFF DUP1 DUP3 AND SWAP3 POP PUSH2 0x100 SWAP1 SWAP2 DIV AND DUP6 JUMP JUMPDEST PUSH0 DUP4 DUP2 MSTORE PUSH1 0x1 PUSH1 0x20 MSTORE PUSH1 0x40 DUP2 KECCAK256 SWAP1 PUSH1 0x6 DUP3 ADD SLOAD PUSH1 0xFF AND PUSH1 0x2 DUP2 GT ISZERO PUSH2 0x47F JUMPI PUSH2 0x47F PUSH2 0x1138 JUMP JUMPDEST EQ PUSH2 0x49D JUMPI PUSH1 0x40 MLOAD PUSH4 0xBAF3F0F7 PUSH1 0xE0 SHL DUP2 MSTORE PUSH1 0x4 ADD PUSH1 0x40 MLOAD DUP1 SWAP2 SUB SWAP1 REVERT JUMPDEST PUSH0 DUP5 DUP2 MSTORE PUSH1 0x3 PUSH1 0x20 DUP2 DUP2 MSTORE PUSH1 0x40 DUP1 DUP5 KECCAK256 CALLER DUP6 MSTORE SWAP1 SWAP2 MSTORE SWAP1 SWAP2 KECCAK256 ADD SLOAD PUSH2 0x100 SWAP1 DIV PUSH1 0xFF AND ISZERO PUSH2 0x4DE JUMPI PUSH1 0x40 MLOAD PUSH4 0x78636683 PUSH1 0xE0 SHL DUP2 MSTORE PUSH1 0x4 ADD PUSH1 0x40 MLOAD DUP1 SWAP2 SUB SWAP1 REVERT JUMPDEST PUSH1 0x3 DUP2 ADD SLOAD PUSH1 0x2 DUP3 ADD SLOAD PUSH2 0x501 SWAP2 PUSH1 0x1 PUSH1 0x1 PUSH1 0xA0 SHL SUB SWAP1 SWAP2 AND SWAP1 CALLER SWAP1 ADDRESS SWAP1 PUSH2 0xF28 JUMP JUMPDEST PUSH1 0x40 MLOAD DUP1 PUSH1 0xA0 ADD PUSH1 0x40 MSTORE DUP1 CALLER PUSH1 0x1 PUSH1 0x1 PUSH1 0xA0 SHL SUB AND DUP2 MSTORE PUSH1 0x20 ADD DUP5 DUP5 DUP1 DUP1 PUSH1 0x1F ADD PUSH1 0x20 DUP1 SWAP2 DIV MUL PUSH1 0x20 ADD PUSH1 0x40 MLOAD SWAP1 DUP2 ADD PUSH1 0x40 MSTORE DUP1 SWAP4 SWAP3 SWAP2 SWAP1 DUP2 DUP2 MSTORE PUSH1 0x20 ADD DUP4 DUP4 DUP1 DUP3 DUP5 CALLDATACOPY PUSH0 SWAP3 ADD DUP3 SWAP1 MSTORE POP SWAP4 DUP6 MSTORE POP POP POP PUSH1 0x20 DUP1 DUP4 ADD DUP3 SWAP1 MSTORE PUSH1 0x40 DUP1 DUP5 ADD DUP4 SWAP1 MSTORE PUSH1 0x1 PUSH1 0x60 SWAP1 SWAP5 ADD DUP5 SWAP1 MSTORE DUP9 DUP4 MSTORE PUSH1 0x3 DUP3 MSTORE DUP1 DUP4 KECCAK256 CALLER DUP5 MSTORE DUP3 MSTORE SWAP1 SWAP2 KECCAK256 DUP4 MLOAD DUP2 SLOAD PUSH1 0x1 PUSH1 0x1 PUSH1 0xA0 SHL SUB NOT AND PUSH1 0x1 PUSH1 0x1 PUSH1 0xA0 SHL SUB SWAP1 SWAP2 AND OR DUP2 SSTORE SWAP1 DUP4 ADD MLOAD SWAP1 SWAP2 DUP3 ADD SWAP1 PUSH2 0x5AD SWAP1 DUP3 PUSH2 0x1365 JUMP JUMPDEST POP PUSH1 0x40 DUP3 DUP2 ADD MLOAD PUSH1 0x2 DUP1 DUP5 ADD SWAP2 SWAP1 SWAP2 SSTORE PUSH1 0x60 DUP5 ADD MLOAD PUSH1 0x3 SWAP1 SWAP4 ADD DUP1 SLOAD PUSH1 0x80 SWAP1 SWAP6 ADD MLOAD ISZERO ISZERO PUSH2 0x100 MUL PUSH2 0xFF00 NOT SWAP5 ISZERO ISZERO SWAP5 SWAP1 SWAP5 AND PUSH2 0xFFFF NOT SWAP1 SWAP6 AND SWAP5 SWAP1 SWAP5 OR SWAP3 SWAP1 SWAP3 OR SWAP1 SWAP3 SSTORE PUSH0 DUP7 DUP2 MSTORE PUSH1 0x20 SWAP2 DUP3 MSTORE DUP3 DUP2 KECCAK256 DUP1 SLOAD PUSH1 0x1 DUP2 ADD DUP3 SSTORE SWAP1 DUP3 MSTORE SWAP2 SWAP1 KECCAK256 ADD DUP1 SLOAD PUSH1 0x1 PUSH1 0x1 PUSH1 0xA0 SHL SUB NOT AND CALLER SWAP1 DUP2 OR SWAP1 SWAP2 SSTORE SWAP1 MLOAD DUP6 SWAP1 PUSH32 0x8972F62D527EC7E92EA008DA9017EC975257F1E6FCE2B70CA3DE2367C3CCDF2F SWAP1 PUSH2 0x653 SWAP1 DUP8 SWAP1 DUP8 SWAP1 PUSH2 0x1420 JUMP JUMPDEST PUSH1 0x40 MLOAD DUP1 SWAP2 SUB SWAP1 LOG3 PUSH1 0x4 DUP2 ADD SLOAD PUSH0 DUP6 DUP2 MSTORE PUSH1 0x2 PUSH1 0x20 MSTORE PUSH1 0x40 SWAP1 KECCAK256 SLOAD SUB PUSH2 0x6AD JUMPI PUSH1 0x6 DUP2 ADD DUP1 SLOAD PUSH1 0xFF NOT AND PUSH1 0x1 OR SWAP1 SSTORE PUSH1 0x40 MLOAD DUP5 SWAP1 PUSH32 0xCF33BABC496BB6DC2942B39CB7B75766BBBADF7DA50D176FF8C513E991140239 SWAP1 PUSH0 SWAP1 LOG2 JUMPDEST POP POP POP POP JUMP JUMPDEST PUSH0 DUP3 DUP2 MSTORE PUSH1 0x3 PUSH1 0x20 SWAP1 DUP2 MSTORE PUSH1 0x40 DUP1 DUP4 KECCAK256 PUSH1 0x1 PUSH1 0x1 PUSH1 0xA0 SHL SUB DUP1 DUP7 AND DUP6 MSTORE SWAP1 DUP4 MSTORE DUP2 DUP5 KECCAK256 DUP3 MLOAD PUSH1 0xA0 DUP2 ADD SWAP1 SWAP4 MSTORE DUP1 SLOAD SWAP1 SWAP2 AND DUP3 MSTORE PUSH1 0x1 DUP2 ADD DUP1 SLOAD PUSH1 0x60 SWAP6 SWAP5 DUP6 SWAP5 DUP6 SWAP5 SWAP1 SWAP4 SWAP1 SWAP3 SWAP2 DUP5 ADD SWAP2 PUSH2 0x705 SWAP1 PUSH2 0x12D5 JUMP JUMPDEST DUP1 PUSH1 0x1F ADD PUSH1 0x20 DUP1 SWAP2 DIV MUL PUSH1 0x20 ADD PUSH1 0x40 MLOAD SWAP1 DUP2 ADD PUSH1 0x40 MSTORE DUP1 SWAP3 SWAP2 SWAP1 DUP2 DUP2 MSTORE PUSH1 0x20 ADD DUP3 DUP1 SLOAD PUSH2 0x731 SWAP1 PUSH2 0x12D5 JUMP JUMPDEST DUP1 ISZERO PUSH2 0x77C JUMPI DUP1 PUSH1 0x1F LT PUSH2 0x753 JUMPI PUSH2 0x100 DUP1 DUP4 SLOAD DIV MUL DUP4 MSTORE SWAP2 PUSH1 0x20 ADD SWAP2 PUSH2 0x77C JUMP JUMPDEST DUP3 ADD SWAP2 SWAP1 PUSH0 MSTORE PUSH1 0x20 PUSH0 KECCAK256 SWAP1 JUMPDEST DUP2 SLOAD DUP2 MSTORE SWAP1 PUSH1 0x1 ADD SWAP1 PUSH1 0x20 ADD DUP1 DUP4 GT PUSH2 0x75F JUMPI DUP3 SWAP1 SUB PUSH1 0x1F AND DUP3 ADD SWAP2 JUMPDEST POP POP POP SWAP2 DUP4 MSTORE POP POP PUSH1 0x2 DUP3 ADD SLOAD PUSH1 0x20 DUP1 DUP4 ADD SWAP2 SWAP1 SWAP2 MSTORE PUSH1 0x3 SWAP1 SWAP3 ADD SLOAD PUSH1 0xFF DUP1 DUP3 AND ISZERO ISZERO PUSH1 0x40 DUP1 DUP6 ADD SWAP2 SWAP1 SWAP2 MSTORE PUSH2 0x100 SWAP1 SWAP3 DIV AND ISZERO ISZERO PUSH1 0x60 SWAP3 DUP4 ADD MSTORE SWAP2 DUP4 ADD MLOAD SWAP2 DUP4 ADD MLOAD SWAP3 ADD MLOAD SWAP1 SWAP9 SWAP2 SWAP8 POP SWAP6 POP SWAP4 POP POP POP POP JUMP JUMPDEST PUSH1 0x2 PUSH1 0x20 MSTORE DUP2 PUSH0 MSTORE PUSH1 0x40 PUSH0 KECCAK256 DUP2 DUP2 SLOAD DUP2 LT PUSH2 0x7E9 JUMPI PUSH0 DUP1 REVERT JUMPDEST PUSH0 SWAP2 DUP3 MSTORE PUSH1 0x20 SWAP1 SWAP2 KECCAK256 ADD SLOAD PUSH1 0x1 PUSH1 0x1 PUSH1 0xA0 SHL SUB AND SWAP2 POP DUP3 SWAP1 POP JUMP JUMPDEST PUSH0 PUSH1 0x1 PUSH1 0x1 PUSH1 0xA0 SHL SUB DUP6 AND PUSH2 0x82C JUMPI PUSH1 0x40 MLOAD PUSH4 0xEDEB631 PUSH1 0xE4 SHL DUP2 MSTORE PUSH1 0x4 ADD PUSH1 0x40 MLOAD DUP1 SWAP2 SUB SWAP1 REVERT JUMPDEST DUP4 PUSH0 SUB PUSH2 0x84C JUMPI PUSH1 0x40 MLOAD PUSH4 0xEDEB631 PUSH1 0xE4 SHL DUP2 MSTORE PUSH1 0x4 ADD PUSH1 0x40 MLOAD DUP1 SWAP2 SUB SWAP1 REVERT JUMPDEST PUSH1 0x2 DUP4 LT DUP1 PUSH2 0x859 JUMPI POP DUP2 ISZERO JUMPDEST DUP1 PUSH2 0x864 JUMPI POP DUP3 DUP3 LT ISZERO JUMPDEST ISZERO PUSH2 0x882 JUMPI PUSH1 0x40 MLOAD PUSH4 0xEDEB631 PUSH1 0xE4 SHL DUP2 MSTORE PUSH1 0x4 ADD PUSH1 0x40 MLOAD DUP1 SWAP2 SUB SWAP1 REVERT JUMPDEST PUSH0 DUP1 SLOAD DUP2 DUP1 PUSH2 0x890 DUP4 PUSH2 0x144E JUMP JUMPDEST SWAP2 SWAP1 POP SSTORE SWAP1 POP PUSH1 0x40 MLOAD DUP1 PUSH2 0x100 ADD PUSH1 0x40 MSTORE DUP1 DUP3 DUP2 MSTORE PUSH1 0x20 ADD CALLER PUSH1 0x1 PUSH1 0x1 PUSH1 0xA0 SHL SUB AND DUP2 MSTORE PUSH1 0x20 ADD DUP8 PUSH1 0x1 PUSH1 0x1 PUSH1 0xA0 SHL SUB AND DUP2 MSTORE PUSH1 0x20 ADD DUP7 DUP2 MSTORE PUSH1 0x20 ADD DUP6 DUP2 MSTORE PUSH1 0x20 ADD DUP5 DUP2 MSTORE PUSH1 0x20 ADD PUSH0 PUSH1 0x2 DUP2 GT ISZERO PUSH2 0x8EA JUMPI PUSH2 0x8EA PUSH2 0x1138 JUMP JUMPDEST DUP2 MSTORE PUSH0 PUSH1 0x20 SWAP2 DUP3 ADD DUP2 SWAP1 MSTORE DUP4 DUP2 MSTORE PUSH1 0x1 DUP1 DUP4 MSTORE PUSH1 0x40 SWAP2 DUP3 SWAP1 KECCAK256 DUP5 MLOAD DUP2 SSTORE SWAP3 DUP5 ADD MLOAD DUP4 DUP3 ADD DUP1 SLOAD PUSH1 0x1 PUSH1 0x1 PUSH1 0xA0 SHL SUB SWAP3 DUP4 AND PUSH1 0x1 PUSH1 0x1 PUSH1 0xA0 SHL SUB NOT SWAP2 DUP3 AND OR SWAP1 SWAP2 SSTORE SWAP3 DUP6 ADD MLOAD PUSH1 0x2 DUP1 DUP7 ADD DUP1 SLOAD SWAP3 SWAP1 SWAP4 AND SWAP2 SWAP1 SWAP5 AND OR SWAP1 SSTORE PUSH1 0x60 DUP5 ADD MLOAD PUSH1 0x3 DUP5 ADD SSTORE PUSH1 0x80 DUP5 ADD MLOAD PUSH1 0x4 DUP5 ADD SSTORE PUSH1 0xA0 DUP5 ADD MLOAD PUSH1 0x5 DUP5 ADD SSTORE PUSH1 0xC0 DUP5 ADD MLOAD PUSH1 0x6 DUP5 ADD DUP1 SLOAD SWAP2 SWAP4 SWAP1 SWAP3 PUSH1 0xFF NOT SWAP1 SWAP3 AND SWAP2 SWAP1 DUP5 SWAP1 DUP2 GT ISZERO PUSH2 0x987 JUMPI PUSH2 0x987 PUSH2 0x1138 JUMP JUMPDEST MUL OR SWAP1 SSTORE POP PUSH1 0xE0 SWAP2 SWAP1 SWAP2 ADD MLOAD PUSH1 0x7 SWAP1 SWAP2 ADD SSTORE PUSH1 0x40 DUP1 MLOAD PUSH1 0x1 PUSH1 0x1 PUSH1 0xA0 SHL SUB DUP9 AND DUP2 MSTORE PUSH1 0x20 DUP2 ADD DUP8 SWAP1 MSTORE SWAP1 DUP2 ADD DUP6 SWAP1 MSTORE PUSH1 0x60 DUP2 ADD DUP5 SWAP1 MSTORE CALLER SWAP1 DUP3 SWAP1 PUSH32 0xDFCDA0FE3AAE7A383843075FABD6EB1701DBAA606C94F3CCF3765415A3717E5C SWAP1 PUSH1 0x80 ADD PUSH1 0x40 MLOAD DUP1 SWAP2 SUB SWAP1 LOG3 SWAP6 SWAP5 POP POP POP POP POP JUMP JUMPDEST PUSH0 DUP2 DUP2 MSTORE PUSH1 0x1 PUSH1 0x20 SWAP1 DUP2 MSTORE PUSH1 0x40 DUP1 DUP4 KECCAK256 PUSH1 0x6 DUP2 ADD DUP1 SLOAD PUSH1 0xFF NOT AND PUSH1 0x2 SWAP1 DUP2 OR SWAP1 SWAP2 SSTORE DUP4 MSTORE DUP2 DUP5 KECCAK256 DUP1 SLOAD DUP4 MLOAD DUP2 DUP7 MUL DUP2 ADD DUP7 ADD SWAP1 SWAP5 MSTORE DUP1 DUP5 MSTORE SWAP2 SWAP5 SWAP4 SWAP1 SWAP2 SWAP1 DUP4 ADD DUP3 DUP3 DUP1 ISZERO PUSH2 0xA6C JUMPI PUSH1 0x20 MUL DUP3 ADD SWAP2 SWAP1 PUSH0 MSTORE PUSH1 0x20 PUSH0 KECCAK256 SWAP1 JUMPDEST DUP2 SLOAD PUSH1 0x1 PUSH1 0x1 PUSH1 0xA0 SHL SUB AND DUP2 MSTORE PUSH1 0x1 SWAP1 SWAP2 ADD SWAP1 PUSH1 0x20 ADD DUP1 DUP4 GT PUSH2 0xA4E JUMPI JUMPDEST POP POP POP POP POP SWAP1 POP PUSH0 DUP2 MLOAD SWAP1 POP PUSH0 DUP2 PUSH8 0xFFFFFFFFFFFFFFFF DUP2 GT ISZERO PUSH2 0xA92 JUMPI PUSH2 0xA92 PUSH2 0x130D JUMP JUMPDEST PUSH1 0x40 MLOAD SWAP1 DUP1 DUP3 MSTORE DUP1 PUSH1 0x20 MUL PUSH1 0x20 ADD DUP3 ADD PUSH1 0x40 MSTORE DUP1 ISZERO PUSH2 0xABB JUMPI DUP2 PUSH1 0x20 ADD PUSH1 0x20 DUP3 MUL DUP1 CALLDATASIZE DUP4 CALLDATACOPY ADD SWAP1 POP JUMPDEST POP SWAP1 POP PUSH0 JUMPDEST DUP3 DUP2 LT ISZERO PUSH2 0xB14 JUMPI DUP4 DUP2 DUP2 MLOAD DUP2 LT PUSH2 0xADA JUMPI PUSH2 0xADA PUSH2 0x1466 JUMP JUMPDEST PUSH1 0x20 MUL PUSH1 0x20 ADD ADD MLOAD DUP3 DUP3 DUP2 MLOAD DUP2 LT PUSH2 0xAF4 JUMPI PUSH2 0xAF4 PUSH2 0x1466 JUMP JUMPDEST PUSH1 0x1 PUSH1 0x1 PUSH1 0xA0 SHL SUB SWAP1 SWAP3 AND PUSH1 0x20 SWAP3 DUP4 MUL SWAP2 SWAP1 SWAP2 ADD SWAP1 SWAP2 ADD MSTORE PUSH1 0x1 ADD PUSH2 0xAC0 JUMP JUMPDEST POP PUSH0 JUMPDEST PUSH2 0xB22 PUSH1 0x1 DUP5 PUSH2 0x147A JUMP JUMPDEST DUP2 LT ISZERO PUSH2 0xCAF JUMPI PUSH0 JUMPDEST PUSH1 0x1 PUSH2 0xB37 DUP4 DUP7 PUSH2 0x147A JUMP JUMPDEST PUSH2 0xB41 SWAP2 SWAP1 PUSH2 0x147A JUMP JUMPDEST DUP2 LT ISZERO PUSH2 0xCA6 JUMPI PUSH0 DUP8 DUP2 MSTORE PUSH1 0x3 PUSH1 0x20 MSTORE PUSH1 0x40 DUP2 KECCAK256 SWAP1 DUP5 PUSH2 0xB62 DUP5 PUSH1 0x1 PUSH2 0x12BC JUMP JUMPDEST DUP2 MLOAD DUP2 LT PUSH2 0xB72 JUMPI PUSH2 0xB72 PUSH2 0x1466 JUMP JUMPDEST PUSH1 0x20 MUL PUSH1 0x20 ADD ADD MLOAD PUSH1 0x1 PUSH1 0x1 PUSH1 0xA0 SHL SUB AND PUSH1 0x1 PUSH1 0x1 PUSH1 0xA0 SHL SUB AND DUP2 MSTORE PUSH1 0x20 ADD SWAP1 DUP2 MSTORE PUSH1 0x20 ADD PUSH0 KECCAK256 PUSH1 0x2 ADD SLOAD PUSH1 0x3 PUSH0 DUP10 DUP2 MSTORE PUSH1 0x20 ADD SWAP1 DUP2 MSTORE PUSH1 0x20 ADD PUSH0 KECCAK256 PUSH0 DUP6 DUP5 DUP2 MLOAD DUP2 LT PUSH2 0xBC1 JUMPI PUSH2 0xBC1 PUSH2 0x1466 JUMP JUMPDEST PUSH1 0x20 MUL PUSH1 0x20 ADD ADD MLOAD PUSH1 0x1 PUSH1 0x1 PUSH1 0xA0 SHL SUB AND PUSH1 0x1 PUSH1 0x1 PUSH1 0xA0 SHL SUB AND DUP2 MSTORE PUSH1 0x20 ADD SWAP1 DUP2 MSTORE PUSH1 0x20 ADD PUSH0 KECCAK256 PUSH1 0x2 ADD SLOAD LT ISZERO PUSH2 0xC9E JUMPI PUSH0 DUP4 DUP3 DUP2 MLOAD DUP2 LT PUSH2 0xC05 JUMPI PUSH2 0xC05 PUSH2 0x1466 JUMP JUMPDEST PUSH1 0x20 MUL PUSH1 0x20 ADD ADD MLOAD SWAP1 POP DUP4 DUP3 PUSH1 0x1 PUSH2 0xC1D SWAP2 SWAP1 PUSH2 0x12BC JUMP JUMPDEST DUP2 MLOAD DUP2 LT PUSH2 0xC2D JUMPI PUSH2 0xC2D PUSH2 0x1466 JUMP JUMPDEST PUSH1 0x20 MUL PUSH1 0x20 ADD ADD MLOAD DUP5 DUP4 DUP2 MLOAD DUP2 LT PUSH2 0xC47 JUMPI PUSH2 0xC47 PUSH2 0x1466 JUMP JUMPDEST PUSH1 0x1 PUSH1 0x1 PUSH1 0xA0 SHL SUB SWAP1 SWAP3 AND PUSH1 0x20 SWAP3 DUP4 MUL SWAP2 SWAP1 SWAP2 ADD SWAP1 SWAP2 ADD MSTORE DUP1 DUP5 PUSH2 0xC6C DUP5 PUSH1 0x1 PUSH2 0x12BC JUMP JUMPDEST DUP2 MLOAD DUP2 LT PUSH2 0xC7C JUMPI PUSH2 0xC7C PUSH2 0x1466 JUMP JUMPDEST PUSH1 0x20 MUL PUSH1 0x20 ADD ADD SWAP1 PUSH1 0x1 PUSH1 0x1 PUSH1 0xA0 SHL SUB AND SWAP1 DUP2 PUSH1 0x1 PUSH1 0x1 PUSH1 0xA0 SHL SUB AND DUP2 MSTORE POP POP POP JUMPDEST PUSH1 0x1 ADD PUSH2 0xB2B JUMP JUMPDEST POP PUSH1 0x1 ADD PUSH2 0xB17 JUMP JUMPDEST POP PUSH0 DUP6 DUP2 MSTORE PUSH1 0x3 PUSH1 0x20 MSTORE PUSH1 0x40 DUP2 KECCAK256 PUSH1 0x5 DUP7 ADD SLOAD DUP3 SWAP1 DUP5 SWAP1 PUSH2 0xCD2 SWAP1 PUSH1 0x1 SWAP1 PUSH2 0x147A JUMP JUMPDEST DUP2 MLOAD DUP2 LT PUSH2 0xCE2 JUMPI PUSH2 0xCE2 PUSH2 0x1466 JUMP JUMPDEST PUSH1 0x20 SWAP1 DUP2 MUL SWAP2 SWAP1 SWAP2 ADD DUP2 ADD MLOAD PUSH1 0x1 PUSH1 0x1 PUSH1 0xA0 SHL SUB AND DUP3 MSTORE DUP2 ADD SWAP2 SWAP1 SWAP2 MSTORE PUSH1 0x40 ADD PUSH0 SWAP1 DUP2 KECCAK256 PUSH1 0x2 ADD SLOAD SWAP2 POP DUP1 JUMPDEST DUP5 DUP2 LT ISZERO PUSH2 0xDD9 JUMPI PUSH0 DUP9 DUP2 MSTORE PUSH1 0x3 PUSH1 0x20 MSTORE PUSH1 0x40 DUP2 KECCAK256 DUP6 MLOAD DUP6 SWAP3 SWAP1 DUP8 SWAP1 DUP6 SWAP1 DUP2 LT PUSH2 0xD3A JUMPI PUSH2 0xD3A PUSH2 0x1466 JUMP JUMPDEST PUSH1 0x20 MUL PUSH1 0x20 ADD ADD MLOAD PUSH1 0x1 PUSH1 0x1 PUSH1 0xA0 SHL SUB AND PUSH1 0x1 PUSH1 0x1 PUSH1 0xA0 SHL SUB AND DUP2 MSTORE PUSH1 0x20 ADD SWAP1 DUP2 MSTORE PUSH1 0x20 ADD PUSH0 KECCAK256 PUSH1 0x2 ADD SLOAD LT ISZERO DUP1 ISZERO PUSH2 0xDBE JUMPI POP PUSH0 DUP9 DUP2 MSTORE PUSH1 0x3 PUSH1 0x20 MSTORE PUSH1 0x40 DUP2 KECCAK256 DUP6 MLOAD DUP3 SWAP1 DUP8 SWAP1 DUP6 SWAP1 DUP2 LT PUSH2 0xD91 JUMPI PUSH2 0xD91 PUSH2 0x1466 JUMP JUMPDEST PUSH1 0x20 MUL PUSH1 0x20 ADD ADD MLOAD PUSH1 0x1 PUSH1 0x1 PUSH1 0xA0 SHL SUB AND PUSH1 0x1 PUSH1 0x1 PUSH1 0xA0 SHL SUB AND DUP2 MSTORE PUSH1 0x20 ADD SWAP1 DUP2 MSTORE PUSH1 0x20 ADD PUSH0 KECCAK256 PUSH1 0x2 ADD SLOAD GT JUMPDEST ISZERO PUSH2 0xDD1 JUMPI DUP2 PUSH2 0xDCD DUP2 PUSH2 0x144E JUMP JUMPDEST SWAP3 POP POP JUMPDEST PUSH1 0x1 ADD PUSH2 0xD0E JUMP JUMPDEST POP DUP1 PUSH0 SUB PUSH2 0xDE4 JUMPI POP DUP3 JUMPDEST PUSH0 DUP2 PUSH8 0xFFFFFFFFFFFFFFFF DUP2 GT ISZERO PUSH2 0xDFE JUMPI PUSH2 0xDFE PUSH2 0x130D JUMP JUMPDEST PUSH1 0x40 MLOAD SWAP1 DUP1 DUP3 MSTORE DUP1 PUSH1 0x20 MUL PUSH1 0x20 ADD DUP3 ADD PUSH1 0x40 MSTORE DUP1 ISZERO PUSH2 0xE27 JUMPI DUP2 PUSH1 0x20 ADD PUSH1 0x20 DUP3 MUL DUP1 CALLDATASIZE DUP4 CALLDATACOPY ADD SWAP1 POP JUMPDEST POP SWAP1 POP PUSH0 DUP8 PUSH1 0x4 ADD SLOAD DUP9 PUSH1 0x3 ADD SLOAD PUSH2 0xE3F SWAP2 SWAP1 PUSH2 0x148D JUMP JUMPDEST SWAP1 POP PUSH0 PUSH2 0xE4C DUP5 DUP4 PUSH2 0x14A4 JUMP JUMPDEST SWAP1 POP PUSH0 JUMPDEST DUP5 DUP2 LT ISZERO PUSH2 0xEE1 JUMPI DUP7 DUP2 DUP2 MLOAD DUP2 LT PUSH2 0xE6A JUMPI PUSH2 0xE6A PUSH2 0x1466 JUMP JUMPDEST PUSH1 0x20 MUL PUSH1 0x20 ADD ADD MLOAD DUP5 DUP3 DUP2 MLOAD DUP2 LT PUSH2 0xE84 JUMPI PUSH2 0xE84 PUSH2 0x1466 JUMP JUMPDEST PUSH1 0x20 MUL PUSH1 0x20 ADD ADD SWAP1 PUSH1 0x1 PUSH1 0x1 PUSH1 0xA0 SHL SUB AND SWAP1 DUP2 PUSH1 0x1 PUSH1 0x1 PUSH1 0xA0 SHL SUB AND DUP2 MSTORE POP POP PUSH2 0xED9 DUP5 DUP3 DUP2 MLOAD DUP2 LT PUSH2 0xEB9 JUMPI PUSH2 0xEB9 PUSH2 0x1466 JUMP JUMPDEST PUSH1 0x20 SWAP1 DUP2 MUL SWAP2 SWAP1 SWAP2 ADD ADD MLOAD PUSH1 0x2 DUP13 ADD SLOAD PUSH1 0x1 PUSH1 0x1 PUSH1 0xA0 SHL SUB AND SWAP1 DUP5 PUSH2 0xF63 JUMP JUMPDEST PUSH1 0x1 ADD PUSH2 0xE50 JUMP JUMPDEST POP DUP10 PUSH32 0xAB154B3616D0BE1145007F0441CBD91AD8CC986C92E412EDAFB53375058BB784 DUP5 DUP4 PUSH1 0x40 MLOAD PUSH2 0xF14 SWAP3 SWAP2 SWAP1 PUSH2 0x14C3 JUMP JUMPDEST PUSH1 0x40 MLOAD DUP1 SWAP2 SUB SWAP1 LOG2 POP POP POP POP POP POP POP POP POP POP JUMP JUMPDEST PUSH2 0xF36 DUP5 DUP5 DUP5 DUP5 PUSH1 0x1 PUSH2 0xF9D JUMP JUMPDEST PUSH2 0x6AD JUMPI PUSH1 0x40 MLOAD PUSH4 0x5274AFE7 PUSH1 0xE0 SHL DUP2 MSTORE PUSH1 0x1 PUSH1 0x1 PUSH1 0xA0 SHL SUB DUP6 AND PUSH1 0x4 DUP3 ADD MSTORE PUSH1 0x24 ADD JUMPDEST PUSH1 0x40 MLOAD DUP1 SWAP2 SUB SWAP1 REVERT JUMPDEST PUSH2 0xF70 DUP4 DUP4 DUP4 PUSH1 0x1 PUSH2 0x100A JUMP JUMPDEST PUSH2 0xF98 JUMPI PUSH1 0x40 MLOAD PUSH4 0x5274AFE7 PUSH1 0xE0 SHL DUP2 MSTORE PUSH1 0x1 PUSH1 0x1 PUSH1 0xA0 SHL SUB DUP5 AND PUSH1 0x4 DUP3 ADD MSTORE PUSH1 0x24 ADD PUSH2 0xF5A JUMP JUMPDEST POP POP POP JUMP JUMPDEST PUSH1 0x40 MLOAD PUSH4 0x23B872DD PUSH1 0xE0 SHL PUSH0 DUP2 DUP2 MSTORE PUSH1 0x1 PUSH1 0x1 PUSH1 0xA0 SHL SUB DUP8 DUP2 AND PUSH1 0x4 MSTORE DUP7 AND PUSH1 0x24 MSTORE PUSH1 0x44 DUP6 SWAP1 MSTORE SWAP2 PUSH1 0x20 DUP4 PUSH1 0x64 DUP2 DUP1 DUP13 GAS CALL SWAP3 POP PUSH1 0x1 PUSH0 MLOAD EQ DUP4 AND PUSH2 0xFF9 JUMPI DUP4 DUP4 ISZERO AND ISZERO PUSH2 0xFED JUMPI RETURNDATASIZE PUSH0 DUP3 RETURNDATACOPY RETURNDATASIZE DUP2 REVERT JUMPDEST PUSH0 DUP9 EXTCODESIZE GT RETURNDATASIZE ISZERO AND DUP4 AND SWAP3 POP JUMPDEST PUSH1 0x40 MSTORE POP PUSH0 PUSH1 0x60 MSTORE SWAP6 SWAP5 POP POP POP POP POP JUMP JUMPDEST PUSH1 0x40 MLOAD PUSH4 0xA9059CBB PUSH1 0xE0 SHL PUSH0 DUP2 DUP2 MSTORE PUSH1 0x1 PUSH1 0x1 PUSH1 0xA0 SHL SUB DUP7 AND PUSH1 0x4 MSTORE PUSH1 0x24 DUP6 SWAP1 MSTORE SWAP2 PUSH1 0x20 DUP4 PUSH1 0x44 DUP2 DUP1 DUP12 GAS CALL SWAP3 POP PUSH1 0x1 PUSH0 MLOAD EQ DUP4 AND PUSH2 0x1060 JUMPI DUP4 DUP4 ISZERO AND ISZERO PUSH2 0x1054 JUMPI RETURNDATASIZE PUSH0 DUP3 RETURNDATACOPY RETURNDATASIZE DUP2 REVERT JUMPDEST PUSH0 DUP8 EXTCODESIZE GT RETURNDATASIZE ISZERO AND DUP4 AND SWAP3 POP JUMPDEST PUSH1 0x40 MSTORE POP SWAP5 SWAP4 POP POP POP POP JUMP JUMPDEST DUP1 CALLDATALOAD PUSH1 0x1 PUSH1 0x1 PUSH1 0xA0 SHL SUB DUP2 AND DUP2 EQ PUSH2 0x1082 JUMPI PUSH0 PUSH0 REVERT JUMPDEST SWAP2 SWAP1 POP JUMP JUMPDEST PUSH0 PUSH0 PUSH1 0x40 DUP4 DUP6 SUB SLT ISZERO PUSH2 0x1098 JUMPI PUSH0 PUSH0 REVERT JUMPDEST DUP3 CALLDATALOAD SWAP2 POP PUSH2 0x10A8 PUSH1 0x20 DUP5 ADD PUSH2 0x106C JUMP JUMPDEST SWAP1 POP SWAP3 POP SWAP3 SWAP1 POP JUMP JUMPDEST PUSH0 DUP2 MLOAD DUP1 DUP5 MSTORE DUP1 PUSH1 0x20 DUP5 ADD PUSH1 0x20 DUP7 ADD MCOPY PUSH0 PUSH1 0x20 DUP3 DUP7 ADD ADD MSTORE PUSH1 0x20 PUSH1 0x1F NOT PUSH1 0x1F DUP4 ADD AND DUP6 ADD ADD SWAP2 POP POP SWAP3 SWAP2 POP POP JUMP JUMPDEST PUSH1 0x1 PUSH1 0x1 PUSH1 0xA0 SHL SUB DUP7 AND DUP2 MSTORE PUSH1 0xA0 PUSH1 0x20 DUP3 ADD DUP2 SWAP1 MSTORE PUSH0 SWAP1 PUSH2 0x1102 SWAP1 DUP4 ADD DUP8 PUSH2 0x10B1 JUMP JUMPDEST PUSH1 0x40 DUP4 ADD SWAP6 SWAP1 SWAP6 MSTORE POP SWAP2 ISZERO ISZERO PUSH1 0x60 DUP4 ADD MSTORE ISZERO ISZERO PUSH1 0x80 SWAP1 SWAP2 ADD MSTORE SWAP3 SWAP2 POP POP JUMP JUMPDEST PUSH0 PUSH1 0x20 DUP3 DUP5 SUB SLT ISZERO PUSH2 0x1131 JUMPI PUSH0 PUSH0 REVERT JUMPDEST POP CALLDATALOAD SWAP2 SWAP1 POP JUMP JUMPDEST PUSH4 0x4E487B71 PUSH1 0xE0 SHL PUSH0 MSTORE PUSH1 0x21 PUSH1 0x4 MSTORE PUSH1 0x24 PUSH0 REVERT JUMPDEST DUP9 DUP2 MSTORE PUSH1 0x1 PUSH1 0x1 PUSH1 0xA0 SHL SUB DUP9 DUP2 AND PUSH1 0x20 DUP4 ADD MSTORE DUP8 AND PUSH1 0x40 DUP3 ADD MSTORE PUSH1 0x60 DUP2 ADD DUP7 SWAP1 MSTORE PUSH1 0x80 DUP2 ADD DUP6 SWAP1 MSTORE PUSH1 0xA0 DUP2 ADD DUP5 SWAP1 MSTORE PUSH2 0x100 DUP2 ADD PUSH1 0x3 DUP5 LT PUSH2 0x119C JUMPI PUSH4 0x4E487B71 PUSH1 0xE0 SHL PUSH0 MSTORE PUSH1 0x21 PUSH1 0x4 MSTORE PUSH1 0x24 PUSH0 REVERT JUMPDEST PUSH1 0xC0 DUP3 ADD SWAP4 SWAP1 SWAP4 MSTORE PUSH1 0xE0 ADD MSTORE SWAP7 SWAP6 POP POP POP POP POP POP JUMP JUMPDEST PUSH0 PUSH0 PUSH0 PUSH1 0x40 DUP5 DUP7 SUB SLT ISZERO PUSH2 0x11C4 JUMPI PUSH0 PUSH0 REVERT JUMPDEST DUP4 CALLDATALOAD SWAP3 POP PUSH1 0x20 DUP5 ADD CALLDATALOAD PUSH8 0xFFFFFFFFFFFFFFFF DUP2 GT ISZERO PUSH2 0x11E1 JUMPI PUSH0 PUSH0 REVERT JUMPDEST DUP5 ADD PUSH1 0x1F DUP2 ADD DUP7 SGT PUSH2 0x11F1 JUMPI PUSH0 PUSH0 REVERT JUMPDEST DUP1 CALLDATALOAD PUSH8 0xFFFFFFFFFFFFFFFF DUP2 GT ISZERO PUSH2 0x1207 JUMPI PUSH0 PUSH0 REVERT JUMPDEST DUP7 PUSH1 0x20 DUP3 DUP5 ADD ADD GT ISZERO PUSH2 0x1218 JUMPI PUSH0 PUSH0 REVERT JUMPDEST SWAP4 SWAP7 PUSH1 0x20 SWAP2 SWAP1 SWAP2 ADD SWAP6 POP SWAP3 SWAP4 POP POP POP JUMP JUMPDEST PUSH1 0x60 DUP2 MSTORE PUSH0 PUSH2 0x123B PUSH1 0x60 DUP4 ADD DUP7 PUSH2 0x10B1 JUMP JUMPDEST PUSH1 0x20 DUP4 ADD SWAP5 SWAP1 SWAP5 MSTORE POP SWAP1 ISZERO ISZERO PUSH1 0x40 SWAP1 SWAP2 ADD MSTORE SWAP2 SWAP1 POP JUMP JUMPDEST PUSH0 PUSH0 PUSH1 0x40 DUP4 DUP6 SUB SLT ISZERO PUSH2 0x1263 JUMPI PUSH0 PUSH0 REVERT JUMPDEST POP POP DUP1 CALLDATALOAD SWAP3 PUSH1 0x20 SWAP1 SWAP2 ADD CALLDATALOAD SWAP2 POP JUMP JUMPDEST PUSH0 PUSH0 PUSH0 PUSH0 PUSH1 0x80 DUP6 DUP8 SUB SLT ISZERO PUSH2 0x1285 JUMPI PUSH0 PUSH0 REVERT JUMPDEST PUSH2 0x128E DUP6 PUSH2 0x106C JUMP JUMPDEST SWAP7 PUSH1 0x20 DUP7 ADD CALLDATALOAD SWAP7 POP PUSH1 0x40 DUP7 ADD CALLDATALOAD SWAP6 PUSH1 0x60 ADD CALLDATALOAD SWAP5 POP SWAP3 POP POP POP JUMP JUMPDEST PUSH4 0x4E487B71 PUSH1 0xE0 SHL PUSH0 MSTORE PUSH1 0x11 PUSH1 0x4 MSTORE PUSH1 0x24 PUSH0 REVERT JUMPDEST DUP1 DUP3 ADD DUP1 DUP3 GT ISZERO PUSH2 0x12CF JUMPI PUSH2 0x12CF PUSH2 0x12A8 JUMP JUMPDEST SWAP3 SWAP2 POP POP JUMP JUMPDEST PUSH1 0x1 DUP2 DUP2 SHR SWAP1 DUP3 AND DUP1 PUSH2 0x12E9 JUMPI PUSH1 0x7F DUP3 AND SWAP2 POP JUMPDEST PUSH1 0x20 DUP3 LT DUP2 SUB PUSH2 0x1307 JUMPI PUSH4 0x4E487B71 PUSH1 0xE0 SHL PUSH0 MSTORE PUSH1 0x22 PUSH1 0x4 MSTORE PUSH1 0x24 PUSH0 REVERT JUMPDEST POP SWAP2 SWAP1 POP JUMP JUMPDEST PUSH4 0x4E487B71 PUSH1 0xE0 SHL PUSH0 MSTORE PUSH1 0x41 PUSH1 0x4 MSTORE PUSH1 0x24 PUSH0 REVERT JUMPDEST PUSH1 0x1F DUP3 GT ISZERO PUSH2 0xF98 JUMPI DUP1 PUSH0 MSTORE PUSH1 0x20 PUSH0 KECCAK256 PUSH1 0x1F DUP5 ADD PUSH1 0x5 SHR DUP2 ADD PUSH1 0x20 DUP6 LT ISZERO PUSH2 0x1346 JUMPI POP DUP1 JUMPDEST PUSH1 0x1F DUP5 ADD PUSH1 0x5 SHR DUP3 ADD SWAP2 POP JUMPDEST DUP2 DUP2 LT ISZERO PUSH2 0x381 JUMPI PUSH0 DUP2 SSTORE PUSH1 0x1 ADD PUSH2 0x1352 JUMP JUMPDEST DUP2 MLOAD PUSH8 0xFFFFFFFFFFFFFFFF DUP2 GT ISZERO PUSH2 0x137F JUMPI PUSH2 0x137F PUSH2 0x130D JUMP JUMPDEST PUSH2 0x1393 DUP2 PUSH2 0x138D DUP5 SLOAD PUSH2 0x12D5 JUMP JUMPDEST DUP5 PUSH2 0x1321 JUMP JUMPDEST PUSH1 0x20 PUSH1 0x1F DUP3 GT PUSH1 0x1 DUP2 EQ PUSH2 0x13C5 JUMPI PUSH0 DUP4 ISZERO PUSH2 0x13AE JUMPI POP DUP5 DUP3 ADD MLOAD JUMPDEST PUSH0 NOT PUSH1 0x3 DUP6 SWAP1 SHL SHR NOT AND PUSH1 0x1 DUP5 SWAP1 SHL OR DUP5 SSTORE PUSH2 0x381 JUMP JUMPDEST PUSH0 DUP5 DUP2 MSTORE PUSH1 0x20 DUP2 KECCAK256 PUSH1 0x1F NOT DUP6 AND SWAP2 JUMPDEST DUP3 DUP2 LT ISZERO PUSH2 0x13F4 JUMPI DUP8 DUP6 ADD MLOAD DUP3 SSTORE PUSH1 0x20 SWAP5 DUP6 ADD SWAP5 PUSH1 0x1 SWAP1 SWAP3 ADD SWAP2 ADD PUSH2 0x13D4 JUMP JUMPDEST POP DUP5 DUP3 LT ISZERO PUSH2 0x1411 JUMPI DUP7 DUP5 ADD MLOAD PUSH0 NOT PUSH1 0x3 DUP8 SWAP1 SHL PUSH1 0xF8 AND SHR NOT AND DUP2 SSTORE JUMPDEST POP POP POP POP PUSH1 0x1 SWAP1 DUP2 SHL ADD SWAP1 SSTORE POP JUMP JUMPDEST PUSH1 0x20 DUP2 MSTORE DUP2 PUSH1 0x20 DUP3 ADD MSTORE DUP2 DUP4 PUSH1 0x40 DUP4 ADD CALLDATACOPY PUSH0 DUP2 DUP4 ADD PUSH1 0x40 SWAP1 DUP2 ADD SWAP2 SWAP1 SWAP2 MSTORE PUSH1 0x1F SWAP1 SWAP3 ADD PUSH1 0x1F NOT AND ADD ADD SWAP2 SWAP1 POP JUMP JUMPDEST PUSH0 PUSH1 0x1 DUP3 ADD PUSH2 0x145F JUMPI PUSH2 0x145F PUSH2 0x12A8 JUMP JUMPDEST POP PUSH1 0x1 ADD SWAP1 JUMP JUMPDEST PUSH4 0x4E487B71 PUSH1 0xE0 SHL PUSH0 MSTORE PUSH1 0x32 PUSH1 0x4 MSTORE PUSH1 0x24 PUSH0 REVERT JUMPDEST DUP2 DUP2 SUB DUP2 DUP2 GT ISZERO PUSH2 0x12CF JUMPI PUSH2 0x12CF PUSH2 0x12A8 JUMP JUMPDEST DUP1 DUP3 MUL DUP2 ISZERO DUP3 DUP3 DIV DUP5 EQ OR PUSH2 0x12CF JUMPI PUSH2 0x12CF PUSH2 0x12A8 JUMP JUMPDEST PUSH0 DUP3 PUSH2 0x14BE JUMPI PUSH4 0x4E487B71 PUSH1 0xE0 SHL PUSH0 MSTORE PUSH1 0x12 PUSH1 0x4 MSTORE PUSH1 0x24 PUSH0 REVERT JUMPDEST POP DIV SWAP1 JUMP JUMPDEST PUSH1 0x40 DUP1 DUP3 MSTORE DUP4 MLOAD SWAP1 DUP3 ADD DUP2 SWAP1 MSTORE PUSH0 SWAP1 PUSH1 0x20 DUP6 ADD SWAP1 PUSH1 0x60 DUP5 ADD SWAP1 DUP4 JUMPDEST DUP2 DUP2 LT ISZERO PUSH2 0x1505 JUMPI DUP4 MLOAD PUSH1 0x1 PUSH1 0x1 PUSH1 0xA0 SHL SUB AND DUP4 MSTORE PUSH1 0x20 SWAP4 DUP5 ADD SWAP4 SWAP1 SWAP3 ADD SWAP2 PUSH1 0x1 ADD PUSH2 0x14DE JUMP JUMPDEST POP POP PUSH1 0x20 SWAP4 SWAP1 SWAP4 ADD SWAP4 SWAP1 SWAP4 MSTORE POP SWAP3 SWAP2 POP POP JUMP INVALID LOG2 PUSH5 0x6970667358 0x22 SLT KECCAK256 PUSH6 0xA5DE629AC015 0xB5 JUMPDEST PUSH20 0x26C0909139D337A413D24561208F05C114208EBD DUP13 0xF6 PUSH5 0x736F6C6343 STOP ADDMOD SHR STOP CALLER "},"methodIdentifiers":{"createRoom(address,uint256,uint256,uint256)":"ed3d02be","enterRoom(uint256,string)":"679a8557","getParticipantInfo(uint256,address)":"99abff4b","nextRoomId()":"07a52cab","participants(uint256,address)":"02e060c6","roomParticipants(uint256,uint256)":"b882f5a8","rooms(uint256)":"1bae0ac8","vote(uint256,address)":"02d947ef"}}}}}