{"project/contracts/mocks/MockERC4626Vault.sol":{"MockERC4626Vault":{"abi":[{"inputs":[{"internalType":"contract IERC20","name":"asset_","type":"address"},{"internalType":"string","name":"name_","type":"string"},{"internalType":"string","name":"symbol_","type":"string"}],"stateMutability":"nonpayable","type":"constructor"},{"inputs":[{"internalType":"address","name":"spender","type":"address"},{"internalType":"uint256","name":"allowance","type":"uint256"},{"internalType":"uint256","name":"needed","type":"uint256"}],"name":"ERC20InsufficientAllowance","type":"error"},{"inputs":[{"internalType":"address","name":"sender","type":"address"},{"internalType":"uint256","name":"balance","type":"uint256"},{"internalType":"uint256","name":"needed","type":"uint256"}],"name":"ERC20InsufficientBalance","type":"error"},{"inputs":[{"internalType":"address","name":"approver","type":"address"}],"name":"ERC20InvalidApprover","type":"error"},{"inputs":[{"internalType":"address","name":"receiver","type":"address"}],"name":"ERC20InvalidReceiver","type":"error"},{"inputs":[{"internalType":"address","name":"sender","type":"address"}],"name":"ERC20InvalidSender","type":"error"},{"inputs":[{"internalType":"address","name":"spender","type":"address"}],"name":"ERC20InvalidSpender","type":"error"},{"inputs":[{"internalType":"address","name":"receiver","type":"address"},{"internalType":"uint256","name":"assets","type":"uint256"},{"internalType":"uint256","name":"max","type":"uint256"}],"name":"ERC4626ExceededMaxDeposit","type":"error"},{"inputs":[{"internalType":"address","name":"receiver","type":"address"},{"internalType":"uint256","name":"shares","type":"uint256"},{"internalType":"uint256","name":"max","type":"uint256"}],"name":"ERC4626ExceededMaxMint","type":"error"},{"inputs":[{"internalType":"address","name":"owner","type":"address"},{"internalType":"uint256","name":"shares","type":"uint256"},{"internalType":"uint256","name":"max","type":"uint256"}],"name":"ERC4626ExceededMaxRedeem","type":"error"},{"inputs":[{"internalType":"address","name":"owner","type":"address"},{"internalType":"uint256","name":"assets","type":"uint256"},{"internalType":"uint256","name":"max","type":"uint256"}],"name":"ERC4626ExceededMaxWithdraw","type":"error"},{"inputs":[{"internalType":"address","name":"token","type":"address"}],"name":"SafeERC20FailedOperation","type":"error"},{"anonymous":false,"inputs":[{"indexed":true,"internalType":"address","name":"owner","type":"address"},{"indexed":true,"internalType":"address","name":"spender","type":"address"},{"indexed":false,"internalType":"uint256","name":"value","type":"uint256"}],"name":"Approval","type":"event"},{"anonymous":false,"inputs":[{"indexed":true,"internalType":"address","name":"sender","type":"address"},{"indexed":true,"internalType":"address","name":"owner","type":"address"},{"indexed":false,"internalType":"uint256","name":"assets","type":"uint256"},{"indexed":false,"internalType":"uint256","name":"shares","type":"uint256"}],"name":"Deposit","type":"event"},{"anonymous":false,"inputs":[{"indexed":true,"internalType":"address","name":"from","type":"address"},{"indexed":true,"internalType":"address","name":"to","type":"address"},{"indexed":false,"internalType":"uint256","name":"value","type":"uint256"}],"name":"Transfer","type":"event"},{"anonymous":false,"inputs":[{"indexed":true,"internalType":"address","name":"sender","type":"address"},{"indexed":true,"internalType":"address","name":"receiver","type":"address"},{"indexed":true,"internalType":"address","name":"owner","type":"address"},{"indexed":false,"internalType":"uint256","name":"assets","type":"uint256"},{"indexed":false,"internalType":"uint256","name":"shares","type":"uint256"}],"name":"Withdraw","type":"event"},{"inputs":[{"internalType":"address","name":"owner","type":"address"},{"internalType":"address","name":"spender","type":"address"}],"name":"allowance","outputs":[{"internalType":"uint256","name":"","type":"uint256"}],"stateMutability":"view","type":"function"},{"inputs":[{"internalType":"address","name":"spender","type":"address"},{"internalType":"uint256","name":"value","type":"uint256"}],"name":"approve","outputs":[{"internalType":"bool","name":"","type":"bool"}],"stateMutability":"nonpayable","type":"function"},{"inputs":[],"name":"asset","outputs":[{"internalType":"address","name":"","type":"address"}],"stateMutability":"view","type":"function"},{"inputs":[{"internalType":"address","name":"account","type":"address"}],"name":"balanceOf","outputs":[{"internalType":"uint256","name":"","type":"uint256"}],"stateMutability":"view","type":"function"},{"inputs":[{"internalType":"uint256","name":"shares","type":"uint256"}],"name":"convertToAssets","outputs":[{"internalType":"uint256","name":"","type":"uint256"}],"stateMutability":"view","type":"function"},{"inputs":[{"internalType":"uint256","name":"assets","type":"uint256"}],"name":"convertToShares","outputs":[{"internalType":"uint256","name":"","type":"uint256"}],"stateMutability":"view","type":"function"},{"inputs":[],"name":"decimals","outputs":[{"internalType":"uint8","name":"","type":"uint8"}],"stateMutability":"view","type":"function"},{"inputs":[{"internalType":"uint256","name":"assets","type":"uint256"},{"internalType":"address","name":"receiver","type":"address"}],"name":"deposit","outputs":[{"internalType":"uint256","name":"","type":"uint256"}],"stateMutability":"nonpayable","type":"function"},{"inputs":[{"internalType":"address","name":"","type":"address"}],"name":"maxDeposit","outputs":[{"internalType":"uint256","name":"","type":"uint256"}],"stateMutability":"view","type":"function"},{"inputs":[{"internalType":"address","name":"","type":"address"}],"name":"maxMint","outputs":[{"internalType":"uint256","name":"","type":"uint256"}],"stateMutability":"view","type":"function"},{"inputs":[{"internalType":"address","name":"owner","type":"address"}],"name":"maxRedeem","outputs":[{"internalType":"uint256","name":"","type":"uint256"}],"stateMutability":"view","type":"function"},{"inputs":[{"internalType":"address","name":"owner","type":"address"}],"name":"maxWithdraw","outputs":[{"internalType":"uint256","name":"","type":"uint256"}],"stateMutability":"view","type":"function"},{"inputs":[{"internalType":"uint256","name":"shares","type":"uint256"},{"internalType":"address","name":"receiver","type":"address"}],"name":"mint","outputs":[{"internalType":"uint256","name":"","type":"uint256"}],"stateMutability":"nonpayable","type":"function"},{"inputs":[],"name":"name","outputs":[{"internalType":"string","name":"","type":"string"}],"stateMutability":"view","type":"function"},{"inputs":[{"internalType":"uint256","name":"assets","type":"uint256"}],"name":"previewDeposit","outputs":[{"internalType":"uint256","name":"","type":"uint256"}],"stateMutability":"view","type":"function"},{"inputs":[{"internalType":"uint256","name":"shares","type":"uint256"}],"name":"previewMint","outputs":[{"internalType":"uint256","name":"","type":"uint256"}],"stateMutability":"view","type":"function"},{"inputs":[{"internalType":"uint256","name":"shares","type":"uint256"}],"name":"previewRedeem","outputs":[{"internalType":"uint256","name":"","type":"uint256"}],"stateMutability":"view","type":"function"},{"inputs":[{"internalType":"uint256","name":"assets","type":"uint256"}],"name":"previewWithdraw","outputs":[{"internalType":"uint256","name":"","type":"uint256"}],"stateMutability":"view","type":"function"},{"inputs":[{"internalType":"uint256","name":"shares","type":"uint256"},{"internalType":"address","name":"receiver","type":"address"},{"internalType":"address","name":"owner","type":"address"}],"name":"redeem","outputs":[{"internalType":"uint256","name":"","type":"uint256"}],"stateMutability":"nonpayable","type":"function"},{"inputs":[{"internalType":"uint256","name":"amount","type":"uint256"}],"name":"simulateYield","outputs":[],"stateMutability":"nonpayable","type":"function"},{"inputs":[],"name":"symbol","outputs":[{"internalType":"string","name":"","type":"string"}],"stateMutability":"view","type":"function"},{"inputs":[],"name":"totalAssets","outputs":[{"internalType":"uint256","name":"","type":"uint256"}],"stateMutability":"view","type":"function"},{"inputs":[],"name":"totalSupply","outputs":[{"internalType":"uint256","name":"","type":"uint256"}],"stateMutability":"view","type":"function"},{"inputs":[{"internalType":"address","name":"to","type":"address"},{"internalType":"uint256","name":"value","type":"uint256"}],"name":"transfer","outputs":[{"internalType":"bool","name":"","type":"bool"}],"stateMutability":"nonpayable","type":"function"},{"inputs":[{"internalType":"address","name":"from","type":"address"},{"internalType":"address","name":"to","type":"address"},{"internalType":"uint256","name":"value","type":"uint256"}],"name":"transferFrom","outputs":[{"internalType":"bool","name":"","type":"bool"}],"stateMutability":"nonpayable","type":"function"},{"inputs":[{"internalType":"uint256","name":"assets","type":"uint256"},{"internalType":"address","name":"receiver","type":"address"},{"internalType":"address","name":"owner","type":"address"}],"name":"withdraw","outputs":[{"internalType":"uint256","name":"","type":"uint256"}],"stateMutability":"nonpayable","type":"function"}],"evm":{"bytecode":{"linkReferences":{},"object":"60c060405234801561000f575f5ffd5b506040516115f73803806115f783398101604081905261002e916101dc565b828282600361003d83826102e2565b50600461004a82826102e2565b5050505f5f61005e8361008d60201b60201c565b915091508161006e576012610070565b805b60ff1660a05250506001600160a01b03166080525061039c915050565b5f808061009960405190565b6040805160048152602481019091526020810180516001600160e01b0390811663313ce56760e01b179091529192505f9182916100d99188919061011e16565b5090925090506100e883604052565b8180156100f6575060203d10155b8015610103575060ff8111155b61010e575f5f610112565b6001815b94509450505050915091565b5f5f5f60405f855160208701885afa92505f51915060205190509250925092565b634e487b7160e01b5f52604160045260245ffd5b5f82601f830112610162575f5ffd5b81516001600160401b0381111561017b5761017b61013f565b604051601f8201601f19908116603f011681016001600160401b03811182821017156101a9576101a961013f565b6040528181528382016020018510156101c0575f5ffd5b8160208501602083015e5f918101602001919091529392505050565b5f5f5f606084860312156101ee575f5ffd5b83516001600160a01b0381168114610204575f5ffd5b60208501519093506001600160401b0381111561021f575f5ffd5b61022b86828701610153565b604086015190935090506001600160401b03811115610248575f5ffd5b61025486828701610153565b9150509250925092565b600181811c9082168061027257607f821691505b60208210810361029057634e487b7160e01b5f52602260045260245ffd5b50919050565b601f8211156102dd57805f5260205f20601f840160051c810160208510156102bb5750805b601f840160051c820191505b818110156102da575f81556001016102c7565b50505b505050565b81516001600160401b038111156102fb576102fb61013f565b61030f81610309845461025e565b84610296565b6020601f821160018114610341575f831561032a5750848201515b5f19600385901b1c1916600184901b1784556102da565b5f84815260208120601f198516915b828110156103705787850151825560209485019460019092019101610350565b508482101561038d57868401515f19600387901b60f8161c191681555b50505050600190811b01905550565b60805160a05161121e6103d95f395f61052b01525f8181610246015281816103af0152818161069901528181610b840152610c1c015261121e5ff3fe608060405234801561000f575f5ffd5b5060043610610187575f3560e01c806394bf804d116100d9578063c63d75b611610093578063d905777e1161006e578063d905777e1461034c578063dd62ed3e1461035f578063e7ca856d14610397578063ef8b30f714610326575f5ffd5b8063c63d75b614610270578063c6e6f59214610326578063ce96cb7714610339575f5ffd5b806394bf804d146102bf57806395d89b41146102d2578063a9059cbb146102da578063b3d7f6b9146102ed578063b460af9414610300578063ba08765214610313575f5ffd5b806323b872dd11610144578063402d267d1161011f578063402d267d146102705780634cdad506146101bb5780636e553f651461028457806370a0823114610297575f5ffd5b806323b872dd1461020c578063313ce5671461021f57806338d52e0f14610239575f5ffd5b806301e1d1141461018b57806306fdde03146101a657806307a2d13a146101bb578063095ea7b3146101ce5780630a28a477146101f157806318160ddd14610204575b5f5ffd5b6101936103ac565b6040519081526020015b60405180910390f35b6101ae61043b565b60405161019d9190610e85565b6101936101c9366004610eba565b6104cb565b6101e16101dc366004610eec565b6104dc565b604051901515815260200161019d565b6101936101ff366004610eba565b6104f3565b600254610193565b6101e161021a366004610f14565b6104ff565b610227610524565b60405160ff909116815260200161019d565b6040516001600160a01b037f000000000000000000000000000000000000000000000000000000000000000016815260200161019d565b61019361027e366004610f4e565b505f1990565b610193610292366004610f67565b61054f565b6101936102a5366004610f4e565b6001600160a01b03165f9081526020819052604090205490565b6101936102cd366004610f67565b610580565b6101ae61059b565b6101e16102e8366004610eec565b6105aa565b6101936102fb366004610eba565b6105b7565b61019361030e366004610f91565b6105c3565b610193610321366004610f91565b610619565b610193610334366004610eba565b610666565b610193610347366004610f4e565b610671565b61019361035a366004610f4e565b61067a565b61019361036d366004610fca565b6001600160a01b039182165f90815260016020908152604080832093909416825291909152205490565b6103aa6103a5366004610eba565b610697565b005b5f7f00000000000000000000000000000000000000000000000000000000000000006040516370a0823160e01b81523060048201526001600160a01b0391909116906370a0823190602401602060405180830381865afa158015610412573d5f5f3e3d5ffd5b505050506040513d601f19601f820116820180604052508101906104369190610ff2565b905090565b60606003805461044a90611009565b80601f016020809104026020016040519081016040528092919081815260200182805461047690611009565b80156104c15780601f10610498576101008083540402835291602001916104c1565b820191905f5260205f20905b8154815290600101906020018083116104a457829003601f168201915b5050505050905090565b5f6104d6825f610718565b92915050565b5f336104e9818585610750565b5060019392505050565b5f6104d6826001610762565b5f3361050c858285610791565b6105178585856107fa565b60019150505b9392505050565b5f610436817f0000000000000000000000000000000000000000000000000000000000000000611055565b5f5f19610560565b60405180910390fd5b5f61056a85610666565b905061057833858784610857565b949350505050565b5f5f195f61058d856105b7565b905061057833858388610857565b60606004805461044a90611009565b5f336104e98185856107fa565b5f6104d6826001610718565b5f5f6105ce83610671565b9050808511156105f757828582604051633fa733bb60e21b81526004016105579392919061106e565b5f610601866104f3565b905061061033868689856108c7565b95945050505050565b5f5f6106248361067a565b90508085111561064d57828582604051632e52afbb60e21b81526004016105579392919061106e565b5f610657866104cb565b9050610610338686848a6108c7565b5f6104d6825f610762565b5f6104d66101c9835b6001600160a01b0381165f908152602081905260408120546104d6565b7f00000000000000000000000000000000000000000000000000000000000000006040516340c10f1960e01b8152306004820152602481018390526001600160a01b0391909116906340c10f19906044015f604051808303815f87803b1580156106ff575f5ffd5b505af1158015610711573d5f5f3e3d5ffd5b5050505050565b5f61051d6107246103ac565b61072f90600161108f565b61073a5f600a611185565b600254610747919061108f565b85919085610966565b61075d83838360016109a8565b505050565b5f61051d61077182600a611185565b60025461077e919061108f565b6107866103ac565b61074790600161108f565b6001600160a01b038381165f908152600160209081526040808320938616835292905220545f198110156107f457818110156107e657828183604051637dc7a0d960e11b81526004016105579392919061106e565b6107f484848484035f6109a8565b50505050565b6001600160a01b03831661082357604051634b637e8f60e11b81525f6004820152602401610557565b6001600160a01b03821661084c5760405163ec442f0560e01b81525f6004820152602401610557565b61075d838383610a6c565b6108618483610b7f565b61086b8382610baf565b826001600160a01b0316846001600160a01b03167fdcbc1c05240f31ff3ad067ef1ee35ce4997762752e3a095284754544f4c709d784846040516108b9929190918252602082015260400190565b60405180910390a350505050565b826001600160a01b0316856001600160a01b0316146108eb576108eb838683610791565b6108f58382610be3565b6108ff8483610c17565b826001600160a01b0316846001600160a01b0316866001600160a01b03167ffbde797d201c681b91056529119e0b02407c7bb96a4a2c75c01fc9667232c8db8585604051610957929190918252602082015260400190565b60405180910390a45050505050565b5f61099361097383610c42565b801561098e57505f848061098957610989611193565b868809115b151590565b61099e868686610c6e565b610610919061108f565b6001600160a01b0384166109d15760405163e602df0560e01b81525f6004820152602401610557565b6001600160a01b0383166109fa57604051634a1406b160e11b81525f6004820152602401610557565b6001600160a01b038085165f90815260016020908152604080832093871683529290522082905580156107f457826001600160a01b0316846001600160a01b03167f8c5be1e5ebec7d5bd14f71427d1e84f3dd0314c0f7b2291e5b200ac8c7c3b925846040516108b991815260200190565b6001600160a01b038316610a96578060025f828254610a8b919061108f565b90915550610af39050565b6001600160a01b0383165f9081526020819052604090205481811015610ad55783818360405163391434e360e21b81526004016105579392919061106e565b6001600160a01b0384165f9081526020819052604090209082900390555b6001600160a01b038216610b0f57600280548290039055610b2d565b6001600160a01b0382165f9081526020819052604090208054820190555b816001600160a01b0316836001600160a01b03167fddf252ad1be2c89b69c2b068fc378daa952ba7f163c4a11628f55a4df523b3ef83604051610b7291815260200190565b60405180910390a3505050565b610bab7f0000000000000000000000000000000000000000000000000000000000000000833084610d1e565b5050565b6001600160a01b038216610bd85760405163ec442f0560e01b81525f6004820152602401610557565b610bab5f8383610a6c565b6001600160a01b038216610c0c57604051634b637e8f60e11b81525f6004820152602401610557565b610bab825f83610a6c565b610bab7f00000000000000000000000000000000000000000000000000000000000000008383610d54565b5f6002826003811115610c5757610c576111a7565b610c6191906111bb565b60ff166001149050919050565b5f5f5f610c7b8686610d89565b91509150815f03610c9f57838181610c9557610c95611193565b049250505061051d565b818411610cb657610cb66003851502601118610da5565b5f848688095f868103871696879004966002600389028118808a02820302808a02820302808a02820302808a02820302808a02820302808a02909103029181900381900460010185841190960395909502919093039390930492909217029150509392505050565b610d2c848484846001610db6565b6107f457604051635274afe760e01b81526001600160a01b0385166004820152602401610557565b610d618383836001610e23565b61075d57604051635274afe760e01b81526001600160a01b0384166004820152602401610557565b5f805f1983850993909202808410938190039390930393915050565b634e487b715f52806020526024601cfd5b6040516323b872dd60e01b5f8181526001600160a01b038781166004528616602452604485905291602083606481808c5af1925060015f51148316610e12578383151615610e06573d5f823e3d81fd5b5f883b113d1516831692505b604052505f60605295945050505050565b60405163a9059cbb60e01b5f8181526001600160a01b038616600452602485905291602083604481808b5af1925060015f51148316610e79578383151615610e6d573d5f823e3d81fd5b5f873b113d1516831692505b60405250949350505050565b602081525f82518060208401528060208501604085015e5f604082850101526040601f19601f83011684010191505092915050565b5f60208284031215610eca575f5ffd5b5035919050565b80356001600160a01b0381168114610ee7575f5ffd5b919050565b5f5f60408385031215610efd575f5ffd5b610f0683610ed1565b946020939093013593505050565b5f5f5f60608486031215610f26575f5ffd5b610f2f84610ed1565b9250610f3d60208501610ed1565b929592945050506040919091013590565b5f60208284031215610f5e575f5ffd5b61051d82610ed1565b5f5f60408385031215610f78575f5ffd5b82359150610f8860208401610ed1565b90509250929050565b5f5f5f60608486031215610fa3575f5ffd5b83359250610fb360208501610ed1565b9150610fc160408501610ed1565b90509250925092565b5f5f60408385031215610fdb575f5ffd5b610fe483610ed1565b9150610f8860208401610ed1565b5f60208284031215611002575f5ffd5b5051919050565b600181811c9082168061101d57607f821691505b60208210810361103b57634e487b7160e01b5f52602260045260245ffd5b50919050565b634e487b7160e01b5f52601160045260245ffd5b60ff81811683821601908111156104d6576104d6611041565b6001600160a01b039390931683526020830191909152604082015260600190565b808201808211156104d6576104d6611041565b6001815b60018411156110dd578085048111156110c1576110c1611041565b60018416156110cf57908102905b60019390931c9280026110a6565b935093915050565b5f826110f3575060016104d6565b816110ff57505f6104d6565b8160018114611115576002811461111f5761113b565b60019150506104d6565b60ff84111561113057611130611041565b50506001821b6104d6565b5060208310610133831016604e8410600b841016171561115e575081810a6104d6565b61116a5f1984846110a2565b805f190482111561117d5761117d611041565b029392505050565b5f61051d60ff8416836110e5565b634e487b7160e01b5f52601260045260245ffd5b634e487b7160e01b5f52602160045260245ffd5b5f60ff8316806111d957634e487b7160e01b5f52601260045260245ffd5b8060ff8416069150509291505056fea2646970667358221220de1d234eec5ff32be7c8ddbaf3fcd7a91ae8dc75fca74c6dd55aa176f69d912564736f6c634300081c0033","opcodes":"PUSH1 0xC0 PUSH1 0x40 MSTORE CALLVALUE DUP1 ISZERO PUSH2 0xF JUMPI PUSH0 PUSH0 REVERT JUMPDEST POP PUSH1 0x40 MLOAD PUSH2 0x15F7 CODESIZE SUB DUP1 PUSH2 0x15F7 DUP4 CODECOPY DUP2 ADD PUSH1 0x40 DUP2 SWAP1 MSTORE PUSH2 0x2E SWAP2 PUSH2 0x1DC JUMP JUMPDEST DUP3 DUP3 DUP3 PUSH1 0x3 PUSH2 0x3D DUP4 DUP3 PUSH2 0x2E2 JUMP JUMPDEST POP PUSH1 0x4 PUSH2 0x4A DUP3 DUP3 PUSH2 0x2E2 JUMP JUMPDEST POP POP POP PUSH0 PUSH0 PUSH2 0x5E DUP4 PUSH2 0x8D PUSH1 0x20 SHL PUSH1 0x20 SHR JUMP JUMPDEST SWAP2 POP SWAP2 POP DUP2 PUSH2 0x6E JUMPI PUSH1 0x12 PUSH2 0x70 JUMP JUMPDEST DUP1 JUMPDEST PUSH1 0xFF AND PUSH1 0xA0 MSTORE POP POP PUSH1 0x1 PUSH1 0x1 PUSH1 0xA0 SHL SUB AND PUSH1 0x80 MSTORE POP PUSH2 0x39C SWAP2 POP POP JUMP JUMPDEST PUSH0 DUP1 DUP1 PUSH2 0x99 PUSH1 0x40 MLOAD SWAP1 JUMP JUMPDEST PUSH1 0x40 DUP1 MLOAD PUSH1 0x4 DUP2 MSTORE PUSH1 0x24 DUP2 ADD SWAP1 SWAP2 MSTORE PUSH1 0x20 DUP2 ADD DUP1 MLOAD PUSH1 0x1 PUSH1 0x1 PUSH1 0xE0 SHL SUB SWAP1 DUP2 AND PUSH4 0x313CE567 PUSH1 0xE0 SHL OR SWAP1 SWAP2 MSTORE SWAP2 SWAP3 POP PUSH0 SWAP2 DUP3 SWAP2 PUSH2 0xD9 SWAP2 DUP9 SWAP2 SWAP1 PUSH2 0x11E AND JUMP JUMPDEST POP SWAP1 SWAP3 POP SWAP1 POP PUSH2 0xE8 DUP4 PUSH1 0x40 MSTORE JUMP JUMPDEST DUP2 DUP1 ISZERO PUSH2 0xF6 JUMPI POP PUSH1 0x20 RETURNDATASIZE LT ISZERO JUMPDEST DUP1 ISZERO PUSH2 0x103 JUMPI POP PUSH1 0xFF DUP2 GT ISZERO JUMPDEST PUSH2 0x10E JUMPI PUSH0 PUSH0 PUSH2 0x112 JUMP JUMPDEST PUSH1 0x1 DUP2 JUMPDEST SWAP5 POP SWAP5 POP POP POP POP SWAP2 POP SWAP2 JUMP JUMPDEST PUSH0 PUSH0 PUSH0 PUSH1 0x40 PUSH0 DUP6 MLOAD PUSH1 0x20 DUP8 ADD DUP9 GAS STATICCALL SWAP3 POP PUSH0 MLOAD SWAP2 POP PUSH1 0x20 MLOAD SWAP1 POP SWAP3 POP SWAP3 POP SWAP3 JUMP JUMPDEST PUSH4 0x4E487B71 PUSH1 0xE0 SHL PUSH0 MSTORE PUSH1 0x41 PUSH1 0x4 MSTORE PUSH1 0x24 PUSH0 REVERT JUMPDEST PUSH0 DUP3 PUSH1 0x1F DUP4 ADD SLT PUSH2 0x162 JUMPI PUSH0 PUSH0 REVERT JUMPDEST DUP2 MLOAD PUSH1 0x1 PUSH1 0x1 PUSH1 0x40 SHL SUB DUP2 GT ISZERO PUSH2 0x17B JUMPI PUSH2 0x17B PUSH2 0x13F JUMP JUMPDEST PUSH1 0x40 MLOAD PUSH1 0x1F DUP3 ADD PUSH1 0x1F NOT SWAP1 DUP2 AND PUSH1 0x3F ADD AND DUP2 ADD PUSH1 0x1 PUSH1 0x1 PUSH1 0x40 SHL SUB DUP2 GT DUP3 DUP3 LT OR ISZERO PUSH2 0x1A9 JUMPI PUSH2 0x1A9 PUSH2 0x13F JUMP JUMPDEST PUSH1 0x40 MSTORE DUP2 DUP2 MSTORE DUP4 DUP3 ADD PUSH1 0x20 ADD DUP6 LT ISZERO PUSH2 0x1C0 JUMPI PUSH0 PUSH0 REVERT JUMPDEST DUP2 PUSH1 0x20 DUP6 ADD PUSH1 0x20 DUP4 ADD MCOPY PUSH0 SWAP2 DUP2 ADD PUSH1 0x20 ADD SWAP2 SWAP1 SWAP2 MSTORE SWAP4 SWAP3 POP POP POP JUMP JUMPDEST PUSH0 PUSH0 PUSH0 PUSH1 0x60 DUP5 DUP7 SUB SLT ISZERO PUSH2 0x1EE JUMPI PUSH0 PUSH0 REVERT JUMPDEST DUP4 MLOAD PUSH1 0x1 PUSH1 0x1 PUSH1 0xA0 SHL SUB DUP2 AND DUP2 EQ PUSH2 0x204 JUMPI PUSH0 PUSH0 REVERT JUMPDEST PUSH1 0x20 DUP6 ADD MLOAD SWAP1 SWAP4 POP PUSH1 0x1 PUSH1 0x1 PUSH1 0x40 SHL SUB DUP2 GT ISZERO PUSH2 0x21F JUMPI PUSH0 PUSH0 REVERT JUMPDEST PUSH2 0x22B DUP7 DUP3 DUP8 ADD PUSH2 0x153 JUMP JUMPDEST PUSH1 0x40 DUP7 ADD MLOAD SWAP1 SWAP4 POP SWAP1 POP PUSH1 0x1 PUSH1 0x1 PUSH1 0x40 SHL SUB DUP2 GT ISZERO PUSH2 0x248 JUMPI PUSH0 PUSH0 REVERT JUMPDEST PUSH2 0x254 DUP7 DUP3 DUP8 ADD PUSH2 0x153 JUMP JUMPDEST SWAP2 POP POP SWAP3 POP SWAP3 POP SWAP3 JUMP JUMPDEST PUSH1 0x1 DUP2 DUP2 SHR SWAP1 DUP3 AND DUP1 PUSH2 0x272 JUMPI PUSH1 0x7F DUP3 AND SWAP2 POP JUMPDEST PUSH1 0x20 DUP3 LT DUP2 SUB PUSH2 0x290 JUMPI PUSH4 0x4E487B71 PUSH1 0xE0 SHL PUSH0 MSTORE PUSH1 0x22 PUSH1 0x4 MSTORE PUSH1 0x24 PUSH0 REVERT JUMPDEST POP SWAP2 SWAP1 POP JUMP JUMPDEST PUSH1 0x1F DUP3 GT ISZERO PUSH2 0x2DD JUMPI DUP1 PUSH0 MSTORE PUSH1 0x20 PUSH0 KECCAK256 PUSH1 0x1F DUP5 ADD PUSH1 0x5 SHR DUP2 ADD PUSH1 0x20 DUP6 LT ISZERO PUSH2 0x2BB JUMPI POP DUP1 JUMPDEST PUSH1 0x1F DUP5 ADD PUSH1 0x5 SHR DUP3 ADD SWAP2 POP JUMPDEST DUP2 DUP2 LT ISZERO PUSH2 0x2DA JUMPI PUSH0 DUP2 SSTORE PUSH1 0x1 ADD PUSH2 0x2C7 JUMP JUMPDEST POP POP JUMPDEST POP POP POP JUMP JUMPDEST DUP2 MLOAD PUSH1 0x1 PUSH1 0x1 PUSH1 0x40 SHL SUB DUP2 GT ISZERO PUSH2 0x2FB JUMPI PUSH2 0x2FB PUSH2 0x13F JUMP JUMPDEST PUSH2 0x30F DUP2 PUSH2 0x309 DUP5 SLOAD PUSH2 0x25E JUMP JUMPDEST DUP5 PUSH2 0x296 JUMP JUMPDEST PUSH1 0x20 PUSH1 0x1F DUP3 GT PUSH1 0x1 DUP2 EQ PUSH2 0x341 JUMPI PUSH0 DUP4 ISZERO PUSH2 0x32A JUMPI POP DUP5 DUP3 ADD MLOAD JUMPDEST PUSH0 NOT PUSH1 0x3 DUP6 SWAP1 SHL SHR NOT AND PUSH1 0x1 DUP5 SWAP1 SHL OR DUP5 SSTORE PUSH2 0x2DA JUMP JUMPDEST PUSH0 DUP5 DUP2 MSTORE PUSH1 0x20 DUP2 KECCAK256 PUSH1 0x1F NOT DUP6 AND SWAP2 JUMPDEST DUP3 DUP2 LT ISZERO PUSH2 0x370 JUMPI DUP8 DUP6 ADD MLOAD DUP3 SSTORE PUSH1 0x20 SWAP5 DUP6 ADD SWAP5 PUSH1 0x1 SWAP1 SWAP3 ADD SWAP2 ADD PUSH2 0x350 JUMP JUMPDEST POP DUP5 DUP3 LT ISZERO PUSH2 0x38D JUMPI DUP7 DUP5 ADD MLOAD PUSH0 NOT PUSH1 0x3 DUP8 SWAP1 SHL PUSH1 0xF8 AND SHR NOT AND DUP2 SSTORE JUMPDEST POP POP POP POP PUSH1 0x1 SWAP1 DUP2 SHL ADD SWAP1 SSTORE POP JUMP JUMPDEST PUSH1 0x80 MLOAD PUSH1 0xA0 MLOAD PUSH2 0x121E PUSH2 0x3D9 PUSH0 CODECOPY PUSH0 PUSH2 0x52B ADD MSTORE PUSH0 DUP2 DUP2 PUSH2 0x246 ADD MSTORE DUP2 DUP2 PUSH2 0x3AF ADD MSTORE DUP2 DUP2 PUSH2 0x699 ADD MSTORE DUP2 DUP2 PUSH2 0xB84 ADD MSTORE PUSH2 0xC1C ADD MSTORE PUSH2 0x121E PUSH0 RETURN INVALID PUSH1 0x80 PUSH1 0x40 MSTORE CALLVALUE DUP1 ISZERO PUSH2 0xF JUMPI PUSH0 PUSH0 REVERT JUMPDEST POP PUSH1 0x4 CALLDATASIZE LT PUSH2 0x187 JUMPI PUSH0 CALLDATALOAD PUSH1 0xE0 SHR DUP1 PUSH4 0x94BF804D GT PUSH2 0xD9 JUMPI DUP1 PUSH4 0xC63D75B6 GT PUSH2 0x93 JUMPI DUP1 PUSH4 0xD905777E GT PUSH2 0x6E JUMPI DUP1 PUSH4 0xD905777E EQ PUSH2 0x34C JUMPI DUP1 PUSH4 0xDD62ED3E EQ PUSH2 0x35F JUMPI DUP1 PUSH4 0xE7CA856D EQ PUSH2 0x397 JUMPI DUP1 PUSH4 0xEF8B30F7 EQ PUSH2 0x326 JUMPI PUSH0 PUSH0 REVERT JUMPDEST DUP1 PUSH4 0xC63D75B6 EQ PUSH2 0x270 JUMPI DUP1 PUSH4 0xC6E6F592 EQ PUSH2 0x326 JUMPI DUP1 PUSH4 0xCE96CB77 EQ PUSH2 0x339 JUMPI PUSH0 PUSH0 REVERT JUMPDEST DUP1 PUSH4 0x94BF804D EQ PUSH2 0x2BF JUMPI DUP1 PUSH4 0x95D89B41 EQ PUSH2 0x2D2 JUMPI DUP1 PUSH4 0xA9059CBB EQ PUSH2 0x2DA JUMPI DUP1 PUSH4 0xB3D7F6B9 EQ PUSH2 0x2ED JUMPI DUP1 PUSH4 0xB460AF94 EQ PUSH2 0x300 JUMPI DUP1 PUSH4 0xBA087652 EQ PUSH2 0x313 JUMPI PUSH0 PUSH0 REVERT JUMPDEST DUP1 PUSH4 0x23B872DD GT PUSH2 0x144 JUMPI DUP1 PUSH4 0x402D267D GT PUSH2 0x11F JUMPI DUP1 PUSH4 0x402D267D EQ PUSH2 0x270 JUMPI DUP1 PUSH4 0x4CDAD506 EQ PUSH2 0x1BB JUMPI DUP1 PUSH4 0x6E553F65 EQ PUSH2 0x284 JUMPI DUP1 PUSH4 0x70A08231 EQ PUSH2 0x297 JUMPI PUSH0 PUSH0 REVERT JUMPDEST DUP1 PUSH4 0x23B872DD EQ PUSH2 0x20C JUMPI DUP1 PUSH4 0x313CE567 EQ PUSH2 0x21F JUMPI DUP1 PUSH4 0x38D52E0F EQ PUSH2 0x239 JUMPI PUSH0 PUSH0 REVERT JUMPDEST DUP1 PUSH4 0x1E1D114 EQ PUSH2 0x18B JUMPI DUP1 PUSH4 0x6FDDE03 EQ PUSH2 0x1A6 JUMPI DUP1 PUSH4 0x7A2D13A EQ PUSH2 0x1BB JUMPI DUP1 PUSH4 0x95EA7B3 EQ PUSH2 0x1CE JUMPI DUP1 PUSH4 0xA28A477 EQ PUSH2 0x1F1 JUMPI DUP1 PUSH4 0x18160DDD EQ PUSH2 0x204 JUMPI JUMPDEST PUSH0 PUSH0 REVERT JUMPDEST PUSH2 0x193 PUSH2 0x3AC JUMP JUMPDEST PUSH1 0x40 MLOAD SWAP1 DUP2 MSTORE PUSH1 0x20 ADD JUMPDEST PUSH1 0x40 MLOAD DUP1 SWAP2 SUB SWAP1 RETURN JUMPDEST PUSH2 0x1AE PUSH2 0x43B JUMP JUMPDEST PUSH1 0x40 MLOAD PUSH2 0x19D SWAP2 SWAP1 PUSH2 0xE85 JUMP JUMPDEST PUSH2 0x193 PUSH2 0x1C9 CALLDATASIZE PUSH1 0x4 PUSH2 0xEBA JUMP JUMPDEST PUSH2 0x4CB JUMP JUMPDEST PUSH2 0x1E1 PUSH2 0x1DC CALLDATASIZE PUSH1 0x4 PUSH2 0xEEC JUMP JUMPDEST PUSH2 0x4DC JUMP JUMPDEST PUSH1 0x40 MLOAD SWAP1 ISZERO ISZERO DUP2 MSTORE PUSH1 0x20 ADD PUSH2 0x19D JUMP JUMPDEST PUSH2 0x193 PUSH2 0x1FF CALLDATASIZE PUSH1 0x4 PUSH2 0xEBA JUMP JUMPDEST PUSH2 0x4F3 JUMP JUMPDEST PUSH1 0x2 SLOAD PUSH2 0x193 JUMP JUMPDEST PUSH2 0x1E1 PUSH2 0x21A CALLDATASIZE PUSH1 0x4 PUSH2 0xF14 JUMP JUMPDEST PUSH2 0x4FF JUMP JUMPDEST PUSH2 0x227 PUSH2 0x524 JUMP JUMPDEST PUSH1 0x40 MLOAD PUSH1 0xFF SWAP1 SWAP2 AND DUP2 MSTORE PUSH1 0x20 ADD PUSH2 0x19D JUMP JUMPDEST PUSH1 0x40 MLOAD PUSH1 0x1 PUSH1 0x1 PUSH1 0xA0 SHL SUB PUSH32 0x0 AND DUP2 MSTORE PUSH1 0x20 ADD PUSH2 0x19D JUMP JUMPDEST PUSH2 0x193 PUSH2 0x27E CALLDATASIZE PUSH1 0x4 PUSH2 0xF4E JUMP JUMPDEST POP PUSH0 NOT SWAP1 JUMP JUMPDEST PUSH2 0x193 PUSH2 0x292 CALLDATASIZE PUSH1 0x4 PUSH2 0xF67 JUMP JUMPDEST PUSH2 0x54F JUMP JUMPDEST PUSH2 0x193 PUSH2 0x2A5 CALLDATASIZE PUSH1 0x4 PUSH2 0xF4E JUMP JUMPDEST PUSH1 0x1 PUSH1 0x1 PUSH1 0xA0 SHL SUB AND PUSH0 SWAP1 DUP2 MSTORE PUSH1 0x20 DUP2 SWAP1 MSTORE PUSH1 0x40 SWAP1 KECCAK256 SLOAD SWAP1 JUMP JUMPDEST PUSH2 0x193 PUSH2 0x2CD CALLDATASIZE PUSH1 0x4 PUSH2 0xF67 JUMP JUMPDEST PUSH2 0x580 JUMP JUMPDEST PUSH2 0x1AE PUSH2 0x59B JUMP JUMPDEST PUSH2 0x1E1 PUSH2 0x2E8 CALLDATASIZE PUSH1 0x4 PUSH2 0xEEC JUMP JUMPDEST PUSH2 0x5AA JUMP JUMPDEST PUSH2 0x193 PUSH2 0x2FB CALLDATASIZE PUSH1 0x4 PUSH2 0xEBA JUMP JUMPDEST PUSH2 0x5B7 JUMP JUMPDEST PUSH2 0x193 PUSH2 0x30E CALLDATASIZE PUSH1 0x4 PUSH2 0xF91 JUMP JUMPDEST PUSH2 0x5C3 JUMP JUMPDEST PUSH2 0x193 PUSH2 0x321 CALLDATASIZE PUSH1 0x4 PUSH2 0xF91 JUMP JUMPDEST PUSH2 0x619 JUMP JUMPDEST PUSH2 0x193 PUSH2 0x334 CALLDATASIZE PUSH1 0x4 PUSH2 0xEBA JUMP JUMPDEST PUSH2 0x666 JUMP JUMPDEST PUSH2 0x193 PUSH2 0x347 CALLDATASIZE PUSH1 0x4 PUSH2 0xF4E JUMP JUMPDEST PUSH2 0x671 JUMP JUMPDEST PUSH2 0x193 PUSH2 0x35A CALLDATASIZE PUSH1 0x4 PUSH2 0xF4E JUMP JUMPDEST PUSH2 0x67A JUMP JUMPDEST PUSH2 0x193 PUSH2 0x36D CALLDATASIZE PUSH1 0x4 PUSH2 0xFCA JUMP JUMPDEST PUSH1 0x1 PUSH1 0x1 PUSH1 0xA0 SHL SUB SWAP2 DUP3 AND PUSH0 SWAP1 DUP2 MSTORE PUSH1 0x1 PUSH1 0x20 SWAP1 DUP2 MSTORE PUSH1 0x40 DUP1 DUP4 KECCAK256 SWAP4 SWAP1 SWAP5 AND DUP3 MSTORE SWAP2 SWAP1 SWAP2 MSTORE KECCAK256 SLOAD SWAP1 JUMP JUMPDEST PUSH2 0x3AA PUSH2 0x3A5 CALLDATASIZE PUSH1 0x4 PUSH2 0xEBA JUMP JUMPDEST PUSH2 0x697 JUMP JUMPDEST STOP JUMPDEST PUSH0 PUSH32 0x0 PUSH1 0x40 MLOAD PUSH4 0x70A08231 PUSH1 0xE0 SHL DUP2 MSTORE ADDRESS PUSH1 0x4 DUP3 ADD MSTORE PUSH1 0x1 PUSH1 0x1 PUSH1 0xA0 SHL SUB SWAP2 SWAP1 SWAP2 AND SWAP1 PUSH4 0x70A08231 SWAP1 PUSH1 0x24 ADD PUSH1 0x20 PUSH1 0x40 MLOAD DUP1 DUP4 SUB DUP2 DUP7 GAS STATICCALL ISZERO DUP1 ISZERO PUSH2 0x412 JUMPI RETURNDATASIZE PUSH0 PUSH0 RETURNDATACOPY RETURNDATASIZE PUSH0 REVERT JUMPDEST POP POP POP POP PUSH1 0x40 MLOAD RETURNDATASIZE PUSH1 0x1F NOT PUSH1 0x1F DUP3 ADD AND DUP3 ADD DUP1 PUSH1 0x40 MSTORE POP DUP2 ADD SWAP1 PUSH2 0x436 SWAP2 SWAP1 PUSH2 0xFF2 JUMP JUMPDEST SWAP1 POP SWAP1 JUMP JUMPDEST PUSH1 0x60 PUSH1 0x3 DUP1 SLOAD PUSH2 0x44A SWAP1 PUSH2 0x1009 JUMP JUMPDEST DUP1 PUSH1 0x1F ADD PUSH1 0x20 DUP1 SWAP2 DIV MUL PUSH1 0x20 ADD PUSH1 0x40 MLOAD SWAP1 DUP2 ADD PUSH1 0x40 MSTORE DUP1 SWAP3 SWAP2 SWAP1 DUP2 DUP2 MSTORE PUSH1 0x20 ADD DUP3 DUP1 SLOAD PUSH2 0x476 SWAP1 PUSH2 0x1009 JUMP JUMPDEST DUP1 ISZERO PUSH2 0x4C1 JUMPI DUP1 PUSH1 0x1F LT PUSH2 0x498 JUMPI PUSH2 0x100 DUP1 DUP4 SLOAD DIV MUL DUP4 MSTORE SWAP2 PUSH1 0x20 ADD SWAP2 PUSH2 0x4C1 JUMP JUMPDEST DUP3 ADD SWAP2 SWAP1 PUSH0 MSTORE PUSH1 0x20 PUSH0 KECCAK256 SWAP1 JUMPDEST DUP2 SLOAD DUP2 MSTORE SWAP1 PUSH1 0x1 ADD SWAP1 PUSH1 0x20 ADD DUP1 DUP4 GT PUSH2 0x4A4 JUMPI DUP3 SWAP1 SUB PUSH1 0x1F AND DUP3 ADD SWAP2 JUMPDEST POP POP POP POP POP SWAP1 POP SWAP1 JUMP JUMPDEST PUSH0 PUSH2 0x4D6 DUP3 PUSH0 PUSH2 0x718 JUMP JUMPDEST SWAP3 SWAP2 POP POP JUMP JUMPDEST PUSH0 CALLER PUSH2 0x4E9 DUP2 DUP6 DUP6 PUSH2 0x750 JUMP JUMPDEST POP PUSH1 0x1 SWAP4 SWAP3 POP POP POP JUMP JUMPDEST PUSH0 PUSH2 0x4D6 DUP3 PUSH1 0x1 PUSH2 0x762 JUMP JUMPDEST PUSH0 CALLER PUSH2 0x50C DUP6 DUP3 DUP6 PUSH2 0x791 JUMP JUMPDEST PUSH2 0x517 DUP6 DUP6 DUP6 PUSH2 0x7FA JUMP JUMPDEST PUSH1 0x1 SWAP2 POP POP JUMPDEST SWAP4 SWAP3 POP POP POP JUMP JUMPDEST PUSH0 PUSH2 0x436 DUP2 PUSH32 0x0 PUSH2 0x1055 JUMP JUMPDEST PUSH0 PUSH0 NOT PUSH2 0x560 JUMP JUMPDEST PUSH1 0x40 MLOAD DUP1 SWAP2 SUB SWAP1 REVERT JUMPDEST PUSH0 PUSH2 0x56A DUP6 PUSH2 0x666 JUMP JUMPDEST SWAP1 POP PUSH2 0x578 CALLER DUP6 DUP8 DUP5 PUSH2 0x857 JUMP JUMPDEST SWAP5 SWAP4 POP POP POP POP JUMP JUMPDEST PUSH0 PUSH0 NOT PUSH0 PUSH2 0x58D DUP6 PUSH2 0x5B7 JUMP JUMPDEST SWAP1 POP PUSH2 0x578 CALLER DUP6 DUP4 DUP9 PUSH2 0x857 JUMP JUMPDEST PUSH1 0x60 PUSH1 0x4 DUP1 SLOAD PUSH2 0x44A SWAP1 PUSH2 0x1009 JUMP JUMPDEST PUSH0 CALLER PUSH2 0x4E9 DUP2 DUP6 DUP6 PUSH2 0x7FA JUMP JUMPDEST PUSH0 PUSH2 0x4D6 DUP3 PUSH1 0x1 PUSH2 0x718 JUMP JUMPDEST PUSH0 PUSH0 PUSH2 0x5CE DUP4 PUSH2 0x671 JUMP JUMPDEST SWAP1 POP DUP1 DUP6 GT ISZERO PUSH2 0x5F7 JUMPI DUP3 DUP6 DUP3 PUSH1 0x40 MLOAD PUSH4 0x3FA733BB PUSH1 0xE2 SHL DUP2 MSTORE PUSH1 0x4 ADD PUSH2 0x557 SWAP4 SWAP3 SWAP2 SWAP1 PUSH2 0x106E JUMP JUMPDEST PUSH0 PUSH2 0x601 DUP7 PUSH2 0x4F3 JUMP JUMPDEST SWAP1 POP PUSH2 0x610 CALLER DUP7 DUP7 DUP10 DUP6 PUSH2 0x8C7 JUMP JUMPDEST SWAP6 SWAP5 POP POP POP POP POP JUMP JUMPDEST PUSH0 PUSH0 PUSH2 0x624 DUP4 PUSH2 0x67A JUMP JUMPDEST SWAP1 POP DUP1 DUP6 GT ISZERO PUSH2 0x64D JUMPI DUP3 DUP6 DUP3 PUSH1 0x40 MLOAD PUSH4 0x2E52AFBB PUSH1 0xE2 SHL DUP2 MSTORE PUSH1 0x4 ADD PUSH2 0x557 SWAP4 SWAP3 SWAP2 SWAP1 PUSH2 0x106E JUMP JUMPDEST PUSH0 PUSH2 0x657 DUP7 PUSH2 0x4CB JUMP JUMPDEST SWAP1 POP PUSH2 0x610 CALLER DUP7 DUP7 DUP5 DUP11 PUSH2 0x8C7 JUMP JUMPDEST PUSH0 PUSH2 0x4D6 DUP3 PUSH0 PUSH2 0x762 JUMP JUMPDEST PUSH0 PUSH2 0x4D6 PUSH2 0x1C9 DUP4 JUMPDEST PUSH1 0x1 PUSH1 0x1 PUSH1 0xA0 SHL SUB DUP2 AND PUSH0 SWAP1 DUP2 MSTORE PUSH1 0x20 DUP2 SWAP1 MSTORE PUSH1 0x40 DUP2 KECCAK256 SLOAD PUSH2 0x4D6 JUMP JUMPDEST PUSH32 0x0 PUSH1 0x40 MLOAD PUSH4 0x40C10F19 PUSH1 0xE0 SHL DUP2 MSTORE ADDRESS PUSH1 0x4 DUP3 ADD MSTORE PUSH1 0x24 DUP2 ADD DUP4 SWAP1 MSTORE PUSH1 0x1 PUSH1 0x1 PUSH1 0xA0 SHL SUB SWAP2 SWAP1 SWAP2 AND SWAP1 PUSH4 0x40C10F19 SWAP1 PUSH1 0x44 ADD PUSH0 PUSH1 0x40 MLOAD DUP1 DUP4 SUB DUP2 PUSH0 DUP8 DUP1 EXTCODESIZE ISZERO DUP1 ISZERO PUSH2 0x6FF JUMPI PUSH0 PUSH0 REVERT JUMPDEST POP GAS CALL ISZERO DUP1 ISZERO PUSH2 0x711 JUMPI RETURNDATASIZE PUSH0 PUSH0 RETURNDATACOPY RETURNDATASIZE PUSH0 REVERT JUMPDEST POP POP POP POP POP JUMP JUMPDEST PUSH0 PUSH2 0x51D PUSH2 0x724 PUSH2 0x3AC JUMP JUMPDEST PUSH2 0x72F SWAP1 PUSH1 0x1 PUSH2 0x108F JUMP JUMPDEST PUSH2 0x73A PUSH0 PUSH1 0xA PUSH2 0x1185 JUMP JUMPDEST PUSH1 0x2 SLOAD PUSH2 0x747 SWAP2 SWAP1 PUSH2 0x108F JUMP JUMPDEST DUP6 SWAP2 SWAP1 DUP6 PUSH2 0x966 JUMP JUMPDEST PUSH2 0x75D DUP4 DUP4 DUP4 PUSH1 0x1 PUSH2 0x9A8 JUMP JUMPDEST POP POP POP JUMP JUMPDEST PUSH0 PUSH2 0x51D PUSH2 0x771 DUP3 PUSH1 0xA PUSH2 0x1185 JUMP JUMPDEST PUSH1 0x2 SLOAD PUSH2 0x77E SWAP2 SWAP1 PUSH2 0x108F JUMP JUMPDEST PUSH2 0x786 PUSH2 0x3AC JUMP JUMPDEST PUSH2 0x747 SWAP1 PUSH1 0x1 PUSH2 0x108F JUMP JUMPDEST PUSH1 0x1 PUSH1 0x1 PUSH1 0xA0 SHL SUB DUP4 DUP2 AND PUSH0 SWAP1 DUP2 MSTORE PUSH1 0x1 PUSH1 0x20 SWAP1 DUP2 MSTORE PUSH1 0x40 DUP1 DUP4 KECCAK256 SWAP4 DUP7 AND DUP4 MSTORE SWAP3 SWAP1 MSTORE KECCAK256 SLOAD PUSH0 NOT DUP2 LT ISZERO PUSH2 0x7F4 JUMPI DUP2 DUP2 LT ISZERO PUSH2 0x7E6 JUMPI DUP3 DUP2 DUP4 PUSH1 0x40 MLOAD PUSH4 0x7DC7A0D9 PUSH1 0xE1 SHL DUP2 MSTORE PUSH1 0x4 ADD PUSH2 0x557 SWAP4 SWAP3 SWAP2 SWAP1 PUSH2 0x106E JUMP JUMPDEST PUSH2 0x7F4 DUP5 DUP5 DUP5 DUP5 SUB PUSH0 PUSH2 0x9A8 JUMP JUMPDEST POP POP POP POP JUMP JUMPDEST PUSH1 0x1 PUSH1 0x1 PUSH1 0xA0 SHL SUB DUP4 AND PUSH2 0x823 JUMPI PUSH1 0x40 MLOAD PUSH4 0x4B637E8F PUSH1 0xE1 SHL DUP2 MSTORE PUSH0 PUSH1 0x4 DUP3 ADD MSTORE PUSH1 0x24 ADD PUSH2 0x557 JUMP JUMPDEST PUSH1 0x1 PUSH1 0x1 PUSH1 0xA0 SHL SUB DUP3 AND PUSH2 0x84C JUMPI PUSH1 0x40 MLOAD PUSH4 0xEC442F05 PUSH1 0xE0 SHL DUP2 MSTORE PUSH0 PUSH1 0x4 DUP3 ADD MSTORE PUSH1 0x24 ADD PUSH2 0x557 JUMP JUMPDEST PUSH2 0x75D DUP4 DUP4 DUP4 PUSH2 0xA6C JUMP JUMPDEST PUSH2 0x861 DUP5 DUP4 PUSH2 0xB7F JUMP JUMPDEST PUSH2 0x86B DUP4 DUP3 PUSH2 0xBAF JUMP JUMPDEST DUP3 PUSH1 0x1 PUSH1 0x1 PUSH1 0xA0 SHL SUB AND DUP5 PUSH1 0x1 PUSH1 0x1 PUSH1 0xA0 SHL SUB AND PUSH32 0xDCBC1C05240F31FF3AD067EF1EE35CE4997762752E3A095284754544F4C709D7 DUP5 DUP5 PUSH1 0x40 MLOAD PUSH2 0x8B9 SWAP3 SWAP2 SWAP1 SWAP2 DUP3 MSTORE PUSH1 0x20 DUP3 ADD MSTORE PUSH1 0x40 ADD SWAP1 JUMP JUMPDEST PUSH1 0x40 MLOAD DUP1 SWAP2 SUB SWAP1 LOG3 POP POP POP POP JUMP JUMPDEST DUP3 PUSH1 0x1 PUSH1 0x1 PUSH1 0xA0 SHL SUB AND DUP6 PUSH1 0x1 PUSH1 0x1 PUSH1 0xA0 SHL SUB AND EQ PUSH2 0x8EB JUMPI PUSH2 0x8EB DUP4 DUP7 DUP4 PUSH2 0x791 JUMP JUMPDEST PUSH2 0x8F5 DUP4 DUP3 PUSH2 0xBE3 JUMP JUMPDEST PUSH2 0x8FF DUP5 DUP4 PUSH2 0xC17 JUMP JUMPDEST DUP3 PUSH1 0x1 PUSH1 0x1 PUSH1 0xA0 SHL SUB AND DUP5 PUSH1 0x1 PUSH1 0x1 PUSH1 0xA0 SHL SUB AND DUP7 PUSH1 0x1 PUSH1 0x1 PUSH1 0xA0 SHL SUB AND PUSH32 0xFBDE797D201C681B91056529119E0B02407C7BB96A4A2C75C01FC9667232C8DB DUP6 DUP6 PUSH1 0x40 MLOAD PUSH2 0x957 SWAP3 SWAP2 SWAP1 SWAP2 DUP3 MSTORE PUSH1 0x20 DUP3 ADD MSTORE PUSH1 0x40 ADD SWAP1 JUMP JUMPDEST PUSH1 0x40 MLOAD DUP1 SWAP2 SUB SWAP1 LOG4 POP POP POP POP POP JUMP JUMPDEST PUSH0 PUSH2 0x993 PUSH2 0x973 DUP4 PUSH2 0xC42 JUMP JUMPDEST DUP1 ISZERO PUSH2 0x98E JUMPI POP PUSH0 DUP5 DUP1 PUSH2 0x989 JUMPI PUSH2 0x989 PUSH2 0x1193 JUMP JUMPDEST DUP7 DUP9 MULMOD GT JUMPDEST ISZERO ISZERO SWAP1 JUMP JUMPDEST PUSH2 0x99E DUP7 DUP7 DUP7 PUSH2 0xC6E JUMP JUMPDEST PUSH2 0x610 SWAP2 SWAP1 PUSH2 0x108F JUMP JUMPDEST PUSH1 0x1 PUSH1 0x1 PUSH1 0xA0 SHL SUB DUP5 AND PUSH2 0x9D1 JUMPI PUSH1 0x40 MLOAD PUSH4 0xE602DF05 PUSH1 0xE0 SHL DUP2 MSTORE PUSH0 PUSH1 0x4 DUP3 ADD MSTORE PUSH1 0x24 ADD PUSH2 0x557 JUMP JUMPDEST PUSH1 0x1 PUSH1 0x1 PUSH1 0xA0 SHL SUB DUP4 AND PUSH2 0x9FA JUMPI PUSH1 0x40 MLOAD PUSH4 0x4A1406B1 PUSH1 0xE1 SHL DUP2 MSTORE PUSH0 PUSH1 0x4 DUP3 ADD MSTORE PUSH1 0x24 ADD PUSH2 0x557 JUMP JUMPDEST PUSH1 0x1 PUSH1 0x1 PUSH1 0xA0 SHL SUB DUP1 DUP6 AND PUSH0 SWAP1 DUP2 MSTORE PUSH1 0x1 PUSH1 0x20 SWAP1 DUP2 MSTORE PUSH1 0x40 DUP1 DUP4 KECCAK256 SWAP4 DUP8 AND DUP4 MSTORE SWAP3 SWAP1 MSTORE KECCAK256 DUP3 SWAP1 SSTORE DUP1 ISZERO PUSH2 0x7F4 JUMPI DUP3 PUSH1 0x1 PUSH1 0x1 PUSH1 0xA0 SHL SUB AND DUP5 PUSH1 0x1 PUSH1 0x1 PUSH1 0xA0 SHL SUB AND PUSH32 0x8C5BE1E5EBEC7D5BD14F71427D1E84F3DD0314C0F7B2291E5B200AC8C7C3B925 DUP5 PUSH1 0x40 MLOAD PUSH2 0x8B9 SWAP2 DUP2 MSTORE PUSH1 0x20 ADD SWAP1 JUMP JUMPDEST PUSH1 0x1 PUSH1 0x1 PUSH1 0xA0 SHL SUB DUP4 AND PUSH2 0xA96 JUMPI DUP1 PUSH1 0x2 PUSH0 DUP3 DUP3 SLOAD PUSH2 0xA8B SWAP2 SWAP1 PUSH2 0x108F JUMP JUMPDEST SWAP1 SWAP2 SSTORE POP PUSH2 0xAF3 SWAP1 POP JUMP JUMPDEST PUSH1 0x1 PUSH1 0x1 PUSH1 0xA0 SHL SUB DUP4 AND PUSH0 SWAP1 DUP2 MSTORE PUSH1 0x20 DUP2 SWAP1 MSTORE PUSH1 0x40 SWAP1 KECCAK256 SLOAD DUP2 DUP2 LT ISZERO PUSH2 0xAD5 JUMPI DUP4 DUP2 DUP4 PUSH1 0x40 MLOAD PUSH4 0x391434E3 PUSH1 0xE2 SHL DUP2 MSTORE PUSH1 0x4 ADD PUSH2 0x557 SWAP4 SWAP3 SWAP2 SWAP1 PUSH2 0x106E JUMP JUMPDEST PUSH1 0x1 PUSH1 0x1 PUSH1 0xA0 SHL SUB DUP5 AND PUSH0 SWAP1 DUP2 MSTORE PUSH1 0x20 DUP2 SWAP1 MSTORE PUSH1 0x40 SWAP1 KECCAK256 SWAP1 DUP3 SWAP1 SUB SWAP1 SSTORE JUMPDEST PUSH1 0x1 PUSH1 0x1 PUSH1 0xA0 SHL SUB DUP3 AND PUSH2 0xB0F JUMPI PUSH1 0x2 DUP1 SLOAD DUP3 SWAP1 SUB SWAP1 SSTORE PUSH2 0xB2D JUMP JUMPDEST PUSH1 0x1 PUSH1 0x1 PUSH1 0xA0 SHL SUB DUP3 AND PUSH0 SWAP1 DUP2 MSTORE PUSH1 0x20 DUP2 SWAP1 MSTORE PUSH1 0x40 SWAP1 KECCAK256 DUP1 SLOAD DUP3 ADD SWAP1 SSTORE JUMPDEST DUP2 PUSH1 0x1 PUSH1 0x1 PUSH1 0xA0 SHL SUB AND DUP4 PUSH1 0x1 PUSH1 0x1 PUSH1 0xA0 SHL SUB AND PUSH32 0xDDF252AD1BE2C89B69C2B068FC378DAA952BA7F163C4A11628F55A4DF523B3EF DUP4 PUSH1 0x40 MLOAD PUSH2 0xB72 SWAP2 DUP2 MSTORE PUSH1 0x20 ADD SWAP1 JUMP JUMPDEST PUSH1 0x40 MLOAD DUP1 SWAP2 SUB SWAP1 LOG3 POP POP POP JUMP JUMPDEST PUSH2 0xBAB PUSH32 0x0 DUP4 ADDRESS DUP5 PUSH2 0xD1E JUMP JUMPDEST POP POP JUMP JUMPDEST PUSH1 0x1 PUSH1 0x1 PUSH1 0xA0 SHL SUB DUP3 AND PUSH2 0xBD8 JUMPI PUSH1 0x40 MLOAD PUSH4 0xEC442F05 PUSH1 0xE0 SHL DUP2 MSTORE PUSH0 PUSH1 0x4 DUP3 ADD MSTORE PUSH1 0x24 ADD PUSH2 0x557 JUMP JUMPDEST PUSH2 0xBAB PUSH0 DUP4 DUP4 PUSH2 0xA6C JUMP JUMPDEST PUSH1 0x1 PUSH1 0x1 PUSH1 0xA0 SHL SUB DUP3 AND PUSH2 0xC0C JUMPI PUSH1 0x40 MLOAD PUSH4 0x4B637E8F PUSH1 0xE1 SHL DUP2 MSTORE PUSH0 PUSH1 0x4 DUP3 ADD MSTORE PUSH1 0x24 ADD PUSH2 0x557 JUMP JUMPDEST PUSH2 0xBAB DUP3 PUSH0 DUP4 PUSH2 0xA6C JUMP JUMPDEST PUSH2 0xBAB PUSH32 0x0 DUP4 DUP4 PUSH2 0xD54 JUMP JUMPDEST PUSH0 PUSH1 0x2 DUP3 PUSH1 0x3 DUP2 GT ISZERO PUSH2 0xC57 JUMPI PUSH2 0xC57 PUSH2 0x11A7 JUMP JUMPDEST PUSH2 0xC61 SWAP2 SWAP1 PUSH2 0x11BB JUMP JUMPDEST PUSH1 0xFF AND PUSH1 0x1 EQ SWAP1 POP SWAP2 SWAP1 POP JUMP JUMPDEST PUSH0 PUSH0 PUSH0 PUSH2 0xC7B DUP7 DUP7 PUSH2 0xD89 JUMP JUMPDEST SWAP2 POP SWAP2 POP DUP2 PUSH0 SUB PUSH2 0xC9F JUMPI DUP4 DUP2 DUP2 PUSH2 0xC95 JUMPI PUSH2 0xC95 PUSH2 0x1193 JUMP JUMPDEST DIV SWAP3 POP POP POP PUSH2 0x51D JUMP JUMPDEST DUP2 DUP5 GT PUSH2 0xCB6 JUMPI PUSH2 0xCB6 PUSH1 0x3 DUP6 ISZERO MUL PUSH1 0x11 XOR PUSH2 0xDA5 JUMP JUMPDEST PUSH0 DUP5 DUP7 DUP9 MULMOD PUSH0 DUP7 DUP2 SUB DUP8 AND SWAP7 DUP8 SWAP1 DIV SWAP7 PUSH1 0x2 PUSH1 0x3 DUP10 MUL DUP2 XOR DUP1 DUP11 MUL DUP3 SUB MUL DUP1 DUP11 MUL DUP3 SUB MUL DUP1 DUP11 MUL DUP3 SUB MUL DUP1 DUP11 MUL DUP3 SUB MUL DUP1 DUP11 MUL DUP3 SUB MUL DUP1 DUP11 MUL SWAP1 SWAP2 SUB MUL SWAP2 DUP2 SWAP1 SUB DUP2 SWAP1 DIV PUSH1 0x1 ADD DUP6 DUP5 GT SWAP1 SWAP7 SUB SWAP6 SWAP1 SWAP6 MUL SWAP2 SWAP1 SWAP4 SUB SWAP4 SWAP1 SWAP4 DIV SWAP3 SWAP1 SWAP3 OR MUL SWAP2 POP POP SWAP4 SWAP3 POP POP POP JUMP JUMPDEST PUSH2 0xD2C DUP5 DUP5 DUP5 DUP5 PUSH1 0x1 PUSH2 0xDB6 JUMP JUMPDEST PUSH2 0x7F4 JUMPI PUSH1 0x40 MLOAD PUSH4 0x5274AFE7 PUSH1 0xE0 SHL DUP2 MSTORE PUSH1 0x1 PUSH1 0x1 PUSH1 0xA0 SHL SUB DUP6 AND PUSH1 0x4 DUP3 ADD MSTORE PUSH1 0x24 ADD PUSH2 0x557 JUMP JUMPDEST PUSH2 0xD61 DUP4 DUP4 DUP4 PUSH1 0x1 PUSH2 0xE23 JUMP JUMPDEST PUSH2 0x75D JUMPI PUSH1 0x40 MLOAD PUSH4 0x5274AFE7 PUSH1 0xE0 SHL DUP2 MSTORE PUSH1 0x1 PUSH1 0x1 PUSH1 0xA0 SHL SUB DUP5 AND PUSH1 0x4 DUP3 ADD MSTORE PUSH1 0x24 ADD PUSH2 0x557 JUMP JUMPDEST PUSH0 DUP1 PUSH0 NOT DUP4 DUP6 MULMOD SWAP4 SWAP1 SWAP3 MUL DUP1 DUP5 LT SWAP4 DUP2 SWAP1 SUB SWAP4 SWAP1 SWAP4 SUB SWAP4 SWAP2 POP POP JUMP JUMPDEST PUSH4 0x4E487B71 PUSH0 MSTORE DUP1 PUSH1 0x20 MSTORE PUSH1 0x24 PUSH1 0x1C REVERT JUMPDEST PUSH1 0x40 MLOAD PUSH4 0x23B872DD PUSH1 0xE0 SHL PUSH0 DUP2 DUP2 MSTORE PUSH1 0x1 PUSH1 0x1 PUSH1 0xA0 SHL SUB DUP8 DUP2 AND PUSH1 0x4 MSTORE DUP7 AND PUSH1 0x24 MSTORE PUSH1 0x44 DUP6 SWAP1 MSTORE SWAP2 PUSH1 0x20 DUP4 PUSH1 0x64 DUP2 DUP1 DUP13 GAS CALL SWAP3 POP PUSH1 0x1 PUSH0 MLOAD EQ DUP4 AND PUSH2 0xE12 JUMPI DUP4 DUP4 ISZERO AND ISZERO PUSH2 0xE06 JUMPI RETURNDATASIZE PUSH0 DUP3 RETURNDATACOPY RETURNDATASIZE DUP2 REVERT JUMPDEST PUSH0 DUP9 EXTCODESIZE GT RETURNDATASIZE ISZERO AND DUP4 AND SWAP3 POP JUMPDEST PUSH1 0x40 MSTORE POP PUSH0 PUSH1 0x60 MSTORE SWAP6 SWAP5 POP POP POP POP POP JUMP JUMPDEST PUSH1 0x40 MLOAD PUSH4 0xA9059CBB PUSH1 0xE0 SHL PUSH0 DUP2 DUP2 MSTORE PUSH1 0x1 PUSH1 0x1 PUSH1 0xA0 SHL SUB DUP7 AND PUSH1 0x4 MSTORE PUSH1 0x24 DUP6 SWAP1 MSTORE SWAP2 PUSH1 0x20 DUP4 PUSH1 0x44 DUP2 DUP1 DUP12 GAS CALL SWAP3 POP PUSH1 0x1 PUSH0 MLOAD EQ DUP4 AND PUSH2 0xE79 JUMPI DUP4 DUP4 ISZERO AND ISZERO PUSH2 0xE6D JUMPI RETURNDATASIZE PUSH0 DUP3 RETURNDATACOPY RETURNDATASIZE DUP2 REVERT JUMPDEST PUSH0 DUP8 EXTCODESIZE GT RETURNDATASIZE ISZERO AND DUP4 AND SWAP3 POP JUMPDEST PUSH1 0x40 MSTORE POP SWAP5 SWAP4 POP POP POP POP JUMP JUMPDEST PUSH1 0x20 DUP2 MSTORE PUSH0 DUP3 MLOAD DUP1 PUSH1 0x20 DUP5 ADD MSTORE DUP1 PUSH1 0x20 DUP6 ADD PUSH1 0x40 DUP6 ADD MCOPY PUSH0 PUSH1 0x40 DUP3 DUP6 ADD ADD MSTORE PUSH1 0x40 PUSH1 0x1F NOT PUSH1 0x1F DUP4 ADD AND DUP5 ADD ADD SWAP2 POP POP SWAP3 SWAP2 POP POP JUMP JUMPDEST PUSH0 PUSH1 0x20 DUP3 DUP5 SUB SLT ISZERO PUSH2 0xECA JUMPI PUSH0 PUSH0 REVERT JUMPDEST POP CALLDATALOAD SWAP2 SWAP1 POP JUMP JUMPDEST DUP1 CALLDATALOAD PUSH1 0x1 PUSH1 0x1 PUSH1 0xA0 SHL SUB DUP2 AND DUP2 EQ PUSH2 0xEE7 JUMPI PUSH0 PUSH0 REVERT JUMPDEST SWAP2 SWAP1 POP JUMP JUMPDEST PUSH0 PUSH0 PUSH1 0x40 DUP4 DUP6 SUB SLT ISZERO PUSH2 0xEFD JUMPI PUSH0 PUSH0 REVERT JUMPDEST PUSH2 0xF06 DUP4 PUSH2 0xED1 JUMP JUMPDEST SWAP5 PUSH1 0x20 SWAP4 SWAP1 SWAP4 ADD CALLDATALOAD SWAP4 POP POP POP JUMP JUMPDEST PUSH0 PUSH0 PUSH0 PUSH1 0x60 DUP5 DUP7 SUB SLT ISZERO PUSH2 0xF26 JUMPI PUSH0 PUSH0 REVERT JUMPDEST PUSH2 0xF2F DUP5 PUSH2 0xED1 JUMP JUMPDEST SWAP3 POP PUSH2 0xF3D PUSH1 0x20 DUP6 ADD PUSH2 0xED1 JUMP JUMPDEST SWAP3 SWAP6 SWAP3 SWAP5 POP POP POP PUSH1 0x40 SWAP2 SWAP1 SWAP2 ADD CALLDATALOAD SWAP1 JUMP JUMPDEST PUSH0 PUSH1 0x20 DUP3 DUP5 SUB SLT ISZERO PUSH2 0xF5E JUMPI PUSH0 PUSH0 REVERT JUMPDEST PUSH2 0x51D DUP3 PUSH2 0xED1 JUMP JUMPDEST PUSH0 PUSH0 PUSH1 0x40 DUP4 DUP6 SUB SLT ISZERO PUSH2 0xF78 JUMPI PUSH0 PUSH0 REVERT JUMPDEST DUP3 CALLDATALOAD SWAP2 POP PUSH2 0xF88 PUSH1 0x20 DUP5 ADD PUSH2 0xED1 JUMP JUMPDEST SWAP1 POP SWAP3 POP SWAP3 SWAP1 POP JUMP JUMPDEST PUSH0 PUSH0 PUSH0 PUSH1 0x60 DUP5 DUP7 SUB SLT ISZERO PUSH2 0xFA3 JUMPI PUSH0 PUSH0 REVERT JUMPDEST DUP4 CALLDATALOAD SWAP3 POP PUSH2 0xFB3 PUSH1 0x20 DUP6 ADD PUSH2 0xED1 JUMP JUMPDEST SWAP2 POP PUSH2 0xFC1 PUSH1 0x40 DUP6 ADD PUSH2 0xED1 JUMP JUMPDEST SWAP1 POP SWAP3 POP SWAP3 POP SWAP3 JUMP JUMPDEST PUSH0 PUSH0 PUSH1 0x40 DUP4 DUP6 SUB SLT ISZERO PUSH2 0xFDB JUMPI PUSH0 PUSH0 REVERT JUMPDEST PUSH2 0xFE4 DUP4 PUSH2 0xED1 JUMP JUMPDEST SWAP2 POP PUSH2 0xF88 PUSH1 0x20 DUP5 ADD PUSH2 0xED1 JUMP JUMPDEST PUSH0 PUSH1 0x20 DUP3 DUP5 SUB SLT ISZERO PUSH2 0x1002 JUMPI PUSH0 PUSH0 REVERT JUMPDEST POP MLOAD SWAP2 SWAP1 POP JUMP JUMPDEST PUSH1 0x1 DUP2 DUP2 SHR SWAP1 DUP3 AND DUP1 PUSH2 0x101D JUMPI PUSH1 0x7F DUP3 AND SWAP2 POP JUMPDEST PUSH1 0x20 DUP3 LT DUP2 SUB PUSH2 0x103B JUMPI PUSH4 0x4E487B71 PUSH1 0xE0 SHL PUSH0 MSTORE PUSH1 0x22 PUSH1 0x4 MSTORE PUSH1 0x24 PUSH0 REVERT JUMPDEST POP SWAP2 SWAP1 POP JUMP JUMPDEST PUSH4 0x4E487B71 PUSH1 0xE0 SHL PUSH0 MSTORE PUSH1 0x11 PUSH1 0x4 MSTORE PUSH1 0x24 PUSH0 REVERT JUMPDEST PUSH1 0xFF DUP2 DUP2 AND DUP4 DUP3 AND ADD SWAP1 DUP2 GT ISZERO PUSH2 0x4D6 JUMPI PUSH2 0x4D6 PUSH2 0x1041 JUMP JUMPDEST PUSH1 0x1 PUSH1 0x1 PUSH1 0xA0 SHL SUB SWAP4 SWAP1 SWAP4 AND DUP4 MSTORE PUSH1 0x20 DUP4 ADD SWAP2 SWAP1 SWAP2 MSTORE PUSH1 0x40 DUP3 ADD MSTORE PUSH1 0x60 ADD SWAP1 JUMP JUMPDEST DUP1 DUP3 ADD DUP1 DUP3 GT ISZERO PUSH2 0x4D6 JUMPI PUSH2 0x4D6 PUSH2 0x1041 JUMP JUMPDEST PUSH1 0x1 DUP2 JUMPDEST PUSH1 0x1 DUP5 GT ISZERO PUSH2 0x10DD JUMPI DUP1 DUP6 DIV DUP2 GT ISZERO PUSH2 0x10C1 JUMPI PUSH2 0x10C1 PUSH2 0x1041 JUMP JUMPDEST PUSH1 0x1 DUP5 AND ISZERO PUSH2 0x10CF JUMPI SWAP1 DUP2 MUL SWAP1 JUMPDEST PUSH1 0x1 SWAP4 SWAP1 SWAP4 SHR SWAP3 DUP1 MUL PUSH2 0x10A6 JUMP JUMPDEST SWAP4 POP SWAP4 SWAP2 POP POP JUMP JUMPDEST PUSH0 DUP3 PUSH2 0x10F3 JUMPI POP PUSH1 0x1 PUSH2 0x4D6 JUMP JUMPDEST DUP2 PUSH2 0x10FF JUMPI POP PUSH0 PUSH2 0x4D6 JUMP JUMPDEST DUP2 PUSH1 0x1 DUP2 EQ PUSH2 0x1115 JUMPI PUSH1 0x2 DUP2 EQ PUSH2 0x111F JUMPI PUSH2 0x113B JUMP JUMPDEST PUSH1 0x1 SWAP2 POP POP PUSH2 0x4D6 JUMP JUMPDEST PUSH1 0xFF DUP5 GT ISZERO PUSH2 0x1130 JUMPI PUSH2 0x1130 PUSH2 0x1041 JUMP JUMPDEST POP POP PUSH1 0x1 DUP3 SHL PUSH2 0x4D6 JUMP JUMPDEST POP PUSH1 0x20 DUP4 LT PUSH2 0x133 DUP4 LT AND PUSH1 0x4E DUP5 LT PUSH1 0xB DUP5 LT AND OR ISZERO PUSH2 0x115E JUMPI POP DUP2 DUP2 EXP PUSH2 0x4D6 JUMP JUMPDEST PUSH2 0x116A PUSH0 NOT DUP5 DUP5 PUSH2 0x10A2 JUMP JUMPDEST DUP1 PUSH0 NOT DIV DUP3 GT ISZERO PUSH2 0x117D JUMPI PUSH2 0x117D PUSH2 0x1041 JUMP JUMPDEST MUL SWAP4 SWAP3 POP POP POP JUMP JUMPDEST PUSH0 PUSH2 0x51D PUSH1 0xFF DUP5 AND DUP4 PUSH2 0x10E5 JUMP JUMPDEST PUSH4 0x4E487B71 PUSH1 0xE0 SHL PUSH0 MSTORE PUSH1 0x12 PUSH1 0x4 MSTORE PUSH1 0x24 PUSH0 REVERT JUMPDEST PUSH4 0x4E487B71 PUSH1 0xE0 SHL PUSH0 MSTORE PUSH1 0x21 PUSH1 0x4 MSTORE PUSH1 0x24 PUSH0 REVERT JUMPDEST PUSH0 PUSH1 0xFF DUP4 AND DUP1 PUSH2 0x11D9 JUMPI PUSH4 0x4E487B71 PUSH1 0xE0 SHL PUSH0 MSTORE PUSH1 0x12 PUSH1 0x4 MSTORE PUSH1 0x24 PUSH0 REVERT JUMPDEST DUP1 PUSH1 0xFF DUP5 AND MOD SWAP2 POP POP SWAP3 SWAP2 POP POP JUMP INVALID LOG2 PUSH5 0x6970667358 0x22 SLT KECCAK256 0xDE SAR 0x23 0x4E 0xEC PUSH0 RETURN 0x2B 0xE7 0xC8 0xDD 0xBA RETURN 0xFC 0xD7 0xA9 BYTE 0xE8 0xDC PUSH22 0xFCA74C6DD55AA176F69D912564736F6C634300081C00 CALLER "},"methodIdentifiers":{"allowance(address,address)":"dd62ed3e","approve(address,uint256)":"095ea7b3","asset()":"38d52e0f","balanceOf(address)":"70a08231","convertToAssets(uint256)":"07a2d13a","convertToShares(uint256)":"c6e6f592","decimals()":"313ce567","deposit(uint256,address)":"6e553f65","maxDeposit(address)":"402d267d","maxMint(address)":"c63d75b6","maxRedeem(address)":"d905777e","maxWithdraw(address)":"ce96cb77","mint(uint256,address)":"94bf804d","name()":"06fdde03","previewDeposit(uint256)":"ef8b30f7","previewMint(uint256)":"b3d7f6b9","previewRedeem(uint256)":"4cdad506","previewWithdraw(uint256)":"0a28a477","redeem(uint256,address,address)":"ba087652","simulateYield(uint256)":"e7ca856d","symbol()":"95d89b41","totalAssets()":"01e1d114","totalSupply()":"18160ddd","transfer(address,uint256)":"a9059cbb","transferFrom(address,address,uint256)":"23b872dd","withdraw(uint256,address,address)":"b460af94"}}}}}