{"project/contracts/SmartRouter.sol":{"SmartRouter":{"abi":[{"inputs":[],"stateMutability":"nonpayable","type":"constructor"},{"inputs":[],"name":"AllowancePeriodNotMet","type":"error"},{"inputs":[],"name":"ExceedsMaxPercentage","type":"error"},{"inputs":[],"name":"InsufficientLockedShares","type":"error"},{"inputs":[],"name":"InsufficientSavedShares","type":"error"},{"inputs":[],"name":"InsufficientTreasuryShares","type":"error"},{"inputs":[],"name":"InvalidInitialization","type":"error"},{"inputs":[],"name":"InvalidPercentages","type":"error"},{"inputs":[],"name":"NotInitializing","type":"error"},{"inputs":[{"internalType":"address","name":"token","type":"address"}],"name":"SafeERC20FailedOperation","type":"error"},{"inputs":[],"name":"Unauthorized","type":"error"},{"inputs":[],"name":"VaultNotSupported","type":"error"},{"anonymous":false,"inputs":[{"indexed":true,"internalType":"address","name":"token","type":"address"},{"indexed":false,"internalType":"uint256","name":"amountClaimed","type":"uint256"},{"indexed":false,"internalType":"uint256","name":"sharesBurned","type":"uint256"}],"name":"AllowanceClaimed","type":"event"},{"anonymous":false,"inputs":[{"indexed":false,"internalType":"uint64","name":"version","type":"uint64"}],"name":"Initialized","type":"event"},{"anonymous":false,"inputs":[{"indexed":true,"internalType":"address","name":"token","type":"address"},{"indexed":false,"internalType":"uint256","name":"totalAmount","type":"uint256"},{"indexed":false,"internalType":"uint256","name":"operatingAmount","type":"uint256"},{"indexed":false,"internalType":"uint256","name":"treasurySharesMinted","type":"uint256"},{"indexed":false,"internalType":"uint256","name":"lockedSharesMinted","type":"uint256"}],"name":"PaymentProcessed","type":"event"},{"anonymous":false,"inputs":[{"indexed":true,"internalType":"address","name":"token","type":"address"},{"indexed":true,"internalType":"address","name":"recipient","type":"address"},{"indexed":false,"internalType":"uint256","name":"amountSent","type":"uint256"},{"indexed":false,"internalType":"uint256","name":"amountSaved","type":"uint256"},{"indexed":false,"internalType":"uint256","name":"sharesMinted","type":"uint256"}],"name":"PaymentSentAndSaved","type":"event"},{"anonymous":false,"inputs":[{"indexed":false,"internalType":"uint256","name":"newSavePct","type":"uint256"}],"name":"SavePctUpdated","type":"event"},{"anonymous":false,"inputs":[{"indexed":true,"internalType":"address","name":"token","type":"address"},{"indexed":false,"internalType":"uint256","name":"amountWithdrawn","type":"uint256"},{"indexed":false,"internalType":"uint256","name":"sharesBurned","type":"uint256"}],"name":"SavingsWithdrawn","type":"event"},{"anonymous":false,"inputs":[{"indexed":false,"internalType":"uint256","name":"operatingPct","type":"uint256"},{"indexed":false,"internalType":"uint256","name":"treasuryPct","type":"uint256"},{"indexed":false,"internalType":"uint256","name":"lockedPct","type":"uint256"},{"indexed":false,"internalType":"uint256","name":"allowanceAmount","type":"uint256"},{"indexed":false,"internalType":"uint256","name":"allowancePeriod","type":"uint256"}],"name":"SettingsUpdated","type":"event"},{"anonymous":false,"inputs":[{"indexed":true,"internalType":"address","name":"token","type":"address"},{"indexed":false,"internalType":"uint256","name":"amountWithdrawn","type":"uint256"},{"indexed":false,"internalType":"uint256","name":"sharesBurned","type":"uint256"}],"name":"TreasuryWithdrawn","type":"event"},{"inputs":[],"name":"allowanceAmount","outputs":[{"internalType":"uint256","name":"","type":"uint256"}],"stateMutability":"view","type":"function"},{"inputs":[],"name":"allowancePeriod","outputs":[{"internalType":"uint256","name":"","type":"uint256"}],"stateMutability":"view","type":"function"},{"inputs":[{"internalType":"address","name":"token","type":"address"}],"name":"claimAllowance","outputs":[],"stateMutability":"nonpayable","type":"function"},{"inputs":[],"name":"factory","outputs":[{"internalType":"address","name":"","type":"address"}],"stateMutability":"view","type":"function"},{"inputs":[{"internalType":"address","name":"token","type":"address"}],"name":"getSavingsValue","outputs":[{"internalType":"uint256","name":"principal","type":"uint256"},{"internalType":"uint256","name":"totalValue","type":"uint256"},{"internalType":"uint256","name":"yieldEarned","type":"uint256"}],"stateMutability":"view","type":"function"},{"inputs":[{"internalType":"address","name":"_owner","type":"address"},{"internalType":"address","name":"_factory","type":"address"},{"internalType":"uint256","name":"_operatingPct","type":"uint256"},{"internalType":"uint256","name":"_treasuryPct","type":"uint256"},{"internalType":"uint256","name":"_lockedPct","type":"uint256"},{"internalType":"uint256","name":"_allowanceAmount","type":"uint256"},{"internalType":"uint256","name":"_allowancePeriod","type":"uint256"}],"name":"initialize","outputs":[],"stateMutability":"nonpayable","type":"function"},{"inputs":[],"name":"lastAllowanceRelease","outputs":[{"internalType":"uint256","name":"","type":"uint256"}],"stateMutability":"view","type":"function"},{"inputs":[],"name":"lockedPct","outputs":[{"internalType":"uint256","name":"","type":"uint256"}],"stateMutability":"view","type":"function"},{"inputs":[],"name":"lockedShares","outputs":[{"internalType":"uint256","name":"","type":"uint256"}],"stateMutability":"view","type":"function"},{"inputs":[],"name":"operatingPct","outputs":[{"internalType":"uint256","name":"","type":"uint256"}],"stateMutability":"view","type":"function"},{"inputs":[],"name":"owner","outputs":[{"internalType":"address","name":"","type":"address"}],"stateMutability":"view","type":"function"},{"inputs":[{"internalType":"address","name":"token","type":"address"},{"internalType":"address","name":"recipient","type":"address"},{"internalType":"uint256","name":"amount","type":"uint256"}],"name":"payAndSave","outputs":[],"stateMutability":"nonpayable","type":"function"},{"inputs":[{"internalType":"address","name":"token","type":"address"}],"name":"processPayment","outputs":[],"stateMutability":"nonpayable","type":"function"},{"inputs":[],"name":"savePct","outputs":[{"internalType":"uint256","name":"","type":"uint256"}],"stateMutability":"view","type":"function"},{"inputs":[],"name":"savedPrincipal","outputs":[{"internalType":"uint256","name":"","type":"uint256"}],"stateMutability":"view","type":"function"},{"inputs":[],"name":"savedShares","outputs":[{"internalType":"uint256","name":"","type":"uint256"}],"stateMutability":"view","type":"function"},{"inputs":[],"name":"treasuryPct","outputs":[{"internalType":"uint256","name":"","type":"uint256"}],"stateMutability":"view","type":"function"},{"inputs":[],"name":"treasuryShares","outputs":[{"internalType":"uint256","name":"","type":"uint256"}],"stateMutability":"view","type":"function"},{"inputs":[{"internalType":"uint256","name":"_savePct","type":"uint256"}],"name":"updateSavePct","outputs":[],"stateMutability":"nonpayable","type":"function"},{"inputs":[{"internalType":"uint256","name":"_operatingPct","type":"uint256"},{"internalType":"uint256","name":"_treasuryPct","type":"uint256"},{"internalType":"uint256","name":"_lockedPct","type":"uint256"},{"internalType":"uint256","name":"_allowanceAmount","type":"uint256"},{"internalType":"uint256","name":"_allowancePeriod","type":"uint256"}],"name":"updateSettings","outputs":[],"stateMutability":"nonpayable","type":"function"},{"inputs":[{"internalType":"address","name":"token","type":"address"},{"internalType":"uint256","name":"amount","type":"uint256"}],"name":"withdrawSavings","outputs":[],"stateMutability":"nonpayable","type":"function"},{"inputs":[{"internalType":"address","name":"token","type":"address"},{"internalType":"uint256","name":"amount","type":"uint256"}],"name":"withdrawTreasury","outputs":[],"stateMutability":"nonpayable","type":"function"}],"evm":{"bytecode":{"linkReferences":{},"object":"6080604052348015600e575f5ffd5b5060156019565b60c9565b7ff0c57e16840df040f15088dc2f81fe391c3923bec73e23a9662efc9c229c6a00805468010000000000000000900460ff161560685760405163f92ee8a960e01b815260040160405180910390fd5b80546001600160401b039081161460c65780546001600160401b0319166001600160401b0390811782556040519081527fc7f505b2f371ae2175ee4913f4499e1f2633a7b5936321eed1cdaeb6115181d29060200160405180910390a15b50565b6117f5806100d65f395ff3fe608060405234801561000f575f5ffd5b506004361061013d575f3560e01c80639981f5f3116100b4578063baec8b0f11610079578063baec8b0f1461025e578063c45a015514610267578063c9671c331461027a578063e95502fb1461028d578063edbf4ac214610296578063f6d0bfa3146102a9575f5ffd5b80639981f5f31461020c578063a4949af614610215578063aab3ab9514610243578063acd78de41461024c578063aee7f09614610255575f5ffd5b806356137a5e1161010557806356137a5e14610197578063661d0d66146101aa57806372d7c5ce146101bd5780638da5cb5b146101c65780638fe123d7146101f0578063943f213f14610203575f5ffd5b80630d86419a1461014157806330c2c3b914610156578063375d69df1461016957806339382ab9146101855780633e4199cd1461018e575b5f5ffd5b61015461014f3660046115e8565b6102bc565b005b610154610164366004611612565b610507565b61017260055481565b6040519081526020015b60405180910390f35b61017260045481565b610172600b5481565b6101546101a5366004611649565b6105d5565b6101546101b836600461166b565b610828565b610172600c5481565b5f546101d8906001600160a01b031681565b6040516001600160a01b03909116815260200161017c565b6101546101fe366004611649565b6108ae565b61017260075481565b61017260035481565b610228610223366004611649565b610b85565b6040805193845260208401929092529082015260600161017c565b61017260065481565b61017260025481565b610172600a5481565b61017260085481565b6001546101d8906001600160a01b031681565b6101546102883660046115e8565b610ca4565b61017260095481565b6101546102a4366004611682565b610f94565b6101546102b73660046116df565b61110c565b5f546001600160a01b031633146102e5576040516282b42960e81b815260040160405180910390fd5b6001546040516301d735e760e31b81526001600160a01b0384811660048301525f921690630eb9af3890602401602060405180830381865afa15801561032d573d5f5f3e3d5ffd5b505050506040513d601f19601f82011682018060405250810190610351919061171d565b90506001600160a01b03811661037a57604051630434df1960e51b815260040160405180910390fd5b805f6001840161038d5750600854610419565b604051630a28a47760e01b8152600481018590526001600160a01b03831690630a28a47790602401602060405180830381865afa1580156103d0573d5f5f3e3d5ffd5b505050506040513d601f19601f820116820180604052508101906103f49190611738565b9050600854811115610419576040516335389bb760e21b815260040160405180910390fd5b805f03610427575050505050565b8060085f8282546104389190611763565b90915550505f8054604051635d043b2960e11b8152600481018490526001600160a01b0391821660248201523060448201529084169063ba087652906064016020604051808303815f875af1158015610493573d5f5f3e3d5ffd5b505050506040513d601f19601f820116820180604052508101906104b79190611738565b60408051828152602081018590529192506001600160a01b038816917fca7c146a476020a9685b6af4c572d3e244456e8d02dad016e5ed59ff64a2fdd9910160405180910390a2505050505b5050565b5f546001600160a01b03163314610530576040516282b42960e81b815260040160405180910390fd5b8261053b8587611776565b6105459190611776565b6127101461056657604051636d2fd3c960e01b815260040160405180910390fd5b60028590556003849055600483905560058290556006819055604080518681526020810186905290810184905260608101839052608081018290527fab98f6a91485c352fb01422a5fe72d10488727444633a4110d7716c51d5117719060a00160405180910390a15050505050565b6006546007546105e59190611776565b42101561060557604051630529bc3360e11b815260040160405180910390fd5b6005545f036106115750565b6001546040516301d735e760e31b81526001600160a01b0383811660048301525f921690630eb9af3890602401602060405180830381865afa158015610659573d5f5f3e3d5ffd5b505050506040513d601f19601f8201168201806040525081019061067d919061171d565b90506001600160a01b0381166106a657604051630434df1960e51b815260040160405180910390fd5b600554604051630a28a47760e01b8152600481019190915281905f906001600160a01b03831690630a28a47790602401602060405180830381865afa1580156106f1573d5f5f3e3d5ffd5b505050506040513d601f19601f820116820180604052508101906107159190611738565b905060095481111561072657506009545b805f03610746576040516389206fd560e01b815260040160405180910390fd5b8060095f8282546107579190611763565b9091555050426007555f8054604051635d043b2960e11b8152600481018490526001600160a01b0391821660248201523060448201529084169063ba087652906064016020604051808303815f875af11580156107b6573d5f5f3e3d5ffd5b505050506040513d601f19601f820116820180604052508101906107da9190611738565b60408051828152602081018590529192506001600160a01b038716917fe7cc88d9e42671078205d391c6b754aea00a5faa1d2e50ded3f7139500f2f98c910160405180910390a25050505050565b5f546001600160a01b03163314610851576040516282b42960e81b815260040160405180910390fd5b612710811115610873576040516253709f60e01b815260040160405180910390fd5b600a8190556040518181527f88e3d44810ace986c49a4b1737e3951ca5b42c4ecb5611219a3c38086cc129b79060200160405180910390a150565b6040516370a0823160e01b81523060048201525f906001600160a01b038316906370a0823190602401602060405180830381865afa1580156108f2573d5f5f3e3d5ffd5b505050506040513d601f19601f820116820180604052508101906109169190611738565b9050805f03610923575050565b5f612710600254836109359190611789565b61093f91906117a0565b90505f612710600354846109539190611789565b61095d91906117a0565b90505f8161096b8486611763565b6109759190611763565b90508215610996575f54610996906001600160a01b0387811691168561133a565b5f6109a18284611776565b90505f808215610b28576001546040516301d735e760e31b81526001600160a01b038a811660048301525f921690630eb9af3890602401602060405180830381865afa1580156109f3573d5f5f3e3d5ffd5b505050506040513d601f19601f82011682018060405250810190610a17919061171d565b90506001600160a01b038116610a4057604051630434df1960e51b815260040160405180910390fd5b80610a556001600160a01b038b168287611379565b604051636e553f6560e01b8152600481018690523060248201525f906001600160a01b03831690636e553f65906044016020604051808303815f875af1158015610aa1573d5f5f3e3d5ffd5b505050506040513d601f19601f82011682018060405250810190610ac59190611738565b90508715610afb5785610ad88983611789565b610ae291906117a0565b94508460085f828254610af59190611776565b90915550505b8615610b2457610b0b8582611763565b93508360095f828254610b1e9190611776565b90915550505b5050505b6040805188815260208101889052908101839052606081018290526001600160a01b038916907ff2c7c61aab9019a0417876fee95ea2ce79b2da32f8f2b41271429475b2cf4c239060800160405180910390a25050505050505050565b600b54600c545f90819015610c81576001546040516301d735e760e31b81526001600160a01b0386811660048301525f921690630eb9af3890602401602060405180830381865afa158015610bdc573d5f5f3e3d5ffd5b505050506040513d601f19601f82011682018060405250810190610c00919061171d565b90506001600160a01b03811615610c7f57600c5460405163266d6a8360e11b815260048101919091526001600160a01b03821690634cdad50690602401602060405180830381865afa158015610c58573d5f5f3e3d5ffd5b505050506040513d601f19601f82011682018060405250810190610c7c9190611738565b92505b505b82821115610c9a57610c938383611763565b9050610c9d565b505f5b9193909250565b5f546001600160a01b03163314610ccd576040516282b42960e81b815260040160405180910390fd5b8015610503576001546040516301d735e760e31b81526001600160a01b0384811660048301525f921690630eb9af3890602401602060405180830381865afa158015610d1b573d5f5f3e3d5ffd5b505050506040513d601f19601f82011682018060405250810190610d3f919061171d565b90506001600160a01b038116610d6857604051630434df1960e51b815260040160405180910390fd5b805f60018401610de45750600c5460405163266d6a8360e11b8152600481018290526001600160a01b03831690634cdad50690602401602060405180830381865afa158015610db9573d5f5f3e3d5ffd5b505050506040513d601f19601f82011682018060405250810190610ddd9190611738565b9350610e70565b604051630a28a47760e01b8152600481018590526001600160a01b03831690630a28a47790602401602060405180830381865afa158015610e27573d5f5f3e3d5ffd5b505050506040513d601f19601f82011682018060405250810190610e4b9190611738565b9050600c54811115610e705760405163fec82cd760e01b815260040160405180910390fd5b805f03610e7e575050505050565b5f600c54600b5483610e909190611789565b610e9a91906117a0565b905080600b5f828254610ead9190611763565b9250508190555081600c5f828254610ec59190611763565b90915550505f8054604051635d043b2960e11b8152600481018590526001600160a01b0391821660248201523060448201529085169063ba087652906064016020604051808303815f875af1158015610f20573d5f5f3e3d5ffd5b505050506040513d601f19601f82011682018060405250810190610f449190611738565b60408051828152602081018690529192506001600160a01b038916917f93da32e64263d25ace24ccb77425144ddc5d0dd0f4dfc1d3bc6ff0114ac7049a910160405180910390a250505050505050565b5f610f9d611406565b805490915060ff600160401b820416159067ffffffffffffffff165f81158015610fc45750825b90505f8267ffffffffffffffff166001148015610fe05750303b155b905081158015610fee575080155b1561100c5760405163f92ee8a960e01b815260040160405180910390fd5b845467ffffffffffffffff19166001178555831561103657845460ff60401b1916600160401b1785555b5f80546001600160a01b03808f166001600160a01b03199283161790925560018054928e1692909116919091179055876110708a8c611776565b61107a9190611776565b6127101461109b57604051636d2fd3c960e01b815260040160405180910390fd5b60028a905560038990556004889055600587905560068690554260075583156110fe57845460ff60401b19168555604051600181527fc7f505b2f371ae2175ee4913f4499e1f2633a7b5936321eed1cdaeb6115181d29060200160405180910390a15b505050505050505050505050565b5f546001600160a01b03163314611135576040516282b42960e81b815260040160405180910390fd5b5f612710600a54836111479190611789565b61115191906117a0565b90505f61115e8284611776565b5f5490915061117b906001600160a01b0387811691163084611430565b61118f6001600160a01b038616858561133a565b5f82156112e1576001546040516301d735e760e31b81526001600160a01b0388811660048301525f921690630eb9af3890602401602060405180830381865afa1580156111de573d5f5f3e3d5ffd5b505050506040513d601f19601f82011682018060405250810190611202919061171d565b90506001600160a01b03811661122b57604051630434df1960e51b815260040160405180910390fd5b806112406001600160a01b0389168287611379565b604051636e553f6560e01b8152600481018690523060248201526001600160a01b03821690636e553f65906044016020604051808303815f875af115801561128a573d5f5f3e3d5ffd5b505050506040513d601f19601f820116820180604052508101906112ae9190611738565b925084600b5f8282546112c19190611776565b9250508190555082600c5f8282546112d99190611776565b909155505050505b60408051858152602081018590529081018290526001600160a01b0380871691908816907f6b1716847a6a1a5b10db02f856b217aafb323fba68d1e0fc63f313d592cf81d19060600160405180910390a3505050505050565b6113478383836001611466565b61137457604051635274afe760e01b81526001600160a01b03841660048201526024015b60405180910390fd5b505050565b604051636eb1769f60e11b81523060048201526001600160a01b0383811660248301525f919085169063dd62ed3e90604401602060405180830381865afa1580156113c6573d5f5f3e3d5ffd5b505050506040513d601f19601f820116820180604052508101906113ea9190611738565b905061140084846113fb8585611776565b6114c8565b50505050565b5f807ff0c57e16840df040f15088dc2f81fe391c3923bec73e23a9662efc9c229c6a005b92915050565b61143e84848484600161151a565b61140057604051635274afe760e01b81526001600160a01b038516600482015260240161136b565b60405163a9059cbb60e01b5f8181526001600160a01b038616600452602485905291602083604481808b5af1925060015f511483166114bc5783831516156114b0573d5f823e3d81fd5b5f873b113d1516831692505b60405250949350505050565b6114d48383835f611587565b611374576114e583835f6001611587565b61150d57604051635274afe760e01b81526001600160a01b038416600482015260240161136b565b6113478383836001611587565b6040516323b872dd60e01b5f8181526001600160a01b038781166004528616602452604485905291602083606481808c5af1925060015f5114831661157657838315161561156a573d5f823e3d81fd5b5f883b113d1516831692505b604052505f60605295945050505050565b60405163095ea7b360e01b5f8181526001600160a01b038616600452602485905291602083604481808b5af1925060015f511483166114bc5783831516156114b0573d5f823e3d81fd5b6001600160a01b03811681146115e5575f5ffd5b50565b5f5f604083850312156115f9575f5ffd5b8235611604816115d1565b946020939093013593505050565b5f5f5f5f5f60a08688031215611626575f5ffd5b505083359560208501359550604085013594606081013594506080013592509050565b5f60208284031215611659575f5ffd5b8135611664816115d1565b9392505050565b5f6020828403121561167b575f5ffd5b5035919050565b5f5f5f5f5f5f5f60e0888a031215611698575f5ffd5b87356116a3816115d1565b965060208801356116b3816115d1565b96999698505050506040850135946060810135946080820135945060a0820135935060c0909101359150565b5f5f5f606084860312156116f1575f5ffd5b83356116fc816115d1565b9250602084013561170c816115d1565b929592945050506040919091013590565b5f6020828403121561172d575f5ffd5b8151611664816115d1565b5f60208284031215611748575f5ffd5b5051919050565b634e487b7160e01b5f52601160045260245ffd5b8181038181111561142a5761142a61174f565b8082018082111561142a5761142a61174f565b808202811582820484141761142a5761142a61174f565b5f826117ba57634e487b7160e01b5f52601260045260245ffd5b50049056fea26469706673582212202d48d33ae814c2fb060ef2b0c736eec91f65409a66be9e3ae6128b82cadd8a4764736f6c634300081c0033","opcodes":"PUSH1 0x80 PUSH1 0x40 MSTORE CALLVALUE DUP1 ISZERO PUSH1 0xE JUMPI PUSH0 PUSH0 REVERT JUMPDEST POP PUSH1 0x15 PUSH1 0x19 JUMP JUMPDEST PUSH1 0xC9 JUMP JUMPDEST PUSH32 0xF0C57E16840DF040F15088DC2F81FE391C3923BEC73E23A9662EFC9C229C6A00 DUP1 SLOAD PUSH9 0x10000000000000000 SWAP1 DIV PUSH1 0xFF AND ISZERO PUSH1 0x68 JUMPI PUSH1 0x40 MLOAD PUSH4 0xF92EE8A9 PUSH1 0xE0 SHL DUP2 MSTORE PUSH1 0x4 ADD PUSH1 0x40 MLOAD DUP1 SWAP2 SUB SWAP1 REVERT JUMPDEST DUP1 SLOAD PUSH1 0x1 PUSH1 0x1 PUSH1 0x40 SHL SUB SWAP1 DUP2 AND EQ PUSH1 0xC6 JUMPI DUP1 SLOAD PUSH1 0x1 PUSH1 0x1 PUSH1 0x40 SHL SUB NOT AND PUSH1 0x1 PUSH1 0x1 PUSH1 0x40 SHL SUB SWAP1 DUP2 OR DUP3 SSTORE PUSH1 0x40 MLOAD SWAP1 DUP2 MSTORE PUSH32 0xC7F505B2F371AE2175EE4913F4499E1F2633A7B5936321EED1CDAEB6115181D2 SWAP1 PUSH1 0x20 ADD PUSH1 0x40 MLOAD DUP1 SWAP2 SUB SWAP1 LOG1 JUMPDEST POP JUMP JUMPDEST PUSH2 0x17F5 DUP1 PUSH2 0xD6 PUSH0 CODECOPY PUSH0 RETURN INVALID PUSH1 0x80 PUSH1 0x40 MSTORE CALLVALUE DUP1 ISZERO PUSH2 0xF JUMPI PUSH0 PUSH0 REVERT JUMPDEST POP PUSH1 0x4 CALLDATASIZE LT PUSH2 0x13D JUMPI PUSH0 CALLDATALOAD PUSH1 0xE0 SHR DUP1 PUSH4 0x9981F5F3 GT PUSH2 0xB4 JUMPI DUP1 PUSH4 0xBAEC8B0F GT PUSH2 0x79 JUMPI DUP1 PUSH4 0xBAEC8B0F EQ PUSH2 0x25E JUMPI DUP1 PUSH4 0xC45A0155 EQ PUSH2 0x267 JUMPI DUP1 PUSH4 0xC9671C33 EQ PUSH2 0x27A JUMPI DUP1 PUSH4 0xE95502FB EQ PUSH2 0x28D JUMPI DUP1 PUSH4 0xEDBF4AC2 EQ PUSH2 0x296 JUMPI DUP1 PUSH4 0xF6D0BFA3 EQ PUSH2 0x2A9 JUMPI PUSH0 PUSH0 REVERT JUMPDEST DUP1 PUSH4 0x9981F5F3 EQ PUSH2 0x20C JUMPI DUP1 PUSH4 0xA4949AF6 EQ PUSH2 0x215 JUMPI DUP1 PUSH4 0xAAB3AB95 EQ PUSH2 0x243 JUMPI DUP1 PUSH4 0xACD78DE4 EQ PUSH2 0x24C JUMPI DUP1 PUSH4 0xAEE7F096 EQ PUSH2 0x255 JUMPI PUSH0 PUSH0 REVERT JUMPDEST DUP1 PUSH4 0x56137A5E GT PUSH2 0x105 JUMPI DUP1 PUSH4 0x56137A5E EQ PUSH2 0x197 JUMPI DUP1 PUSH4 0x661D0D66 EQ PUSH2 0x1AA JUMPI DUP1 PUSH4 0x72D7C5CE EQ PUSH2 0x1BD JUMPI DUP1 PUSH4 0x8DA5CB5B EQ PUSH2 0x1C6 JUMPI DUP1 PUSH4 0x8FE123D7 EQ PUSH2 0x1F0 JUMPI DUP1 PUSH4 0x943F213F EQ PUSH2 0x203 JUMPI PUSH0 PUSH0 REVERT JUMPDEST DUP1 PUSH4 0xD86419A EQ PUSH2 0x141 JUMPI DUP1 PUSH4 0x30C2C3B9 EQ PUSH2 0x156 JUMPI DUP1 PUSH4 0x375D69DF EQ PUSH2 0x169 JUMPI DUP1 PUSH4 0x39382AB9 EQ PUSH2 0x185 JUMPI DUP1 PUSH4 0x3E4199CD EQ PUSH2 0x18E JUMPI JUMPDEST PUSH0 PUSH0 REVERT JUMPDEST PUSH2 0x154 PUSH2 0x14F CALLDATASIZE PUSH1 0x4 PUSH2 0x15E8 JUMP JUMPDEST PUSH2 0x2BC JUMP JUMPDEST STOP JUMPDEST PUSH2 0x154 PUSH2 0x164 CALLDATASIZE PUSH1 0x4 PUSH2 0x1612 JUMP JUMPDEST PUSH2 0x507 JUMP JUMPDEST PUSH2 0x172 PUSH1 0x5 SLOAD DUP2 JUMP JUMPDEST PUSH1 0x40 MLOAD SWAP1 DUP2 MSTORE PUSH1 0x20 ADD JUMPDEST PUSH1 0x40 MLOAD DUP1 SWAP2 SUB SWAP1 RETURN JUMPDEST PUSH2 0x172 PUSH1 0x4 SLOAD DUP2 JUMP JUMPDEST PUSH2 0x172 PUSH1 0xB SLOAD DUP2 JUMP JUMPDEST PUSH2 0x154 PUSH2 0x1A5 CALLDATASIZE PUSH1 0x4 PUSH2 0x1649 JUMP JUMPDEST PUSH2 0x5D5 JUMP JUMPDEST PUSH2 0x154 PUSH2 0x1B8 CALLDATASIZE PUSH1 0x4 PUSH2 0x166B JUMP JUMPDEST PUSH2 0x828 JUMP JUMPDEST PUSH2 0x172 PUSH1 0xC SLOAD DUP2 JUMP JUMPDEST PUSH0 SLOAD PUSH2 0x1D8 SWAP1 PUSH1 0x1 PUSH1 0x1 PUSH1 0xA0 SHL SUB AND DUP2 JUMP JUMPDEST PUSH1 0x40 MLOAD PUSH1 0x1 PUSH1 0x1 PUSH1 0xA0 SHL SUB SWAP1 SWAP2 AND DUP2 MSTORE PUSH1 0x20 ADD PUSH2 0x17C JUMP JUMPDEST PUSH2 0x154 PUSH2 0x1FE CALLDATASIZE PUSH1 0x4 PUSH2 0x1649 JUMP JUMPDEST PUSH2 0x8AE JUMP JUMPDEST PUSH2 0x172 PUSH1 0x7 SLOAD DUP2 JUMP JUMPDEST PUSH2 0x172 PUSH1 0x3 SLOAD DUP2 JUMP JUMPDEST PUSH2 0x228 PUSH2 0x223 CALLDATASIZE PUSH1 0x4 PUSH2 0x1649 JUMP JUMPDEST PUSH2 0xB85 JUMP JUMPDEST PUSH1 0x40 DUP1 MLOAD SWAP4 DUP5 MSTORE PUSH1 0x20 DUP5 ADD SWAP3 SWAP1 SWAP3 MSTORE SWAP1 DUP3 ADD MSTORE PUSH1 0x60 ADD PUSH2 0x17C JUMP JUMPDEST PUSH2 0x172 PUSH1 0x6 SLOAD DUP2 JUMP JUMPDEST PUSH2 0x172 PUSH1 0x2 SLOAD DUP2 JUMP JUMPDEST PUSH2 0x172 PUSH1 0xA SLOAD DUP2 JUMP JUMPDEST PUSH2 0x172 PUSH1 0x8 SLOAD DUP2 JUMP JUMPDEST PUSH1 0x1 SLOAD PUSH2 0x1D8 SWAP1 PUSH1 0x1 PUSH1 0x1 PUSH1 0xA0 SHL SUB AND DUP2 JUMP JUMPDEST PUSH2 0x154 PUSH2 0x288 CALLDATASIZE PUSH1 0x4 PUSH2 0x15E8 JUMP JUMPDEST PUSH2 0xCA4 JUMP JUMPDEST PUSH2 0x172 PUSH1 0x9 SLOAD DUP2 JUMP JUMPDEST PUSH2 0x154 PUSH2 0x2A4 CALLDATASIZE PUSH1 0x4 PUSH2 0x1682 JUMP JUMPDEST PUSH2 0xF94 JUMP JUMPDEST PUSH2 0x154 PUSH2 0x2B7 CALLDATASIZE PUSH1 0x4 PUSH2 0x16DF JUMP JUMPDEST PUSH2 0x110C JUMP JUMPDEST PUSH0 SLOAD PUSH1 0x1 PUSH1 0x1 PUSH1 0xA0 SHL SUB AND CALLER EQ PUSH2 0x2E5 JUMPI PUSH1 0x40 MLOAD PUSH3 0x82B429 PUSH1 0xE8 SHL DUP2 MSTORE PUSH1 0x4 ADD PUSH1 0x40 MLOAD DUP1 SWAP2 SUB SWAP1 REVERT JUMPDEST PUSH1 0x1 SLOAD PUSH1 0x40 MLOAD PUSH4 0x1D735E7 PUSH1 0xE3 SHL DUP2 MSTORE PUSH1 0x1 PUSH1 0x1 PUSH1 0xA0 SHL SUB DUP5 DUP2 AND PUSH1 0x4 DUP4 ADD MSTORE PUSH0 SWAP3 AND SWAP1 PUSH4 0xEB9AF38 SWAP1 PUSH1 0x24 ADD PUSH1 0x20 PUSH1 0x40 MLOAD DUP1 DUP4 SUB DUP2 DUP7 GAS STATICCALL ISZERO DUP1 ISZERO PUSH2 0x32D JUMPI RETURNDATASIZE PUSH0 PUSH0 RETURNDATACOPY RETURNDATASIZE PUSH0 REVERT JUMPDEST POP POP POP POP PUSH1 0x40 MLOAD RETURNDATASIZE PUSH1 0x1F NOT PUSH1 0x1F DUP3 ADD AND DUP3 ADD DUP1 PUSH1 0x40 MSTORE POP DUP2 ADD SWAP1 PUSH2 0x351 SWAP2 SWAP1 PUSH2 0x171D JUMP JUMPDEST SWAP1 POP PUSH1 0x1 PUSH1 0x1 PUSH1 0xA0 SHL SUB DUP2 AND PUSH2 0x37A JUMPI PUSH1 0x40 MLOAD PUSH4 0x434DF19 PUSH1 0xE5 SHL DUP2 MSTORE PUSH1 0x4 ADD PUSH1 0x40 MLOAD DUP1 SWAP2 SUB SWAP1 REVERT JUMPDEST DUP1 PUSH0 PUSH1 0x1 DUP5 ADD PUSH2 0x38D JUMPI POP PUSH1 0x8 SLOAD PUSH2 0x419 JUMP JUMPDEST PUSH1 0x40 MLOAD PUSH4 0xA28A477 PUSH1 0xE0 SHL DUP2 MSTORE PUSH1 0x4 DUP2 ADD DUP6 SWAP1 MSTORE PUSH1 0x1 PUSH1 0x1 PUSH1 0xA0 SHL SUB DUP4 AND SWAP1 PUSH4 0xA28A477 SWAP1 PUSH1 0x24 ADD PUSH1 0x20 PUSH1 0x40 MLOAD DUP1 DUP4 SUB DUP2 DUP7 GAS STATICCALL ISZERO DUP1 ISZERO PUSH2 0x3D0 JUMPI RETURNDATASIZE PUSH0 PUSH0 RETURNDATACOPY RETURNDATASIZE PUSH0 REVERT JUMPDEST POP POP POP POP PUSH1 0x40 MLOAD RETURNDATASIZE PUSH1 0x1F NOT PUSH1 0x1F DUP3 ADD AND DUP3 ADD DUP1 PUSH1 0x40 MSTORE POP DUP2 ADD SWAP1 PUSH2 0x3F4 SWAP2 SWAP1 PUSH2 0x1738 JUMP JUMPDEST SWAP1 POP PUSH1 0x8 SLOAD DUP2 GT ISZERO PUSH2 0x419 JUMPI PUSH1 0x40 MLOAD PUSH4 0x35389BB7 PUSH1 0xE2 SHL DUP2 MSTORE PUSH1 0x4 ADD PUSH1 0x40 MLOAD DUP1 SWAP2 SUB SWAP1 REVERT JUMPDEST DUP1 PUSH0 SUB PUSH2 0x427 JUMPI POP POP POP POP POP JUMP JUMPDEST DUP1 PUSH1 0x8 PUSH0 DUP3 DUP3 SLOAD PUSH2 0x438 SWAP2 SWAP1 PUSH2 0x1763 JUMP JUMPDEST SWAP1 SWAP2 SSTORE POP POP PUSH0 DUP1 SLOAD PUSH1 0x40 MLOAD PUSH4 0x5D043B29 PUSH1 0xE1 SHL DUP2 MSTORE PUSH1 0x4 DUP2 ADD DUP5 SWAP1 MSTORE PUSH1 0x1 PUSH1 0x1 PUSH1 0xA0 SHL SUB SWAP2 DUP3 AND PUSH1 0x24 DUP3 ADD MSTORE ADDRESS PUSH1 0x44 DUP3 ADD MSTORE SWAP1 DUP5 AND SWAP1 PUSH4 0xBA087652 SWAP1 PUSH1 0x64 ADD PUSH1 0x20 PUSH1 0x40 MLOAD DUP1 DUP4 SUB DUP2 PUSH0 DUP8 GAS CALL ISZERO DUP1 ISZERO PUSH2 0x493 JUMPI RETURNDATASIZE PUSH0 PUSH0 RETURNDATACOPY RETURNDATASIZE PUSH0 REVERT JUMPDEST POP POP POP POP PUSH1 0x40 MLOAD RETURNDATASIZE PUSH1 0x1F NOT PUSH1 0x1F DUP3 ADD AND DUP3 ADD DUP1 PUSH1 0x40 MSTORE POP DUP2 ADD SWAP1 PUSH2 0x4B7 SWAP2 SWAP1 PUSH2 0x1738 JUMP JUMPDEST PUSH1 0x40 DUP1 MLOAD DUP3 DUP2 MSTORE PUSH1 0x20 DUP2 ADD DUP6 SWAP1 MSTORE SWAP2 SWAP3 POP PUSH1 0x1 PUSH1 0x1 PUSH1 0xA0 SHL SUB DUP9 AND SWAP2 PUSH32 0xCA7C146A476020A9685B6AF4C572D3E244456E8D02DAD016E5ED59FF64A2FDD9 SWAP2 ADD PUSH1 0x40 MLOAD DUP1 SWAP2 SUB SWAP1 LOG2 POP POP POP POP JUMPDEST POP POP JUMP JUMPDEST PUSH0 SLOAD PUSH1 0x1 PUSH1 0x1 PUSH1 0xA0 SHL SUB AND CALLER EQ PUSH2 0x530 JUMPI PUSH1 0x40 MLOAD PUSH3 0x82B429 PUSH1 0xE8 SHL DUP2 MSTORE PUSH1 0x4 ADD PUSH1 0x40 MLOAD DUP1 SWAP2 SUB SWAP1 REVERT JUMPDEST DUP3 PUSH2 0x53B DUP6 DUP8 PUSH2 0x1776 JUMP JUMPDEST PUSH2 0x545 SWAP2 SWAP1 PUSH2 0x1776 JUMP JUMPDEST PUSH2 0x2710 EQ PUSH2 0x566 JUMPI PUSH1 0x40 MLOAD PUSH4 0x6D2FD3C9 PUSH1 0xE0 SHL DUP2 MSTORE PUSH1 0x4 ADD PUSH1 0x40 MLOAD DUP1 SWAP2 SUB SWAP1 REVERT JUMPDEST PUSH1 0x2 DUP6 SWAP1 SSTORE PUSH1 0x3 DUP5 SWAP1 SSTORE PUSH1 0x4 DUP4 SWAP1 SSTORE PUSH1 0x5 DUP3 SWAP1 SSTORE PUSH1 0x6 DUP2 SWAP1 SSTORE PUSH1 0x40 DUP1 MLOAD DUP7 DUP2 MSTORE PUSH1 0x20 DUP2 ADD DUP7 SWAP1 MSTORE SWAP1 DUP2 ADD DUP5 SWAP1 MSTORE PUSH1 0x60 DUP2 ADD DUP4 SWAP1 MSTORE PUSH1 0x80 DUP2 ADD DUP3 SWAP1 MSTORE PUSH32 0xAB98F6A91485C352FB01422A5FE72D10488727444633A4110D7716C51D511771 SWAP1 PUSH1 0xA0 ADD PUSH1 0x40 MLOAD DUP1 SWAP2 SUB SWAP1 LOG1 POP POP POP POP POP JUMP JUMPDEST PUSH1 0x6 SLOAD PUSH1 0x7 SLOAD PUSH2 0x5E5 SWAP2 SWAP1 PUSH2 0x1776 JUMP JUMPDEST TIMESTAMP LT ISZERO PUSH2 0x605 JUMPI PUSH1 0x40 MLOAD PUSH4 0x529BC33 PUSH1 0xE1 SHL DUP2 MSTORE PUSH1 0x4 ADD PUSH1 0x40 MLOAD DUP1 SWAP2 SUB SWAP1 REVERT JUMPDEST PUSH1 0x5 SLOAD PUSH0 SUB PUSH2 0x611 JUMPI POP JUMP JUMPDEST PUSH1 0x1 SLOAD PUSH1 0x40 MLOAD PUSH4 0x1D735E7 PUSH1 0xE3 SHL DUP2 MSTORE PUSH1 0x1 PUSH1 0x1 PUSH1 0xA0 SHL SUB DUP4 DUP2 AND PUSH1 0x4 DUP4 ADD MSTORE PUSH0 SWAP3 AND SWAP1 PUSH4 0xEB9AF38 SWAP1 PUSH1 0x24 ADD PUSH1 0x20 PUSH1 0x40 MLOAD DUP1 DUP4 SUB DUP2 DUP7 GAS STATICCALL ISZERO DUP1 ISZERO PUSH2 0x659 JUMPI RETURNDATASIZE PUSH0 PUSH0 RETURNDATACOPY RETURNDATASIZE PUSH0 REVERT JUMPDEST POP POP POP POP PUSH1 0x40 MLOAD RETURNDATASIZE PUSH1 0x1F NOT PUSH1 0x1F DUP3 ADD AND DUP3 ADD DUP1 PUSH1 0x40 MSTORE POP DUP2 ADD SWAP1 PUSH2 0x67D SWAP2 SWAP1 PUSH2 0x171D JUMP JUMPDEST SWAP1 POP PUSH1 0x1 PUSH1 0x1 PUSH1 0xA0 SHL SUB DUP2 AND PUSH2 0x6A6 JUMPI PUSH1 0x40 MLOAD PUSH4 0x434DF19 PUSH1 0xE5 SHL DUP2 MSTORE PUSH1 0x4 ADD PUSH1 0x40 MLOAD DUP1 SWAP2 SUB SWAP1 REVERT JUMPDEST PUSH1 0x5 SLOAD PUSH1 0x40 MLOAD PUSH4 0xA28A477 PUSH1 0xE0 SHL DUP2 MSTORE PUSH1 0x4 DUP2 ADD SWAP2 SWAP1 SWAP2 MSTORE DUP2 SWAP1 PUSH0 SWAP1 PUSH1 0x1 PUSH1 0x1 PUSH1 0xA0 SHL SUB DUP4 AND SWAP1 PUSH4 0xA28A477 SWAP1 PUSH1 0x24 ADD PUSH1 0x20 PUSH1 0x40 MLOAD DUP1 DUP4 SUB DUP2 DUP7 GAS STATICCALL ISZERO DUP1 ISZERO PUSH2 0x6F1 JUMPI RETURNDATASIZE PUSH0 PUSH0 RETURNDATACOPY RETURNDATASIZE PUSH0 REVERT JUMPDEST POP POP POP POP PUSH1 0x40 MLOAD RETURNDATASIZE PUSH1 0x1F NOT PUSH1 0x1F DUP3 ADD AND DUP3 ADD DUP1 PUSH1 0x40 MSTORE POP DUP2 ADD SWAP1 PUSH2 0x715 SWAP2 SWAP1 PUSH2 0x1738 JUMP JUMPDEST SWAP1 POP PUSH1 0x9 SLOAD DUP2 GT ISZERO PUSH2 0x726 JUMPI POP PUSH1 0x9 SLOAD JUMPDEST DUP1 PUSH0 SUB PUSH2 0x746 JUMPI PUSH1 0x40 MLOAD PUSH4 0x89206FD5 PUSH1 0xE0 SHL DUP2 MSTORE PUSH1 0x4 ADD PUSH1 0x40 MLOAD DUP1 SWAP2 SUB SWAP1 REVERT JUMPDEST DUP1 PUSH1 0x9 PUSH0 DUP3 DUP3 SLOAD PUSH2 0x757 SWAP2 SWAP1 PUSH2 0x1763 JUMP JUMPDEST SWAP1 SWAP2 SSTORE POP POP TIMESTAMP PUSH1 0x7 SSTORE PUSH0 DUP1 SLOAD PUSH1 0x40 MLOAD PUSH4 0x5D043B29 PUSH1 0xE1 SHL DUP2 MSTORE PUSH1 0x4 DUP2 ADD DUP5 SWAP1 MSTORE PUSH1 0x1 PUSH1 0x1 PUSH1 0xA0 SHL SUB SWAP2 DUP3 AND PUSH1 0x24 DUP3 ADD MSTORE ADDRESS PUSH1 0x44 DUP3 ADD MSTORE SWAP1 DUP5 AND SWAP1 PUSH4 0xBA087652 SWAP1 PUSH1 0x64 ADD PUSH1 0x20 PUSH1 0x40 MLOAD DUP1 DUP4 SUB DUP2 PUSH0 DUP8 GAS CALL ISZERO DUP1 ISZERO PUSH2 0x7B6 JUMPI RETURNDATASIZE PUSH0 PUSH0 RETURNDATACOPY RETURNDATASIZE PUSH0 REVERT JUMPDEST POP POP POP POP PUSH1 0x40 MLOAD RETURNDATASIZE PUSH1 0x1F NOT PUSH1 0x1F DUP3 ADD AND DUP3 ADD DUP1 PUSH1 0x40 MSTORE POP DUP2 ADD SWAP1 PUSH2 0x7DA SWAP2 SWAP1 PUSH2 0x1738 JUMP JUMPDEST PUSH1 0x40 DUP1 MLOAD DUP3 DUP2 MSTORE PUSH1 0x20 DUP2 ADD DUP6 SWAP1 MSTORE SWAP2 SWAP3 POP PUSH1 0x1 PUSH1 0x1 PUSH1 0xA0 SHL SUB DUP8 AND SWAP2 PUSH32 0xE7CC88D9E42671078205D391C6B754AEA00A5FAA1D2E50DED3F7139500F2F98C SWAP2 ADD PUSH1 0x40 MLOAD DUP1 SWAP2 SUB SWAP1 LOG2 POP POP POP POP POP JUMP JUMPDEST PUSH0 SLOAD PUSH1 0x1 PUSH1 0x1 PUSH1 0xA0 SHL SUB AND CALLER EQ PUSH2 0x851 JUMPI PUSH1 0x40 MLOAD PUSH3 0x82B429 PUSH1 0xE8 SHL DUP2 MSTORE PUSH1 0x4 ADD PUSH1 0x40 MLOAD DUP1 SWAP2 SUB SWAP1 REVERT JUMPDEST PUSH2 0x2710 DUP2 GT ISZERO PUSH2 0x873 JUMPI PUSH1 0x40 MLOAD PUSH3 0x53709F PUSH1 0xE0 SHL DUP2 MSTORE PUSH1 0x4 ADD PUSH1 0x40 MLOAD DUP1 SWAP2 SUB SWAP1 REVERT JUMPDEST PUSH1 0xA DUP2 SWAP1 SSTORE PUSH1 0x40 MLOAD DUP2 DUP2 MSTORE PUSH32 0x88E3D44810ACE986C49A4B1737E3951CA5B42C4ECB5611219A3C38086CC129B7 SWAP1 PUSH1 0x20 ADD PUSH1 0x40 MLOAD DUP1 SWAP2 SUB SWAP1 LOG1 POP JUMP JUMPDEST PUSH1 0x40 MLOAD PUSH4 0x70A08231 PUSH1 0xE0 SHL DUP2 MSTORE ADDRESS PUSH1 0x4 DUP3 ADD MSTORE PUSH0 SWAP1 PUSH1 0x1 PUSH1 0x1 PUSH1 0xA0 SHL SUB DUP4 AND SWAP1 PUSH4 0x70A08231 SWAP1 PUSH1 0x24 ADD PUSH1 0x20 PUSH1 0x40 MLOAD DUP1 DUP4 SUB DUP2 DUP7 GAS STATICCALL ISZERO DUP1 ISZERO PUSH2 0x8F2 JUMPI RETURNDATASIZE PUSH0 PUSH0 RETURNDATACOPY RETURNDATASIZE PUSH0 REVERT JUMPDEST POP POP POP POP PUSH1 0x40 MLOAD RETURNDATASIZE PUSH1 0x1F NOT PUSH1 0x1F DUP3 ADD AND DUP3 ADD DUP1 PUSH1 0x40 MSTORE POP DUP2 ADD SWAP1 PUSH2 0x916 SWAP2 SWAP1 PUSH2 0x1738 JUMP JUMPDEST SWAP1 POP DUP1 PUSH0 SUB PUSH2 0x923 JUMPI POP POP JUMP JUMPDEST PUSH0 PUSH2 0x2710 PUSH1 0x2 SLOAD DUP4 PUSH2 0x935 SWAP2 SWAP1 PUSH2 0x1789 JUMP JUMPDEST PUSH2 0x93F SWAP2 SWAP1 PUSH2 0x17A0 JUMP JUMPDEST SWAP1 POP PUSH0 PUSH2 0x2710 PUSH1 0x3 SLOAD DUP5 PUSH2 0x953 SWAP2 SWAP1 PUSH2 0x1789 JUMP JUMPDEST PUSH2 0x95D SWAP2 SWAP1 PUSH2 0x17A0 JUMP JUMPDEST SWAP1 POP PUSH0 DUP2 PUSH2 0x96B DUP5 DUP7 PUSH2 0x1763 JUMP JUMPDEST PUSH2 0x975 SWAP2 SWAP1 PUSH2 0x1763 JUMP JUMPDEST SWAP1 POP DUP3 ISZERO PUSH2 0x996 JUMPI PUSH0 SLOAD PUSH2 0x996 SWAP1 PUSH1 0x1 PUSH1 0x1 PUSH1 0xA0 SHL SUB DUP8 DUP2 AND SWAP2 AND DUP6 PUSH2 0x133A JUMP JUMPDEST PUSH0 PUSH2 0x9A1 DUP3 DUP5 PUSH2 0x1776 JUMP JUMPDEST SWAP1 POP PUSH0 DUP1 DUP3 ISZERO PUSH2 0xB28 JUMPI PUSH1 0x1 SLOAD PUSH1 0x40 MLOAD PUSH4 0x1D735E7 PUSH1 0xE3 SHL DUP2 MSTORE PUSH1 0x1 PUSH1 0x1 PUSH1 0xA0 SHL SUB DUP11 DUP2 AND PUSH1 0x4 DUP4 ADD MSTORE PUSH0 SWAP3 AND SWAP1 PUSH4 0xEB9AF38 SWAP1 PUSH1 0x24 ADD PUSH1 0x20 PUSH1 0x40 MLOAD DUP1 DUP4 SUB DUP2 DUP7 GAS STATICCALL ISZERO DUP1 ISZERO PUSH2 0x9F3 JUMPI RETURNDATASIZE PUSH0 PUSH0 RETURNDATACOPY RETURNDATASIZE PUSH0 REVERT JUMPDEST POP POP POP POP PUSH1 0x40 MLOAD RETURNDATASIZE PUSH1 0x1F NOT PUSH1 0x1F DUP3 ADD AND DUP3 ADD DUP1 PUSH1 0x40 MSTORE POP DUP2 ADD SWAP1 PUSH2 0xA17 SWAP2 SWAP1 PUSH2 0x171D JUMP JUMPDEST SWAP1 POP PUSH1 0x1 PUSH1 0x1 PUSH1 0xA0 SHL SUB DUP2 AND PUSH2 0xA40 JUMPI PUSH1 0x40 MLOAD PUSH4 0x434DF19 PUSH1 0xE5 SHL DUP2 MSTORE PUSH1 0x4 ADD PUSH1 0x40 MLOAD DUP1 SWAP2 SUB SWAP1 REVERT JUMPDEST DUP1 PUSH2 0xA55 PUSH1 0x1 PUSH1 0x1 PUSH1 0xA0 SHL SUB DUP12 AND DUP3 DUP8 PUSH2 0x1379 JUMP JUMPDEST PUSH1 0x40 MLOAD PUSH4 0x6E553F65 PUSH1 0xE0 SHL DUP2 MSTORE PUSH1 0x4 DUP2 ADD DUP7 SWAP1 MSTORE ADDRESS PUSH1 0x24 DUP3 ADD MSTORE PUSH0 SWAP1 PUSH1 0x1 PUSH1 0x1 PUSH1 0xA0 SHL SUB DUP4 AND SWAP1 PUSH4 0x6E553F65 SWAP1 PUSH1 0x44 ADD PUSH1 0x20 PUSH1 0x40 MLOAD DUP1 DUP4 SUB DUP2 PUSH0 DUP8 GAS CALL ISZERO DUP1 ISZERO PUSH2 0xAA1 JUMPI RETURNDATASIZE PUSH0 PUSH0 RETURNDATACOPY RETURNDATASIZE PUSH0 REVERT JUMPDEST POP POP POP POP PUSH1 0x40 MLOAD RETURNDATASIZE PUSH1 0x1F NOT PUSH1 0x1F DUP3 ADD AND DUP3 ADD DUP1 PUSH1 0x40 MSTORE POP DUP2 ADD SWAP1 PUSH2 0xAC5 SWAP2 SWAP1 PUSH2 0x1738 JUMP JUMPDEST SWAP1 POP DUP8 ISZERO PUSH2 0xAFB JUMPI DUP6 PUSH2 0xAD8 DUP10 DUP4 PUSH2 0x1789 JUMP JUMPDEST PUSH2 0xAE2 SWAP2 SWAP1 PUSH2 0x17A0 JUMP JUMPDEST SWAP5 POP DUP5 PUSH1 0x8 PUSH0 DUP3 DUP3 SLOAD PUSH2 0xAF5 SWAP2 SWAP1 PUSH2 0x1776 JUMP JUMPDEST SWAP1 SWAP2 SSTORE POP POP JUMPDEST DUP7 ISZERO PUSH2 0xB24 JUMPI PUSH2 0xB0B DUP6 DUP3 PUSH2 0x1763 JUMP JUMPDEST SWAP4 POP DUP4 PUSH1 0x9 PUSH0 DUP3 DUP3 SLOAD PUSH2 0xB1E SWAP2 SWAP1 PUSH2 0x1776 JUMP JUMPDEST SWAP1 SWAP2 SSTORE POP POP JUMPDEST POP POP POP JUMPDEST PUSH1 0x40 DUP1 MLOAD DUP9 DUP2 MSTORE PUSH1 0x20 DUP2 ADD DUP9 SWAP1 MSTORE SWAP1 DUP2 ADD DUP4 SWAP1 MSTORE PUSH1 0x60 DUP2 ADD DUP3 SWAP1 MSTORE PUSH1 0x1 PUSH1 0x1 PUSH1 0xA0 SHL SUB DUP10 AND SWAP1 PUSH32 0xF2C7C61AAB9019A0417876FEE95EA2CE79B2DA32F8F2B41271429475B2CF4C23 SWAP1 PUSH1 0x80 ADD PUSH1 0x40 MLOAD DUP1 SWAP2 SUB SWAP1 LOG2 POP POP POP POP POP POP POP POP JUMP JUMPDEST PUSH1 0xB SLOAD PUSH1 0xC SLOAD PUSH0 SWAP1 DUP2 SWAP1 ISZERO PUSH2 0xC81 JUMPI PUSH1 0x1 SLOAD PUSH1 0x40 MLOAD PUSH4 0x1D735E7 PUSH1 0xE3 SHL DUP2 MSTORE PUSH1 0x1 PUSH1 0x1 PUSH1 0xA0 SHL SUB DUP7 DUP2 AND PUSH1 0x4 DUP4 ADD MSTORE PUSH0 SWAP3 AND SWAP1 PUSH4 0xEB9AF38 SWAP1 PUSH1 0x24 ADD PUSH1 0x20 PUSH1 0x40 MLOAD DUP1 DUP4 SUB DUP2 DUP7 GAS STATICCALL ISZERO DUP1 ISZERO PUSH2 0xBDC JUMPI RETURNDATASIZE PUSH0 PUSH0 RETURNDATACOPY RETURNDATASIZE PUSH0 REVERT JUMPDEST POP POP POP POP PUSH1 0x40 MLOAD RETURNDATASIZE PUSH1 0x1F NOT PUSH1 0x1F DUP3 ADD AND DUP3 ADD DUP1 PUSH1 0x40 MSTORE POP DUP2 ADD SWAP1 PUSH2 0xC00 SWAP2 SWAP1 PUSH2 0x171D JUMP JUMPDEST SWAP1 POP PUSH1 0x1 PUSH1 0x1 PUSH1 0xA0 SHL SUB DUP2 AND ISZERO PUSH2 0xC7F JUMPI PUSH1 0xC SLOAD PUSH1 0x40 MLOAD PUSH4 0x266D6A83 PUSH1 0xE1 SHL DUP2 MSTORE PUSH1 0x4 DUP2 ADD SWAP2 SWAP1 SWAP2 MSTORE PUSH1 0x1 PUSH1 0x1 PUSH1 0xA0 SHL SUB DUP3 AND SWAP1 PUSH4 0x4CDAD506 SWAP1 PUSH1 0x24 ADD PUSH1 0x20 PUSH1 0x40 MLOAD DUP1 DUP4 SUB DUP2 DUP7 GAS STATICCALL ISZERO DUP1 ISZERO PUSH2 0xC58 JUMPI RETURNDATASIZE PUSH0 PUSH0 RETURNDATACOPY RETURNDATASIZE PUSH0 REVERT JUMPDEST POP POP POP POP PUSH1 0x40 MLOAD RETURNDATASIZE PUSH1 0x1F NOT PUSH1 0x1F DUP3 ADD AND DUP3 ADD DUP1 PUSH1 0x40 MSTORE POP DUP2 ADD SWAP1 PUSH2 0xC7C SWAP2 SWAP1 PUSH2 0x1738 JUMP JUMPDEST SWAP3 POP JUMPDEST POP JUMPDEST DUP3 DUP3 GT ISZERO PUSH2 0xC9A JUMPI PUSH2 0xC93 DUP4 DUP4 PUSH2 0x1763 JUMP JUMPDEST SWAP1 POP PUSH2 0xC9D JUMP JUMPDEST POP PUSH0 JUMPDEST SWAP2 SWAP4 SWAP1 SWAP3 POP JUMP JUMPDEST PUSH0 SLOAD PUSH1 0x1 PUSH1 0x1 PUSH1 0xA0 SHL SUB AND CALLER EQ PUSH2 0xCCD JUMPI PUSH1 0x40 MLOAD PUSH3 0x82B429 PUSH1 0xE8 SHL DUP2 MSTORE PUSH1 0x4 ADD PUSH1 0x40 MLOAD DUP1 SWAP2 SUB SWAP1 REVERT JUMPDEST DUP1 ISZERO PUSH2 0x503 JUMPI PUSH1 0x1 SLOAD PUSH1 0x40 MLOAD PUSH4 0x1D735E7 PUSH1 0xE3 SHL DUP2 MSTORE PUSH1 0x1 PUSH1 0x1 PUSH1 0xA0 SHL SUB DUP5 DUP2 AND PUSH1 0x4 DUP4 ADD MSTORE PUSH0 SWAP3 AND SWAP1 PUSH4 0xEB9AF38 SWAP1 PUSH1 0x24 ADD PUSH1 0x20 PUSH1 0x40 MLOAD DUP1 DUP4 SUB DUP2 DUP7 GAS STATICCALL ISZERO DUP1 ISZERO PUSH2 0xD1B JUMPI RETURNDATASIZE PUSH0 PUSH0 RETURNDATACOPY RETURNDATASIZE PUSH0 REVERT JUMPDEST POP POP POP POP PUSH1 0x40 MLOAD RETURNDATASIZE PUSH1 0x1F NOT PUSH1 0x1F DUP3 ADD AND DUP3 ADD DUP1 PUSH1 0x40 MSTORE POP DUP2 ADD SWAP1 PUSH2 0xD3F SWAP2 SWAP1 PUSH2 0x171D JUMP JUMPDEST SWAP1 POP PUSH1 0x1 PUSH1 0x1 PUSH1 0xA0 SHL SUB DUP2 AND PUSH2 0xD68 JUMPI PUSH1 0x40 MLOAD PUSH4 0x434DF19 PUSH1 0xE5 SHL DUP2 MSTORE PUSH1 0x4 ADD PUSH1 0x40 MLOAD DUP1 SWAP2 SUB SWAP1 REVERT JUMPDEST DUP1 PUSH0 PUSH1 0x1 DUP5 ADD PUSH2 0xDE4 JUMPI POP PUSH1 0xC SLOAD PUSH1 0x40 MLOAD PUSH4 0x266D6A83 PUSH1 0xE1 SHL DUP2 MSTORE PUSH1 0x4 DUP2 ADD DUP3 SWAP1 MSTORE PUSH1 0x1 PUSH1 0x1 PUSH1 0xA0 SHL SUB DUP4 AND SWAP1 PUSH4 0x4CDAD506 SWAP1 PUSH1 0x24 ADD PUSH1 0x20 PUSH1 0x40 MLOAD DUP1 DUP4 SUB DUP2 DUP7 GAS STATICCALL ISZERO DUP1 ISZERO PUSH2 0xDB9 JUMPI RETURNDATASIZE PUSH0 PUSH0 RETURNDATACOPY RETURNDATASIZE PUSH0 REVERT JUMPDEST POP POP POP POP PUSH1 0x40 MLOAD RETURNDATASIZE PUSH1 0x1F NOT PUSH1 0x1F DUP3 ADD AND DUP3 ADD DUP1 PUSH1 0x40 MSTORE POP DUP2 ADD SWAP1 PUSH2 0xDDD SWAP2 SWAP1 PUSH2 0x1738 JUMP JUMPDEST SWAP4 POP PUSH2 0xE70 JUMP JUMPDEST PUSH1 0x40 MLOAD PUSH4 0xA28A477 PUSH1 0xE0 SHL DUP2 MSTORE PUSH1 0x4 DUP2 ADD DUP6 SWAP1 MSTORE PUSH1 0x1 PUSH1 0x1 PUSH1 0xA0 SHL SUB DUP4 AND SWAP1 PUSH4 0xA28A477 SWAP1 PUSH1 0x24 ADD PUSH1 0x20 PUSH1 0x40 MLOAD DUP1 DUP4 SUB DUP2 DUP7 GAS STATICCALL ISZERO DUP1 ISZERO PUSH2 0xE27 JUMPI RETURNDATASIZE PUSH0 PUSH0 RETURNDATACOPY RETURNDATASIZE PUSH0 REVERT JUMPDEST POP POP POP POP PUSH1 0x40 MLOAD RETURNDATASIZE PUSH1 0x1F NOT PUSH1 0x1F DUP3 ADD AND DUP3 ADD DUP1 PUSH1 0x40 MSTORE POP DUP2 ADD SWAP1 PUSH2 0xE4B SWAP2 SWAP1 PUSH2 0x1738 JUMP JUMPDEST SWAP1 POP PUSH1 0xC SLOAD DUP2 GT ISZERO PUSH2 0xE70 JUMPI PUSH1 0x40 MLOAD PUSH4 0xFEC82CD7 PUSH1 0xE0 SHL DUP2 MSTORE PUSH1 0x4 ADD PUSH1 0x40 MLOAD DUP1 SWAP2 SUB SWAP1 REVERT JUMPDEST DUP1 PUSH0 SUB PUSH2 0xE7E JUMPI POP POP POP POP POP JUMP JUMPDEST PUSH0 PUSH1 0xC SLOAD PUSH1 0xB SLOAD DUP4 PUSH2 0xE90 SWAP2 SWAP1 PUSH2 0x1789 JUMP JUMPDEST PUSH2 0xE9A SWAP2 SWAP1 PUSH2 0x17A0 JUMP JUMPDEST SWAP1 POP DUP1 PUSH1 0xB PUSH0 DUP3 DUP3 SLOAD PUSH2 0xEAD SWAP2 SWAP1 PUSH2 0x1763 JUMP JUMPDEST SWAP3 POP POP DUP2 SWAP1 SSTORE POP DUP2 PUSH1 0xC PUSH0 DUP3 DUP3 SLOAD PUSH2 0xEC5 SWAP2 SWAP1 PUSH2 0x1763 JUMP JUMPDEST SWAP1 SWAP2 SSTORE POP POP PUSH0 DUP1 SLOAD PUSH1 0x40 MLOAD PUSH4 0x5D043B29 PUSH1 0xE1 SHL DUP2 MSTORE PUSH1 0x4 DUP2 ADD DUP6 SWAP1 MSTORE PUSH1 0x1 PUSH1 0x1 PUSH1 0xA0 SHL SUB SWAP2 DUP3 AND PUSH1 0x24 DUP3 ADD MSTORE ADDRESS PUSH1 0x44 DUP3 ADD MSTORE SWAP1 DUP6 AND SWAP1 PUSH4 0xBA087652 SWAP1 PUSH1 0x64 ADD PUSH1 0x20 PUSH1 0x40 MLOAD DUP1 DUP4 SUB DUP2 PUSH0 DUP8 GAS CALL ISZERO DUP1 ISZERO PUSH2 0xF20 JUMPI RETURNDATASIZE PUSH0 PUSH0 RETURNDATACOPY RETURNDATASIZE PUSH0 REVERT JUMPDEST POP POP POP POP PUSH1 0x40 MLOAD RETURNDATASIZE PUSH1 0x1F NOT PUSH1 0x1F DUP3 ADD AND DUP3 ADD DUP1 PUSH1 0x40 MSTORE POP DUP2 ADD SWAP1 PUSH2 0xF44 SWAP2 SWAP1 PUSH2 0x1738 JUMP JUMPDEST PUSH1 0x40 DUP1 MLOAD DUP3 DUP2 MSTORE PUSH1 0x20 DUP2 ADD DUP7 SWAP1 MSTORE SWAP2 SWAP3 POP PUSH1 0x1 PUSH1 0x1 PUSH1 0xA0 SHL SUB DUP10 AND SWAP2 PUSH32 0x93DA32E64263D25ACE24CCB77425144DDC5D0DD0F4DFC1D3BC6FF0114AC7049A SWAP2 ADD PUSH1 0x40 MLOAD DUP1 SWAP2 SUB SWAP1 LOG2 POP POP POP POP POP POP POP JUMP JUMPDEST PUSH0 PUSH2 0xF9D PUSH2 0x1406 JUMP JUMPDEST DUP1 SLOAD SWAP1 SWAP2 POP PUSH1 0xFF PUSH1 0x1 PUSH1 0x40 SHL DUP3 DIV AND ISZERO SWAP1 PUSH8 0xFFFFFFFFFFFFFFFF AND PUSH0 DUP2 ISZERO DUP1 ISZERO PUSH2 0xFC4 JUMPI POP DUP3 JUMPDEST SWAP1 POP PUSH0 DUP3 PUSH8 0xFFFFFFFFFFFFFFFF AND PUSH1 0x1 EQ DUP1 ISZERO PUSH2 0xFE0 JUMPI POP ADDRESS EXTCODESIZE ISZERO JUMPDEST SWAP1 POP DUP2 ISZERO DUP1 ISZERO PUSH2 0xFEE JUMPI POP DUP1 ISZERO JUMPDEST ISZERO PUSH2 0x100C JUMPI PUSH1 0x40 MLOAD PUSH4 0xF92EE8A9 PUSH1 0xE0 SHL DUP2 MSTORE PUSH1 0x4 ADD PUSH1 0x40 MLOAD DUP1 SWAP2 SUB SWAP1 REVERT JUMPDEST DUP5 SLOAD PUSH8 0xFFFFFFFFFFFFFFFF NOT AND PUSH1 0x1 OR DUP6 SSTORE DUP4 ISZERO PUSH2 0x1036 JUMPI DUP5 SLOAD PUSH1 0xFF PUSH1 0x40 SHL NOT AND PUSH1 0x1 PUSH1 0x40 SHL OR DUP6 SSTORE JUMPDEST PUSH0 DUP1 SLOAD PUSH1 0x1 PUSH1 0x1 PUSH1 0xA0 SHL SUB DUP1 DUP16 AND PUSH1 0x1 PUSH1 0x1 PUSH1 0xA0 SHL SUB NOT SWAP3 DUP4 AND OR SWAP1 SWAP3 SSTORE PUSH1 0x1 DUP1 SLOAD SWAP3 DUP15 AND SWAP3 SWAP1 SWAP2 AND SWAP2 SWAP1 SWAP2 OR SWAP1 SSTORE DUP8 PUSH2 0x1070 DUP11 DUP13 PUSH2 0x1776 JUMP JUMPDEST PUSH2 0x107A SWAP2 SWAP1 PUSH2 0x1776 JUMP JUMPDEST PUSH2 0x2710 EQ PUSH2 0x109B JUMPI PUSH1 0x40 MLOAD PUSH4 0x6D2FD3C9 PUSH1 0xE0 SHL DUP2 MSTORE PUSH1 0x4 ADD PUSH1 0x40 MLOAD DUP1 SWAP2 SUB SWAP1 REVERT JUMPDEST PUSH1 0x2 DUP11 SWAP1 SSTORE PUSH1 0x3 DUP10 SWAP1 SSTORE PUSH1 0x4 DUP9 SWAP1 SSTORE PUSH1 0x5 DUP8 SWAP1 SSTORE PUSH1 0x6 DUP7 SWAP1 SSTORE TIMESTAMP PUSH1 0x7 SSTORE DUP4 ISZERO PUSH2 0x10FE JUMPI DUP5 SLOAD PUSH1 0xFF PUSH1 0x40 SHL NOT AND DUP6 SSTORE PUSH1 0x40 MLOAD PUSH1 0x1 DUP2 MSTORE PUSH32 0xC7F505B2F371AE2175EE4913F4499E1F2633A7B5936321EED1CDAEB6115181D2 SWAP1 PUSH1 0x20 ADD PUSH1 0x40 MLOAD DUP1 SWAP2 SUB SWAP1 LOG1 JUMPDEST POP POP POP POP POP POP POP POP POP POP POP POP JUMP JUMPDEST PUSH0 SLOAD PUSH1 0x1 PUSH1 0x1 PUSH1 0xA0 SHL SUB AND CALLER EQ PUSH2 0x1135 JUMPI PUSH1 0x40 MLOAD PUSH3 0x82B429 PUSH1 0xE8 SHL DUP2 MSTORE PUSH1 0x4 ADD PUSH1 0x40 MLOAD DUP1 SWAP2 SUB SWAP1 REVERT JUMPDEST PUSH0 PUSH2 0x2710 PUSH1 0xA SLOAD DUP4 PUSH2 0x1147 SWAP2 SWAP1 PUSH2 0x1789 JUMP JUMPDEST PUSH2 0x1151 SWAP2 SWAP1 PUSH2 0x17A0 JUMP JUMPDEST SWAP1 POP PUSH0 PUSH2 0x115E DUP3 DUP5 PUSH2 0x1776 JUMP JUMPDEST PUSH0 SLOAD SWAP1 SWAP2 POP PUSH2 0x117B SWAP1 PUSH1 0x1 PUSH1 0x1 PUSH1 0xA0 SHL SUB DUP8 DUP2 AND SWAP2 AND ADDRESS DUP5 PUSH2 0x1430 JUMP JUMPDEST PUSH2 0x118F PUSH1 0x1 PUSH1 0x1 PUSH1 0xA0 SHL SUB DUP7 AND DUP6 DUP6 PUSH2 0x133A JUMP JUMPDEST PUSH0 DUP3 ISZERO PUSH2 0x12E1 JUMPI PUSH1 0x1 SLOAD PUSH1 0x40 MLOAD PUSH4 0x1D735E7 PUSH1 0xE3 SHL DUP2 MSTORE PUSH1 0x1 PUSH1 0x1 PUSH1 0xA0 SHL SUB DUP9 DUP2 AND PUSH1 0x4 DUP4 ADD MSTORE PUSH0 SWAP3 AND SWAP1 PUSH4 0xEB9AF38 SWAP1 PUSH1 0x24 ADD PUSH1 0x20 PUSH1 0x40 MLOAD DUP1 DUP4 SUB DUP2 DUP7 GAS STATICCALL ISZERO DUP1 ISZERO PUSH2 0x11DE JUMPI RETURNDATASIZE PUSH0 PUSH0 RETURNDATACOPY RETURNDATASIZE PUSH0 REVERT JUMPDEST POP POP POP POP PUSH1 0x40 MLOAD RETURNDATASIZE PUSH1 0x1F NOT PUSH1 0x1F DUP3 ADD AND DUP3 ADD DUP1 PUSH1 0x40 MSTORE POP DUP2 ADD SWAP1 PUSH2 0x1202 SWAP2 SWAP1 PUSH2 0x171D JUMP JUMPDEST SWAP1 POP PUSH1 0x1 PUSH1 0x1 PUSH1 0xA0 SHL SUB DUP2 AND PUSH2 0x122B JUMPI PUSH1 0x40 MLOAD PUSH4 0x434DF19 PUSH1 0xE5 SHL DUP2 MSTORE PUSH1 0x4 ADD PUSH1 0x40 MLOAD DUP1 SWAP2 SUB SWAP1 REVERT JUMPDEST DUP1 PUSH2 0x1240 PUSH1 0x1 PUSH1 0x1 PUSH1 0xA0 SHL SUB DUP10 AND DUP3 DUP8 PUSH2 0x1379 JUMP JUMPDEST PUSH1 0x40 MLOAD PUSH4 0x6E553F65 PUSH1 0xE0 SHL DUP2 MSTORE PUSH1 0x4 DUP2 ADD DUP7 SWAP1 MSTORE ADDRESS PUSH1 0x24 DUP3 ADD MSTORE PUSH1 0x1 PUSH1 0x1 PUSH1 0xA0 SHL SUB DUP3 AND SWAP1 PUSH4 0x6E553F65 SWAP1 PUSH1 0x44 ADD PUSH1 0x20 PUSH1 0x40 MLOAD DUP1 DUP4 SUB DUP2 PUSH0 DUP8 GAS CALL ISZERO DUP1 ISZERO PUSH2 0x128A JUMPI RETURNDATASIZE PUSH0 PUSH0 RETURNDATACOPY RETURNDATASIZE PUSH0 REVERT JUMPDEST POP POP POP POP PUSH1 0x40 MLOAD RETURNDATASIZE PUSH1 0x1F NOT PUSH1 0x1F DUP3 ADD AND DUP3 ADD DUP1 PUSH1 0x40 MSTORE POP DUP2 ADD SWAP1 PUSH2 0x12AE SWAP2 SWAP1 PUSH2 0x1738 JUMP JUMPDEST SWAP3 POP DUP5 PUSH1 0xB PUSH0 DUP3 DUP3 SLOAD PUSH2 0x12C1 SWAP2 SWAP1 PUSH2 0x1776 JUMP JUMPDEST SWAP3 POP POP DUP2 SWAP1 SSTORE POP DUP3 PUSH1 0xC PUSH0 DUP3 DUP3 SLOAD PUSH2 0x12D9 SWAP2 SWAP1 PUSH2 0x1776 JUMP JUMPDEST SWAP1 SWAP2 SSTORE POP POP POP POP JUMPDEST PUSH1 0x40 DUP1 MLOAD DUP6 DUP2 MSTORE PUSH1 0x20 DUP2 ADD DUP6 SWAP1 MSTORE SWAP1 DUP2 ADD DUP3 SWAP1 MSTORE PUSH1 0x1 PUSH1 0x1 PUSH1 0xA0 SHL SUB DUP1 DUP8 AND SWAP2 SWAP1 DUP9 AND SWAP1 PUSH32 0x6B1716847A6A1A5B10DB02F856B217AAFB323FBA68D1E0FC63F313D592CF81D1 SWAP1 PUSH1 0x60 ADD PUSH1 0x40 MLOAD DUP1 SWAP2 SUB SWAP1 LOG3 POP POP POP POP POP POP JUMP JUMPDEST PUSH2 0x1347 DUP4 DUP4 DUP4 PUSH1 0x1 PUSH2 0x1466 JUMP JUMPDEST PUSH2 0x1374 JUMPI PUSH1 0x40 MLOAD PUSH4 0x5274AFE7 PUSH1 0xE0 SHL DUP2 MSTORE PUSH1 0x1 PUSH1 0x1 PUSH1 0xA0 SHL SUB DUP5 AND PUSH1 0x4 DUP3 ADD MSTORE PUSH1 0x24 ADD JUMPDEST PUSH1 0x40 MLOAD DUP1 SWAP2 SUB SWAP1 REVERT JUMPDEST POP POP POP JUMP JUMPDEST PUSH1 0x40 MLOAD PUSH4 0x6EB1769F PUSH1 0xE1 SHL DUP2 MSTORE ADDRESS PUSH1 0x4 DUP3 ADD MSTORE PUSH1 0x1 PUSH1 0x1 PUSH1 0xA0 SHL SUB DUP4 DUP2 AND PUSH1 0x24 DUP4 ADD MSTORE PUSH0 SWAP2 SWAP1 DUP6 AND SWAP1 PUSH4 0xDD62ED3E SWAP1 PUSH1 0x44 ADD PUSH1 0x20 PUSH1 0x40 MLOAD DUP1 DUP4 SUB DUP2 DUP7 GAS STATICCALL ISZERO DUP1 ISZERO PUSH2 0x13C6 JUMPI RETURNDATASIZE PUSH0 PUSH0 RETURNDATACOPY RETURNDATASIZE PUSH0 REVERT JUMPDEST POP POP POP POP PUSH1 0x40 MLOAD RETURNDATASIZE PUSH1 0x1F NOT PUSH1 0x1F DUP3 ADD AND DUP3 ADD DUP1 PUSH1 0x40 MSTORE POP DUP2 ADD SWAP1 PUSH2 0x13EA SWAP2 SWAP1 PUSH2 0x1738 JUMP JUMPDEST SWAP1 POP PUSH2 0x1400 DUP5 DUP5 PUSH2 0x13FB DUP6 DUP6 PUSH2 0x1776 JUMP JUMPDEST PUSH2 0x14C8 JUMP JUMPDEST POP POP POP POP JUMP JUMPDEST PUSH0 DUP1 PUSH32 0xF0C57E16840DF040F15088DC2F81FE391C3923BEC73E23A9662EFC9C229C6A00 JUMPDEST SWAP3 SWAP2 POP POP JUMP JUMPDEST PUSH2 0x143E DUP5 DUP5 DUP5 DUP5 PUSH1 0x1 PUSH2 0x151A JUMP JUMPDEST PUSH2 0x1400 JUMPI PUSH1 0x40 MLOAD PUSH4 0x5274AFE7 PUSH1 0xE0 SHL DUP2 MSTORE PUSH1 0x1 PUSH1 0x1 PUSH1 0xA0 SHL SUB DUP6 AND PUSH1 0x4 DUP3 ADD MSTORE PUSH1 0x24 ADD PUSH2 0x136B JUMP JUMPDEST PUSH1 0x40 MLOAD PUSH4 0xA9059CBB PUSH1 0xE0 SHL PUSH0 DUP2 DUP2 MSTORE PUSH1 0x1 PUSH1 0x1 PUSH1 0xA0 SHL SUB DUP7 AND PUSH1 0x4 MSTORE PUSH1 0x24 DUP6 SWAP1 MSTORE SWAP2 PUSH1 0x20 DUP4 PUSH1 0x44 DUP2 DUP1 DUP12 GAS CALL SWAP3 POP PUSH1 0x1 PUSH0 MLOAD EQ DUP4 AND PUSH2 0x14BC JUMPI DUP4 DUP4 ISZERO AND ISZERO PUSH2 0x14B0 JUMPI RETURNDATASIZE PUSH0 DUP3 RETURNDATACOPY RETURNDATASIZE DUP2 REVERT JUMPDEST PUSH0 DUP8 EXTCODESIZE GT RETURNDATASIZE ISZERO AND DUP4 AND SWAP3 POP JUMPDEST PUSH1 0x40 MSTORE POP SWAP5 SWAP4 POP POP POP POP JUMP JUMPDEST PUSH2 0x14D4 DUP4 DUP4 DUP4 PUSH0 PUSH2 0x1587 JUMP JUMPDEST PUSH2 0x1374 JUMPI PUSH2 0x14E5 DUP4 DUP4 PUSH0 PUSH1 0x1 PUSH2 0x1587 JUMP JUMPDEST PUSH2 0x150D JUMPI PUSH1 0x40 MLOAD PUSH4 0x5274AFE7 PUSH1 0xE0 SHL DUP2 MSTORE PUSH1 0x1 PUSH1 0x1 PUSH1 0xA0 SHL SUB DUP5 AND PUSH1 0x4 DUP3 ADD MSTORE PUSH1 0x24 ADD PUSH2 0x136B JUMP JUMPDEST PUSH2 0x1347 DUP4 DUP4 DUP4 PUSH1 0x1 PUSH2 0x1587 JUMP JUMPDEST PUSH1 0x40 MLOAD PUSH4 0x23B872DD PUSH1 0xE0 SHL PUSH0 DUP2 DUP2 MSTORE PUSH1 0x1 PUSH1 0x1 PUSH1 0xA0 SHL SUB DUP8 DUP2 AND PUSH1 0x4 MSTORE DUP7 AND PUSH1 0x24 MSTORE PUSH1 0x44 DUP6 SWAP1 MSTORE SWAP2 PUSH1 0x20 DUP4 PUSH1 0x64 DUP2 DUP1 DUP13 GAS CALL SWAP3 POP PUSH1 0x1 PUSH0 MLOAD EQ DUP4 AND PUSH2 0x1576 JUMPI DUP4 DUP4 ISZERO AND ISZERO PUSH2 0x156A JUMPI RETURNDATASIZE PUSH0 DUP3 RETURNDATACOPY RETURNDATASIZE DUP2 REVERT JUMPDEST PUSH0 DUP9 EXTCODESIZE GT RETURNDATASIZE ISZERO AND DUP4 AND SWAP3 POP JUMPDEST PUSH1 0x40 MSTORE POP PUSH0 PUSH1 0x60 MSTORE SWAP6 SWAP5 POP POP POP POP POP JUMP JUMPDEST PUSH1 0x40 MLOAD PUSH4 0x95EA7B3 PUSH1 0xE0 SHL PUSH0 DUP2 DUP2 MSTORE PUSH1 0x1 PUSH1 0x1 PUSH1 0xA0 SHL SUB DUP7 AND PUSH1 0x4 MSTORE PUSH1 0x24 DUP6 SWAP1 MSTORE SWAP2 PUSH1 0x20 DUP4 PUSH1 0x44 DUP2 DUP1 DUP12 GAS CALL SWAP3 POP PUSH1 0x1 PUSH0 MLOAD EQ DUP4 AND PUSH2 0x14BC JUMPI DUP4 DUP4 ISZERO AND ISZERO PUSH2 0x14B0 JUMPI RETURNDATASIZE PUSH0 DUP3 RETURNDATACOPY RETURNDATASIZE DUP2 REVERT JUMPDEST PUSH1 0x1 PUSH1 0x1 PUSH1 0xA0 SHL SUB DUP2 AND DUP2 EQ PUSH2 0x15E5 JUMPI PUSH0 PUSH0 REVERT JUMPDEST POP JUMP JUMPDEST PUSH0 PUSH0 PUSH1 0x40 DUP4 DUP6 SUB SLT ISZERO PUSH2 0x15F9 JUMPI PUSH0 PUSH0 REVERT JUMPDEST DUP3 CALLDATALOAD PUSH2 0x1604 DUP2 PUSH2 0x15D1 JUMP JUMPDEST SWAP5 PUSH1 0x20 SWAP4 SWAP1 SWAP4 ADD CALLDATALOAD SWAP4 POP POP POP JUMP JUMPDEST PUSH0 PUSH0 PUSH0 PUSH0 PUSH0 PUSH1 0xA0 DUP7 DUP9 SUB SLT ISZERO PUSH2 0x1626 JUMPI PUSH0 PUSH0 REVERT JUMPDEST POP POP DUP4 CALLDATALOAD SWAP6 PUSH1 0x20 DUP6 ADD CALLDATALOAD SWAP6 POP PUSH1 0x40 DUP6 ADD CALLDATALOAD SWAP5 PUSH1 0x60 DUP2 ADD CALLDATALOAD SWAP5 POP PUSH1 0x80 ADD CALLDATALOAD SWAP3 POP SWAP1 POP JUMP JUMPDEST PUSH0 PUSH1 0x20 DUP3 DUP5 SUB SLT ISZERO PUSH2 0x1659 JUMPI PUSH0 PUSH0 REVERT JUMPDEST DUP2 CALLDATALOAD PUSH2 0x1664 DUP2 PUSH2 0x15D1 JUMP JUMPDEST SWAP4 SWAP3 POP POP POP JUMP JUMPDEST PUSH0 PUSH1 0x20 DUP3 DUP5 SUB SLT ISZERO PUSH2 0x167B JUMPI PUSH0 PUSH0 REVERT JUMPDEST POP CALLDATALOAD SWAP2 SWAP1 POP JUMP JUMPDEST PUSH0 PUSH0 PUSH0 PUSH0 PUSH0 PUSH0 PUSH0 PUSH1 0xE0 DUP9 DUP11 SUB SLT ISZERO PUSH2 0x1698 JUMPI PUSH0 PUSH0 REVERT JUMPDEST DUP8 CALLDATALOAD PUSH2 0x16A3 DUP2 PUSH2 0x15D1 JUMP JUMPDEST SWAP7 POP PUSH1 0x20 DUP9 ADD CALLDATALOAD PUSH2 0x16B3 DUP2 PUSH2 0x15D1 JUMP JUMPDEST SWAP7 SWAP10 SWAP7 SWAP9 POP POP POP POP PUSH1 0x40 DUP6 ADD CALLDATALOAD SWAP5 PUSH1 0x60 DUP2 ADD CALLDATALOAD SWAP5 PUSH1 0x80 DUP3 ADD CALLDATALOAD SWAP5 POP PUSH1 0xA0 DUP3 ADD CALLDATALOAD SWAP4 POP PUSH1 0xC0 SWAP1 SWAP2 ADD CALLDATALOAD SWAP2 POP JUMP JUMPDEST PUSH0 PUSH0 PUSH0 PUSH1 0x60 DUP5 DUP7 SUB SLT ISZERO PUSH2 0x16F1 JUMPI PUSH0 PUSH0 REVERT JUMPDEST DUP4 CALLDATALOAD PUSH2 0x16FC DUP2 PUSH2 0x15D1 JUMP JUMPDEST SWAP3 POP PUSH1 0x20 DUP5 ADD CALLDATALOAD PUSH2 0x170C DUP2 PUSH2 0x15D1 JUMP JUMPDEST SWAP3 SWAP6 SWAP3 SWAP5 POP POP POP PUSH1 0x40 SWAP2 SWAP1 SWAP2 ADD CALLDATALOAD SWAP1 JUMP JUMPDEST PUSH0 PUSH1 0x20 DUP3 DUP5 SUB SLT ISZERO PUSH2 0x172D JUMPI PUSH0 PUSH0 REVERT JUMPDEST DUP2 MLOAD PUSH2 0x1664 DUP2 PUSH2 0x15D1 JUMP JUMPDEST PUSH0 PUSH1 0x20 DUP3 DUP5 SUB SLT ISZERO PUSH2 0x1748 JUMPI PUSH0 PUSH0 REVERT JUMPDEST POP MLOAD SWAP2 SWAP1 POP JUMP JUMPDEST PUSH4 0x4E487B71 PUSH1 0xE0 SHL PUSH0 MSTORE PUSH1 0x11 PUSH1 0x4 MSTORE PUSH1 0x24 PUSH0 REVERT JUMPDEST DUP2 DUP2 SUB DUP2 DUP2 GT ISZERO PUSH2 0x142A JUMPI PUSH2 0x142A PUSH2 0x174F JUMP JUMPDEST DUP1 DUP3 ADD DUP1 DUP3 GT ISZERO PUSH2 0x142A JUMPI PUSH2 0x142A PUSH2 0x174F JUMP JUMPDEST DUP1 DUP3 MUL DUP2 ISZERO DUP3 DUP3 DIV DUP5 EQ OR PUSH2 0x142A JUMPI PUSH2 0x142A PUSH2 0x174F JUMP JUMPDEST PUSH0 DUP3 PUSH2 0x17BA JUMPI PUSH4 0x4E487B71 PUSH1 0xE0 SHL PUSH0 MSTORE PUSH1 0x12 PUSH1 0x4 MSTORE PUSH1 0x24 PUSH0 REVERT JUMPDEST POP DIV SWAP1 JUMP INVALID LOG2 PUSH5 0x6970667358 0x22 SLT KECCAK256 0x2D BASEFEE 0xD3 GASPRICE 0xE8 EQ 0xC2 0xFB MOD 0xE CALLCODE 0xB0 0xC7 CALLDATASIZE 0xEE 0xC9 0x1F PUSH6 0x409A66BE9E3A 0xE6 SLT DUP12 DUP3 0xCA 0xDD DUP11 SELFBALANCE PUSH5 0x736F6C6343 STOP ADDMOD SHR STOP CALLER "},"methodIdentifiers":{"allowanceAmount()":"375d69df","allowancePeriod()":"aab3ab95","claimAllowance(address)":"56137a5e","factory()":"c45a0155","getSavingsValue(address)":"a4949af6","initialize(address,address,uint256,uint256,uint256,uint256,uint256)":"edbf4ac2","lastAllowanceRelease()":"943f213f","lockedPct()":"39382ab9","lockedShares()":"e95502fb","operatingPct()":"acd78de4","owner()":"8da5cb5b","payAndSave(address,address,uint256)":"f6d0bfa3","processPayment(address)":"8fe123d7","savePct()":"aee7f096","savedPrincipal()":"3e4199cd","savedShares()":"72d7c5ce","treasuryPct()":"9981f5f3","treasuryShares()":"baec8b0f","updateSavePct(uint256)":"661d0d66","updateSettings(uint256,uint256,uint256,uint256,uint256)":"30c2c3b9","withdrawSavings(address,uint256)":"c9671c33","withdrawTreasury(address,uint256)":"0d86419a"}}}}}