{
  "_format": "hh3-artifact-1",
  "contractName": "Dummy",
  "sourceName": "contracts/mocks/Dummy.sol",
  "abi": [
    {
      "inputs": [],
      "name": "token",
      "outputs": [
        {
          "internalType": "contract IERC20",
          "name": "",
          "type": "address"
        }
      ],
      "stateMutability": "view",
      "type": "function"
    }
  ],
  "bytecode": "0x6080604052348015600e575f5ffd5b50608d80601a5f395ff3fe6080604052348015600e575f5ffd5b50600436106026575f3560e01c8063fc0c546a14602a575b5f5ffd5b5f54603b906001600160a01b031681565b6040516001600160a01b03909116815260200160405180910390f3fea2646970667358221220bf7ad18b4dbdcbf93a28c2dadd166416b6e3ac434d4f895b0834bd9378bd2ff064736f6c634300081c0033",
  "linkReferences": {},
  "deployedLinkReferences": {},
  "immutableReferences": {},
  "inputSourceName": "project/contracts/mocks/Dummy.sol",
  "buildInfoId": "solc-0_8_28-0d2dc6d10f08b4fa4a81d844347511b99780aa21"
}