{
  "_format": "hh3-artifact-1",
  "contractName": "Dummy",
  "sourceName": "contracts/mocks/Dummy.sol",
  "abi": [
    {
      "inputs": [],
      "name": "token",
      "outputs": [
        {
          "internalType": "contract IERC20",
          "name": "",
          "type": "address"
        }
      ],
      "stateMutability": "view",
      "type": "function"
    }
  ],
  "bytecode": "0x6080604052348015600e575f5ffd5b50608d80601a5f395ff3fe6080604052348015600e575f5ffd5b50600436106026575f3560e01c8063fc0c546a14602a575b5f5ffd5b5f54603b906001600160a01b031681565b6040516001600160a01b03909116815260200160405180910390f3fea2646970667358221220cd1a03f382308245b7d3fd92179c6297b2e63be8f0cb3d6db99f166d824a0fbe64736f6c634300081c0033",
  "linkReferences": {},
  "deployedLinkReferences": {},
  "immutableReferences": {},
  "inputSourceName": "project/contracts/mocks/Dummy.sol",
  "buildInfoId": "solc-0_8_28-c112d2d9d33c26c67946bd29f127068b117305fd"
}