{
  "_format": "hh3-artifact-1",
  "contractName": "SmartRouter",
  "sourceName": "contracts/SmartRouter.sol",
  "abi": [
    {
      "inputs": [],
      "stateMutability": "nonpayable",
      "type": "constructor"
    },
    {
      "inputs": [],
      "name": "AllowancePeriodNotMet",
      "type": "error"
    },
    {
      "inputs": [],
      "name": "ExceedsMaxPercentage",
      "type": "error"
    },
    {
      "inputs": [],
      "name": "InsufficientLockedShares",
      "type": "error"
    },
    {
      "inputs": [],
      "name": "InsufficientSavedShares",
      "type": "error"
    },
    {
      "inputs": [],
      "name": "InsufficientTreasuryShares",
      "type": "error"
    },
    {
      "inputs": [],
      "name": "InvalidInitialization",
      "type": "error"
    },
    {
      "inputs": [],
      "name": "InvalidPercentages",
      "type": "error"
    },
    {
      "inputs": [],
      "name": "NotInitializing",
      "type": "error"
    },
    {
      "inputs": [
        {
          "internalType": "address",
          "name": "token",
          "type": "address"
        }
      ],
      "name": "SafeERC20FailedOperation",
      "type": "error"
    },
    {
      "inputs": [],
      "name": "Unauthorized",
      "type": "error"
    },
    {
      "inputs": [],
      "name": "VaultNotSupported",
      "type": "error"
    },
    {
      "anonymous": false,
      "inputs": [
        {
          "indexed": true,
          "internalType": "address",
          "name": "token",
          "type": "address"
        },
        {
          "indexed": false,
          "internalType": "uint256",
          "name": "amountClaimed",
          "type": "uint256"
        },
        {
          "indexed": false,
          "internalType": "uint256",
          "name": "sharesBurned",
          "type": "uint256"
        }
      ],
      "name": "AllowanceClaimed",
      "type": "event"
    },
    {
      "anonymous": false,
      "inputs": [
        {
          "indexed": false,
          "internalType": "uint64",
          "name": "version",
          "type": "uint64"
        }
      ],
      "name": "Initialized",
      "type": "event"
    },
    {
      "anonymous": false,
      "inputs": [
        {
          "indexed": true,
          "internalType": "address",
          "name": "token",
          "type": "address"
        },
        {
          "indexed": false,
          "internalType": "uint256",
          "name": "totalAmount",
          "type": "uint256"
        },
        {
          "indexed": false,
          "internalType": "uint256",
          "name": "operatingAmount",
          "type": "uint256"
        },
        {
          "indexed": false,
          "internalType": "uint256",
          "name": "treasurySharesMinted",
          "type": "uint256"
        },
        {
          "indexed": false,
          "internalType": "uint256",
          "name": "lockedSharesMinted",
          "type": "uint256"
        }
      ],
      "name": "PaymentProcessed",
      "type": "event"
    },
    {
      "anonymous": false,
      "inputs": [
        {
          "indexed": true,
          "internalType": "address",
          "name": "token",
          "type": "address"
        },
        {
          "indexed": true,
          "internalType": "address",
          "name": "recipient",
          "type": "address"
        },
        {
          "indexed": false,
          "internalType": "uint256",
          "name": "amountSent",
          "type": "uint256"
        },
        {
          "indexed": false,
          "internalType": "uint256",
          "name": "amountSaved",
          "type": "uint256"
        },
        {
          "indexed": false,
          "internalType": "uint256",
          "name": "sharesMinted",
          "type": "uint256"
        }
      ],
      "name": "PaymentSentAndSaved",
      "type": "event"
    },
    {
      "anonymous": false,
      "inputs": [
        {
          "indexed": false,
          "internalType": "uint256",
          "name": "newSavePct",
          "type": "uint256"
        }
      ],
      "name": "SavePctUpdated",
      "type": "event"
    },
    {
      "anonymous": false,
      "inputs": [
        {
          "indexed": true,
          "internalType": "address",
          "name": "token",
          "type": "address"
        },
        {
          "indexed": false,
          "internalType": "uint256",
          "name": "amountWithdrawn",
          "type": "uint256"
        },
        {
          "indexed": false,
          "internalType": "uint256",
          "name": "sharesBurned",
          "type": "uint256"
        }
      ],
      "name": "SavingsWithdrawn",
      "type": "event"
    },
    {
      "anonymous": false,
      "inputs": [
        {
          "indexed": false,
          "internalType": "uint256",
          "name": "operatingPct",
          "type": "uint256"
        },
        {
          "indexed": false,
          "internalType": "uint256",
          "name": "treasuryPct",
          "type": "uint256"
        },
        {
          "indexed": false,
          "internalType": "uint256",
          "name": "lockedPct",
          "type": "uint256"
        },
        {
          "indexed": false,
          "internalType": "uint256",
          "name": "allowanceAmount",
          "type": "uint256"
        },
        {
          "indexed": false,
          "internalType": "uint256",
          "name": "allowancePeriod",
          "type": "uint256"
        }
      ],
      "name": "SettingsUpdated",
      "type": "event"
    },
    {
      "anonymous": false,
      "inputs": [
        {
          "indexed": true,
          "internalType": "address",
          "name": "token",
          "type": "address"
        },
        {
          "indexed": false,
          "internalType": "uint256",
          "name": "amountWithdrawn",
          "type": "uint256"
        },
        {
          "indexed": false,
          "internalType": "uint256",
          "name": "sharesBurned",
          "type": "uint256"
        }
      ],
      "name": "TreasuryWithdrawn",
      "type": "event"
    },
    {
      "inputs": [],
      "name": "allowanceAmount",
      "outputs": [
        {
          "internalType": "uint256",
          "name": "",
          "type": "uint256"
        }
      ],
      "stateMutability": "view",
      "type": "function"
    },
    {
      "inputs": [],
      "name": "allowancePeriod",
      "outputs": [
        {
          "internalType": "uint256",
          "name": "",
          "type": "uint256"
        }
      ],
      "stateMutability": "view",
      "type": "function"
    },
    {
      "inputs": [
        {
          "internalType": "address",
          "name": "token",
          "type": "address"
        }
      ],
      "name": "claimAllowance",
      "outputs": [],
      "stateMutability": "nonpayable",
      "type": "function"
    },
    {
      "inputs": [],
      "name": "factory",
      "outputs": [
        {
          "internalType": "address",
          "name": "",
          "type": "address"
        }
      ],
      "stateMutability": "view",
      "type": "function"
    },
    {
      "inputs": [
        {
          "internalType": "address",
          "name": "token",
          "type": "address"
        }
      ],
      "name": "getSavingsValue",
      "outputs": [
        {
          "internalType": "uint256",
          "name": "principal",
          "type": "uint256"
        },
        {
          "internalType": "uint256",
          "name": "totalValue",
          "type": "uint256"
        },
        {
          "internalType": "uint256",
          "name": "yieldEarned",
          "type": "uint256"
        }
      ],
      "stateMutability": "view",
      "type": "function"
    },
    {
      "inputs": [
        {
          "internalType": "address",
          "name": "_owner",
          "type": "address"
        },
        {
          "internalType": "address",
          "name": "_factory",
          "type": "address"
        },
        {
          "internalType": "uint256",
          "name": "_operatingPct",
          "type": "uint256"
        },
        {
          "internalType": "uint256",
          "name": "_treasuryPct",
          "type": "uint256"
        },
        {
          "internalType": "uint256",
          "name": "_lockedPct",
          "type": "uint256"
        },
        {
          "internalType": "uint256",
          "name": "_allowanceAmount",
          "type": "uint256"
        },
        {
          "internalType": "uint256",
          "name": "_allowancePeriod",
          "type": "uint256"
        }
      ],
      "name": "initialize",
      "outputs": [],
      "stateMutability": "nonpayable",
      "type": "function"
    },
    {
      "inputs": [],
      "name": "lastAllowanceRelease",
      "outputs": [
        {
          "internalType": "uint256",
          "name": "",
          "type": "uint256"
        }
      ],
      "stateMutability": "view",
      "type": "function"
    },
    {
      "inputs": [],
      "name": "lockedPct",
      "outputs": [
        {
          "internalType": "uint256",
          "name": "",
          "type": "uint256"
        }
      ],
      "stateMutability": "view",
      "type": "function"
    },
    {
      "inputs": [],
      "name": "lockedShares",
      "outputs": [
        {
          "internalType": "uint256",
          "name": "",
          "type": "uint256"
        }
      ],
      "stateMutability": "view",
      "type": "function"
    },
    {
      "inputs": [],
      "name": "operatingPct",
      "outputs": [
        {
          "internalType": "uint256",
          "name": "",
          "type": "uint256"
        }
      ],
      "stateMutability": "view",
      "type": "function"
    },
    {
      "inputs": [],
      "name": "owner",
      "outputs": [
        {
          "internalType": "address",
          "name": "",
          "type": "address"
        }
      ],
      "stateMutability": "view",
      "type": "function"
    },
    {
      "inputs": [
        {
          "internalType": "address",
          "name": "token",
          "type": "address"
        },
        {
          "internalType": "address",
          "name": "recipient",
          "type": "address"
        },
        {
          "internalType": "uint256",
          "name": "amount",
          "type": "uint256"
        }
      ],
      "name": "payAndSave",
      "outputs": [],
      "stateMutability": "nonpayable",
      "type": "function"
    },
    {
      "inputs": [
        {
          "internalType": "address",
          "name": "token",
          "type": "address"
        }
      ],
      "name": "processPayment",
      "outputs": [],
      "stateMutability": "nonpayable",
      "type": "function"
    },
    {
      "inputs": [],
      "name": "savePct",
      "outputs": [
        {
          "internalType": "uint256",
          "name": "",
          "type": "uint256"
        }
      ],
      "stateMutability": "view",
      "type": "function"
    },
    {
      "inputs": [],
      "name": "savedPrincipal",
      "outputs": [
        {
          "internalType": "uint256",
          "name": "",
          "type": "uint256"
        }
      ],
      "stateMutability": "view",
      "type": "function"
    },
    {
      "inputs": [],
      "name": "savedShares",
      "outputs": [
        {
          "internalType": "uint256",
          "name": "",
          "type": "uint256"
        }
      ],
      "stateMutability": "view",
      "type": "function"
    },
    {
      "inputs": [],
      "name": "treasuryPct",
      "outputs": [
        {
          "internalType": "uint256",
          "name": "",
          "type": "uint256"
        }
      ],
      "stateMutability": "view",
      "type": "function"
    },
    {
      "inputs": [],
      "name": "treasuryShares",
      "outputs": [
        {
          "internalType": "uint256",
          "name": "",
          "type": "uint256"
        }
      ],
      "stateMutability": "view",
      "type": "function"
    },
    {
      "inputs": [
        {
          "internalType": "uint256",
          "name": "_savePct",
          "type": "uint256"
        }
      ],
      "name": "updateSavePct",
      "outputs": [],
      "stateMutability": "nonpayable",
      "type": "function"
    },
    {
      "inputs": [
        {
          "internalType": "uint256",
          "name": "_operatingPct",
          "type": "uint256"
        },
        {
          "internalType": "uint256",
          "name": "_treasuryPct",
          "type": "uint256"
        },
        {
          "internalType": "uint256",
          "name": "_lockedPct",
          "type": "uint256"
        },
        {
          "internalType": "uint256",
          "name": "_allowanceAmount",
          "type": "uint256"
        },
        {
          "internalType": "uint256",
          "name": "_allowancePeriod",
          "type": "uint256"
        }
      ],
      "name": "updateSettings",
      "outputs": [],
      "stateMutability": "nonpayable",
      "type": "function"
    },
    {
      "inputs": [
        {
          "internalType": "address",
          "name": "token",
          "type": "address"
        },
        {
          "internalType": "uint256",
          "name": "amount",
          "type": "uint256"
        }
      ],
      "name": "withdrawSavings",
      "outputs": [],
      "stateMutability": "nonpayable",
      "type": "function"
    },
    {
      "inputs": [
        {
          "internalType": "address",
          "name": "token",
          "type": "address"
        },
        {
          "internalType": "uint256",
          "name": "amount",
          "type": "uint256"
        }
      ],
      "name": "withdrawTreasury",
      "outputs": [],
      "stateMutability": "nonpayable",
      "type": "function"
    }
  ],
  "bytecode": "0x6080604052348015600e575f5ffd5b5060156019565b60c9565b7ff0c57e16840df040f15088dc2f81fe391c3923bec73e23a9662efc9c229c6a00805468010000000000000000900460ff161560685760405163f92ee8a960e01b815260040160405180910390fd5b80546001600160401b039081161460c65780546001600160401b0319166001600160401b0390811782556040519081527fc7f505b2f371ae2175ee4913f4499e1f2633a7b5936321eed1cdaeb6115181d29060200160405180910390a15b50565b6117f5806100d65f395ff3fe608060405234801561000f575f5ffd5b506004361061013d575f3560e01c80639981f5f3116100b4578063baec8b0f11610079578063baec8b0f1461025e578063c45a015514610267578063c9671c331461027a578063e95502fb1461028d578063edbf4ac214610296578063f6d0bfa3146102a9575f5ffd5b80639981f5f31461020c578063a4949af614610215578063aab3ab9514610243578063acd78de41461024c578063aee7f09614610255575f5ffd5b806356137a5e1161010557806356137a5e14610197578063661d0d66146101aa57806372d7c5ce146101bd5780638da5cb5b146101c65780638fe123d7146101f0578063943f213f14610203575f5ffd5b80630d86419a1461014157806330c2c3b914610156578063375d69df1461016957806339382ab9146101855780633e4199cd1461018e575b5f5ffd5b61015461014f3660046115e8565b6102bc565b005b610154610164366004611612565b610507565b61017260055481565b6040519081526020015b60405180910390f35b61017260045481565b610172600b5481565b6101546101a5366004611649565b6105d5565b6101546101b836600461166b565b610828565b610172600c5481565b5f546101d8906001600160a01b031681565b6040516001600160a01b03909116815260200161017c565b6101546101fe366004611649565b6108ae565b61017260075481565b61017260035481565b610228610223366004611649565b610b85565b6040805193845260208401929092529082015260600161017c565b61017260065481565b61017260025481565b610172600a5481565b61017260085481565b6001546101d8906001600160a01b031681565b6101546102883660046115e8565b610ca4565b61017260095481565b6101546102a4366004611682565b610f94565b6101546102b73660046116df565b61110c565b5f546001600160a01b031633146102e5576040516282b42960e81b815260040160405180910390fd5b6001546040516301d735e760e31b81526001600160a01b0384811660048301525f921690630eb9af3890602401602060405180830381865afa15801561032d573d5f5f3e3d5ffd5b505050506040513d601f19601f82011682018060405250810190610351919061171d565b90506001600160a01b03811661037a57604051630434df1960e51b815260040160405180910390fd5b805f6001840161038d5750600854610419565b604051630a28a47760e01b8152600481018590526001600160a01b03831690630a28a47790602401602060405180830381865afa1580156103d0573d5f5f3e3d5ffd5b505050506040513d601f19601f820116820180604052508101906103f49190611738565b9050600854811115610419576040516335389bb760e21b815260040160405180910390fd5b805f03610427575050505050565b8060085f8282546104389190611763565b90915550505f8054604051635d043b2960e11b8152600481018490526001600160a01b0391821660248201523060448201529084169063ba087652906064016020604051808303815f875af1158015610493573d5f5f3e3d5ffd5b505050506040513d601f19601f820116820180604052508101906104b79190611738565b60408051828152602081018590529192506001600160a01b038816917fca7c146a476020a9685b6af4c572d3e244456e8d02dad016e5ed59ff64a2fdd9910160405180910390a2505050505b5050565b5f546001600160a01b03163314610530576040516282b42960e81b815260040160405180910390fd5b8261053b8587611776565b6105459190611776565b6127101461056657604051636d2fd3c960e01b815260040160405180910390fd5b60028590556003849055600483905560058290556006819055604080518681526020810186905290810184905260608101839052608081018290527fab98f6a91485c352fb01422a5fe72d10488727444633a4110d7716c51d5117719060a00160405180910390a15050505050565b6006546007546105e59190611776565b42101561060557604051630529bc3360e11b815260040160405180910390fd5b6005545f036106115750565b6001546040516301d735e760e31b81526001600160a01b0383811660048301525f921690630eb9af3890602401602060405180830381865afa158015610659573d5f5f3e3d5ffd5b505050506040513d601f19601f8201168201806040525081019061067d919061171d565b90506001600160a01b0381166106a657604051630434df1960e51b815260040160405180910390fd5b600554604051630a28a47760e01b8152600481019190915281905f906001600160a01b03831690630a28a47790602401602060405180830381865afa1580156106f1573d5f5f3e3d5ffd5b505050506040513d601f19601f820116820180604052508101906107159190611738565b905060095481111561072657506009545b805f03610746576040516389206fd560e01b815260040160405180910390fd5b8060095f8282546107579190611763565b9091555050426007555f8054604051635d043b2960e11b8152600481018490526001600160a01b0391821660248201523060448201529084169063ba087652906064016020604051808303815f875af11580156107b6573d5f5f3e3d5ffd5b505050506040513d601f19601f820116820180604052508101906107da9190611738565b60408051828152602081018590529192506001600160a01b038716917fe7cc88d9e42671078205d391c6b754aea00a5faa1d2e50ded3f7139500f2f98c910160405180910390a25050505050565b5f546001600160a01b03163314610851576040516282b42960e81b815260040160405180910390fd5b612710811115610873576040516253709f60e01b815260040160405180910390fd5b600a8190556040518181527f88e3d44810ace986c49a4b1737e3951ca5b42c4ecb5611219a3c38086cc129b79060200160405180910390a150565b6040516370a0823160e01b81523060048201525f906001600160a01b038316906370a0823190602401602060405180830381865afa1580156108f2573d5f5f3e3d5ffd5b505050506040513d601f19601f820116820180604052508101906109169190611738565b9050805f03610923575050565b5f612710600254836109359190611789565b61093f91906117a0565b90505f612710600354846109539190611789565b61095d91906117a0565b90505f8161096b8486611763565b6109759190611763565b90508215610996575f54610996906001600160a01b0387811691168561133a565b5f6109a18284611776565b90505f808215610b28576001546040516301d735e760e31b81526001600160a01b038a811660048301525f921690630eb9af3890602401602060405180830381865afa1580156109f3573d5f5f3e3d5ffd5b505050506040513d601f19601f82011682018060405250810190610a17919061171d565b90506001600160a01b038116610a4057604051630434df1960e51b815260040160405180910390fd5b80610a556001600160a01b038b168287611379565b604051636e553f6560e01b8152600481018690523060248201525f906001600160a01b03831690636e553f65906044016020604051808303815f875af1158015610aa1573d5f5f3e3d5ffd5b505050506040513d601f19601f82011682018060405250810190610ac59190611738565b90508715610afb5785610ad88983611789565b610ae291906117a0565b94508460085f828254610af59190611776565b90915550505b8615610b2457610b0b8582611763565b93508360095f828254610b1e9190611776565b90915550505b5050505b6040805188815260208101889052908101839052606081018290526001600160a01b038916907ff2c7c61aab9019a0417876fee95ea2ce79b2da32f8f2b41271429475b2cf4c239060800160405180910390a25050505050505050565b600b54600c545f90819015610c81576001546040516301d735e760e31b81526001600160a01b0386811660048301525f921690630eb9af3890602401602060405180830381865afa158015610bdc573d5f5f3e3d5ffd5b505050506040513d601f19601f82011682018060405250810190610c00919061171d565b90506001600160a01b03811615610c7f57600c5460405163266d6a8360e11b815260048101919091526001600160a01b03821690634cdad50690602401602060405180830381865afa158015610c58573d5f5f3e3d5ffd5b505050506040513d601f19601f82011682018060405250810190610c7c9190611738565b92505b505b82821115610c9a57610c938383611763565b9050610c9d565b505f5b9193909250565b5f546001600160a01b03163314610ccd576040516282b42960e81b815260040160405180910390fd5b8015610503576001546040516301d735e760e31b81526001600160a01b0384811660048301525f921690630eb9af3890602401602060405180830381865afa158015610d1b573d5f5f3e3d5ffd5b505050506040513d601f19601f82011682018060405250810190610d3f919061171d565b90506001600160a01b038116610d6857604051630434df1960e51b815260040160405180910390fd5b805f60018401610de45750600c5460405163266d6a8360e11b8152600481018290526001600160a01b03831690634cdad50690602401602060405180830381865afa158015610db9573d5f5f3e3d5ffd5b505050506040513d601f19601f82011682018060405250810190610ddd9190611738565b9350610e70565b604051630a28a47760e01b8152600481018590526001600160a01b03831690630a28a47790602401602060405180830381865afa158015610e27573d5f5f3e3d5ffd5b505050506040513d601f19601f82011682018060405250810190610e4b9190611738565b9050600c54811115610e705760405163fec82cd760e01b815260040160405180910390fd5b805f03610e7e575050505050565b5f600c54600b5483610e909190611789565b610e9a91906117a0565b905080600b5f828254610ead9190611763565b9250508190555081600c5f828254610ec59190611763565b90915550505f8054604051635d043b2960e11b8152600481018590526001600160a01b0391821660248201523060448201529085169063ba087652906064016020604051808303815f875af1158015610f20573d5f5f3e3d5ffd5b505050506040513d601f19601f82011682018060405250810190610f449190611738565b60408051828152602081018690529192506001600160a01b038916917f93da32e64263d25ace24ccb77425144ddc5d0dd0f4dfc1d3bc6ff0114ac7049a910160405180910390a250505050505050565b5f610f9d611406565b805490915060ff600160401b820416159067ffffffffffffffff165f81158015610fc45750825b90505f8267ffffffffffffffff166001148015610fe05750303b155b905081158015610fee575080155b1561100c5760405163f92ee8a960e01b815260040160405180910390fd5b845467ffffffffffffffff19166001178555831561103657845460ff60401b1916600160401b1785555b5f80546001600160a01b03808f166001600160a01b03199283161790925560018054928e1692909116919091179055876110708a8c611776565b61107a9190611776565b6127101461109b57604051636d2fd3c960e01b815260040160405180910390fd5b60028a905560038990556004889055600587905560068690554260075583156110fe57845460ff60401b19168555604051600181527fc7f505b2f371ae2175ee4913f4499e1f2633a7b5936321eed1cdaeb6115181d29060200160405180910390a15b505050505050505050505050565b5f546001600160a01b03163314611135576040516282b42960e81b815260040160405180910390fd5b5f612710600a54836111479190611789565b61115191906117a0565b90505f61115e8284611776565b5f5490915061117b906001600160a01b0387811691163084611430565b61118f6001600160a01b038616858561133a565b5f82156112e1576001546040516301d735e760e31b81526001600160a01b0388811660048301525f921690630eb9af3890602401602060405180830381865afa1580156111de573d5f5f3e3d5ffd5b505050506040513d601f19601f82011682018060405250810190611202919061171d565b90506001600160a01b03811661122b57604051630434df1960e51b815260040160405180910390fd5b806112406001600160a01b0389168287611379565b604051636e553f6560e01b8152600481018690523060248201526001600160a01b03821690636e553f65906044016020604051808303815f875af115801561128a573d5f5f3e3d5ffd5b505050506040513d601f19601f820116820180604052508101906112ae9190611738565b925084600b5f8282546112c19190611776565b9250508190555082600c5f8282546112d99190611776565b909155505050505b60408051858152602081018590529081018290526001600160a01b0380871691908816907f6b1716847a6a1a5b10db02f856b217aafb323fba68d1e0fc63f313d592cf81d19060600160405180910390a3505050505050565b6113478383836001611466565b61137457604051635274afe760e01b81526001600160a01b03841660048201526024015b60405180910390fd5b505050565b604051636eb1769f60e11b81523060048201526001600160a01b0383811660248301525f919085169063dd62ed3e90604401602060405180830381865afa1580156113c6573d5f5f3e3d5ffd5b505050506040513d601f19601f820116820180604052508101906113ea9190611738565b905061140084846113fb8585611776565b6114c8565b50505050565b5f807ff0c57e16840df040f15088dc2f81fe391c3923bec73e23a9662efc9c229c6a005b92915050565b61143e84848484600161151a565b61140057604051635274afe760e01b81526001600160a01b038516600482015260240161136b565b60405163a9059cbb60e01b5f8181526001600160a01b038616600452602485905291602083604481808b5af1925060015f511483166114bc5783831516156114b0573d5f823e3d81fd5b5f873b113d1516831692505b60405250949350505050565b6114d48383835f611587565b611374576114e583835f6001611587565b61150d57604051635274afe760e01b81526001600160a01b038416600482015260240161136b565b6113478383836001611587565b6040516323b872dd60e01b5f8181526001600160a01b038781166004528616602452604485905291602083606481808c5af1925060015f5114831661157657838315161561156a573d5f823e3d81fd5b5f883b113d1516831692505b604052505f60605295945050505050565b60405163095ea7b360e01b5f8181526001600160a01b038616600452602485905291602083604481808b5af1925060015f511483166114bc5783831516156114b0573d5f823e3d81fd5b6001600160a01b03811681146115e5575f5ffd5b50565b5f5f604083850312156115f9575f5ffd5b8235611604816115d1565b946020939093013593505050565b5f5f5f5f5f60a08688031215611626575f5ffd5b505083359560208501359550604085013594606081013594506080013592509050565b5f60208284031215611659575f5ffd5b8135611664816115d1565b9392505050565b5f6020828403121561167b575f5ffd5b5035919050565b5f5f5f5f5f5f5f60e0888a031215611698575f5ffd5b87356116a3816115d1565b965060208801356116b3816115d1565b96999698505050506040850135946060810135946080820135945060a0820135935060c0909101359150565b5f5f5f606084860312156116f1575f5ffd5b83356116fc816115d1565b9250602084013561170c816115d1565b929592945050506040919091013590565b5f6020828403121561172d575f5ffd5b8151611664816115d1565b5f60208284031215611748575f5ffd5b5051919050565b634e487b7160e01b5f52601160045260245ffd5b8181038181111561142a5761142a61174f565b8082018082111561142a5761142a61174f565b808202811582820484141761142a5761142a61174f565b5f826117ba57634e487b7160e01b5f52601260045260245ffd5b50049056fea26469706673582212202d48d33ae814c2fb060ef2b0c736eec91f65409a66be9e3ae6128b82cadd8a4764736f6c634300081c0033",
  "linkReferences": {},
  "deployedLinkReferences": {},
  "immutableReferences": {},
  "inputSourceName": "project/contracts/SmartRouter.sol",
  "buildInfoId": "solc-0_8_28-ce9ddefd52e59425b880ba3fc5b5533a7ce4b41e"
}