{
  "_format": "hh3-artifact-1",
  "contractName": "SmartRouter",
  "sourceName": "contracts/SmartRouter.sol",
  "abi": [
    {
      "inputs": [],
      "stateMutability": "nonpayable",
      "type": "constructor"
    },
    {
      "inputs": [],
      "name": "AllowancePeriodNotMet",
      "type": "error"
    },
    {
      "inputs": [],
      "name": "ExceedsMaxPercentage",
      "type": "error"
    },
    {
      "inputs": [],
      "name": "InsufficientLockedShares",
      "type": "error"
    },
    {
      "inputs": [],
      "name": "InsufficientSavedShares",
      "type": "error"
    },
    {
      "inputs": [],
      "name": "InsufficientTreasuryShares",
      "type": "error"
    },
    {
      "inputs": [],
      "name": "InvalidInitialization",
      "type": "error"
    },
    {
      "inputs": [],
      "name": "InvalidPercentages",
      "type": "error"
    },
    {
      "inputs": [],
      "name": "NoPendingOwner",
      "type": "error"
    },
    {
      "inputs": [],
      "name": "NotInitializing",
      "type": "error"
    },
    {
      "inputs": [],
      "name": "ReentrancyGuardReentrantCall",
      "type": "error"
    },
    {
      "inputs": [
        {
          "internalType": "address",
          "name": "token",
          "type": "address"
        }
      ],
      "name": "SafeERC20FailedOperation",
      "type": "error"
    },
    {
      "inputs": [],
      "name": "Unauthorized",
      "type": "error"
    },
    {
      "inputs": [],
      "name": "VaultNotSupported",
      "type": "error"
    },
    {
      "inputs": [],
      "name": "ZeroAddress",
      "type": "error"
    },
    {
      "anonymous": false,
      "inputs": [
        {
          "indexed": true,
          "internalType": "address",
          "name": "token",
          "type": "address"
        },
        {
          "indexed": false,
          "internalType": "uint256",
          "name": "amountClaimed",
          "type": "uint256"
        },
        {
          "indexed": false,
          "internalType": "uint256",
          "name": "sharesBurned",
          "type": "uint256"
        }
      ],
      "name": "AllowanceClaimed",
      "type": "event"
    },
    {
      "anonymous": false,
      "inputs": [
        {
          "indexed": true,
          "internalType": "address",
          "name": "token",
          "type": "address"
        },
        {
          "indexed": false,
          "internalType": "uint256",
          "name": "amount",
          "type": "uint256"
        }
      ],
      "name": "EmergencyWithdraw",
      "type": "event"
    },
    {
      "anonymous": false,
      "inputs": [
        {
          "indexed": false,
          "internalType": "uint64",
          "name": "version",
          "type": "uint64"
        }
      ],
      "name": "Initialized",
      "type": "event"
    },
    {
      "anonymous": false,
      "inputs": [
        {
          "indexed": true,
          "internalType": "address",
          "name": "previousOwner",
          "type": "address"
        },
        {
          "indexed": true,
          "internalType": "address",
          "name": "newOwner",
          "type": "address"
        }
      ],
      "name": "OwnershipTransferStarted",
      "type": "event"
    },
    {
      "anonymous": false,
      "inputs": [
        {
          "indexed": true,
          "internalType": "address",
          "name": "previousOwner",
          "type": "address"
        },
        {
          "indexed": true,
          "internalType": "address",
          "name": "newOwner",
          "type": "address"
        }
      ],
      "name": "OwnershipTransferred",
      "type": "event"
    },
    {
      "anonymous": false,
      "inputs": [
        {
          "indexed": true,
          "internalType": "address",
          "name": "token",
          "type": "address"
        },
        {
          "indexed": false,
          "internalType": "uint256",
          "name": "totalAmount",
          "type": "uint256"
        },
        {
          "indexed": false,
          "internalType": "uint256",
          "name": "operatingAmount",
          "type": "uint256"
        },
        {
          "indexed": false,
          "internalType": "uint256",
          "name": "treasurySharesMinted",
          "type": "uint256"
        },
        {
          "indexed": false,
          "internalType": "uint256",
          "name": "lockedSharesMinted",
          "type": "uint256"
        }
      ],
      "name": "PaymentProcessed",
      "type": "event"
    },
    {
      "anonymous": false,
      "inputs": [
        {
          "indexed": true,
          "internalType": "address",
          "name": "token",
          "type": "address"
        },
        {
          "indexed": true,
          "internalType": "address",
          "name": "recipient",
          "type": "address"
        },
        {
          "indexed": false,
          "internalType": "uint256",
          "name": "amountSent",
          "type": "uint256"
        },
        {
          "indexed": false,
          "internalType": "uint256",
          "name": "amountSaved",
          "type": "uint256"
        },
        {
          "indexed": false,
          "internalType": "uint256",
          "name": "sharesMinted",
          "type": "uint256"
        }
      ],
      "name": "PaymentSentAndSaved",
      "type": "event"
    },
    {
      "anonymous": false,
      "inputs": [
        {
          "indexed": false,
          "internalType": "uint256",
          "name": "newSavePct",
          "type": "uint256"
        }
      ],
      "name": "SavePctUpdated",
      "type": "event"
    },
    {
      "anonymous": false,
      "inputs": [
        {
          "indexed": true,
          "internalType": "address",
          "name": "token",
          "type": "address"
        },
        {
          "indexed": false,
          "internalType": "uint256",
          "name": "amountWithdrawn",
          "type": "uint256"
        },
        {
          "indexed": false,
          "internalType": "uint256",
          "name": "sharesBurned",
          "type": "uint256"
        }
      ],
      "name": "SavingsWithdrawn",
      "type": "event"
    },
    {
      "anonymous": false,
      "inputs": [
        {
          "indexed": false,
          "internalType": "uint256",
          "name": "operatingPct",
          "type": "uint256"
        },
        {
          "indexed": false,
          "internalType": "uint256",
          "name": "treasuryPct",
          "type": "uint256"
        },
        {
          "indexed": false,
          "internalType": "uint256",
          "name": "lockedPct",
          "type": "uint256"
        },
        {
          "indexed": false,
          "internalType": "uint256",
          "name": "allowanceAmount",
          "type": "uint256"
        },
        {
          "indexed": false,
          "internalType": "uint256",
          "name": "allowancePeriod",
          "type": "uint256"
        }
      ],
      "name": "SettingsUpdated",
      "type": "event"
    },
    {
      "anonymous": false,
      "inputs": [
        {
          "indexed": true,
          "internalType": "address",
          "name": "token",
          "type": "address"
        },
        {
          "indexed": false,
          "internalType": "uint256",
          "name": "amountWithdrawn",
          "type": "uint256"
        },
        {
          "indexed": false,
          "internalType": "uint256",
          "name": "sharesBurned",
          "type": "uint256"
        }
      ],
      "name": "TreasuryWithdrawn",
      "type": "event"
    },
    {
      "inputs": [],
      "name": "acceptOwnership",
      "outputs": [],
      "stateMutability": "nonpayable",
      "type": "function"
    },
    {
      "inputs": [],
      "name": "allowanceAmount",
      "outputs": [
        {
          "internalType": "uint256",
          "name": "",
          "type": "uint256"
        }
      ],
      "stateMutability": "view",
      "type": "function"
    },
    {
      "inputs": [],
      "name": "allowancePeriod",
      "outputs": [
        {
          "internalType": "uint256",
          "name": "",
          "type": "uint256"
        }
      ],
      "stateMutability": "view",
      "type": "function"
    },
    {
      "inputs": [
        {
          "internalType": "address",
          "name": "token",
          "type": "address"
        }
      ],
      "name": "claimAllowance",
      "outputs": [],
      "stateMutability": "nonpayable",
      "type": "function"
    },
    {
      "inputs": [
        {
          "internalType": "address",
          "name": "token",
          "type": "address"
        }
      ],
      "name": "emergencyWithdraw",
      "outputs": [],
      "stateMutability": "nonpayable",
      "type": "function"
    },
    {
      "inputs": [],
      "name": "factory",
      "outputs": [
        {
          "internalType": "address",
          "name": "",
          "type": "address"
        }
      ],
      "stateMutability": "view",
      "type": "function"
    },
    {
      "inputs": [
        {
          "internalType": "address",
          "name": "token",
          "type": "address"
        }
      ],
      "name": "getLockedValue",
      "outputs": [
        {
          "internalType": "uint256",
          "name": "",
          "type": "uint256"
        }
      ],
      "stateMutability": "view",
      "type": "function"
    },
    {
      "inputs": [
        {
          "internalType": "address",
          "name": "token",
          "type": "address"
        }
      ],
      "name": "getSavingsValue",
      "outputs": [
        {
          "internalType": "uint256",
          "name": "principal",
          "type": "uint256"
        },
        {
          "internalType": "uint256",
          "name": "totalValue",
          "type": "uint256"
        },
        {
          "internalType": "uint256",
          "name": "yieldEarned",
          "type": "uint256"
        }
      ],
      "stateMutability": "view",
      "type": "function"
    },
    {
      "inputs": [
        {
          "internalType": "address",
          "name": "token",
          "type": "address"
        }
      ],
      "name": "getTreasuryValue",
      "outputs": [
        {
          "internalType": "uint256",
          "name": "",
          "type": "uint256"
        }
      ],
      "stateMutability": "view",
      "type": "function"
    },
    {
      "inputs": [
        {
          "internalType": "address",
          "name": "_owner",
          "type": "address"
        },
        {
          "internalType": "address",
          "name": "_factory",
          "type": "address"
        },
        {
          "internalType": "uint256",
          "name": "_operatingPct",
          "type": "uint256"
        },
        {
          "internalType": "uint256",
          "name": "_treasuryPct",
          "type": "uint256"
        },
        {
          "internalType": "uint256",
          "name": "_lockedPct",
          "type": "uint256"
        },
        {
          "internalType": "uint256",
          "name": "_allowanceAmount",
          "type": "uint256"
        },
        {
          "internalType": "uint256",
          "name": "_allowancePeriod",
          "type": "uint256"
        }
      ],
      "name": "initialize",
      "outputs": [],
      "stateMutability": "nonpayable",
      "type": "function"
    },
    {
      "inputs": [],
      "name": "lastAllowanceRelease",
      "outputs": [
        {
          "internalType": "uint256",
          "name": "",
          "type": "uint256"
        }
      ],
      "stateMutability": "view",
      "type": "function"
    },
    {
      "inputs": [],
      "name": "lockedPct",
      "outputs": [
        {
          "internalType": "uint256",
          "name": "",
          "type": "uint256"
        }
      ],
      "stateMutability": "view",
      "type": "function"
    },
    {
      "inputs": [],
      "name": "lockedShares",
      "outputs": [
        {
          "internalType": "uint256",
          "name": "",
          "type": "uint256"
        }
      ],
      "stateMutability": "view",
      "type": "function"
    },
    {
      "inputs": [],
      "name": "operatingPct",
      "outputs": [
        {
          "internalType": "uint256",
          "name": "",
          "type": "uint256"
        }
      ],
      "stateMutability": "view",
      "type": "function"
    },
    {
      "inputs": [],
      "name": "owner",
      "outputs": [
        {
          "internalType": "address",
          "name": "",
          "type": "address"
        }
      ],
      "stateMutability": "view",
      "type": "function"
    },
    {
      "inputs": [
        {
          "internalType": "address",
          "name": "token",
          "type": "address"
        },
        {
          "internalType": "address",
          "name": "recipient",
          "type": "address"
        },
        {
          "internalType": "uint256",
          "name": "amount",
          "type": "uint256"
        }
      ],
      "name": "payAndSave",
      "outputs": [],
      "stateMutability": "nonpayable",
      "type": "function"
    },
    {
      "inputs": [],
      "name": "pendingOwner",
      "outputs": [
        {
          "internalType": "address",
          "name": "",
          "type": "address"
        }
      ],
      "stateMutability": "view",
      "type": "function"
    },
    {
      "inputs": [
        {
          "internalType": "address",
          "name": "token",
          "type": "address"
        }
      ],
      "name": "processPayment",
      "outputs": [],
      "stateMutability": "nonpayable",
      "type": "function"
    },
    {
      "inputs": [],
      "name": "savePct",
      "outputs": [
        {
          "internalType": "uint256",
          "name": "",
          "type": "uint256"
        }
      ],
      "stateMutability": "view",
      "type": "function"
    },
    {
      "inputs": [],
      "name": "savedPrincipal",
      "outputs": [
        {
          "internalType": "uint256",
          "name": "",
          "type": "uint256"
        }
      ],
      "stateMutability": "view",
      "type": "function"
    },
    {
      "inputs": [],
      "name": "savedShares",
      "outputs": [
        {
          "internalType": "uint256",
          "name": "",
          "type": "uint256"
        }
      ],
      "stateMutability": "view",
      "type": "function"
    },
    {
      "inputs": [
        {
          "internalType": "address",
          "name": "newOwner",
          "type": "address"
        }
      ],
      "name": "transferOwnership",
      "outputs": [],
      "stateMutability": "nonpayable",
      "type": "function"
    },
    {
      "inputs": [],
      "name": "treasuryPct",
      "outputs": [
        {
          "internalType": "uint256",
          "name": "",
          "type": "uint256"
        }
      ],
      "stateMutability": "view",
      "type": "function"
    },
    {
      "inputs": [],
      "name": "treasuryShares",
      "outputs": [
        {
          "internalType": "uint256",
          "name": "",
          "type": "uint256"
        }
      ],
      "stateMutability": "view",
      "type": "function"
    },
    {
      "inputs": [
        {
          "internalType": "uint256",
          "name": "_savePct",
          "type": "uint256"
        }
      ],
      "name": "updateSavePct",
      "outputs": [],
      "stateMutability": "nonpayable",
      "type": "function"
    },
    {
      "inputs": [
        {
          "internalType": "uint256",
          "name": "_operatingPct",
          "type": "uint256"
        },
        {
          "internalType": "uint256",
          "name": "_treasuryPct",
          "type": "uint256"
        },
        {
          "internalType": "uint256",
          "name": "_lockedPct",
          "type": "uint256"
        },
        {
          "internalType": "uint256",
          "name": "_allowanceAmount",
          "type": "uint256"
        },
        {
          "internalType": "uint256",
          "name": "_allowancePeriod",
          "type": "uint256"
        }
      ],
      "name": "updateSettings",
      "outputs": [],
      "stateMutability": "nonpayable",
      "type": "function"
    },
    {
      "inputs": [
        {
          "internalType": "address",
          "name": "token",
          "type": "address"
        },
        {
          "internalType": "uint256",
          "name": "amount",
          "type": "uint256"
        }
      ],
      "name": "withdrawSavings",
      "outputs": [],
      "stateMutability": "nonpayable",
      "type": "function"
    },
    {
      "inputs": [
        {
          "internalType": "address",
          "name": "token",
          "type": "address"
        },
        {
          "internalType": "uint256",
          "name": "amount",
          "type": "uint256"
        }
      ],
      "name": "withdrawTreasury",
      "outputs": [],
      "stateMutability": "nonpayable",
      "type": "function"
    }
  ],
  "bytecode": "0x608060405234801561000f575f5ffd5b5060017f9b779b17422d0df92223018b32b4d1fa46e071723d6817e2486d003becc55f005561003c610041565b6100f3565b7ff0c57e16840df040f15088dc2f81fe391c3923bec73e23a9662efc9c229c6a00805468010000000000000000900460ff16156100915760405163f92ee8a960e01b815260040160405180910390fd5b80546001600160401b03908116146100f05780546001600160401b0319166001600160401b0390811782556040519081527fc7f505b2f371ae2175ee4913f4499e1f2633a7b5936321eed1cdaeb6115181d29060200160405180910390a15b50565b611d5f806101005f395ff3fe608060405234801561000f575f5ffd5b50600436106101bb575f3560e01c80639981f5f3116100f3578063c898a11211610093578063e95502fb1161006e578063e95502fb1461035f578063edbf4ac214610368578063f2fde38b1461037b578063f6d0bfa31461038e575f5ffd5b8063c898a11214610326578063c9671c3314610339578063e30c39781461034c575f5ffd5b8063acd78de4116100ce578063acd78de4146102f8578063aee7f09614610301578063baec8b0f1461030a578063c45a015514610313575f5ffd5b80639981f5f3146102b8578063a4949af6146102c1578063aab3ab95146102ef575f5ffd5b8063661d0d661161015e57806379ba50971161013957806379ba50971461026a5780638da5cb5b146102725780638fe123d71461029c578063943f213f146102af575f5ffd5b8063661d0d661461023b5780636ff1c9bc1461024e57806372d7c5ce14610261575f5ffd5b8063375d69df11610199578063375d69df1461020d57806339382ab9146102165780633e4199cd1461021f57806356137a5e14610228575f5ffd5b8063067a1e16146101bf5780630d86419a146101e557806330c2c3b9146101fa575b5f5ffd5b6101d26101cd366004611b59565b6103a1565b6040519081526020015b60405180910390f35b6101f86101f3366004611b74565b6104a9565b005b6101f8610208366004611b9e565b6106f4565b6101d260065481565b6101d260055481565b6101d2600c5481565b6101f8610236366004611b59565b6107c2565b6101f8610249366004611bd5565b610a15565b6101f861025c366004611b59565b610a9b565b6101d2600d5481565b6101f8610bc6565b5f54610284906001600160a01b031681565b6040516001600160a01b0390911681526020016101dc565b6101f86102aa366004611b59565b610c4a565b6101d260085481565b6101d260045481565b6102d46102cf366004611b59565b610f21565b604080519384526020840192909252908201526060016101dc565b6101d260075481565b6101d260035481565b6101d2600b5481565b6101d260095481565b600254610284906001600160a01b031681565b6101d2610334366004611b59565b611040565b6101f8610347366004611b74565b611106565b600154610284906001600160a01b031681565b6101d2600a5481565b6101f8610376366004611bec565b6113f6565b6101f8610389366004611b59565b61156e565b6101f861039c366004611c49565b61160e565b5f600a545f036103b257505f919050565b6002546040516301d735e760e31b81526001600160a01b0384811660048301525f921690630eb9af3890602401602060405180830381865afa1580156103fa573d5f5f3e3d5ffd5b505050506040513d601f19601f8201168201806040525081019061041e9190611c87565b90506001600160a01b03811661043657505f92915050565b600a5460405163266d6a8360e11b815260048101919091526001600160a01b03821690634cdad506906024015b602060405180830381865afa15801561047e573d5f5f3e3d5ffd5b505050506040513d601f19601f820116820180604052508101906104a29190611ca2565b9392505050565b5f546001600160a01b031633146104d2576040516282b42960e81b815260040160405180910390fd5b6002546040516301d735e760e31b81526001600160a01b0384811660048301525f921690630eb9af3890602401602060405180830381865afa15801561051a573d5f5f3e3d5ffd5b505050506040513d601f19601f8201168201806040525081019061053e9190611c87565b90506001600160a01b03811661056757604051630434df1960e51b815260040160405180910390fd5b805f6001840161057a5750600954610606565b604051630a28a47760e01b8152600481018590526001600160a01b03831690630a28a47790602401602060405180830381865afa1580156105bd573d5f5f3e3d5ffd5b505050506040513d601f19601f820116820180604052508101906105e19190611ca2565b9050600954811115610606576040516335389bb760e21b815260040160405180910390fd5b805f03610614575050505050565b8060095f8282546106259190611ccd565b90915550505f8054604051635d043b2960e11b8152600481018490526001600160a01b0391821660248201523060448201529084169063ba087652906064016020604051808303815f875af1158015610680573d5f5f3e3d5ffd5b505050506040513d601f19601f820116820180604052508101906106a49190611ca2565b60408051828152602081018590529192506001600160a01b038816917fca7c146a476020a9685b6af4c572d3e244456e8d02dad016e5ed59ff64a2fdd9910160405180910390a2505050505b5050565b5f546001600160a01b0316331461071d576040516282b42960e81b815260040160405180910390fd5b826107288587611ce0565b6107329190611ce0565b6127101461075357604051636d2fd3c960e01b815260040160405180910390fd5b60038590556004849055600583905560068290556007819055604080518681526020810186905290810184905260608101839052608081018290527fab98f6a91485c352fb01422a5fe72d10488727444633a4110d7716c51d5117719060a00160405180910390a15050505050565b6007546008546107d29190611ce0565b4210156107f257604051630529bc3360e11b815260040160405180910390fd5b6006545f036107fe5750565b6002546040516301d735e760e31b81526001600160a01b0383811660048301525f921690630eb9af3890602401602060405180830381865afa158015610846573d5f5f3e3d5ffd5b505050506040513d601f19601f8201168201806040525081019061086a9190611c87565b90506001600160a01b03811661089357604051630434df1960e51b815260040160405180910390fd5b600654604051630a28a47760e01b8152600481019190915281905f906001600160a01b03831690630a28a47790602401602060405180830381865afa1580156108de573d5f5f3e3d5ffd5b505050506040513d601f19601f820116820180604052508101906109029190611ca2565b9050600a548111156109135750600a545b805f03610933576040516389206fd560e01b815260040160405180910390fd5b80600a5f8282546109449190611ccd565b9091555050426008555f8054604051635d043b2960e11b8152600481018490526001600160a01b0391821660248201523060448201529084169063ba087652906064016020604051808303815f875af11580156109a3573d5f5f3e3d5ffd5b505050506040513d601f19601f820116820180604052508101906109c79190611ca2565b60408051828152602081018590529192506001600160a01b038716917fe7cc88d9e42671078205d391c6b754aea00a5faa1d2e50ded3f7139500f2f98c910160405180910390a25050505050565b5f546001600160a01b03163314610a3e576040516282b42960e81b815260040160405180910390fd5b612710811115610a60576040516253709f60e01b815260040160405180910390fd5b600b8190556040518181527f88e3d44810ace986c49a4b1737e3951ca5b42c4ecb5611219a3c38086cc129b79060200160405180910390a150565b5f546001600160a01b03163314610ac4576040516282b42960e81b815260040160405180910390fd5b610acc61183c565b6040516370a0823160e01b81523060048201525f906001600160a01b038316906370a0823190602401602060405180830381865afa158015610b10573d5f5f3e3d5ffd5b505050506040513d601f19601f82011682018060405250810190610b349190611ca2565b90508015610b99575f54610b55906001600160a01b0384811691168361186a565b816001600160a01b03167f5fafa99d0643513820be26656b45130b01e1c03062e1266bf36f88cbd3bd969582604051610b9091815260200190565b60405180910390a25b50610bc360017f9b779b17422d0df92223018b32b4d1fa46e071723d6817e2486d003becc55f0055565b50565b6001546001600160a01b03163314610bf157604051633e31d61b60e11b815260040160405180910390fd5b5f8054600180546001600160a01b038082166001600160a01b031980861682178755909216909255604051919092169283917f8be0079c531659141344cd1fd0a4f28419497f9722a3daafe3b4186f6b6457e09190a350565b6040516370a0823160e01b81523060048201525f906001600160a01b038316906370a0823190602401602060405180830381865afa158015610c8e573d5f5f3e3d5ffd5b505050506040513d601f19601f82011682018060405250810190610cb29190611ca2565b9050805f03610cbf575050565b5f61271060035483610cd19190611cf3565b610cdb9190611d0a565b90505f61271060045484610cef9190611cf3565b610cf99190611d0a565b90505f81610d078486611ccd565b610d119190611ccd565b90508215610d32575f54610d32906001600160a01b0387811691168561186a565b5f610d3d8284611ce0565b90505f808215610ec4576002546040516301d735e760e31b81526001600160a01b038a811660048301525f921690630eb9af3890602401602060405180830381865afa158015610d8f573d5f5f3e3d5ffd5b505050506040513d601f19601f82011682018060405250810190610db39190611c87565b90506001600160a01b038116610ddc57604051630434df1960e51b815260040160405180910390fd5b80610df16001600160a01b038b1682876118a9565b604051636e553f6560e01b8152600481018690523060248201525f906001600160a01b03831690636e553f65906044016020604051808303815f875af1158015610e3d573d5f5f3e3d5ffd5b505050506040513d601f19601f82011682018060405250810190610e619190611ca2565b90508715610e975785610e748983611cf3565b610e7e9190611d0a565b94508460095f828254610e919190611ce0565b90915550505b8615610ec057610ea78582611ccd565b935083600a5f828254610eba9190611ce0565b90915550505b5050505b6040805188815260208101889052908101839052606081018290526001600160a01b038916907ff2c7c61aab9019a0417876fee95ea2ce79b2da32f8f2b41271429475b2cf4c239060800160405180910390a25050505050505050565b600c54600d545f9081901561101d576002546040516301d735e760e31b81526001600160a01b0386811660048301525f921690630eb9af3890602401602060405180830381865afa158015610f78573d5f5f3e3d5ffd5b505050506040513d601f19601f82011682018060405250810190610f9c9190611c87565b90506001600160a01b0381161561101b57600d5460405163266d6a8360e11b815260048101919091526001600160a01b03821690634cdad50690602401602060405180830381865afa158015610ff4573d5f5f3e3d5ffd5b505050506040513d601f19601f820116820180604052508101906110189190611ca2565b92505b505b828211156110365761102f8383611ccd565b9050611039565b505f5b9193909250565b5f6009545f0361105157505f919050565b6002546040516301d735e760e31b81526001600160a01b0384811660048301525f921690630eb9af3890602401602060405180830381865afa158015611099573d5f5f3e3d5ffd5b505050506040513d601f19601f820116820180604052508101906110bd9190611c87565b90506001600160a01b0381166110d557505f92915050565b60095460405163266d6a8360e11b815260048101919091526001600160a01b03821690634cdad50690602401610463565b5f546001600160a01b0316331461112f576040516282b42960e81b815260040160405180910390fd5b80156106f0576002546040516301d735e760e31b81526001600160a01b0384811660048301525f921690630eb9af3890602401602060405180830381865afa15801561117d573d5f5f3e3d5ffd5b505050506040513d601f19601f820116820180604052508101906111a19190611c87565b90506001600160a01b0381166111ca57604051630434df1960e51b815260040160405180910390fd5b805f600184016112465750600d5460405163266d6a8360e11b8152600481018290526001600160a01b03831690634cdad50690602401602060405180830381865afa15801561121b573d5f5f3e3d5ffd5b505050506040513d601f19601f8201168201806040525081019061123f9190611ca2565b93506112d2565b604051630a28a47760e01b8152600481018590526001600160a01b03831690630a28a47790602401602060405180830381865afa158015611289573d5f5f3e3d5ffd5b505050506040513d601f19601f820116820180604052508101906112ad9190611ca2565b9050600d548111156112d25760405163fec82cd760e01b815260040160405180910390fd5b805f036112e0575050505050565b5f600d54600c54836112f29190611cf3565b6112fc9190611d0a565b905080600c5f82825461130f9190611ccd565b9250508190555081600d5f8282546113279190611ccd565b90915550505f8054604051635d043b2960e11b8152600481018590526001600160a01b0391821660248201523060448201529085169063ba087652906064016020604051808303815f875af1158015611382573d5f5f3e3d5ffd5b505050506040513d601f19601f820116820180604052508101906113a69190611ca2565b60408051828152602081018690529192506001600160a01b038916917f93da32e64263d25ace24ccb77425144ddc5d0dd0f4dfc1d3bc6ff0114ac7049a910160405180910390a250505050505050565b5f6113ff611936565b805490915060ff600160401b820416159067ffffffffffffffff165f811580156114265750825b90505f8267ffffffffffffffff1660011480156114425750303b155b905081158015611450575080155b1561146e5760405163f92ee8a960e01b815260040160405180910390fd5b845467ffffffffffffffff19166001178555831561149857845460ff60401b1916600160401b1785555b5f80546001600160a01b03808f166001600160a01b03199283161790925560028054928e1692909116919091179055876114d28a8c611ce0565b6114dc9190611ce0565b612710146114fd57604051636d2fd3c960e01b815260040160405180910390fd5b60038a9055600489905560058890556006879055600786905542600855831561156057845460ff60401b19168555604051600181527fc7f505b2f371ae2175ee4913f4499e1f2633a7b5936321eed1cdaeb6115181d29060200160405180910390a15b505050505050505050505050565b5f546001600160a01b03163314611597576040516282b42960e81b815260040160405180910390fd5b6001600160a01b0381166115be5760405163d92e233d60e01b815260040160405180910390fd5b600180546001600160a01b0319166001600160a01b038381169182179092555f8054604051929316917f38d16b8cac22d99fc7c124b9cd0de2d3fa1faef420bfe791d8c362d765e227009190a350565b5f546001600160a01b03163314611637576040516282b42960e81b815260040160405180910390fd5b5f612710600b54836116499190611cf3565b6116539190611d0a565b90505f6116608284611ce0565b5f5490915061167d906001600160a01b0387811691163084611960565b6116916001600160a01b038616858561186a565b5f82156117e3576002546040516301d735e760e31b81526001600160a01b0388811660048301525f921690630eb9af3890602401602060405180830381865afa1580156116e0573d5f5f3e3d5ffd5b505050506040513d601f19601f820116820180604052508101906117049190611c87565b90506001600160a01b03811661172d57604051630434df1960e51b815260040160405180910390fd5b806117426001600160a01b03891682876118a9565b604051636e553f6560e01b8152600481018690523060248201526001600160a01b03821690636e553f65906044016020604051808303815f875af115801561178c573d5f5f3e3d5ffd5b505050506040513d601f19601f820116820180604052508101906117b09190611ca2565b925084600c5f8282546117c39190611ce0565b9250508190555082600d5f8282546117db9190611ce0565b909155505050505b60408051858152602081018590529081018290526001600160a01b0380871691908816907f6b1716847a6a1a5b10db02f856b217aafb323fba68d1e0fc63f313d592cf81d19060600160405180910390a3505050505050565b611844611996565b60027f9b779b17422d0df92223018b32b4d1fa46e071723d6817e2486d003becc55f0055565b61187783838360016119da565b6118a457604051635274afe760e01b81526001600160a01b03841660048201526024015b60405180910390fd5b505050565b604051636eb1769f60e11b81523060048201526001600160a01b0383811660248301525f919085169063dd62ed3e90604401602060405180830381865afa1580156118f6573d5f5f3e3d5ffd5b505050506040513d601f19601f8201168201806040525081019061191a9190611ca2565b9050611930848461192b8585611ce0565b611a3c565b50505050565b5f807ff0c57e16840df040f15088dc2f81fe391c3923bec73e23a9662efc9c229c6a005b92915050565b61196e848484846001611a8e565b61193057604051635274afe760e01b81526001600160a01b038516600482015260240161189b565b7f9b779b17422d0df92223018b32b4d1fa46e071723d6817e2486d003becc55f00546002036119d857604051633ee5aeb560e01b815260040160405180910390fd5b565b60405163a9059cbb60e01b5f8181526001600160a01b038616600452602485905291602083604481808b5af1925060015f51148316611a30578383151615611a24573d5f823e3d81fd5b5f873b113d1516831692505b60405250949350505050565b611a488383835f611afb565b6118a457611a5983835f6001611afb565b611a8157604051635274afe760e01b81526001600160a01b038416600482015260240161189b565b6118778383836001611afb565b6040516323b872dd60e01b5f8181526001600160a01b038781166004528616602452604485905291602083606481808c5af1925060015f51148316611aea578383151615611ade573d5f823e3d81fd5b5f883b113d1516831692505b604052505f60605295945050505050565b60405163095ea7b360e01b5f8181526001600160a01b038616600452602485905291602083604481808b5af1925060015f51148316611a30578383151615611a24573d5f823e3d81fd5b6001600160a01b0381168114610bc3575f5ffd5b5f60208284031215611b69575f5ffd5b81356104a281611b45565b5f5f60408385031215611b85575f5ffd5b8235611b9081611b45565b946020939093013593505050565b5f5f5f5f5f60a08688031215611bb2575f5ffd5b505083359560208501359550604085013594606081013594506080013592509050565b5f60208284031215611be5575f5ffd5b5035919050565b5f5f5f5f5f5f5f60e0888a031215611c02575f5ffd5b8735611c0d81611b45565b96506020880135611c1d81611b45565b96999698505050506040850135946060810135946080820135945060a0820135935060c0909101359150565b5f5f5f60608486031215611c5b575f5ffd5b8335611c6681611b45565b92506020840135611c7681611b45565b929592945050506040919091013590565b5f60208284031215611c97575f5ffd5b81516104a281611b45565b5f60208284031215611cb2575f5ffd5b5051919050565b634e487b7160e01b5f52601160045260245ffd5b8181038181111561195a5761195a611cb9565b8082018082111561195a5761195a611cb9565b808202811582820484141761195a5761195a611cb9565b5f82611d2457634e487b7160e01b5f52601260045260245ffd5b50049056fea2646970667358221220eb3151cfd9a58afe4183745982dadae531841f26683bc4441d1cfb514c33042264736f6c634300081c0033",
  "linkReferences": {},
  "deployedLinkReferences": {},
  "immutableReferences": {},
  "inputSourceName": "project/contracts/SmartRouter.sol",
  "buildInfoId": "solc-0_8_28-66126696e33fc3a41a06204d1ee30f3607d3f20a"
}