{
  "_format": "hh3-artifact-1",
  "contractName": "SocialJackpot",
  "sourceName": "contracts/SocialJackpot.sol",
  "abi": [
    {
      "inputs": [
        {
          "internalType": "address",
          "name": "_feeRecipient",
          "type": "address"
        }
      ],
      "stateMutability": "nonpayable",
      "type": "constructor"
    },
    {
      "inputs": [],
      "name": "AlreadyEntered",
      "type": "error"
    },
    {
      "inputs": [],
      "name": "AlreadyVoted",
      "type": "error"
    },
    {
      "inputs": [],
      "name": "CannotVoteForSelf",
      "type": "error"
    },
    {
      "inputs": [],
      "name": "InvalidCandidate",
      "type": "error"
    },
    {
      "inputs": [],
      "name": "InvalidFeeRecipient",
      "type": "error"
    },
    {
      "inputs": [],
      "name": "InvalidRoomParams",
      "type": "error"
    },
    {
      "inputs": [],
      "name": "InvalidState",
      "type": "error"
    },
    {
      "inputs": [],
      "name": "NotAParticipant",
      "type": "error"
    },
    {
      "inputs": [],
      "name": "RoomFull",
      "type": "error"
    },
    {
      "inputs": [
        {
          "internalType": "address",
          "name": "token",
          "type": "address"
        }
      ],
      "name": "SafeERC20FailedOperation",
      "type": "error"
    },
    {
      "inputs": [],
      "name": "TransferFailed",
      "type": "error"
    },
    {
      "anonymous": false,
      "inputs": [
        {
          "indexed": true,
          "internalType": "uint256",
          "name": "roomId",
          "type": "uint256"
        },
        {
          "indexed": true,
          "internalType": "address",
          "name": "recipient",
          "type": "address"
        },
        {
          "indexed": false,
          "internalType": "uint256",
          "name": "amount",
          "type": "uint256"
        }
      ],
      "name": "PlatformFeePaid",
      "type": "event"
    },
    {
      "anonymous": false,
      "inputs": [
        {
          "indexed": true,
          "internalType": "uint256",
          "name": "roomId",
          "type": "uint256"
        },
        {
          "indexed": true,
          "internalType": "address",
          "name": "creator",
          "type": "address"
        },
        {
          "indexed": false,
          "internalType": "address",
          "name": "token",
          "type": "address"
        },
        {
          "indexed": false,
          "internalType": "uint256",
          "name": "entryFee",
          "type": "uint256"
        },
        {
          "indexed": false,
          "internalType": "uint256",
          "name": "maxParticipants",
          "type": "uint256"
        },
        {
          "indexed": false,
          "internalType": "uint256",
          "name": "numWinners",
          "type": "uint256"
        }
      ],
      "name": "RoomCreated",
      "type": "event"
    },
    {
      "anonymous": false,
      "inputs": [
        {
          "indexed": true,
          "internalType": "uint256",
          "name": "roomId",
          "type": "uint256"
        },
        {
          "indexed": false,
          "internalType": "address[]",
          "name": "winners",
          "type": "address[]"
        },
        {
          "indexed": false,
          "internalType": "uint256",
          "name": "payoutPerWinner",
          "type": "uint256"
        }
      ],
      "name": "RoomResolved",
      "type": "event"
    },
    {
      "anonymous": false,
      "inputs": [
        {
          "indexed": true,
          "internalType": "uint256",
          "name": "roomId",
          "type": "uint256"
        },
        {
          "indexed": true,
          "internalType": "address",
          "name": "user",
          "type": "address"
        },
        {
          "indexed": false,
          "internalType": "string",
          "name": "pitch",
          "type": "string"
        }
      ],
      "name": "UserEntered",
      "type": "event"
    },
    {
      "anonymous": false,
      "inputs": [
        {
          "indexed": true,
          "internalType": "uint256",
          "name": "roomId",
          "type": "uint256"
        },
        {
          "indexed": true,
          "internalType": "address",
          "name": "voter",
          "type": "address"
        },
        {
          "indexed": true,
          "internalType": "address",
          "name": "candidate",
          "type": "address"
        }
      ],
      "name": "Voted",
      "type": "event"
    },
    {
      "anonymous": false,
      "inputs": [
        {
          "indexed": true,
          "internalType": "uint256",
          "name": "roomId",
          "type": "uint256"
        }
      ],
      "name": "VotingStarted",
      "type": "event"
    },
    {
      "inputs": [],
      "name": "PLATFORM_FEE_BPS",
      "outputs": [
        {
          "internalType": "uint256",
          "name": "",
          "type": "uint256"
        }
      ],
      "stateMutability": "view",
      "type": "function"
    },
    {
      "inputs": [
        {
          "internalType": "address",
          "name": "_token",
          "type": "address"
        },
        {
          "internalType": "uint256",
          "name": "_entryFee",
          "type": "uint256"
        },
        {
          "internalType": "uint256",
          "name": "_maxParticipants",
          "type": "uint256"
        },
        {
          "internalType": "uint256",
          "name": "_numWinners",
          "type": "uint256"
        }
      ],
      "name": "createRoom",
      "outputs": [
        {
          "internalType": "uint256",
          "name": "",
          "type": "uint256"
        }
      ],
      "stateMutability": "nonpayable",
      "type": "function"
    },
    {
      "inputs": [
        {
          "internalType": "uint256",
          "name": "roomId",
          "type": "uint256"
        },
        {
          "internalType": "string",
          "name": "pitch",
          "type": "string"
        }
      ],
      "name": "enterRoom",
      "outputs": [],
      "stateMutability": "nonpayable",
      "type": "function"
    },
    {
      "inputs": [],
      "name": "feeRecipient",
      "outputs": [
        {
          "internalType": "address",
          "name": "",
          "type": "address"
        }
      ],
      "stateMutability": "view",
      "type": "function"
    },
    {
      "inputs": [
        {
          "internalType": "uint256",
          "name": "roomId",
          "type": "uint256"
        },
        {
          "internalType": "address",
          "name": "user",
          "type": "address"
        }
      ],
      "name": "getParticipantInfo",
      "outputs": [
        {
          "internalType": "string",
          "name": "pitch",
          "type": "string"
        },
        {
          "internalType": "uint256",
          "name": "votesReceived",
          "type": "uint256"
        },
        {
          "internalType": "bool",
          "name": "hasVoted",
          "type": "bool"
        }
      ],
      "stateMutability": "view",
      "type": "function"
    },
    {
      "inputs": [],
      "name": "nextRoomId",
      "outputs": [
        {
          "internalType": "uint256",
          "name": "",
          "type": "uint256"
        }
      ],
      "stateMutability": "view",
      "type": "function"
    },
    {
      "inputs": [
        {
          "internalType": "uint256",
          "name": "",
          "type": "uint256"
        },
        {
          "internalType": "address",
          "name": "",
          "type": "address"
        }
      ],
      "name": "participants",
      "outputs": [
        {
          "internalType": "address",
          "name": "addr",
          "type": "address"
        },
        {
          "internalType": "string",
          "name": "pitch",
          "type": "string"
        },
        {
          "internalType": "uint256",
          "name": "votesReceived",
          "type": "uint256"
        },
        {
          "internalType": "bool",
          "name": "hasVoted",
          "type": "bool"
        },
        {
          "internalType": "bool",
          "name": "exists",
          "type": "bool"
        }
      ],
      "stateMutability": "view",
      "type": "function"
    },
    {
      "inputs": [
        {
          "internalType": "uint256",
          "name": "",
          "type": "uint256"
        },
        {
          "internalType": "uint256",
          "name": "",
          "type": "uint256"
        }
      ],
      "name": "roomParticipants",
      "outputs": [
        {
          "internalType": "address",
          "name": "",
          "type": "address"
        }
      ],
      "stateMutability": "view",
      "type": "function"
    },
    {
      "inputs": [
        {
          "internalType": "uint256",
          "name": "",
          "type": "uint256"
        }
      ],
      "name": "rooms",
      "outputs": [
        {
          "internalType": "uint256",
          "name": "id",
          "type": "uint256"
        },
        {
          "internalType": "address",
          "name": "creator",
          "type": "address"
        },
        {
          "internalType": "contract IERC20",
          "name": "token",
          "type": "address"
        },
        {
          "internalType": "uint256",
          "name": "entryFee",
          "type": "uint256"
        },
        {
          "internalType": "uint256",
          "name": "maxParticipants",
          "type": "uint256"
        },
        {
          "internalType": "uint256",
          "name": "numWinners",
          "type": "uint256"
        },
        {
          "internalType": "enum SocialJackpot.RoomState",
          "name": "state",
          "type": "uint8"
        },
        {
          "internalType": "uint256",
          "name": "totalVotesCast",
          "type": "uint256"
        }
      ],
      "stateMutability": "view",
      "type": "function"
    },
    {
      "inputs": [
        {
          "internalType": "uint256",
          "name": "roomId",
          "type": "uint256"
        },
        {
          "internalType": "address",
          "name": "candidate",
          "type": "address"
        }
      ],
      "name": "vote",
      "outputs": [],
      "stateMutability": "nonpayable",
      "type": "function"
    }
  ],
  "bytecode": "0x60a060405234801561000f575f5ffd5b506040516117ae3803806117ae83398101604081905261002e91610066565b6001600160a01b03811661005557604051630ed1b8b360e31b815260040160405180910390fd5b6001600160a01b0316608052610093565b5f60208284031215610076575f5ffd5b81516001600160a01b038116811461008c575f5ffd5b9392505050565b6080516116f56100b95f395f818161017101528181610fd00152610ff701526116f55ff3fe608060405234801561000f575f5ffd5b506004361061009b575f3560e01c8063539aa77f11610063578063539aa77f146101ab578063679a8557146101b357806399abff4b146101c6578063b882f5a8146101e8578063ed3d02be146101fb575f5ffd5b806302d947ef1461009f57806302e060c6146100b457806307a52cab146100e15780631bae0ac8146100f7578063469048401461016c575b5f5ffd5b6100b26100ad36600461122e565b61020e565b005b6100c76100c236600461122e565b6103cd565b6040516100d8959493929190611286565b60405180910390f35b6100e95f5481565b6040519081526020016100d8565b6101586101053660046112c8565b600160208190525f9182526040909120805491810154600282015460038301546004840154600585015460068601546007909601546001600160a01b0395861696949095169492939192909160ff169088565b6040516100d89897969594939291906112f3565b6101937f000000000000000000000000000000000000000000000000000000000000000081565b6040516001600160a01b0390911681526020016100d8565b6100e960c881565b6100b26101c1366004611359565b61049d565b6101d96101d436600461122e565b6106f8565b6040516100d8939291906113d0565b6101936101f63660046113f9565b610815565b6100e9610209366004611419565b610849565b5f82815260016020819052604090912090600682015460ff166002811115610238576102386112df565b146102565760405163baf3f0f760e01b815260040160405180910390fd5b5f83815260036020818152604080842033855290915290912090810154610100900460ff166102985760405163179e806d60e01b815260040160405180910390fd5b600381015460ff16156102be57604051637c9a1cf960e01b815260040160405180910390fd5b336001600160a01b038416036102e757604051631412222d60e31b815260040160405180910390fd5b5f8481526003602081815260408084206001600160a01b038816855290915290912090810154610100900460ff166103325760405163e66ea08f60e01b815260040160405180910390fd5b60038201805460ff191660019081179091556002820180545f90610357908490611463565b925050819055506001836007015f8282546103729190611463565b90915550506040516001600160a01b03851690339087907ff6c8f1f54b2f54fb963820203fdef5b9aefb56ae2c4dd8b6133e151791a07f36905f90a482600401548360070154036103c6576103c685610a3c565b5050505050565b600360209081525f9283526040808420909152908252902080546001820180546001600160a01b0390921692916104039061147c565b80601f016020809104026020016040519081016040528092919081815260200182805461042f9061147c565b801561047a5780601f106104515761010080835404028352916020019161047a565b820191905f5260205f20905b81548152906001019060200180831161045d57829003601f168201915b50505050600283015460039093015491929160ff80821692506101009091041685565b5f83815260016020526040812090600682015460ff1660028111156104c4576104c46112df565b146104e25760405163baf3f0f760e01b815260040160405180910390fd5b5f8481526003602081815260408084203385529091529091200154610100900460ff161561052357604051637863668360e01b815260040160405180910390fd5b60038101546002820154610546916001600160a01b039091169033903090610b9b565b6040518060a00160405280336001600160a01b0316815260200184848080601f0160208091040260200160405190810160405280939291908181526020018383808284375f9201829052509385525050506020808301829052604080840183905260016060909401849052888352600382528083203384528252909120835181546001600160a01b0319166001600160a01b039091161781559083015190918201906105f2908261150c565b5060408281015160028084019190915560608401516003909301805460809095015115156101000261ff00199415159490941661ffff1990951694909417929092179092555f868152602091825282812080546001810182559082529190200180546001600160a01b03191633908117909155905185907f8972f62d527ec7e92ea008da9017ec975257f1e6fce2b70ca3de2367c3ccdf2f9061069890879087906115c7565b60405180910390a360048101545f85815260026020526040902054036106f25760068101805460ff1916600117905560405184907fcf33babc496bb6dc2942b39cb7b75766bbbadf7da50d176ff8c513e991140239905f90a25b50505050565b5f8281526003602090815260408083206001600160a01b038086168552908352818420825160a08101909352805490911682526001810180546060959485948594909390929184019161074a9061147c565b80601f01602080910402602001604051908101604052809291908181526020018280546107769061147c565b80156107c15780601f10610798576101008083540402835291602001916107c1565b820191905f5260205f20905b8154815290600101906020018083116107a457829003601f168201915b5050509183525050600282015460208083019190915260039092015460ff80821615156040808501919091526101009092041615156060928301529183015191830151920151909891975095509350505050565b6002602052815f5260405f20818154811061082e575f80fd5b5f918252602090912001546001600160a01b03169150829050565b5f6001600160a01b03851661087157604051630edeb63160e41b815260040160405180910390fd5b835f0361089157604051630edeb63160e41b815260040160405180910390fd5b600283108061089e575081155b806108a95750828210155b156108c757604051630edeb63160e41b815260040160405180910390fd5b5f805481806108d5836115f5565b919050559050604051806101000160405280828152602001336001600160a01b03168152602001876001600160a01b031681526020018681526020018581526020018481526020015f600281111561092f5761092f6112df565b81525f60209182018190528381526001808352604091829020845181559284015183820180546001600160a01b039283166001600160a01b03199182161790915592850151600280860180549290931691909416179055606084015160038401556080840151600484015560a0840151600584015560c08401516006840180549193909260ff19909216919084908111156109cc576109cc6112df565b021790555060e09190910151600790910155604080516001600160a01b03881681526020810187905290810185905260608101849052339082907fdfcda0fe3aae7a383843075fabd6eb1701dbaa606c94f3ccf3765415a3717e5c9060800160405180910390a395945050505050565b5f81815260016020526040812060068101805460ff1916600217905590610a6283610bd6565b90505f610a7484838560050154610e7e565b90505f8167ffffffffffffffff811115610a9057610a906114b4565b604051908082528060200260200182016040528015610ab9578160200160208202803683370190505b5090505f84600401548560030154610ad1919061160d565b90505f612710610ae260c88461160d565b610aec9190611624565b90505f610af98284611643565b90505f610b068683611624565b90505f610b13878361160d565b610b1d9084611643565b60028a0154909150610b3a908b906001600160a01b031686610fbb565b6002890154610b55906001600160a01b03168988858561105f565b897fab154b3616d0be1145007f0441cbd91ad8cc986c92e412edafb53375058bb7848784604051610b87929190611656565b60405180910390a250505050505050505050565b610ba984848484600161110f565b6106f257604051635274afe760e01b81526001600160a01b03851660048201526024015b60405180910390fd5b5f818152600260209081526040808320805482518185028101850190935280835260609493830182828015610c3257602002820191905f5260205f20905b81546001600160a01b03168152600190910190602001808311610c14575b505050505090505f815190505f8167ffffffffffffffff811115610c5857610c586114b4565b604051908082528060200260200182016040528015610c81578160200160208202803683370190505b5090505f5b82811015610cda57838181518110610ca057610ca06116ab565b6020026020010151828281518110610cba57610cba6116ab565b6001600160a01b0390921660209283029190910190910152600101610c86565b505f5b610ce8600184611643565b811015610e75575f5b6001610cfd8386611643565b610d079190611643565b811015610e6c575f8781526003602052604081209084610d28846001611463565b81518110610d3857610d386116ab565b60200260200101516001600160a01b03166001600160a01b031681526020019081526020015f206002015460035f8981526020019081526020015f205f858481518110610d8757610d876116ab565b60200260200101516001600160a01b03166001600160a01b031681526020019081526020015f20600201541015610e64575f838281518110610dcb57610dcb6116ab565b6020026020010151905083826001610de39190611463565b81518110610df357610df36116ab565b6020026020010151848381518110610e0d57610e0d6116ab565b6001600160a01b03909216602092830291909101909101528084610e32846001611463565b81518110610e4257610e426116ab565b60200260200101906001600160a01b031690816001600160a01b031681525050505b600101610cf1565b50600101610cdd565b50949350505050565b81515f84815260036020526040812090919082908186610e9f600188611643565b81518110610eaf57610eaf6116ab565b6020908102919091018101516001600160a01b031682528101919091526040015f908120600201549150805b83811015610fa6575f88815260036020526040812088518592908a9085908110610f0757610f076116ab565b60200260200101516001600160a01b03166001600160a01b031681526020019081526020015f206002015410158015610f8b57505f888152600360205260408120885182908a9085908110610f5e57610f5e6116ab565b60200260200101516001600160a01b03166001600160a01b031681526020019081526020015f2060020154115b15610f9e5781610f9a816115f5565b9250505b600101610edb565b50805f03610fb15750815b9695505050505050565b801561105a57610ff56001600160a01b0383167f00000000000000000000000000000000000000000000000000000000000000008361117c565b7f00000000000000000000000000000000000000000000000000000000000000006001600160a01b0316837f0e61cfd0ee655641b3ed0a1dd373ec3cacf4c090de1f33708e3a4091f49476628360405161105191815260200190565b60405180910390a35b505050565b5f5b83518110156111075784818151811061107c5761107c6116ab565b6020026020010151848281518110611096576110966116ab565b6001600160a01b03909216602092830291909101909101525f81156110bb57836110c5565b6110c58385611463565b90506110fe8583815181106110dc576110dc6116ab565b602002602001015182896001600160a01b031661117c9092919063ffffffff16565b50600101611061565b505050505050565b6040516323b872dd60e01b5f8181526001600160a01b038781166004528616602452604485905291602083606481808c5af1925060015f5114831661116b57838315161561115f573d5f823e3d81fd5b5f883b113d1516831692505b604052505f60605295945050505050565b61118983838360016111b1565b61105a57604051635274afe760e01b81526001600160a01b0384166004820152602401610bcd565b60405163a9059cbb60e01b5f8181526001600160a01b038616600452602485905291602083604481808b5af1925060015f511483166112075783831516156111fb573d5f823e3d81fd5b5f873b113d1516831692505b60405250949350505050565b80356001600160a01b0381168114611229575f5ffd5b919050565b5f5f6040838503121561123f575f5ffd5b8235915061124f60208401611213565b90509250929050565b5f81518084528060208401602086015e5f602082860101526020601f19601f83011685010191505092915050565b6001600160a01b038616815260a0602082018190525f906112a990830187611258565b6040830195909552509115156060830152151560809091015292915050565b5f602082840312156112d8575f5ffd5b5035919050565b634e487b7160e01b5f52602160045260245ffd5b8881526001600160a01b03888116602083015287166040820152606081018690526080810185905260a0810184905261010081016003841061134357634e487b7160e01b5f52602160045260245ffd5b60c082019390935260e001529695505050505050565b5f5f5f6040848603121561136b575f5ffd5b83359250602084013567ffffffffffffffff811115611388575f5ffd5b8401601f81018613611398575f5ffd5b803567ffffffffffffffff8111156113ae575f5ffd5b8660208284010111156113bf575f5ffd5b939660209190910195509293505050565b606081525f6113e26060830186611258565b602083019490945250901515604090910152919050565b5f5f6040838503121561140a575f5ffd5b50508035926020909101359150565b5f5f5f5f6080858703121561142c575f5ffd5b61143585611213565b966020860135965060408601359560600135945092505050565b634e487b7160e01b5f52601160045260245ffd5b808201808211156114765761147661144f565b92915050565b600181811c9082168061149057607f821691505b6020821081036114ae57634e487b7160e01b5f52602260045260245ffd5b50919050565b634e487b7160e01b5f52604160045260245ffd5b601f82111561105a57805f5260205f20601f840160051c810160208510156114ed5750805b601f840160051c820191505b818110156103c6575f81556001016114f9565b815167ffffffffffffffff811115611526576115266114b4565b61153a81611534845461147c565b846114c8565b6020601f82116001811461156c575f83156115555750848201515b5f19600385901b1c1916600184901b1784556103c6565b5f84815260208120601f198516915b8281101561159b578785015182556020948501946001909201910161157b565b50848210156115b857868401515f19600387901b60f8161c191681555b50505050600190811b01905550565b60208152816020820152818360408301375f818301604090810191909152601f909201601f19160101919050565b5f600182016116065761160661144f565b5060010190565b80820281158282048414176114765761147661144f565b5f8261163e57634e487b7160e01b5f52601260045260245ffd5b500490565b818103818111156114765761147661144f565b604080825283519082018190525f9060208501906060840190835b818110156116985783516001600160a01b0316835260209384019390920191600101611671565b5050602093909301939093525092915050565b634e487b7160e01b5f52603260045260245ffdfea264697066735822122050c73d3668570d7adae94d16a101bc7681e74aba5fbf2d1e2fc6f850b66765da64736f6c634300081c0033",
  "linkReferences": {},
  "deployedLinkReferences": {},
  "immutableReferences": {
    "686": [
      {
        "length": 32,
        "start": 369
      },
      {
        "length": 32,
        "start": 4048
      },
      {
        "length": 32,
        "start": 4087
      }
    ]
  },
  "inputSourceName": "project/contracts/SocialJackpot.sol",
  "buildInfoId": "solc-0_8_28-9c577cb207478a7c19e32f9f6bfae7a2267ec150"
}