{
  "_format": "hh3-artifact-1",
  "contractName": "RouterFactory",
  "sourceName": "contracts/RouterFactory.sol",
  "abi": [
    {
      "inputs": [
        {
          "internalType": "address",
          "name": "_routerImplementation",
          "type": "address"
        }
      ],
      "stateMutability": "nonpayable",
      "type": "constructor"
    },
    {
      "inputs": [],
      "name": "FailedDeployment",
      "type": "error"
    },
    {
      "inputs": [
        {
          "internalType": "uint256",
          "name": "balance",
          "type": "uint256"
        },
        {
          "internalType": "uint256",
          "name": "needed",
          "type": "uint256"
        }
      ],
      "name": "InsufficientBalance",
      "type": "error"
    },
    {
      "inputs": [],
      "name": "Unauthorized",
      "type": "error"
    },
    {
      "inputs": [],
      "name": "ZeroAddress",
      "type": "error"
    },
    {
      "anonymous": false,
      "inputs": [
        {
          "indexed": true,
          "internalType": "address",
          "name": "owner",
          "type": "address"
        },
        {
          "indexed": true,
          "internalType": "address",
          "name": "router",
          "type": "address"
        }
      ],
      "name": "RouterDeployed",
      "type": "event"
    },
    {
      "anonymous": false,
      "inputs": [
        {
          "indexed": true,
          "internalType": "address",
          "name": "token",
          "type": "address"
        },
        {
          "indexed": true,
          "internalType": "address",
          "name": "vault",
          "type": "address"
        }
      ],
      "name": "VaultWhitelisted",
      "type": "event"
    },
    {
      "inputs": [
        {
          "internalType": "uint256",
          "name": "operatingPct",
          "type": "uint256"
        },
        {
          "internalType": "uint256",
          "name": "treasuryPct",
          "type": "uint256"
        },
        {
          "internalType": "uint256",
          "name": "lockedPct",
          "type": "uint256"
        },
        {
          "internalType": "uint256",
          "name": "allowanceAmount",
          "type": "uint256"
        },
        {
          "internalType": "uint256",
          "name": "allowancePeriod",
          "type": "uint256"
        }
      ],
      "name": "deployRouter",
      "outputs": [
        {
          "internalType": "address",
          "name": "",
          "type": "address"
        }
      ],
      "stateMutability": "nonpayable",
      "type": "function"
    },
    {
      "inputs": [
        {
          "internalType": "address",
          "name": "user",
          "type": "address"
        }
      ],
      "name": "getUserRouters",
      "outputs": [
        {
          "internalType": "address[]",
          "name": "",
          "type": "address[]"
        }
      ],
      "stateMutability": "view",
      "type": "function"
    },
    {
      "inputs": [
        {
          "internalType": "address",
          "name": "token",
          "type": "address"
        }
      ],
      "name": "getVault",
      "outputs": [
        {
          "internalType": "address",
          "name": "",
          "type": "address"
        }
      ],
      "stateMutability": "view",
      "type": "function"
    },
    {
      "inputs": [],
      "name": "owner",
      "outputs": [
        {
          "internalType": "address",
          "name": "",
          "type": "address"
        }
      ],
      "stateMutability": "view",
      "type": "function"
    },
    {
      "inputs": [],
      "name": "routerImplementation",
      "outputs": [
        {
          "internalType": "address",
          "name": "",
          "type": "address"
        }
      ],
      "stateMutability": "view",
      "type": "function"
    },
    {
      "inputs": [
        {
          "internalType": "address",
          "name": "",
          "type": "address"
        }
      ],
      "name": "tokenToVault",
      "outputs": [
        {
          "internalType": "address",
          "name": "",
          "type": "address"
        }
      ],
      "stateMutability": "view",
      "type": "function"
    },
    {
      "inputs": [
        {
          "internalType": "address",
          "name": "",
          "type": "address"
        },
        {
          "internalType": "uint256",
          "name": "",
          "type": "uint256"
        }
      ],
      "name": "userRouters",
      "outputs": [
        {
          "internalType": "address",
          "name": "",
          "type": "address"
        }
      ],
      "stateMutability": "view",
      "type": "function"
    },
    {
      "inputs": [
        {
          "internalType": "address",
          "name": "token",
          "type": "address"
        },
        {
          "internalType": "address",
          "name": "vault",
          "type": "address"
        }
      ],
      "name": "whitelistVault",
      "outputs": [],
      "stateMutability": "nonpayable",
      "type": "function"
    }
  ],
  "bytecode": "0x6080604052348015600e575f5ffd5b50604051610693380380610693833981016040819052602b916082565b6001600160a01b03811660515760405163d92e233d60e01b815260040160405180910390fd5b5f8054336001600160a01b031991821617909155600180549091166001600160a01b039290921691909117905560ad565b5f602082840312156091575f5ffd5b81516001600160a01b038116811460a6575f5ffd5b9392505050565b6105d9806100ba5f395ff3fe608060405234801561000f575f5ffd5b5060043610610085575f3560e01c80633f31883e116100585780633f31883e1461011f5780635ea263bd1461013f5780638da5cb5b14610152578063cdbcef1e14610164575f5ffd5b80630c7e1725146100895780630eb9af38146100ce5780633d7698c7146100f95780633da750451461010c575b5f5ffd5b6100b16100973660046104a8565b60026020525f90815260409020546001600160a01b031681565b6040516001600160a01b0390911681526020015b60405180910390f35b6100b16100dc3660046104a8565b6001600160a01b039081165f908152600260205260409020541690565b6001546100b1906001600160a01b031681565b6100b161011a3660046104c8565b610179565b61013261012d3660046104a8565b6101ad565b6040516100c591906104f0565b6100b161014d36600461053b565b610220565b5f546100b1906001600160a01b031681565b610177610172366004610572565b61032a565b005b6003602052815f5260405f208181548110610192575f80fd5b5f918252602090912001546001600160a01b03169150829050565b6001600160a01b0381165f9081526003602090815260409182902080548351818402810184019094528084526060939283018282801561021457602002820191905f5260205f20905b81546001600160a01b031681526001909101906020018083116101f6575b50505050509050919050565b6001545f908190610239906001600160a01b03166103e4565b6040516376dfa56160e11b815233600482015230602482015260448101899052606481018890526084810187905260a4810186905260c481018590529091506001600160a01b0382169063edbf4ac29060e4015f604051808303815f87803b1580156102a3575f5ffd5b505af11580156102b5573d5f5f3e3d5ffd5b5050335f818152600360209081526040808320805460018101825590845291832090910180546001600160a01b0319166001600160a01b03881690811790915590519094509192507f340ce484a1dde36bcd544566790af4d1803d85b4438e5860f745aef861253bc091a39695505050505050565b5f546001600160a01b03163314610353576040516282b42960e81b815260040160405180910390fd5b6001600160a01b038216158061037057506001600160a01b038116155b1561038e5760405163d92e233d60e01b815260040160405180910390fd5b6001600160a01b038281165f8181526002602052604080822080546001600160a01b0319169486169485179055517f9e35e06e38b6730236ee83c76530c7983fe2427cc419950768aca3552c1167129190a35050565b5f6103ef825f6103f5565b92915050565b5f814710156104245760405163cf47918160e01b81524760048201526024810183905260440160405180910390fd5b763d602d80600a3d3981f3363d3d373d3d3d363d730000008360601b60e81c175f526e5af43d82803e903d91602b57fd5bf38360781b176020526037600983f090506001600160a01b0381166103ef5760405163b06ebf3d60e01b815260040160405180910390fd5b80356001600160a01b03811681146104a3575f5ffd5b919050565b5f602082840312156104b8575f5ffd5b6104c18261048d565b9392505050565b5f5f604083850312156104d9575f5ffd5b6104e28361048d565b946020939093013593505050565b602080825282518282018190525f918401906040840190835b818110156105305783516001600160a01b0316835260209384019390920191600101610509565b509095945050505050565b5f5f5f5f5f60a0868803121561054f575f5ffd5b505083359560208501359550604085013594606081013594506080013592509050565b5f5f60408385031215610583575f5ffd5b61058c8361048d565b915061059a6020840161048d565b9050925092905056fea2646970667358221220b6c0de7b3b7fae8a3cad78bee7f990f9ef622c6a785538d7d25dc567cb942b9e64736f6c634300081c0033",
  "linkReferences": {},
  "deployedLinkReferences": {},
  "immutableReferences": {},
  "inputSourceName": "project/contracts/RouterFactory.sol",
  "buildInfoId": "solc-0_8_28-4c53f3ac6b90ddba78830664251aa4e3eed12d70"
}