{
  "_format": "hh3-artifact-1",
  "contractName": "RouterFactory",
  "sourceName": "contracts/RouterFactory.sol",
  "abi": [
    {
      "inputs": [
        {
          "internalType": "address",
          "name": "_routerImplementation",
          "type": "address"
        }
      ],
      "stateMutability": "nonpayable",
      "type": "constructor"
    },
    {
      "inputs": [],
      "name": "FailedDeployment",
      "type": "error"
    },
    {
      "inputs": [
        {
          "internalType": "uint256",
          "name": "balance",
          "type": "uint256"
        },
        {
          "internalType": "uint256",
          "name": "needed",
          "type": "uint256"
        }
      ],
      "name": "InsufficientBalance",
      "type": "error"
    },
    {
      "inputs": [],
      "name": "NoPendingOwner",
      "type": "error"
    },
    {
      "inputs": [],
      "name": "Unauthorized",
      "type": "error"
    },
    {
      "inputs": [],
      "name": "ZeroAddress",
      "type": "error"
    },
    {
      "anonymous": false,
      "inputs": [
        {
          "indexed": true,
          "internalType": "address",
          "name": "oldImpl",
          "type": "address"
        },
        {
          "indexed": true,
          "internalType": "address",
          "name": "newImpl",
          "type": "address"
        }
      ],
      "name": "ImplementationUpdated",
      "type": "event"
    },
    {
      "anonymous": false,
      "inputs": [
        {
          "indexed": true,
          "internalType": "address",
          "name": "previousOwner",
          "type": "address"
        },
        {
          "indexed": true,
          "internalType": "address",
          "name": "newOwner",
          "type": "address"
        }
      ],
      "name": "OwnershipTransferStarted",
      "type": "event"
    },
    {
      "anonymous": false,
      "inputs": [
        {
          "indexed": true,
          "internalType": "address",
          "name": "previousOwner",
          "type": "address"
        },
        {
          "indexed": true,
          "internalType": "address",
          "name": "newOwner",
          "type": "address"
        }
      ],
      "name": "OwnershipTransferred",
      "type": "event"
    },
    {
      "anonymous": false,
      "inputs": [
        {
          "indexed": true,
          "internalType": "address",
          "name": "owner",
          "type": "address"
        },
        {
          "indexed": true,
          "internalType": "address",
          "name": "router",
          "type": "address"
        }
      ],
      "name": "RouterDeployed",
      "type": "event"
    },
    {
      "anonymous": false,
      "inputs": [
        {
          "indexed": true,
          "internalType": "address",
          "name": "token",
          "type": "address"
        },
        {
          "indexed": true,
          "internalType": "address",
          "name": "vault",
          "type": "address"
        }
      ],
      "name": "VaultWhitelisted",
      "type": "event"
    },
    {
      "inputs": [],
      "name": "acceptOwnership",
      "outputs": [],
      "stateMutability": "nonpayable",
      "type": "function"
    },
    {
      "inputs": [
        {
          "internalType": "uint256",
          "name": "operatingPct",
          "type": "uint256"
        },
        {
          "internalType": "uint256",
          "name": "treasuryPct",
          "type": "uint256"
        },
        {
          "internalType": "uint256",
          "name": "lockedPct",
          "type": "uint256"
        },
        {
          "internalType": "uint256",
          "name": "allowanceAmount",
          "type": "uint256"
        },
        {
          "internalType": "uint256",
          "name": "allowancePeriod",
          "type": "uint256"
        }
      ],
      "name": "deployRouter",
      "outputs": [
        {
          "internalType": "address",
          "name": "",
          "type": "address"
        }
      ],
      "stateMutability": "nonpayable",
      "type": "function"
    },
    {
      "inputs": [
        {
          "internalType": "address",
          "name": "user",
          "type": "address"
        }
      ],
      "name": "getUserRouters",
      "outputs": [
        {
          "internalType": "address[]",
          "name": "",
          "type": "address[]"
        }
      ],
      "stateMutability": "view",
      "type": "function"
    },
    {
      "inputs": [
        {
          "internalType": "address",
          "name": "token",
          "type": "address"
        }
      ],
      "name": "getVault",
      "outputs": [
        {
          "internalType": "address",
          "name": "",
          "type": "address"
        }
      ],
      "stateMutability": "view",
      "type": "function"
    },
    {
      "inputs": [],
      "name": "owner",
      "outputs": [
        {
          "internalType": "address",
          "name": "",
          "type": "address"
        }
      ],
      "stateMutability": "view",
      "type": "function"
    },
    {
      "inputs": [],
      "name": "pendingOwner",
      "outputs": [
        {
          "internalType": "address",
          "name": "",
          "type": "address"
        }
      ],
      "stateMutability": "view",
      "type": "function"
    },
    {
      "inputs": [],
      "name": "routerImplementation",
      "outputs": [
        {
          "internalType": "address",
          "name": "",
          "type": "address"
        }
      ],
      "stateMutability": "view",
      "type": "function"
    },
    {
      "inputs": [
        {
          "internalType": "address",
          "name": "",
          "type": "address"
        }
      ],
      "name": "tokenToVault",
      "outputs": [
        {
          "internalType": "address",
          "name": "",
          "type": "address"
        }
      ],
      "stateMutability": "view",
      "type": "function"
    },
    {
      "inputs": [
        {
          "internalType": "address",
          "name": "newOwner",
          "type": "address"
        }
      ],
      "name": "transferOwnership",
      "outputs": [],
      "stateMutability": "nonpayable",
      "type": "function"
    },
    {
      "inputs": [
        {
          "internalType": "address",
          "name": "newImplementation",
          "type": "address"
        }
      ],
      "name": "updateImplementation",
      "outputs": [],
      "stateMutability": "nonpayable",
      "type": "function"
    },
    {
      "inputs": [
        {
          "internalType": "address",
          "name": "",
          "type": "address"
        },
        {
          "internalType": "uint256",
          "name": "",
          "type": "uint256"
        }
      ],
      "name": "userRouters",
      "outputs": [
        {
          "internalType": "address",
          "name": "",
          "type": "address"
        }
      ],
      "stateMutability": "view",
      "type": "function"
    },
    {
      "inputs": [
        {
          "internalType": "address",
          "name": "token",
          "type": "address"
        },
        {
          "internalType": "address",
          "name": "vault",
          "type": "address"
        }
      ],
      "name": "whitelistVault",
      "outputs": [],
      "stateMutability": "nonpayable",
      "type": "function"
    }
  ],
  "bytecode": "0x6080604052348015600e575f5ffd5b506040516108c53803806108c5833981016040819052602b916082565b6001600160a01b03811660515760405163d92e233d60e01b815260040160405180910390fd5b5f8054336001600160a01b031991821617909155600280549091166001600160a01b039290921691909117905560ad565b5f602082840312156091575f5ffd5b81516001600160a01b038116811460a6575f5ffd5b9392505050565b61080b806100ba5f395ff3fe608060405234801561000f575f5ffd5b50600436106100b1575f3560e01c80635ea263bd1161006e5780635ea263bd1461018057806379ba5097146101935780638da5cb5b1461019b578063cdbcef1e146101ad578063e30c3978146101c0578063f2fde38b146101d3575f5ffd5b8063025b22bc146100b55780630c7e1725146100ca5780630eb9af381461010f5780633d7698c71461013a5780633da750451461014d5780633f31883e14610160575b5f5ffd5b6100c86100c33660046106da565b6101e6565b005b6100f26100d83660046106da565b60036020525f90815260409020546001600160a01b031681565b6040516001600160a01b0390911681526020015b60405180910390f35b6100f261011d3660046106da565b6001600160a01b039081165f908152600360205260409020541690565b6002546100f2906001600160a01b031681565b6100f261015b3660046106fa565b610287565b61017361016e3660046106da565b6102bb565b6040516101069190610722565b6100f261018e36600461076d565b61032e565b6100c8610438565b5f546100f2906001600160a01b031681565b6100c86101bb3660046107a4565b6104bc565b6001546100f2906001600160a01b031681565b6100c86101e13660046106da565b610576565b5f546001600160a01b0316331461020f576040516282b42960e81b815260040160405180910390fd5b6001600160a01b0381166102365760405163d92e233d60e01b815260040160405180910390fd5b600280546001600160a01b038381166001600160a01b0319831681179093556040519116919082907faa3f731066a578e5f39b4215468d826cdd15373cbc0dfc9cb9bdc649718ef7da905f90a35050565b6004602052815f5260405f2081815481106102a0575f80fd5b5f918252602090912001546001600160a01b03169150829050565b6001600160a01b0381165f9081526004602090815260409182902080548351818402810184019094528084526060939283018282801561032257602002820191905f5260205f20905b81546001600160a01b03168152600190910190602001808311610304575b50505050509050919050565b6002545f908190610347906001600160a01b0316610616565b6040516376dfa56160e11b815233600482015230602482015260448101899052606481018890526084810187905260a4810186905260c481018590529091506001600160a01b0382169063edbf4ac29060e4015f604051808303815f87803b1580156103b1575f5ffd5b505af11580156103c3573d5f5f3e3d5ffd5b5050335f818152600460209081526040808320805460018101825590845291832090910180546001600160a01b0319166001600160a01b03881690811790915590519094509192507f340ce484a1dde36bcd544566790af4d1803d85b4438e5860f745aef861253bc091a39695505050505050565b6001546001600160a01b0316331461046357604051633e31d61b60e11b815260040160405180910390fd5b5f8054600180546001600160a01b038082166001600160a01b031980861682178755909216909255604051919092169283917f8be0079c531659141344cd1fd0a4f28419497f9722a3daafe3b4186f6b6457e09190a350565b5f546001600160a01b031633146104e5576040516282b42960e81b815260040160405180910390fd5b6001600160a01b038216158061050257506001600160a01b038116155b156105205760405163d92e233d60e01b815260040160405180910390fd5b6001600160a01b038281165f8181526003602052604080822080546001600160a01b0319169486169485179055517f9e35e06e38b6730236ee83c76530c7983fe2427cc419950768aca3552c1167129190a35050565b5f546001600160a01b0316331461059f576040516282b42960e81b815260040160405180910390fd5b6001600160a01b0381166105c65760405163d92e233d60e01b815260040160405180910390fd5b600180546001600160a01b0319166001600160a01b038381169182179092555f8054604051929316917f38d16b8cac22d99fc7c124b9cd0de2d3fa1faef420bfe791d8c362d765e227009190a350565b5f610621825f610627565b92915050565b5f814710156106565760405163cf47918160e01b81524760048201526024810183905260440160405180910390fd5b763d602d80600a3d3981f3363d3d373d3d3d363d730000008360601b60e81c175f526e5af43d82803e903d91602b57fd5bf38360781b176020526037600983f090506001600160a01b0381166106215760405163b06ebf3d60e01b815260040160405180910390fd5b80356001600160a01b03811681146106d5575f5ffd5b919050565b5f602082840312156106ea575f5ffd5b6106f3826106bf565b9392505050565b5f5f6040838503121561070b575f5ffd5b610714836106bf565b946020939093013593505050565b602080825282518282018190525f918401906040840190835b818110156107625783516001600160a01b031683526020938401939092019160010161073b565b509095945050505050565b5f5f5f5f5f60a08688031215610781575f5ffd5b505083359560208501359550604085013594606081013594506080013592509050565b5f5f604083850312156107b5575f5ffd5b6107be836106bf565b91506107cc602084016106bf565b9050925092905056fea2646970667358221220f5de8f49f6632c6bc703d59369a5ae0fc5e3639a9cdcd98a96e8a52f0ad99ba164736f6c634300081c0033",
  "linkReferences": {},
  "deployedLinkReferences": {},
  "immutableReferences": {},
  "inputSourceName": "project/contracts/RouterFactory.sol",
  "buildInfoId": "solc-0_8_28-217be2687bc484f31b14f1de8c2117784ed2f16c"
}